{
  "contracts/phoneLink.sol": {
    "phoneLink": {
      "abi": [
        {
          "anonymous": false,
          "inputs": [
            {
              "indexed": true,
              "internalType": "address",
              "name": "owner",
              "type": "address"
            },
            {
              "indexed": true,
              "internalType": "address",
              "name": "spender",
              "type": "address"
            },
            {
              "indexed": false,
              "internalType": "uint256",
              "name": "value",
              "type": "uint256"
            }
          ],
          "name": "Approval",
          "type": "event"
        },
        {
          "anonymous": false,
          "inputs": [
            {
              "indexed": true,
              "internalType": "string",
              "name": "name",
              "type": "string"
            },
            {
              "indexed": true,
              "internalType": "string",
              "name": "identifier",
              "type": "string"
            },
            {
              "indexed": true,
              "internalType": "string",
              "name": "typeOfIdentifier",
              "type": "string"
            },
            {
              "indexed": false,
              "internalType": "address",
              "name": "connectedWalletAddress",
              "type": "address"
            },
            {
              "indexed": false,
              "internalType": "bool",
              "name": "isPrimaryWallet",
              "type": "bool"
            }
          ],
          "name": "DetailsCreated",
          "type": "event"
        },
        {
          "anonymous": false,
          "inputs": [
            {
              "indexed": true,
              "internalType": "address",
              "name": "from",
              "type": "address"
            },
            {
              "indexed": true,
              "internalType": "address",
              "name": "to",
              "type": "address"
            },
            {
              "indexed": false,
              "internalType": "uint256",
              "name": "value",
              "type": "uint256"
            }
          ],
          "name": "Transfer",
          "type": "event"
        },
        {
          "inputs": [],
          "name": "_itemIds",
          "outputs": [
            {
              "internalType": "uint256",
              "name": "_value",
              "type": "uint256"
            }
          ],
          "stateMutability": "view",
          "type": "function"
        },
        {
          "inputs": [
            {
              "internalType": "address",
              "name": "owner",
              "type": "address"
            },
            {
              "internalType": "address",
              "name": "spender",
              "type": "address"
            }
          ],
          "name": "allowance",
          "outputs": [
            {
              "internalType": "uint256",
              "name": "",
              "type": "uint256"
            }
          ],
          "stateMutability": "view",
          "type": "function"
        },
        {
          "inputs": [
            {
              "internalType": "address",
              "name": "spender",
              "type": "address"
            },
            {
              "internalType": "uint256",
              "name": "amount",
              "type": "uint256"
            }
          ],
          "name": "approve",
          "outputs": [
            {
              "internalType": "bool",
              "name": "",
              "type": "bool"
            }
          ],
          "stateMutability": "nonpayable",
          "type": "function"
        },
        {
          "inputs": [
            {
              "internalType": "address",
              "name": "account",
              "type": "address"
            }
          ],
          "name": "balanceOf",
          "outputs": [
            {
              "internalType": "uint256",
              "name": "",
              "type": "uint256"
            }
          ],
          "stateMutability": "view",
          "type": "function"
        },
        {
          "inputs": [],
          "name": "decimals",
          "outputs": [
            {
              "internalType": "uint8",
              "name": "",
              "type": "uint8"
            }
          ],
          "stateMutability": "view",
          "type": "function"
        },
        {
          "inputs": [
            {
              "internalType": "address",
              "name": "spender",
              "type": "address"
            },
            {
              "internalType": "uint256",
              "name": "subtractedValue",
              "type": "uint256"
            }
          ],
          "name": "decreaseAllowance",
          "outputs": [
            {
              "internalType": "bool",
              "name": "",
              "type": "bool"
            }
          ],
          "stateMutability": "nonpayable",
          "type": "function"
        },
        {
          "inputs": [
            {
              "internalType": "string",
              "name": "name",
              "type": "string"
            },
            {
              "internalType": "string",
              "name": "identifier",
              "type": "string"
            },
            {
              "internalType": "string",
              "name": "typeOfIdentifier",
              "type": "string"
            },
            {
              "internalType": "string",
              "name": "oldIdentifier",
              "type": "string"
            }
          ],
          "name": "editProfile",
          "outputs": [],
          "stateMutability": "nonpayable",
          "type": "function"
        },
        {
          "inputs": [
            {
              "internalType": "string",
              "name": "name",
              "type": "string"
            },
            {
              "internalType": "string",
              "name": "identifier",
              "type": "string"
            },
            {
              "internalType": "string",
              "name": "typeOfIdentifier",
              "type": "string"
            },
            {
              "internalType": "bool",
              "name": "isPrimaryWallet",
              "type": "bool"
            }
          ],
          "name": "enterDetails",
          "outputs": [],
          "stateMutability": "nonpayable",
          "type": "function"
        },
        {
          "inputs": [
            {
              "internalType": "string",
              "name": "userIdentifier",
              "type": "string"
            }
          ],
          "name": "fetchAllWalletAddress",
          "outputs": [
            {
              "components": [
                {
                  "internalType": "string",
                  "name": "name",
                  "type": "string"
                },
                {
                  "internalType": "string",
                  "name": "identifier",
                  "type": "string"
                },
                {
                  "internalType": "string",
                  "name": "typeOfIdentifier",
                  "type": "string"
                },
                {
                  "internalType": "address",
                  "name": "connectedWalletAddress",
                  "type": "address"
                },
                {
                  "internalType": "bool",
                  "name": "isPrimaryWallet",
                  "type": "bool"
                }
              ],
              "internalType": "struct phoneLink.Details[]",
              "name": "",
              "type": "tuple[]"
            }
          ],
          "stateMutability": "view",
          "type": "function"
        },
        {
          "inputs": [],
          "name": "getMarketOwner",
          "outputs": [
            {
              "internalType": "address payable",
              "name": "",
              "type": "address"
            }
          ],
          "stateMutability": "view",
          "type": "function"
        },
        {
          "inputs": [],
          "name": "getPhoneToDetails",
          "outputs": [
            {
              "components": [
                {
                  "internalType": "string",
                  "name": "name",
                  "type": "string"
                },
                {
                  "internalType": "string",
                  "name": "identifier",
                  "type": "string"
                },
                {
                  "internalType": "string",
                  "name": "typeOfIdentifier",
                  "type": "string"
                },
                {
                  "internalType": "address",
                  "name": "connectedWalletAddress",
                  "type": "address"
                },
                {
                  "internalType": "bool",
                  "name": "isPrimaryWallet",
                  "type": "bool"
                }
              ],
              "internalType": "struct phoneLink.Details[]",
              "name": "",
              "type": "tuple[]"
            }
          ],
          "stateMutability": "view",
          "type": "function"
        },
        {
          "inputs": [
            {
              "internalType": "address",
              "name": "walletAddress",
              "type": "address"
            }
          ],
          "name": "getWalletDetails",
          "outputs": [
            {
              "components": [
                {
                  "internalType": "string",
                  "name": "name",
                  "type": "string"
                },
                {
                  "internalType": "string",
                  "name": "identifier",
                  "type": "string"
                },
                {
                  "internalType": "string",
                  "name": "typeOfIdentifier",
                  "type": "string"
                },
                {
                  "internalType": "address",
                  "name": "connectedWalletAddress",
                  "type": "address"
                },
                {
                  "internalType": "bool",
                  "name": "isPrimaryWallet",
                  "type": "bool"
                }
              ],
              "internalType": "struct phoneLink.Details[]",
              "name": "",
              "type": "tuple[]"
            }
          ],
          "stateMutability": "view",
          "type": "function"
        },
        {
          "inputs": [
            {
              "internalType": "address",
              "name": "spender",
              "type": "address"
            },
            {
              "internalType": "uint256",
              "name": "addedValue",
              "type": "uint256"
            }
          ],
          "name": "increaseAllowance",
          "outputs": [
            {
              "internalType": "bool",
              "name": "",
              "type": "bool"
            }
          ],
          "stateMutability": "nonpayable",
          "type": "function"
        },
        {
          "inputs": [],
          "name": "initialize",
          "outputs": [],
          "stateMutability": "nonpayable",
          "type": "function"
        },
        {
          "inputs": [],
          "name": "marketowner",
          "outputs": [
            {
              "internalType": "address payable",
              "name": "",
              "type": "address"
            }
          ],
          "stateMutability": "view",
          "type": "function"
        },
        {
          "inputs": [],
          "name": "name",
          "outputs": [
            {
              "internalType": "string",
              "name": "",
              "type": "string"
            }
          ],
          "stateMutability": "view",
          "type": "function"
        },
        {
          "inputs": [
            {
              "internalType": "uint256",
              "name": "",
              "type": "uint256"
            }
          ],
          "name": "phoneToDetails",
          "outputs": [
            {
              "internalType": "string",
              "name": "name",
              "type": "string"
            },
            {
              "internalType": "string",
              "name": "identifier",
              "type": "string"
            },
            {
              "internalType": "string",
              "name": "typeOfIdentifier",
              "type": "string"
            },
            {
              "internalType": "address",
              "name": "connectedWalletAddress",
              "type": "address"
            },
            {
              "internalType": "bool",
              "name": "isPrimaryWallet",
              "type": "bool"
            }
          ],
          "stateMutability": "view",
          "type": "function"
        },
        {
          "inputs": [
            {
              "internalType": "address",
              "name": "destination",
              "type": "address"
            },
            {
              "internalType": "uint256",
              "name": "amount",
              "type": "uint256"
            }
          ],
          "name": "sendToken",
          "outputs": [],
          "stateMutability": "payable",
          "type": "function"
        },
        {
          "inputs": [],
          "name": "symbol",
          "outputs": [
            {
              "internalType": "string",
              "name": "",
              "type": "string"
            }
          ],
          "stateMutability": "view",
          "type": "function"
        },
        {
          "inputs": [],
          "name": "totalSupply",
          "outputs": [
            {
              "internalType": "uint256",
              "name": "",
              "type": "uint256"
            }
          ],
          "stateMutability": "view",
          "type": "function"
        },
        {
          "inputs": [
            {
              "internalType": "address",
              "name": "to",
              "type": "address"
            },
            {
              "internalType": "uint256",
              "name": "amount",
              "type": "uint256"
            }
          ],
          "name": "transfer",
          "outputs": [
            {
              "internalType": "bool",
              "name": "",
              "type": "bool"
            }
          ],
          "stateMutability": "nonpayable",
          "type": "function"
        },
        {
          "inputs": [
            {
              "internalType": "address",
              "name": "from",
              "type": "address"
            },
            {
              "internalType": "address",
              "name": "to",
              "type": "address"
            },
            {
              "internalType": "uint256",
              "name": "amount",
              "type": "uint256"
            }
          ],
          "name": "transferFrom",
          "outputs": [
            {
              "internalType": "bool",
              "name": "",
              "type": "bool"
            }
          ],
          "stateMutability": "nonpayable",
          "type": "function"
        }
      ],
      "evm": {
        "bytecode": {
          "linkReferences": {},
          "object": "608060405234801561001057600080fd5b50613804806100206000396000f3fe6080604052600436106101355760003560e01c80635a12d0f8116100ab5780638cae45d21161006f5780638cae45d21461043557806395d89b4114610472578063a457c2d71461049d578063a9059cbb146104da578063dd62ed3e14610517578063fcb02e731461055457610135565b80635a12d0f81461034e5780635e385b92146103795780636e997665146103a457806370a08231146103e15780638129fc1c1461041e57610135565b806334a7f193116100fd57806334a7f1931461023557806339509351146102605780633e3a648d1461029d578063412664ae146102c6578063451e9cf0146102e257806352d954911461030d57610135565b806306fdde031461013a578063095ea7b31461016557806318160ddd146101a257806323b872dd146101cd578063313ce5671461020a575b600080fd5b34801561014657600080fd5b5061014f61057d565b60405161015c9190612fe3565b60405180910390f35b34801561017157600080fd5b5061018c6004803603810190610187919061294d565b61060f565b6040516101999190612fc8565b60405180910390f35b3480156101ae57600080fd5b506101b7610632565b6040516101c4919061318d565b60405180910390f35b3480156101d957600080fd5b506101f460048036038101906101ef91906128fe565b61063c565b6040516102019190612fc8565b60405180910390f35b34801561021657600080fd5b5061021f61066b565b60405161022c91906131a8565b60405180910390f35b34801561024157600080fd5b5061024a610674565b604051610257919061318d565b60405180910390f35b34801561026c57600080fd5b506102876004803603810190610282919061294d565b610680565b6040516102949190612fc8565b60405180910390f35b3480156102a957600080fd5b506102c460048036038101906102bf9190612a75565b61072a565b005b6102e060048036038101906102db919061294d565b610966565b005b3480156102ee57600080fd5b506102f76109b1565b6040516103049190612f62565b60405180910390f35b34801561031957600080fd5b50610334600480360381019061032f9190612b38565b6109db565b604051610345959493929190613005565b60405180910390f35b34801561035a57600080fd5b50610363610bd6565b6040516103709190612fa6565b60405180910390f35b34801561038557600080fd5b5061038e610f2c565b60405161039b9190612f62565b60405180910390f35b3480156103b057600080fd5b506103cb60048036038101906103c69190612989565b610f52565b6040516103d89190612fa6565b60405180910390f35b3480156103ed57600080fd5b5061040860048036038101906104039190612899565b6113d8565b604051610415919061318d565b60405180910390f35b34801561042a57600080fd5b50610433611421565b005b34801561044157600080fd5b5061045c60048036038101906104579190612899565b61156e565b6040516104699190612fa6565b60405180910390f35b34801561047e57600080fd5b5061048761193c565b6040516104949190612fe3565b60405180910390f35b3480156104a957600080fd5b506104c460048036038101906104bf919061294d565b6119ce565b6040516104d19190612fc8565b60405180910390f35b3480156104e657600080fd5b5061050160048036038101906104fc919061294d565b611ab8565b60405161050e9190612fc8565b60405180910390f35b34801561052357600080fd5b5061053e600480360381019061053991906128c2565b611adb565b60405161054b919061318d565b60405180910390f35b34801561056057600080fd5b5061057b600480360381019061057691906129ca565b611b62565b005b60606036805461058c9061339e565b80601f01602080910402602001604051908101604052809291908181526020018280546105b89061339e565b80156106055780601f106105da57610100808354040283529160200191610605565b820191906000526020600020905b8154815290600101906020018083116105e857829003601f168201915b5050505050905090565b60008061061a6120e5565b90506106278185856120ed565b600191505092915050565b6000603554905090565b6000806106476120e5565b90506106548582856122b8565b61065f858585612344565b60019150509392505050565b60006012905090565b60668060000154905081565b60008061068b6120e5565b905061071f818585603460008673ffffffffffffffffffffffffffffffffffffffff1673ffffffffffffffffffffffffffffffffffffffff16815260200190815260200160002060008973ffffffffffffffffffffffffffffffffffffffff1673ffffffffffffffffffffffffffffffffffffffff1681526020019081526020016000205461071a919061329f565b6120ed565b600191505092915050565b600061073660666125c8565b905060005b8181101561095e573373ffffffffffffffffffffffffffffffffffffffff166067600060018461076b919061329f565b815260200190815260200160002060030160009054906101000a900473ffffffffffffffffffffffffffffffffffffffff1673ffffffffffffffffffffffffffffffffffffffff16141561094b57836040516020016107ca9190612f34565b60405160208183030381529060405280519060200120606760006001846107f1919061329f565b81526020019081526020016000206002016040516020016108129190612f4b565b60405160208183030381529060405280519060200120141561094a578260405160200161083f9190612f34565b6040516020818303038152906040528051906020012060676000600184610866919061329f565b81526020019081526020016000206001016040516020016108879190612f4b565b6040516020818303038152906040528051906020012014156109495785606760006001846108b5919061329f565b815260200190815260200160002060000190805190602001906108d9929190612708565b5084606760006001846108ec919061329f565b81526020019081526020016000206001019080519060200190610910929190612708565b508360676000600184610923919061329f565b81526020019081526020016000206002019080519060200190610947929190612708565b505b5b5b808061095690613401565b91505061073b565b505050505050565b8173ffffffffffffffffffffffffffffffffffffffff166108fc829081150290604051600060405180830381858888f193505050501580156109ac573d6000803e3d6000fd5b505050565b6000606560009054906101000a900473ffffffffffffffffffffffffffffffffffffffff16905090565b60676020528060005260406000206000915090508060000180546109fe9061339e565b80601f0160208091040260200160405190810160405280929190818152602001828054610a2a9061339e565b8015610a775780601f10610a4c57610100808354040283529160200191610a77565b820191906000526020600020905b815481529060010190602001808311610a5a57829003601f168201915b505050505090806001018054610a8c9061339e565b80601f0160208091040260200160405190810160405280929190818152602001828054610ab89061339e565b8015610b055780601f10610ada57610100808354040283529160200191610b05565b820191906000526020600020905b815481529060010190602001808311610ae857829003601f168201915b505050505090806002018054610b1a9061339e565b80601f0160208091040260200160405190810160405280929190818152602001828054610b469061339e565b8015610b935780601f10610b6857610100808354040283529160200191610b93565b820191906000526020600020905b815481529060010190602001808311610b7657829003601f168201915b5050505050908060030160009054906101000a900473ffffffffffffffffffffffffffffffffffffffff16908060030160149054906101000a900460ff16905085565b60606000610be460666125c8565b905060008167ffffffffffffffff811115610c28577f4e487b7100000000000000000000000000000000000000000000000000000000600052604160045260246000fd5b604051908082528060200260200182016040528015610c6157816020015b610c4e61278e565b815260200190600190039081610c465790505b50905060005b82811015610f23576000600182610c7e919061329f565b90506000606760008381526020019081526020016000209050806040518060a0016040529081600082018054610cb39061339e565b80601f0160208091040260200160405190810160405280929190818152602001828054610cdf9061339e565b8015610d2c5780601f10610d0157610100808354040283529160200191610d2c565b820191906000526020600020905b815481529060010190602001808311610d0f57829003601f168201915b50505050508152602001600182018054610d459061339e565b80601f0160208091040260200160405190810160405280929190818152602001828054610d719061339e565b8015610dbe5780601f10610d9357610100808354040283529160200191610dbe565b820191906000526020600020905b815481529060010190602001808311610da157829003601f168201915b50505050508152602001600282018054610dd79061339e565b80601f0160208091040260200160405190810160405280929190818152602001828054610e039061339e565b8015610e505780601f10610e2557610100808354040283529160200191610e50565b820191906000526020600020905b815481529060010190602001808311610e3357829003601f168201915b505050505081526020016003820160009054906101000a900473ffffffffffffffffffffffffffffffffffffffff1673ffffffffffffffffffffffffffffffffffffffff1673ffffffffffffffffffffffffffffffffffffffff1681526020016003820160149054906101000a900460ff161515151581525050848481518110610f03577f4e487b7100000000000000000000000000000000000000000000000000000000600052603260045260246000fd5b602002602001018190525050508080610f1b90613401565b915050610c67565b50809250505090565b606560009054906101000a900473ffffffffffffffffffffffffffffffffffffffff1681565b60606000610f6060666125c8565b905060008060005b838110156110085785604051602001610f819190612f34565b6040516020818303038152906040528051906020012060676000600184610fa8919061329f565b8152602001908152602001600020600101604051602001610fc99190612f4b565b604051602081830303815290604052805190602001201415610ff557600183610ff2919061329f565b92505b808061100090613401565b915050610f68565b5060008267ffffffffffffffff81111561104b577f4e487b7100000000000000000000000000000000000000000000000000000000600052604160045260246000fd5b60405190808252806020026020018201604052801561108457816020015b61107161278e565b8152602001906001900390816110695790505b50905060005b848110156113cb57866040516020016110a39190612f34565b60405160208183030381529060405280519060200120606760006001846110ca919061329f565b81526020019081526020016000206001016040516020016110eb9190612f4b565b6040516020818303038152906040528051906020012014156113b8576000600182611116919061329f565b90506000606760008381526020019081526020016000209050806040518060a001604052908160008201805461114b9061339e565b80601f01602080910402602001604051908101604052809291908181526020018280546111779061339e565b80156111c45780601f10611199576101008083540402835291602001916111c4565b820191906000526020600020905b8154815290600101906020018083116111a757829003601f168201915b505050505081526020016001820180546111dd9061339e565b80601f01602080910402602001604051908101604052809291908181526020018280546112099061339e565b80156112565780601f1061122b57610100808354040283529160200191611256565b820191906000526020600020905b81548152906001019060200180831161123957829003601f168201915b5050505050815260200160028201805461126f9061339e565b80601f016020809104026020016040519081016040528092919081815260200182805461129b9061339e565b80156112e85780601f106112bd576101008083540402835291602001916112e8565b820191906000526020600020905b8154815290600101906020018083116112cb57829003601f168201915b505050505081526020016003820160009054906101000a900473ffffffffffffffffffffffffffffffffffffffff1673ffffffffffffffffffffffffffffffffffffffff1673ffffffffffffffffffffffffffffffffffffffff1681526020016003820160149054906101000a900460ff16151515158152505084868151811061139b577f4e487b7100000000000000000000000000000000000000000000000000000000600052603260045260246000fd5b60200260200101819052506001856113b3919061329f565b945050505b80806113c390613401565b91505061108a565b5080945050505050919050565b6000603360008373ffffffffffffffffffffffffffffffffffffffff1673ffffffffffffffffffffffffffffffffffffffff168152602001908152602001600020549050919050565b600060019054906101000a900460ff166114495760008054906101000a900460ff1615611452565b6114516125d6565b5b611491576040517f08c379a0000000000000000000000000000000000000000000000000000000008152600401611488906130ed565b60405180910390fd5b60008060019054906101000a900460ff1615905080156114e1576001600060016101000a81548160ff02191690831515021790555060016000806101000a81548160ff0219169083151502179055505b61150960405180602001604052806000815250604051806020016040528060008152506125e7565b33606560006101000a81548173ffffffffffffffffffffffffffffffffffffffff021916908373ffffffffffffffffffffffffffffffffffffffff160217905550801561156b5760008060016101000a81548160ff0219169083151502179055505b50565b6060600061157c60666125c8565b90506000600167ffffffffffffffff8111156115c1577f4e487b7100000000000000000000000000000000000000000000000000000000600052604160045260246000fd5b6040519080825280602002602001820160405280156115fa57816020015b6115e761278e565b8152602001906001900390816115df5790505b50905060005b82811015611931578473ffffffffffffffffffffffffffffffffffffffff1660676000600184611630919061329f565b815260200190815260200160002060030160009054906101000a900473ffffffffffffffffffffffffffffffffffffffff1673ffffffffffffffffffffffffffffffffffffffff16141561191e57600060676000600184611691919061329f565b81526020019081526020016000209050806040518060a00160405290816000820180546116bd9061339e565b80601f01602080910402602001604051908101604052809291908181526020018280546116e99061339e565b80156117365780601f1061170b57610100808354040283529160200191611736565b820191906000526020600020905b81548152906001019060200180831161171957829003601f168201915b5050505050815260200160018201805461174f9061339e565b80601f016020809104026020016040519081016040528092919081815260200182805461177b9061339e565b80156117c85780601f1061179d576101008083540402835291602001916117c8565b820191906000526020600020905b8154815290600101906020018083116117ab57829003601f168201915b505050505081526020016002820180546117e19061339e565b80601f016020809104026020016040519081016040528092919081815260200182805461180d9061339e565b801561185a5780601f1061182f5761010080835404028352916020019161185a565b820191906000526020600020905b81548152906001019060200180831161183d57829003601f168201915b505050505081526020016003820160009054906101000a900473ffffffffffffffffffffffffffffffffffffffff1673ffffffffffffffffffffffffffffffffffffffff1673ffffffffffffffffffffffffffffffffffffffff1681526020016003820160149054906101000a900460ff16151515158152505083838151811061190d577f4e487b7100000000000000000000000000000000000000000000000000000000600052603260045260246000fd5b602002602001018190525050611931565b808061192990613401565b915050611600565b508092505050919050565b60606037805461194b9061339e565b80601f01602080910402602001604051908101604052809291908181526020018280546119779061339e565b80156119c45780601f10611999576101008083540402835291602001916119c4565b820191906000526020600020905b8154815290600101906020018083116119a757829003601f168201915b5050505050905090565b6000806119d96120e5565b90506000603460008373ffffffffffffffffffffffffffffffffffffffff1673ffffffffffffffffffffffffffffffffffffffff16815260200190815260200160002060008673ffffffffffffffffffffffffffffffffffffffff1673ffffffffffffffffffffffffffffffffffffffff16815260200190815260200160002054905083811015611a9f576040517f08c379a0000000000000000000000000000000000000000000000000000000008152600401611a969061316d565b60405180910390fd5b611aac82868684036120ed565b60019250505092915050565b600080611ac36120e5565b9050611ad0818585612344565b600191505092915050565b6000603460008473ffffffffffffffffffffffffffffffffffffffff1673ffffffffffffffffffffffffffffffffffffffff16815260200190815260200160002060008373ffffffffffffffffffffffffffffffffffffffff1673ffffffffffffffffffffffffffffffffffffffff16815260200190815260200160002054905092915050565b611b6c6066612644565b6000611b7860666125c8565b9050600115158215151415611e80576000611b9285610f52565b905060005b8151811015611cc85760005b83811015611cb457828281518110611be4577f4e487b7100000000000000000000000000000000000000000000000000000000600052603260045260246000fd5b60200260200101516060015173ffffffffffffffffffffffffffffffffffffffff1660676000600184611c17919061329f565b815260200190815260200160002060030160009054906101000a900473ffffffffffffffffffffffffffffffffffffffff1673ffffffffffffffffffffffffffffffffffffffff161415611ca157600060676000600184611c78919061329f565b815260200190815260200160002060030160146101000a81548160ff0219169083151502179055505b8080611cac90613401565b915050611ba3565b508080611cc090613401565b915050611b97565b506000611cd43361156e565b905060005b8151811015611e7c576000611d31838381518110611d20577f4e487b7100000000000000000000000000000000000000000000000000000000600052603260045260246000fd5b602002602001015160200151610f52565b905060005b8151811015611e675760005b86811015611e5357828281518110611d83577f4e487b7100000000000000000000000000000000000000000000000000000000600052603260045260246000fd5b60200260200101516060015173ffffffffffffffffffffffffffffffffffffffff1660676000600184611db6919061329f565b815260200190815260200160002060030160009054906101000a900473ffffffffffffffffffffffffffffffffffffffff1673ffffffffffffffffffffffffffffffffffffffff161415611e4057600060676000600184611e17919061329f565b815260200190815260200160002060030160146101000a81548160ff0219169083151502179055505b8080611e4b90613401565b915050611d42565b508080611e5f90613401565b915050611d36565b50508080611e7490613401565b915050611cd9565b5050505b6040518060a001604052808681526020018581526020018481526020013373ffffffffffffffffffffffffffffffffffffffff168152602001831515815250606760008381526020019081526020016000206000820151816000019080519060200190611eee929190612708565b506020820151816001019080519060200190611f0b929190612708565b506040820151816002019080519060200190611f28929190612708565b5060608201518160030160006101000a81548173ffffffffffffffffffffffffffffffffffffffff021916908373ffffffffffffffffffffffffffffffffffffffff16021790555060808201518160030160146101000a81548160ff02191690831515021790555090505060005b81811015612062573373ffffffffffffffffffffffffffffffffffffffff1660676000600184611fc6919061329f565b815260200190815260200160002060030160009054906101000a900473ffffffffffffffffffffffffffffffffffffffff1673ffffffffffffffffffffffffffffffffffffffff16141561204f578260676000600184612026919061329f565b815260200190815260200160002060030160146101000a81548160ff0219169083151502179055505b808061205a90613401565b915050611f96565b50826040516120719190612f34565b6040518091039020846040516120879190612f34565b60405180910390208660405161209d9190612f34565b60405180910390207f2e3249f822bd56e4e9ae7d39402def6df4618c14f212fbe4c35e0c94eddef9fe33866040516120d6929190612f7d565b60405180910390a45050505050565b600033905090565b600073ffffffffffffffffffffffffffffffffffffffff168373ffffffffffffffffffffffffffffffffffffffff16141561215d576040517f08c379a00000000000000000000000000000000000000000000000000000000081526004016121549061312d565b60405180910390fd5b600073ffffffffffffffffffffffffffffffffffffffff168273ffffffffffffffffffffffffffffffffffffffff1614156121cd576040517f08c379a00000000000000000000000000000000000000000000000000000000081526004016121c49061308d565b60405180910390fd5b80603460008573ffffffffffffffffffffffffffffffffffffffff1673ffffffffffffffffffffffffffffffffffffffff16815260200190815260200160002060008473ffffffffffffffffffffffffffffffffffffffff1673ffffffffffffffffffffffffffffffffffffffff168152602001908152602001600020819055508173ffffffffffffffffffffffffffffffffffffffff168373ffffffffffffffffffffffffffffffffffffffff167f8c5be1e5ebec7d5bd14f71427d1e84f3dd0314c0f7b2291e5b200ac8c7c3b925836040516122ab919061318d565b60405180910390a3505050565b60006122c48484611adb565b90507fffffffffffffffffffffffffffffffffffffffffffffffffffffffffffffffff811461233e5781811015612330576040517f08c379a0000000000000000000000000000000000000000000000000000000008152600401612327906130ad565b60405180910390fd5b61233d84848484036120ed565b5b50505050565b600073ffffffffffffffffffffffffffffffffffffffff168373ffffffffffffffffffffffffffffffffffffffff1614156123b4576040517f08c379a00000000000000000000000000000000000000000000000000000000081526004016123ab9061310d565b60405180910390fd5b600073ffffffffffffffffffffffffffffffffffffffff168273ffffffffffffffffffffffffffffffffffffffff161415612424576040517f08c379a000000000000000000000000000000000000000000000000000000000815260040161241b9061306d565b60405180910390fd5b61242f83838361265a565b6000603360008573ffffffffffffffffffffffffffffffffffffffff1673ffffffffffffffffffffffffffffffffffffffff168152602001908152602001600020549050818110156124b6576040517f08c379a00000000000000000000000000000000000000000000000000000000081526004016124ad906130cd565b60405180910390fd5b818103603360008673ffffffffffffffffffffffffffffffffffffffff1673ffffffffffffffffffffffffffffffffffffffff1681526020019081526020016000208190555081603360008573ffffffffffffffffffffffffffffffffffffffff1673ffffffffffffffffffffffffffffffffffffffff168152602001908152602001600020600082825461254b919061329f565b925050819055508273ffffffffffffffffffffffffffffffffffffffff168473ffffffffffffffffffffffffffffffffffffffff167fddf252ad1be2c89b69c2b068fc378daa952ba7f163c4a11628f55a4df523b3ef846040516125af919061318d565b60405180910390a36125c284848461265f565b50505050565b600081600001549050919050565b60006125e130612664565b15905090565b600060019054906101000a900460ff16612636576040517f08c379a000000000000000000000000000000000000000000000000000000000815260040161262d9061314d565b60405180910390fd5b6126408282612687565b5050565b6001816000016000828254019250508190555050565b505050565b505050565b6000808273ffffffffffffffffffffffffffffffffffffffff163b119050919050565b600060019054906101000a900460ff166126d6576040517f08c379a00000000000000000000000000000000000000000000000000000000081526004016126cd9061314d565b60405180910390fd5b81603690805190602001906126ec929190612708565b508060379080519060200190612703929190612708565b505050565b8280546127149061339e565b90600052602060002090601f016020900481019282612736576000855561277d565b82601f1061274f57805160ff191683800117855561277d565b8280016001018555821561277d579182015b8281111561277c578251825591602001919060010190612761565b5b50905061278a91906127d5565b5090565b6040518060a00160405280606081526020016060815260200160608152602001600073ffffffffffffffffffffffffffffffffffffffff1681526020016000151581525090565b5b808211156127ee5760008160009055506001016127d6565b5090565b6000612805612800846131e8565b6131c3565b90508281526020810184848401111561281d57600080fd5b61282884828561335c565b509392505050565b60008135905061283f81613789565b92915050565b600081359050612854816137a0565b92915050565b600082601f83011261286b57600080fd5b813561287b8482602086016127f2565b91505092915050565b600081359050612893816137b7565b92915050565b6000602082840312156128ab57600080fd5b60006128b984828501612830565b91505092915050565b600080604083850312156128d557600080fd5b60006128e385828601612830565b92505060206128f485828601612830565b9150509250929050565b60008060006060848603121561291357600080fd5b600061292186828701612830565b935050602061293286828701612830565b925050604061294386828701612884565b9150509250925092565b6000806040838503121561296057600080fd5b600061296e85828601612830565b925050602061297f85828601612884565b9150509250929050565b60006020828403121561299b57600080fd5b600082013567ffffffffffffffff8111156129b557600080fd5b6129c18482850161285a565b91505092915050565b600080600080608085870312156129e057600080fd5b600085013567ffffffffffffffff8111156129fa57600080fd5b612a068782880161285a565b945050602085013567ffffffffffffffff811115612a2357600080fd5b612a2f8782880161285a565b935050604085013567ffffffffffffffff811115612a4c57600080fd5b612a588782880161285a565b9250506060612a6987828801612845565b91505092959194509250565b60008060008060808587031215612a8b57600080fd5b600085013567ffffffffffffffff811115612aa557600080fd5b612ab18782880161285a565b945050602085013567ffffffffffffffff811115612ace57600080fd5b612ada8782880161285a565b935050604085013567ffffffffffffffff811115612af757600080fd5b612b038782880161285a565b925050606085013567ffffffffffffffff811115612b2057600080fd5b612b2c8782880161285a565b91505092959194509250565b600060208284031215612b4a57600080fd5b6000612b5884828501612884565b91505092915050565b6000612b6d8383612e92565b905092915050565b612b7e81613307565b82525050565b612b8d816132f5565b82525050565b612b9c816132f5565b82525050565b6000612bad8261323e565b612bb78185613261565b935083602082028501612bc985613219565b8060005b85811015612c055784840389528151612be68582612b61565b9450612bf183613254565b925060208a01995050600181019050612bcd565b50829750879550505050505092915050565b612c2081613319565b82525050565b612c2f81613319565b82525050565b6000612c4082613249565b612c4a8185613272565b9350612c5a81856020860161336b565b612c63816134d7565b840191505092915050565b6000612c7982613249565b612c838185613283565b9350612c9381856020860161336b565b612c9c816134d7565b840191505092915050565b6000612cb282613249565b612cbc8185613294565b9350612ccc81856020860161336b565b80840191505092915050565b60008154612ce58161339e565b612cef8186613294565b94506001821660008114612d0a5760018114612d1b57612d4e565b60ff19831686528186019350612d4e565b612d2485613229565b60005b83811015612d4657815481890152600182019150602081019050612d27565b838801955050505b50505092915050565b6000612d64602383613283565b9150612d6f826134e8565b604082019050919050565b6000612d87602283613283565b9150612d9282613537565b604082019050919050565b6000612daa601d83613283565b9150612db582613586565b602082019050919050565b6000612dcd602683613283565b9150612dd8826135af565b604082019050919050565b6000612df0602e83613283565b9150612dfb826135fe565b604082019050919050565b6000612e13602583613283565b9150612e1e8261364d565b604082019050919050565b6000612e36602483613283565b9150612e418261369c565b604082019050919050565b6000612e59602b83613283565b9150612e64826136eb565b604082019050919050565b6000612e7c602583613283565b9150612e878261373a565b604082019050919050565b600060a0830160008301518482036000860152612eaf8282612c35565b91505060208301518482036020860152612ec98282612c35565b91505060408301518482036040860152612ee38282612c35565b9150506060830151612ef86060860182612b84565b506080830151612f0b6080860182612c17565b508091505092915050565b612f1f81613345565b82525050565b612f2e8161334f565b82525050565b6000612f408284612ca7565b915081905092915050565b6000612f578284612cd8565b915081905092915050565b6000602082019050612f776000830184612b75565b92915050565b6000604082019050612f926000830185612b93565b612f9f6020830184612c26565b9392505050565b60006020820190508181036000830152612fc08184612ba2565b905092915050565b6000602082019050612fdd6000830184612c26565b92915050565b60006020820190508181036000830152612ffd8184612c6e565b905092915050565b600060a082019050818103600083015261301f8188612c6e565b905081810360208301526130338187612c6e565b905081810360408301526130478186612c6e565b90506130566060830185612b93565b6130636080830184612c26565b9695505050505050565b6000602082019050818103600083015261308681612d57565b9050919050565b600060208201905081810360008301526130a681612d7a565b9050919050565b600060208201905081810360008301526130c681612d9d565b9050919050565b600060208201905081810360008301526130e681612dc0565b9050919050565b6000602082019050818103600083015261310681612de3565b9050919050565b6000602082019050818103600083015261312681612e06565b9050919050565b6000602082019050818103600083015261314681612e29565b9050919050565b6000602082019050818103600083015261316681612e4c565b9050919050565b6000602082019050818103600083015261318681612e6f565b9050919050565b60006020820190506131a26000830184612f16565b92915050565b60006020820190506131bd6000830184612f25565b92915050565b60006131cd6131de565b90506131d982826133d0565b919050565b6000604051905090565b600067ffffffffffffffff821115613203576132026134a8565b5b61320c826134d7565b9050602081019050919050565b6000819050602082019050919050565b60008190508160005260206000209050919050565b600081519050919050565b600081519050919050565b6000602082019050919050565b600082825260208201905092915050565b600082825260208201905092915050565b600082825260208201905092915050565b600081905092915050565b60006132aa82613345565b91506132b583613345565b9250827fffffffffffffffffffffffffffffffffffffffffffffffffffffffffffffffff038211156132ea576132e961344a565b5b828201905092915050565b600061330082613325565b9050919050565b600061331282613325565b9050919050565b60008115159050919050565b600073ffffffffffffffffffffffffffffffffffffffff82169050919050565b6000819050919050565b600060ff82169050919050565b82818337600083830152505050565b60005b8381101561338957808201518184015260208101905061336e565b83811115613398576000848401525b50505050565b600060028204905060018216806133b657607f821691505b602082108114156133ca576133c9613479565b5b50919050565b6133d9826134d7565b810181811067ffffffffffffffff821117156133f8576133f76134a8565b5b80604052505050565b600061340c82613345565b91507fffffffffffffffffffffffffffffffffffffffffffffffffffffffffffffffff82141561343f5761343e61344a565b5b600182019050919050565b7f4e487b7100000000000000000000000000000000000000000000000000000000600052601160045260246000fd5b7f4e487b7100000000000000000000000000000000000000000000000000000000600052602260045260246000fd5b7f4e487b7100000000000000000000000000000000000000000000000000000000600052604160045260246000fd5b6000601f19601f8301169050919050565b7f45524332303a207472616e7366657220746f20746865207a65726f206164647260008201527f6573730000000000000000000000000000000000000000000000000000000000602082015250565b7f45524332303a20617070726f766520746f20746865207a65726f20616464726560008201527f7373000000000000000000000000000000000000000000000000000000000000602082015250565b7f45524332303a20696e73756666696369656e7420616c6c6f77616e6365000000600082015250565b7f45524332303a207472616e7366657220616d6f756e742065786365656473206260008201527f616c616e63650000000000000000000000000000000000000000000000000000602082015250565b7f496e697469616c697a61626c653a20636f6e747261637420697320616c72656160008201527f647920696e697469616c697a6564000000000000000000000000000000000000602082015250565b7f45524332303a207472616e736665722066726f6d20746865207a65726f20616460008201527f6472657373000000000000000000000000000000000000000000000000000000602082015250565b7f45524332303a20617070726f76652066726f6d20746865207a65726f2061646460008201527f7265737300000000000000000000000000000000000000000000000000000000602082015250565b7f496e697469616c697a61626c653a20636f6e7472616374206973206e6f74206960008201527f6e697469616c697a696e67000000000000000000000000000000000000000000602082015250565b7f45524332303a2064656372656173656420616c6c6f77616e63652062656c6f7760008201527f207a65726f000000000000000000000000000000000000000000000000000000602082015250565b613792816132f5565b811461379d57600080fd5b50565b6137a981613319565b81146137b457600080fd5b50565b6137c081613345565b81146137cb57600080fd5b5056fea26469706673582212204cd6071eb0190484f6872b6635638079e7b8b155f2270649f0e914cda5beda3264736f6c63430008040033",
          "opcodes": "PUSH1 0x80 PUSH1 0x40 MSTORE CALLVALUE DUP1 ISZERO PUSH2 0x10 JUMPI PUSH1 0x0 DUP1 REVERT JUMPDEST POP PUSH2 0x3804 DUP1 PUSH2 0x20 PUSH1 0x0 CODECOPY PUSH1 0x0 RETURN INVALID PUSH1 0x80 PUSH1 0x40 MSTORE PUSH1 0x4 CALLDATASIZE LT PUSH2 0x135 JUMPI PUSH1 0x0 CALLDATALOAD PUSH1 0xE0 SHR DUP1 PUSH4 0x5A12D0F8 GT PUSH2 0xAB JUMPI DUP1 PUSH4 0x8CAE45D2 GT PUSH2 0x6F JUMPI DUP1 PUSH4 0x8CAE45D2 EQ PUSH2 0x435 JUMPI DUP1 PUSH4 0x95D89B41 EQ PUSH2 0x472 JUMPI DUP1 PUSH4 0xA457C2D7 EQ PUSH2 0x49D JUMPI DUP1 PUSH4 0xA9059CBB EQ PUSH2 0x4DA JUMPI DUP1 PUSH4 0xDD62ED3E EQ PUSH2 0x517 JUMPI DUP1 PUSH4 0xFCB02E73 EQ PUSH2 0x554 JUMPI PUSH2 0x135 JUMP JUMPDEST DUP1 PUSH4 0x5A12D0F8 EQ PUSH2 0x34E JUMPI DUP1 PUSH4 0x5E385B92 EQ PUSH2 0x379 JUMPI DUP1 PUSH4 0x6E997665 EQ PUSH2 0x3A4 JUMPI DUP1 PUSH4 0x70A08231 EQ PUSH2 0x3E1 JUMPI DUP1 PUSH4 0x8129FC1C EQ PUSH2 0x41E JUMPI PUSH2 0x135 JUMP JUMPDEST DUP1 PUSH4 0x34A7F193 GT PUSH2 0xFD JUMPI DUP1 PUSH4 0x34A7F193 EQ PUSH2 0x235 JUMPI DUP1 PUSH4 0x39509351 EQ PUSH2 0x260 JUMPI DUP1 PUSH4 0x3E3A648D EQ PUSH2 0x29D JUMPI DUP1 PUSH4 0x412664AE EQ PUSH2 0x2C6 JUMPI DUP1 PUSH4 0x451E9CF0 EQ PUSH2 0x2E2 JUMPI DUP1 PUSH4 0x52D95491 EQ PUSH2 0x30D JUMPI PUSH2 0x135 JUMP JUMPDEST DUP1 PUSH4 0x6FDDE03 EQ PUSH2 0x13A JUMPI DUP1 PUSH4 0x95EA7B3 EQ PUSH2 0x165 JUMPI DUP1 PUSH4 0x18160DDD EQ PUSH2 0x1A2 JUMPI DUP1 PUSH4 0x23B872DD EQ PUSH2 0x1CD JUMPI DUP1 PUSH4 0x313CE567 EQ PUSH2 0x20A JUMPI JUMPDEST PUSH1 0x0 DUP1 REVERT JUMPDEST CALLVALUE DUP1 ISZERO PUSH2 0x146 JUMPI PUSH1 0x0 DUP1 REVERT JUMPDEST POP PUSH2 0x14F PUSH2 0x57D JUMP JUMPDEST PUSH1 0x40 MLOAD PUSH2 0x15C SWAP2 SWAP1 PUSH2 0x2FE3 JUMP JUMPDEST PUSH1 0x40 MLOAD DUP1 SWAP2 SUB SWAP1 RETURN JUMPDEST CALLVALUE DUP1 ISZERO PUSH2 0x171 JUMPI PUSH1 0x0 DUP1 REVERT JUMPDEST POP PUSH2 0x18C PUSH1 0x4 DUP1 CALLDATASIZE SUB DUP2 ADD SWAP1 PUSH2 0x187 SWAP2 SWAP1 PUSH2 0x294D JUMP JUMPDEST PUSH2 0x60F JUMP JUMPDEST PUSH1 0x40 MLOAD PUSH2 0x199 SWAP2 SWAP1 PUSH2 0x2FC8 JUMP JUMPDEST PUSH1 0x40 MLOAD DUP1 SWAP2 SUB SWAP1 RETURN JUMPDEST CALLVALUE DUP1 ISZERO PUSH2 0x1AE JUMPI PUSH1 0x0 DUP1 REVERT JUMPDEST POP PUSH2 0x1B7 PUSH2 0x632 JUMP JUMPDEST PUSH1 0x40 MLOAD PUSH2 0x1C4 SWAP2 SWAP1 PUSH2 0x318D JUMP JUMPDEST PUSH1 0x40 MLOAD DUP1 SWAP2 SUB SWAP1 RETURN JUMPDEST CALLVALUE DUP1 ISZERO PUSH2 0x1D9 JUMPI PUSH1 0x0 DUP1 REVERT JUMPDEST POP PUSH2 0x1F4 PUSH1 0x4 DUP1 CALLDATASIZE SUB DUP2 ADD SWAP1 PUSH2 0x1EF SWAP2 SWAP1 PUSH2 0x28FE JUMP JUMPDEST PUSH2 0x63C JUMP JUMPDEST PUSH1 0x40 MLOAD PUSH2 0x201 SWAP2 SWAP1 PUSH2 0x2FC8 JUMP JUMPDEST PUSH1 0x40 MLOAD DUP1 SWAP2 SUB SWAP1 RETURN JUMPDEST CALLVALUE DUP1 ISZERO PUSH2 0x216 JUMPI PUSH1 0x0 DUP1 REVERT JUMPDEST POP PUSH2 0x21F PUSH2 0x66B JUMP JUMPDEST PUSH1 0x40 MLOAD PUSH2 0x22C SWAP2 SWAP1 PUSH2 0x31A8 JUMP JUMPDEST PUSH1 0x40 MLOAD DUP1 SWAP2 SUB SWAP1 RETURN JUMPDEST CALLVALUE DUP1 ISZERO PUSH2 0x241 JUMPI PUSH1 0x0 DUP1 REVERT JUMPDEST POP PUSH2 0x24A PUSH2 0x674 JUMP JUMPDEST PUSH1 0x40 MLOAD PUSH2 0x257 SWAP2 SWAP1 PUSH2 0x318D JUMP JUMPDEST PUSH1 0x40 MLOAD DUP1 SWAP2 SUB SWAP1 RETURN JUMPDEST CALLVALUE DUP1 ISZERO PUSH2 0x26C JUMPI PUSH1 0x0 DUP1 REVERT JUMPDEST POP PUSH2 0x287 PUSH1 0x4 DUP1 CALLDATASIZE SUB DUP2 ADD SWAP1 PUSH2 0x282 SWAP2 SWAP1 PUSH2 0x294D JUMP JUMPDEST PUSH2 0x680 JUMP JUMPDEST PUSH1 0x40 MLOAD PUSH2 0x294 SWAP2 SWAP1 PUSH2 0x2FC8 JUMP JUMPDEST PUSH1 0x40 MLOAD DUP1 SWAP2 SUB SWAP1 RETURN JUMPDEST CALLVALUE DUP1 ISZERO PUSH2 0x2A9 JUMPI PUSH1 0x0 DUP1 REVERT JUMPDEST POP PUSH2 0x2C4 PUSH1 0x4 DUP1 CALLDATASIZE SUB DUP2 ADD SWAP1 PUSH2 0x2BF SWAP2 SWAP1 PUSH2 0x2A75 JUMP JUMPDEST PUSH2 0x72A JUMP JUMPDEST STOP JUMPDEST PUSH2 0x2E0 PUSH1 0x4 DUP1 CALLDATASIZE SUB DUP2 ADD SWAP1 PUSH2 0x2DB SWAP2 SWAP1 PUSH2 0x294D JUMP JUMPDEST PUSH2 0x966 JUMP JUMPDEST STOP JUMPDEST CALLVALUE DUP1 ISZERO PUSH2 0x2EE JUMPI PUSH1 0x0 DUP1 REVERT JUMPDEST POP PUSH2 0x2F7 PUSH2 0x9B1 JUMP JUMPDEST PUSH1 0x40 MLOAD PUSH2 0x304 SWAP2 SWAP1 PUSH2 0x2F62 JUMP JUMPDEST PUSH1 0x40 MLOAD DUP1 SWAP2 SUB SWAP1 RETURN JUMPDEST CALLVALUE DUP1 ISZERO PUSH2 0x319 JUMPI PUSH1 0x0 DUP1 REVERT JUMPDEST POP PUSH2 0x334 PUSH1 0x4 DUP1 CALLDATASIZE SUB DUP2 ADD SWAP1 PUSH2 0x32F SWAP2 SWAP1 PUSH2 0x2B38 JUMP JUMPDEST PUSH2 0x9DB JUMP JUMPDEST PUSH1 0x40 MLOAD PUSH2 0x345 SWAP6 SWAP5 SWAP4 SWAP3 SWAP2 SWAP1 PUSH2 0x3005 JUMP JUMPDEST PUSH1 0x40 MLOAD DUP1 SWAP2 SUB SWAP1 RETURN JUMPDEST CALLVALUE DUP1 ISZERO PUSH2 0x35A JUMPI PUSH1 0x0 DUP1 REVERT JUMPDEST POP PUSH2 0x363 PUSH2 0xBD6 JUMP JUMPDEST PUSH1 0x40 MLOAD PUSH2 0x370 SWAP2 SWAP1 PUSH2 0x2FA6 JUMP JUMPDEST PUSH1 0x40 MLOAD DUP1 SWAP2 SUB SWAP1 RETURN JUMPDEST CALLVALUE DUP1 ISZERO PUSH2 0x385 JUMPI PUSH1 0x0 DUP1 REVERT JUMPDEST POP PUSH2 0x38E PUSH2 0xF2C JUMP JUMPDEST PUSH1 0x40 MLOAD PUSH2 0x39B SWAP2 SWAP1 PUSH2 0x2F62 JUMP JUMPDEST PUSH1 0x40 MLOAD DUP1 SWAP2 SUB SWAP1 RETURN JUMPDEST CALLVALUE DUP1 ISZERO PUSH2 0x3B0 JUMPI PUSH1 0x0 DUP1 REVERT JUMPDEST POP PUSH2 0x3CB PUSH1 0x4 DUP1 CALLDATASIZE SUB DUP2 ADD SWAP1 PUSH2 0x3C6 SWAP2 SWAP1 PUSH2 0x2989 JUMP JUMPDEST PUSH2 0xF52 JUMP JUMPDEST PUSH1 0x40 MLOAD PUSH2 0x3D8 SWAP2 SWAP1 PUSH2 0x2FA6 JUMP JUMPDEST PUSH1 0x40 MLOAD DUP1 SWAP2 SUB SWAP1 RETURN JUMPDEST CALLVALUE DUP1 ISZERO PUSH2 0x3ED JUMPI PUSH1 0x0 DUP1 REVERT JUMPDEST POP PUSH2 0x408 PUSH1 0x4 DUP1 CALLDATASIZE SUB DUP2 ADD SWAP1 PUSH2 0x403 SWAP2 SWAP1 PUSH2 0x2899 JUMP JUMPDEST PUSH2 0x13D8 JUMP JUMPDEST PUSH1 0x40 MLOAD PUSH2 0x415 SWAP2 SWAP1 PUSH2 0x318D JUMP JUMPDEST PUSH1 0x40 MLOAD DUP1 SWAP2 SUB SWAP1 RETURN JUMPDEST CALLVALUE DUP1 ISZERO PUSH2 0x42A JUMPI PUSH1 0x0 DUP1 REVERT JUMPDEST POP PUSH2 0x433 PUSH2 0x1421 JUMP JUMPDEST STOP JUMPDEST CALLVALUE DUP1 ISZERO PUSH2 0x441 JUMPI PUSH1 0x0 DUP1 REVERT JUMPDEST POP PUSH2 0x45C PUSH1 0x4 DUP1 CALLDATASIZE SUB DUP2 ADD SWAP1 PUSH2 0x457 SWAP2 SWAP1 PUSH2 0x2899 JUMP JUMPDEST PUSH2 0x156E JUMP JUMPDEST PUSH1 0x40 MLOAD PUSH2 0x469 SWAP2 SWAP1 PUSH2 0x2FA6 JUMP JUMPDEST PUSH1 0x40 MLOAD DUP1 SWAP2 SUB SWAP1 RETURN JUMPDEST CALLVALUE DUP1 ISZERO PUSH2 0x47E JUMPI PUSH1 0x0 DUP1 REVERT JUMPDEST POP PUSH2 0x487 PUSH2 0x193C JUMP JUMPDEST PUSH1 0x40 MLOAD PUSH2 0x494 SWAP2 SWAP1 PUSH2 0x2FE3 JUMP JUMPDEST PUSH1 0x40 MLOAD DUP1 SWAP2 SUB SWAP1 RETURN JUMPDEST CALLVALUE DUP1 ISZERO PUSH2 0x4A9 JUMPI PUSH1 0x0 DUP1 REVERT JUMPDEST POP PUSH2 0x4C4 PUSH1 0x4 DUP1 CALLDATASIZE SUB DUP2 ADD SWAP1 PUSH2 0x4BF SWAP2 SWAP1 PUSH2 0x294D JUMP JUMPDEST PUSH2 0x19CE JUMP JUMPDEST PUSH1 0x40 MLOAD PUSH2 0x4D1 SWAP2 SWAP1 PUSH2 0x2FC8 JUMP JUMPDEST PUSH1 0x40 MLOAD DUP1 SWAP2 SUB SWAP1 RETURN JUMPDEST CALLVALUE DUP1 ISZERO PUSH2 0x4E6 JUMPI PUSH1 0x0 DUP1 REVERT JUMPDEST POP PUSH2 0x501 PUSH1 0x4 DUP1 CALLDATASIZE SUB DUP2 ADD SWAP1 PUSH2 0x4FC SWAP2 SWAP1 PUSH2 0x294D JUMP JUMPDEST PUSH2 0x1AB8 JUMP JUMPDEST PUSH1 0x40 MLOAD PUSH2 0x50E SWAP2 SWAP1 PUSH2 0x2FC8 JUMP JUMPDEST PUSH1 0x40 MLOAD DUP1 SWAP2 SUB SWAP1 RETURN JUMPDEST CALLVALUE DUP1 ISZERO PUSH2 0x523 JUMPI PUSH1 0x0 DUP1 REVERT JUMPDEST POP PUSH2 0x53E PUSH1 0x4 DUP1 CALLDATASIZE SUB DUP2 ADD SWAP1 PUSH2 0x539 SWAP2 SWAP1 PUSH2 0x28C2 JUMP JUMPDEST PUSH2 0x1ADB JUMP JUMPDEST PUSH1 0x40 MLOAD PUSH2 0x54B SWAP2 SWAP1 PUSH2 0x318D JUMP JUMPDEST PUSH1 0x40 MLOAD DUP1 SWAP2 SUB SWAP1 RETURN JUMPDEST CALLVALUE DUP1 ISZERO PUSH2 0x560 JUMPI PUSH1 0x0 DUP1 REVERT JUMPDEST POP PUSH2 0x57B PUSH1 0x4 DUP1 CALLDATASIZE SUB DUP2 ADD SWAP1 PUSH2 0x576 SWAP2 SWAP1 PUSH2 0x29CA JUMP JUMPDEST PUSH2 0x1B62 JUMP JUMPDEST STOP JUMPDEST PUSH1 0x60 PUSH1 0x36 DUP1 SLOAD PUSH2 0x58C SWAP1 PUSH2 0x339E JUMP JUMPDEST DUP1 PUSH1 0x1F ADD PUSH1 0x20 DUP1 SWAP2 DIV MUL PUSH1 0x20 ADD PUSH1 0x40 MLOAD SWAP1 DUP2 ADD PUSH1 0x40 MSTORE DUP1 SWAP3 SWAP2 SWAP1 DUP2 DUP2 MSTORE PUSH1 0x20 ADD DUP3 DUP1 SLOAD PUSH2 0x5B8 SWAP1 PUSH2 0x339E JUMP JUMPDEST DUP1 ISZERO PUSH2 0x605 JUMPI DUP1 PUSH1 0x1F LT PUSH2 0x5DA JUMPI PUSH2 0x100 DUP1 DUP4 SLOAD DIV MUL DUP4 MSTORE SWAP2 PUSH1 0x20 ADD SWAP2 PUSH2 0x605 JUMP JUMPDEST DUP3 ADD SWAP2 SWAP1 PUSH1 0x0 MSTORE PUSH1 0x20 PUSH1 0x0 KECCAK256 SWAP1 JUMPDEST DUP2 SLOAD DUP2 MSTORE SWAP1 PUSH1 0x1 ADD SWAP1 PUSH1 0x20 ADD DUP1 DUP4 GT PUSH2 0x5E8 JUMPI DUP3 SWAP1 SUB PUSH1 0x1F AND DUP3 ADD SWAP2 JUMPDEST POP POP POP POP POP SWAP1 POP SWAP1 JUMP JUMPDEST PUSH1 0x0 DUP1 PUSH2 0x61A PUSH2 0x20E5 JUMP JUMPDEST SWAP1 POP PUSH2 0x627 DUP2 DUP6 DUP6 PUSH2 0x20ED JUMP JUMPDEST PUSH1 0x1 SWAP2 POP POP SWAP3 SWAP2 POP POP JUMP JUMPDEST PUSH1 0x0 PUSH1 0x35 SLOAD SWAP1 POP SWAP1 JUMP JUMPDEST PUSH1 0x0 DUP1 PUSH2 0x647 PUSH2 0x20E5 JUMP JUMPDEST SWAP1 POP PUSH2 0x654 DUP6 DUP3 DUP6 PUSH2 0x22B8 JUMP JUMPDEST PUSH2 0x65F DUP6 DUP6 DUP6 PUSH2 0x2344 JUMP JUMPDEST PUSH1 0x1 SWAP2 POP POP SWAP4 SWAP3 POP POP POP JUMP JUMPDEST PUSH1 0x0 PUSH1 0x12 SWAP1 POP SWAP1 JUMP JUMPDEST PUSH1 0x66 DUP1 PUSH1 0x0 ADD SLOAD SWAP1 POP DUP2 JUMP JUMPDEST PUSH1 0x0 DUP1 PUSH2 0x68B PUSH2 0x20E5 JUMP JUMPDEST SWAP1 POP PUSH2 0x71F DUP2 DUP6 DUP6 PUSH1 0x34 PUSH1 0x0 DUP7 PUSH20 0xFFFFFFFFFFFFFFFFFFFFFFFFFFFFFFFFFFFFFFFF AND PUSH20 0xFFFFFFFFFFFFFFFFFFFFFFFFFFFFFFFFFFFFFFFF AND DUP2 MSTORE PUSH1 0x20 ADD SWAP1 DUP2 MSTORE PUSH1 0x20 ADD PUSH1 0x0 KECCAK256 PUSH1 0x0 DUP10 PUSH20 0xFFFFFFFFFFFFFFFFFFFFFFFFFFFFFFFFFFFFFFFF AND PUSH20 0xFFFFFFFFFFFFFFFFFFFFFFFFFFFFFFFFFFFFFFFF AND DUP2 MSTORE PUSH1 0x20 ADD SWAP1 DUP2 MSTORE PUSH1 0x20 ADD PUSH1 0x0 KECCAK256 SLOAD PUSH2 0x71A SWAP2 SWAP1 PUSH2 0x329F JUMP JUMPDEST PUSH2 0x20ED JUMP JUMPDEST PUSH1 0x1 SWAP2 POP POP SWAP3 SWAP2 POP POP JUMP JUMPDEST PUSH1 0x0 PUSH2 0x736 PUSH1 0x66 PUSH2 0x25C8 JUMP JUMPDEST SWAP1 POP PUSH1 0x0 JUMPDEST DUP2 DUP2 LT ISZERO PUSH2 0x95E JUMPI CALLER PUSH20 0xFFFFFFFFFFFFFFFFFFFFFFFFFFFFFFFFFFFFFFFF AND PUSH1 0x67 PUSH1 0x0 PUSH1 0x1 DUP5 PUSH2 0x76B SWAP2 SWAP1 PUSH2 0x329F JUMP JUMPDEST DUP2 MSTORE PUSH1 0x20 ADD SWAP1 DUP2 MSTORE PUSH1 0x20 ADD PUSH1 0x0 KECCAK256 PUSH1 0x3 ADD PUSH1 0x0 SWAP1 SLOAD SWAP1 PUSH2 0x100 EXP SWAP1 DIV PUSH20 0xFFFFFFFFFFFFFFFFFFFFFFFFFFFFFFFFFFFFFFFF AND PUSH20 0xFFFFFFFFFFFFFFFFFFFFFFFFFFFFFFFFFFFFFFFF AND EQ ISZERO PUSH2 0x94B JUMPI DUP4 PUSH1 0x40 MLOAD PUSH1 0x20 ADD PUSH2 0x7CA SWAP2 SWAP1 PUSH2 0x2F34 JUMP JUMPDEST PUSH1 0x40 MLOAD PUSH1 0x20 DUP2 DUP4 SUB SUB DUP2 MSTORE SWAP1 PUSH1 0x40 MSTORE DUP1 MLOAD SWAP1 PUSH1 0x20 ADD KECCAK256 PUSH1 0x67 PUSH1 0x0 PUSH1 0x1 DUP5 PUSH2 0x7F1 SWAP2 SWAP1 PUSH2 0x329F JUMP JUMPDEST DUP2 MSTORE PUSH1 0x20 ADD SWAP1 DUP2 MSTORE PUSH1 0x20 ADD PUSH1 0x0 KECCAK256 PUSH1 0x2 ADD PUSH1 0x40 MLOAD PUSH1 0x20 ADD PUSH2 0x812 SWAP2 SWAP1 PUSH2 0x2F4B JUMP JUMPDEST PUSH1 0x40 MLOAD PUSH1 0x20 DUP2 DUP4 SUB SUB DUP2 MSTORE SWAP1 PUSH1 0x40 MSTORE DUP1 MLOAD SWAP1 PUSH1 0x20 ADD KECCAK256 EQ ISZERO PUSH2 0x94A JUMPI DUP3 PUSH1 0x40 MLOAD PUSH1 0x20 ADD PUSH2 0x83F SWAP2 SWAP1 PUSH2 0x2F34 JUMP JUMPDEST PUSH1 0x40 MLOAD PUSH1 0x20 DUP2 DUP4 SUB SUB DUP2 MSTORE SWAP1 PUSH1 0x40 MSTORE DUP1 MLOAD SWAP1 PUSH1 0x20 ADD KECCAK256 PUSH1 0x67 PUSH1 0x0 PUSH1 0x1 DUP5 PUSH2 0x866 SWAP2 SWAP1 PUSH2 0x329F JUMP JUMPDEST DUP2 MSTORE PUSH1 0x20 ADD SWAP1 DUP2 MSTORE PUSH1 0x20 ADD PUSH1 0x0 KECCAK256 PUSH1 0x1 ADD PUSH1 0x40 MLOAD PUSH1 0x20 ADD PUSH2 0x887 SWAP2 SWAP1 PUSH2 0x2F4B JUMP JUMPDEST PUSH1 0x40 MLOAD PUSH1 0x20 DUP2 DUP4 SUB SUB DUP2 MSTORE SWAP1 PUSH1 0x40 MSTORE DUP1 MLOAD SWAP1 PUSH1 0x20 ADD KECCAK256 EQ ISZERO PUSH2 0x949 JUMPI DUP6 PUSH1 0x67 PUSH1 0x0 PUSH1 0x1 DUP5 PUSH2 0x8B5 SWAP2 SWAP1 PUSH2 0x329F JUMP JUMPDEST DUP2 MSTORE PUSH1 0x20 ADD SWAP1 DUP2 MSTORE PUSH1 0x20 ADD PUSH1 0x0 KECCAK256 PUSH1 0x0 ADD SWAP1 DUP1 MLOAD SWAP1 PUSH1 0x20 ADD SWAP1 PUSH2 0x8D9 SWAP3 SWAP2 SWAP1 PUSH2 0x2708 JUMP JUMPDEST POP DUP5 PUSH1 0x67 PUSH1 0x0 PUSH1 0x1 DUP5 PUSH2 0x8EC SWAP2 SWAP1 PUSH2 0x329F JUMP JUMPDEST DUP2 MSTORE PUSH1 0x20 ADD SWAP1 DUP2 MSTORE PUSH1 0x20 ADD PUSH1 0x0 KECCAK256 PUSH1 0x1 ADD SWAP1 DUP1 MLOAD SWAP1 PUSH1 0x20 ADD SWAP1 PUSH2 0x910 SWAP3 SWAP2 SWAP1 PUSH2 0x2708 JUMP JUMPDEST POP DUP4 PUSH1 0x67 PUSH1 0x0 PUSH1 0x1 DUP5 PUSH2 0x923 SWAP2 SWAP1 PUSH2 0x329F JUMP JUMPDEST DUP2 MSTORE PUSH1 0x20 ADD SWAP1 DUP2 MSTORE PUSH1 0x20 ADD PUSH1 0x0 KECCAK256 PUSH1 0x2 ADD SWAP1 DUP1 MLOAD SWAP1 PUSH1 0x20 ADD SWAP1 PUSH2 0x947 SWAP3 SWAP2 SWAP1 PUSH2 0x2708 JUMP JUMPDEST POP JUMPDEST JUMPDEST JUMPDEST DUP1 DUP1 PUSH2 0x956 SWAP1 PUSH2 0x3401 JUMP JUMPDEST SWAP2 POP POP PUSH2 0x73B JUMP JUMPDEST POP POP POP POP POP POP JUMP JUMPDEST DUP2 PUSH20 0xFFFFFFFFFFFFFFFFFFFFFFFFFFFFFFFFFFFFFFFF AND PUSH2 0x8FC DUP3 SWAP1 DUP2 ISZERO MUL SWAP1 PUSH1 0x40 MLOAD PUSH1 0x0 PUSH1 0x40 MLOAD DUP1 DUP4 SUB DUP2 DUP6 DUP9 DUP9 CALL SWAP4 POP POP POP POP ISZERO DUP1 ISZERO PUSH2 0x9AC JUMPI RETURNDATASIZE PUSH1 0x0 DUP1 RETURNDATACOPY RETURNDATASIZE PUSH1 0x0 REVERT JUMPDEST POP POP POP JUMP JUMPDEST PUSH1 0x0 PUSH1 0x65 PUSH1 0x0 SWAP1 SLOAD SWAP1 PUSH2 0x100 EXP SWAP1 DIV PUSH20 0xFFFFFFFFFFFFFFFFFFFFFFFFFFFFFFFFFFFFFFFF AND SWAP1 POP SWAP1 JUMP JUMPDEST PUSH1 0x67 PUSH1 0x20 MSTORE DUP1 PUSH1 0x0 MSTORE PUSH1 0x40 PUSH1 0x0 KECCAK256 PUSH1 0x0 SWAP2 POP SWAP1 POP DUP1 PUSH1 0x0 ADD DUP1 SLOAD PUSH2 0x9FE SWAP1 PUSH2 0x339E JUMP JUMPDEST DUP1 PUSH1 0x1F ADD PUSH1 0x20 DUP1 SWAP2 DIV MUL PUSH1 0x20 ADD PUSH1 0x40 MLOAD SWAP1 DUP2 ADD PUSH1 0x40 MSTORE DUP1 SWAP3 SWAP2 SWAP1 DUP2 DUP2 MSTORE PUSH1 0x20 ADD DUP3 DUP1 SLOAD PUSH2 0xA2A SWAP1 PUSH2 0x339E JUMP JUMPDEST DUP1 ISZERO PUSH2 0xA77 JUMPI DUP1 PUSH1 0x1F LT PUSH2 0xA4C JUMPI PUSH2 0x100 DUP1 DUP4 SLOAD DIV MUL DUP4 MSTORE SWAP2 PUSH1 0x20 ADD SWAP2 PUSH2 0xA77 JUMP JUMPDEST DUP3 ADD SWAP2 SWAP1 PUSH1 0x0 MSTORE PUSH1 0x20 PUSH1 0x0 KECCAK256 SWAP1 JUMPDEST DUP2 SLOAD DUP2 MSTORE SWAP1 PUSH1 0x1 ADD SWAP1 PUSH1 0x20 ADD DUP1 DUP4 GT PUSH2 0xA5A JUMPI DUP3 SWAP1 SUB PUSH1 0x1F AND DUP3 ADD SWAP2 JUMPDEST POP POP POP POP POP SWAP1 DUP1 PUSH1 0x1 ADD DUP1 SLOAD PUSH2 0xA8C SWAP1 PUSH2 0x339E JUMP JUMPDEST DUP1 PUSH1 0x1F ADD PUSH1 0x20 DUP1 SWAP2 DIV MUL PUSH1 0x20 ADD PUSH1 0x40 MLOAD SWAP1 DUP2 ADD PUSH1 0x40 MSTORE DUP1 SWAP3 SWAP2 SWAP1 DUP2 DUP2 MSTORE PUSH1 0x20 ADD DUP3 DUP1 SLOAD PUSH2 0xAB8 SWAP1 PUSH2 0x339E JUMP JUMPDEST DUP1 ISZERO PUSH2 0xB05 JUMPI DUP1 PUSH1 0x1F LT PUSH2 0xADA JUMPI PUSH2 0x100 DUP1 DUP4 SLOAD DIV MUL DUP4 MSTORE SWAP2 PUSH1 0x20 ADD SWAP2 PUSH2 0xB05 JUMP JUMPDEST DUP3 ADD SWAP2 SWAP1 PUSH1 0x0 MSTORE PUSH1 0x20 PUSH1 0x0 KECCAK256 SWAP1 JUMPDEST DUP2 SLOAD DUP2 MSTORE SWAP1 PUSH1 0x1 ADD SWAP1 PUSH1 0x20 ADD DUP1 DUP4 GT PUSH2 0xAE8 JUMPI DUP3 SWAP1 SUB PUSH1 0x1F AND DUP3 ADD SWAP2 JUMPDEST POP POP POP POP POP SWAP1 DUP1 PUSH1 0x2 ADD DUP1 SLOAD PUSH2 0xB1A SWAP1 PUSH2 0x339E JUMP JUMPDEST DUP1 PUSH1 0x1F ADD PUSH1 0x20 DUP1 SWAP2 DIV MUL PUSH1 0x20 ADD PUSH1 0x40 MLOAD SWAP1 DUP2 ADD PUSH1 0x40 MSTORE DUP1 SWAP3 SWAP2 SWAP1 DUP2 DUP2 MSTORE PUSH1 0x20 ADD DUP3 DUP1 SLOAD PUSH2 0xB46 SWAP1 PUSH2 0x339E JUMP JUMPDEST DUP1 ISZERO PUSH2 0xB93 JUMPI DUP1 PUSH1 0x1F LT PUSH2 0xB68 JUMPI PUSH2 0x100 DUP1 DUP4 SLOAD DIV MUL DUP4 MSTORE SWAP2 PUSH1 0x20 ADD SWAP2 PUSH2 0xB93 JUMP JUMPDEST DUP3 ADD SWAP2 SWAP1 PUSH1 0x0 MSTORE PUSH1 0x20 PUSH1 0x0 KECCAK256 SWAP1 JUMPDEST DUP2 SLOAD DUP2 MSTORE SWAP1 PUSH1 0x1 ADD SWAP1 PUSH1 0x20 ADD DUP1 DUP4 GT PUSH2 0xB76 JUMPI DUP3 SWAP1 SUB PUSH1 0x1F AND DUP3 ADD SWAP2 JUMPDEST POP POP POP POP POP SWAP1 DUP1 PUSH1 0x3 ADD PUSH1 0x0 SWAP1 SLOAD SWAP1 PUSH2 0x100 EXP SWAP1 DIV PUSH20 0xFFFFFFFFFFFFFFFFFFFFFFFFFFFFFFFFFFFFFFFF AND SWAP1 DUP1 PUSH1 0x3 ADD PUSH1 0x14 SWAP1 SLOAD SWAP1 PUSH2 0x100 EXP SWAP1 DIV PUSH1 0xFF AND SWAP1 POP DUP6 JUMP JUMPDEST PUSH1 0x60 PUSH1 0x0 PUSH2 0xBE4 PUSH1 0x66 PUSH2 0x25C8 JUMP JUMPDEST SWAP1 POP PUSH1 0x0 DUP2 PUSH8 0xFFFFFFFFFFFFFFFF DUP2 GT ISZERO PUSH2 0xC28 JUMPI PUSH32 0x4E487B7100000000000000000000000000000000000000000000000000000000 PUSH1 0x0 MSTORE PUSH1 0x41 PUSH1 0x4 MSTORE PUSH1 0x24 PUSH1 0x0 REVERT JUMPDEST PUSH1 0x40 MLOAD SWAP1 DUP1 DUP3 MSTORE DUP1 PUSH1 0x20 MUL PUSH1 0x20 ADD DUP3 ADD PUSH1 0x40 MSTORE DUP1 ISZERO PUSH2 0xC61 JUMPI DUP2 PUSH1 0x20 ADD JUMPDEST PUSH2 0xC4E PUSH2 0x278E JUMP JUMPDEST DUP2 MSTORE PUSH1 0x20 ADD SWAP1 PUSH1 0x1 SWAP1 SUB SWAP1 DUP2 PUSH2 0xC46 JUMPI SWAP1 POP JUMPDEST POP SWAP1 POP PUSH1 0x0 JUMPDEST DUP3 DUP2 LT ISZERO PUSH2 0xF23 JUMPI PUSH1 0x0 PUSH1 0x1 DUP3 PUSH2 0xC7E SWAP2 SWAP1 PUSH2 0x329F JUMP JUMPDEST SWAP1 POP PUSH1 0x0 PUSH1 0x67 PUSH1 0x0 DUP4 DUP2 MSTORE PUSH1 0x20 ADD SWAP1 DUP2 MSTORE PUSH1 0x20 ADD PUSH1 0x0 KECCAK256 SWAP1 POP DUP1 PUSH1 0x40 MLOAD DUP1 PUSH1 0xA0 ADD PUSH1 0x40 MSTORE SWAP1 DUP2 PUSH1 0x0 DUP3 ADD DUP1 SLOAD PUSH2 0xCB3 SWAP1 PUSH2 0x339E JUMP JUMPDEST DUP1 PUSH1 0x1F ADD PUSH1 0x20 DUP1 SWAP2 DIV MUL PUSH1 0x20 ADD PUSH1 0x40 MLOAD SWAP1 DUP2 ADD PUSH1 0x40 MSTORE DUP1 SWAP3 SWAP2 SWAP1 DUP2 DUP2 MSTORE PUSH1 0x20 ADD DUP3 DUP1 SLOAD PUSH2 0xCDF SWAP1 PUSH2 0x339E JUMP JUMPDEST DUP1 ISZERO PUSH2 0xD2C JUMPI DUP1 PUSH1 0x1F LT PUSH2 0xD01 JUMPI PUSH2 0x100 DUP1 DUP4 SLOAD DIV MUL DUP4 MSTORE SWAP2 PUSH1 0x20 ADD SWAP2 PUSH2 0xD2C JUMP JUMPDEST DUP3 ADD SWAP2 SWAP1 PUSH1 0x0 MSTORE PUSH1 0x20 PUSH1 0x0 KECCAK256 SWAP1 JUMPDEST DUP2 SLOAD DUP2 MSTORE SWAP1 PUSH1 0x1 ADD SWAP1 PUSH1 0x20 ADD DUP1 DUP4 GT PUSH2 0xD0F JUMPI DUP3 SWAP1 SUB PUSH1 0x1F AND DUP3 ADD SWAP2 JUMPDEST POP POP POP POP POP DUP2 MSTORE PUSH1 0x20 ADD PUSH1 0x1 DUP3 ADD DUP1 SLOAD PUSH2 0xD45 SWAP1 PUSH2 0x339E JUMP JUMPDEST DUP1 PUSH1 0x1F ADD PUSH1 0x20 DUP1 SWAP2 DIV MUL PUSH1 0x20 ADD PUSH1 0x40 MLOAD SWAP1 DUP2 ADD PUSH1 0x40 MSTORE DUP1 SWAP3 SWAP2 SWAP1 DUP2 DUP2 MSTORE PUSH1 0x20 ADD DUP3 DUP1 SLOAD PUSH2 0xD71 SWAP1 PUSH2 0x339E JUMP JUMPDEST DUP1 ISZERO PUSH2 0xDBE JUMPI DUP1 PUSH1 0x1F LT PUSH2 0xD93 JUMPI PUSH2 0x100 DUP1 DUP4 SLOAD DIV MUL DUP4 MSTORE SWAP2 PUSH1 0x20 ADD SWAP2 PUSH2 0xDBE JUMP JUMPDEST DUP3 ADD SWAP2 SWAP1 PUSH1 0x0 MSTORE PUSH1 0x20 PUSH1 0x0 KECCAK256 SWAP1 JUMPDEST DUP2 SLOAD DUP2 MSTORE SWAP1 PUSH1 0x1 ADD SWAP1 PUSH1 0x20 ADD DUP1 DUP4 GT PUSH2 0xDA1 JUMPI DUP3 SWAP1 SUB PUSH1 0x1F AND DUP3 ADD SWAP2 JUMPDEST POP POP POP POP POP DUP2 MSTORE PUSH1 0x20 ADD PUSH1 0x2 DUP3 ADD DUP1 SLOAD PUSH2 0xDD7 SWAP1 PUSH2 0x339E JUMP JUMPDEST DUP1 PUSH1 0x1F ADD PUSH1 0x20 DUP1 SWAP2 DIV MUL PUSH1 0x20 ADD PUSH1 0x40 MLOAD SWAP1 DUP2 ADD PUSH1 0x40 MSTORE DUP1 SWAP3 SWAP2 SWAP1 DUP2 DUP2 MSTORE PUSH1 0x20 ADD DUP3 DUP1 SLOAD PUSH2 0xE03 SWAP1 PUSH2 0x339E JUMP JUMPDEST DUP1 ISZERO PUSH2 0xE50 JUMPI DUP1 PUSH1 0x1F LT PUSH2 0xE25 JUMPI PUSH2 0x100 DUP1 DUP4 SLOAD DIV MUL DUP4 MSTORE SWAP2 PUSH1 0x20 ADD SWAP2 PUSH2 0xE50 JUMP JUMPDEST DUP3 ADD SWAP2 SWAP1 PUSH1 0x0 MSTORE PUSH1 0x20 PUSH1 0x0 KECCAK256 SWAP1 JUMPDEST DUP2 SLOAD DUP2 MSTORE SWAP1 PUSH1 0x1 ADD SWAP1 PUSH1 0x20 ADD DUP1 DUP4 GT PUSH2 0xE33 JUMPI DUP3 SWAP1 SUB PUSH1 0x1F AND DUP3 ADD SWAP2 JUMPDEST POP POP POP POP POP DUP2 MSTORE PUSH1 0x20 ADD PUSH1 0x3 DUP3 ADD PUSH1 0x0 SWAP1 SLOAD SWAP1 PUSH2 0x100 EXP SWAP1 DIV PUSH20 0xFFFFFFFFFFFFFFFFFFFFFFFFFFFFFFFFFFFFFFFF AND PUSH20 0xFFFFFFFFFFFFFFFFFFFFFFFFFFFFFFFFFFFFFFFF AND PUSH20 0xFFFFFFFFFFFFFFFFFFFFFFFFFFFFFFFFFFFFFFFF AND DUP2 MSTORE PUSH1 0x20 ADD PUSH1 0x3 DUP3 ADD PUSH1 0x14 SWAP1 SLOAD SWAP1 PUSH2 0x100 EXP SWAP1 DIV PUSH1 0xFF AND ISZERO ISZERO ISZERO ISZERO DUP2 MSTORE POP POP DUP5 DUP5 DUP2 MLOAD DUP2 LT PUSH2 0xF03 JUMPI PUSH32 0x4E487B7100000000000000000000000000000000000000000000000000000000 PUSH1 0x0 MSTORE PUSH1 0x32 PUSH1 0x4 MSTORE PUSH1 0x24 PUSH1 0x0 REVERT JUMPDEST PUSH1 0x20 MUL PUSH1 0x20 ADD ADD DUP2 SWAP1 MSTORE POP POP POP DUP1 DUP1 PUSH2 0xF1B SWAP1 PUSH2 0x3401 JUMP JUMPDEST SWAP2 POP POP PUSH2 0xC67 JUMP JUMPDEST POP DUP1 SWAP3 POP POP POP SWAP1 JUMP JUMPDEST PUSH1 0x65 PUSH1 0x0 SWAP1 SLOAD SWAP1 PUSH2 0x100 EXP SWAP1 DIV PUSH20 0xFFFFFFFFFFFFFFFFFFFFFFFFFFFFFFFFFFFFFFFF AND DUP2 JUMP JUMPDEST PUSH1 0x60 PUSH1 0x0 PUSH2 0xF60 PUSH1 0x66 PUSH2 0x25C8 JUMP JUMPDEST SWAP1 POP PUSH1 0x0 DUP1 PUSH1 0x0 JUMPDEST DUP4 DUP2 LT ISZERO PUSH2 0x1008 JUMPI DUP6 PUSH1 0x40 MLOAD PUSH1 0x20 ADD PUSH2 0xF81 SWAP2 SWAP1 PUSH2 0x2F34 JUMP JUMPDEST PUSH1 0x40 MLOAD PUSH1 0x20 DUP2 DUP4 SUB SUB DUP2 MSTORE SWAP1 PUSH1 0x40 MSTORE DUP1 MLOAD SWAP1 PUSH1 0x20 ADD KECCAK256 PUSH1 0x67 PUSH1 0x0 PUSH1 0x1 DUP5 PUSH2 0xFA8 SWAP2 SWAP1 PUSH2 0x329F JUMP JUMPDEST DUP2 MSTORE PUSH1 0x20 ADD SWAP1 DUP2 MSTORE PUSH1 0x20 ADD PUSH1 0x0 KECCAK256 PUSH1 0x1 ADD PUSH1 0x40 MLOAD PUSH1 0x20 ADD PUSH2 0xFC9 SWAP2 SWAP1 PUSH2 0x2F4B JUMP JUMPDEST PUSH1 0x40 MLOAD PUSH1 0x20 DUP2 DUP4 SUB SUB DUP2 MSTORE SWAP1 PUSH1 0x40 MSTORE DUP1 MLOAD SWAP1 PUSH1 0x20 ADD KECCAK256 EQ ISZERO PUSH2 0xFF5 JUMPI PUSH1 0x1 DUP4 PUSH2 0xFF2 SWAP2 SWAP1 PUSH2 0x329F JUMP JUMPDEST SWAP3 POP JUMPDEST DUP1 DUP1 PUSH2 0x1000 SWAP1 PUSH2 0x3401 JUMP JUMPDEST SWAP2 POP POP PUSH2 0xF68 JUMP JUMPDEST POP PUSH1 0x0 DUP3 PUSH8 0xFFFFFFFFFFFFFFFF DUP2 GT ISZERO PUSH2 0x104B JUMPI PUSH32 0x4E487B7100000000000000000000000000000000000000000000000000000000 PUSH1 0x0 MSTORE PUSH1 0x41 PUSH1 0x4 MSTORE PUSH1 0x24 PUSH1 0x0 REVERT JUMPDEST PUSH1 0x40 MLOAD SWAP1 DUP1 DUP3 MSTORE DUP1 PUSH1 0x20 MUL PUSH1 0x20 ADD DUP3 ADD PUSH1 0x40 MSTORE DUP1 ISZERO PUSH2 0x1084 JUMPI DUP2 PUSH1 0x20 ADD JUMPDEST PUSH2 0x1071 PUSH2 0x278E JUMP JUMPDEST DUP2 MSTORE PUSH1 0x20 ADD SWAP1 PUSH1 0x1 SWAP1 SUB SWAP1 DUP2 PUSH2 0x1069 JUMPI SWAP1 POP JUMPDEST POP SWAP1 POP PUSH1 0x0 JUMPDEST DUP5 DUP2 LT ISZERO PUSH2 0x13CB JUMPI DUP7 PUSH1 0x40 MLOAD PUSH1 0x20 ADD PUSH2 0x10A3 SWAP2 SWAP1 PUSH2 0x2F34 JUMP JUMPDEST PUSH1 0x40 MLOAD PUSH1 0x20 DUP2 DUP4 SUB SUB DUP2 MSTORE SWAP1 PUSH1 0x40 MSTORE DUP1 MLOAD SWAP1 PUSH1 0x20 ADD KECCAK256 PUSH1 0x67 PUSH1 0x0 PUSH1 0x1 DUP5 PUSH2 0x10CA SWAP2 SWAP1 PUSH2 0x329F JUMP JUMPDEST DUP2 MSTORE PUSH1 0x20 ADD SWAP1 DUP2 MSTORE PUSH1 0x20 ADD PUSH1 0x0 KECCAK256 PUSH1 0x1 ADD PUSH1 0x40 MLOAD PUSH1 0x20 ADD PUSH2 0x10EB SWAP2 SWAP1 PUSH2 0x2F4B JUMP JUMPDEST PUSH1 0x40 MLOAD PUSH1 0x20 DUP2 DUP4 SUB SUB DUP2 MSTORE SWAP1 PUSH1 0x40 MSTORE DUP1 MLOAD SWAP1 PUSH1 0x20 ADD KECCAK256 EQ ISZERO PUSH2 0x13B8 JUMPI PUSH1 0x0 PUSH1 0x1 DUP3 PUSH2 0x1116 SWAP2 SWAP1 PUSH2 0x329F JUMP JUMPDEST SWAP1 POP PUSH1 0x0 PUSH1 0x67 PUSH1 0x0 DUP4 DUP2 MSTORE PUSH1 0x20 ADD SWAP1 DUP2 MSTORE PUSH1 0x20 ADD PUSH1 0x0 KECCAK256 SWAP1 POP DUP1 PUSH1 0x40 MLOAD DUP1 PUSH1 0xA0 ADD PUSH1 0x40 MSTORE SWAP1 DUP2 PUSH1 0x0 DUP3 ADD DUP1 SLOAD PUSH2 0x114B SWAP1 PUSH2 0x339E JUMP JUMPDEST DUP1 PUSH1 0x1F ADD PUSH1 0x20 DUP1 SWAP2 DIV MUL PUSH1 0x20 ADD PUSH1 0x40 MLOAD SWAP1 DUP2 ADD PUSH1 0x40 MSTORE DUP1 SWAP3 SWAP2 SWAP1 DUP2 DUP2 MSTORE PUSH1 0x20 ADD DUP3 DUP1 SLOAD PUSH2 0x1177 SWAP1 PUSH2 0x339E JUMP JUMPDEST DUP1 ISZERO PUSH2 0x11C4 JUMPI DUP1 PUSH1 0x1F LT PUSH2 0x1199 JUMPI PUSH2 0x100 DUP1 DUP4 SLOAD DIV MUL DUP4 MSTORE SWAP2 PUSH1 0x20 ADD SWAP2 PUSH2 0x11C4 JUMP JUMPDEST DUP3 ADD SWAP2 SWAP1 PUSH1 0x0 MSTORE PUSH1 0x20 PUSH1 0x0 KECCAK256 SWAP1 JUMPDEST DUP2 SLOAD DUP2 MSTORE SWAP1 PUSH1 0x1 ADD SWAP1 PUSH1 0x20 ADD DUP1 DUP4 GT PUSH2 0x11A7 JUMPI DUP3 SWAP1 SUB PUSH1 0x1F AND DUP3 ADD SWAP2 JUMPDEST POP POP POP POP POP DUP2 MSTORE PUSH1 0x20 ADD PUSH1 0x1 DUP3 ADD DUP1 SLOAD PUSH2 0x11DD SWAP1 PUSH2 0x339E JUMP JUMPDEST DUP1 PUSH1 0x1F ADD PUSH1 0x20 DUP1 SWAP2 DIV MUL PUSH1 0x20 ADD PUSH1 0x40 MLOAD SWAP1 DUP2 ADD PUSH1 0x40 MSTORE DUP1 SWAP3 SWAP2 SWAP1 DUP2 DUP2 MSTORE PUSH1 0x20 ADD DUP3 DUP1 SLOAD PUSH2 0x1209 SWAP1 PUSH2 0x339E JUMP JUMPDEST DUP1 ISZERO PUSH2 0x1256 JUMPI DUP1 PUSH1 0x1F LT PUSH2 0x122B JUMPI PUSH2 0x100 DUP1 DUP4 SLOAD DIV MUL DUP4 MSTORE SWAP2 PUSH1 0x20 ADD SWAP2 PUSH2 0x1256 JUMP JUMPDEST DUP3 ADD SWAP2 SWAP1 PUSH1 0x0 MSTORE PUSH1 0x20 PUSH1 0x0 KECCAK256 SWAP1 JUMPDEST DUP2 SLOAD DUP2 MSTORE SWAP1 PUSH1 0x1 ADD SWAP1 PUSH1 0x20 ADD DUP1 DUP4 GT PUSH2 0x1239 JUMPI DUP3 SWAP1 SUB PUSH1 0x1F AND DUP3 ADD SWAP2 JUMPDEST POP POP POP POP POP DUP2 MSTORE PUSH1 0x20 ADD PUSH1 0x2 DUP3 ADD DUP1 SLOAD PUSH2 0x126F SWAP1 PUSH2 0x339E JUMP JUMPDEST DUP1 PUSH1 0x1F ADD PUSH1 0x20 DUP1 SWAP2 DIV MUL PUSH1 0x20 ADD PUSH1 0x40 MLOAD SWAP1 DUP2 ADD PUSH1 0x40 MSTORE DUP1 SWAP3 SWAP2 SWAP1 DUP2 DUP2 MSTORE PUSH1 0x20 ADD DUP3 DUP1 SLOAD PUSH2 0x129B SWAP1 PUSH2 0x339E JUMP JUMPDEST DUP1 ISZERO PUSH2 0x12E8 JUMPI DUP1 PUSH1 0x1F LT PUSH2 0x12BD JUMPI PUSH2 0x100 DUP1 DUP4 SLOAD DIV MUL DUP4 MSTORE SWAP2 PUSH1 0x20 ADD SWAP2 PUSH2 0x12E8 JUMP JUMPDEST DUP3 ADD SWAP2 SWAP1 PUSH1 0x0 MSTORE PUSH1 0x20 PUSH1 0x0 KECCAK256 SWAP1 JUMPDEST DUP2 SLOAD DUP2 MSTORE SWAP1 PUSH1 0x1 ADD SWAP1 PUSH1 0x20 ADD DUP1 DUP4 GT PUSH2 0x12CB JUMPI DUP3 SWAP1 SUB PUSH1 0x1F AND DUP3 ADD SWAP2 JUMPDEST POP POP POP POP POP DUP2 MSTORE PUSH1 0x20 ADD PUSH1 0x3 DUP3 ADD PUSH1 0x0 SWAP1 SLOAD SWAP1 PUSH2 0x100 EXP SWAP1 DIV PUSH20 0xFFFFFFFFFFFFFFFFFFFFFFFFFFFFFFFFFFFFFFFF AND PUSH20 0xFFFFFFFFFFFFFFFFFFFFFFFFFFFFFFFFFFFFFFFF AND PUSH20 0xFFFFFFFFFFFFFFFFFFFFFFFFFFFFFFFFFFFFFFFF AND DUP2 MSTORE PUSH1 0x20 ADD PUSH1 0x3 DUP3 ADD PUSH1 0x14 SWAP1 SLOAD SWAP1 PUSH2 0x100 EXP SWAP1 DIV PUSH1 0xFF AND ISZERO ISZERO ISZERO ISZERO DUP2 MSTORE POP POP DUP5 DUP7 DUP2 MLOAD DUP2 LT PUSH2 0x139B JUMPI PUSH32 0x4E487B7100000000000000000000000000000000000000000000000000000000 PUSH1 0x0 MSTORE PUSH1 0x32 PUSH1 0x4 MSTORE PUSH1 0x24 PUSH1 0x0 REVERT JUMPDEST PUSH1 0x20 MUL PUSH1 0x20 ADD ADD DUP2 SWAP1 MSTORE POP PUSH1 0x1 DUP6 PUSH2 0x13B3 SWAP2 SWAP1 PUSH2 0x329F JUMP JUMPDEST SWAP5 POP POP POP JUMPDEST DUP1 DUP1 PUSH2 0x13C3 SWAP1 PUSH2 0x3401 JUMP JUMPDEST SWAP2 POP POP PUSH2 0x108A JUMP JUMPDEST POP DUP1 SWAP5 POP POP POP POP POP SWAP2 SWAP1 POP JUMP JUMPDEST PUSH1 0x0 PUSH1 0x33 PUSH1 0x0 DUP4 PUSH20 0xFFFFFFFFFFFFFFFFFFFFFFFFFFFFFFFFFFFFFFFF AND PUSH20 0xFFFFFFFFFFFFFFFFFFFFFFFFFFFFFFFFFFFFFFFF AND DUP2 MSTORE PUSH1 0x20 ADD SWAP1 DUP2 MSTORE PUSH1 0x20 ADD PUSH1 0x0 KECCAK256 SLOAD SWAP1 POP SWAP2 SWAP1 POP JUMP JUMPDEST PUSH1 0x0 PUSH1 0x1 SWAP1 SLOAD SWAP1 PUSH2 0x100 EXP SWAP1 DIV PUSH1 0xFF AND PUSH2 0x1449 JUMPI PUSH1 0x0 DUP1 SLOAD SWAP1 PUSH2 0x100 EXP SWAP1 DIV PUSH1 0xFF AND ISZERO PUSH2 0x1452 JUMP JUMPDEST PUSH2 0x1451 PUSH2 0x25D6 JUMP JUMPDEST JUMPDEST PUSH2 0x1491 JUMPI PUSH1 0x40 MLOAD PUSH32 0x8C379A000000000000000000000000000000000000000000000000000000000 DUP2 MSTORE PUSH1 0x4 ADD PUSH2 0x1488 SWAP1 PUSH2 0x30ED JUMP JUMPDEST PUSH1 0x40 MLOAD DUP1 SWAP2 SUB SWAP1 REVERT JUMPDEST PUSH1 0x0 DUP1 PUSH1 0x1 SWAP1 SLOAD SWAP1 PUSH2 0x100 EXP SWAP1 DIV PUSH1 0xFF AND ISZERO SWAP1 POP DUP1 ISZERO PUSH2 0x14E1 JUMPI PUSH1 0x1 PUSH1 0x0 PUSH1 0x1 PUSH2 0x100 EXP DUP2 SLOAD DUP2 PUSH1 0xFF MUL NOT AND SWAP1 DUP4 ISZERO ISZERO MUL OR SWAP1 SSTORE POP PUSH1 0x1 PUSH1 0x0 DUP1 PUSH2 0x100 EXP DUP2 SLOAD DUP2 PUSH1 0xFF MUL NOT AND SWAP1 DUP4 ISZERO ISZERO MUL OR SWAP1 SSTORE POP JUMPDEST PUSH2 0x1509 PUSH1 0x40 MLOAD DUP1 PUSH1 0x20 ADD PUSH1 0x40 MSTORE DUP1 PUSH1 0x0 DUP2 MSTORE POP PUSH1 0x40 MLOAD DUP1 PUSH1 0x20 ADD PUSH1 0x40 MSTORE DUP1 PUSH1 0x0 DUP2 MSTORE POP PUSH2 0x25E7 JUMP JUMPDEST CALLER PUSH1 0x65 PUSH1 0x0 PUSH2 0x100 EXP DUP2 SLOAD DUP2 PUSH20 0xFFFFFFFFFFFFFFFFFFFFFFFFFFFFFFFFFFFFFFFF MUL NOT AND SWAP1 DUP4 PUSH20 0xFFFFFFFFFFFFFFFFFFFFFFFFFFFFFFFFFFFFFFFF AND MUL OR SWAP1 SSTORE POP DUP1 ISZERO PUSH2 0x156B JUMPI PUSH1 0x0 DUP1 PUSH1 0x1 PUSH2 0x100 EXP DUP2 SLOAD DUP2 PUSH1 0xFF MUL NOT AND SWAP1 DUP4 ISZERO ISZERO MUL OR SWAP1 SSTORE POP JUMPDEST POP JUMP JUMPDEST PUSH1 0x60 PUSH1 0x0 PUSH2 0x157C PUSH1 0x66 PUSH2 0x25C8 JUMP JUMPDEST SWAP1 POP PUSH1 0x0 PUSH1 0x1 PUSH8 0xFFFFFFFFFFFFFFFF DUP2 GT ISZERO PUSH2 0x15C1 JUMPI PUSH32 0x4E487B7100000000000000000000000000000000000000000000000000000000 PUSH1 0x0 MSTORE PUSH1 0x41 PUSH1 0x4 MSTORE PUSH1 0x24 PUSH1 0x0 REVERT JUMPDEST PUSH1 0x40 MLOAD SWAP1 DUP1 DUP3 MSTORE DUP1 PUSH1 0x20 MUL PUSH1 0x20 ADD DUP3 ADD PUSH1 0x40 MSTORE DUP1 ISZERO PUSH2 0x15FA JUMPI DUP2 PUSH1 0x20 ADD JUMPDEST PUSH2 0x15E7 PUSH2 0x278E JUMP JUMPDEST DUP2 MSTORE PUSH1 0x20 ADD SWAP1 PUSH1 0x1 SWAP1 SUB SWAP1 DUP2 PUSH2 0x15DF JUMPI SWAP1 POP JUMPDEST POP SWAP1 POP PUSH1 0x0 JUMPDEST DUP3 DUP2 LT ISZERO PUSH2 0x1931 JUMPI DUP5 PUSH20 0xFFFFFFFFFFFFFFFFFFFFFFFFFFFFFFFFFFFFFFFF AND PUSH1 0x67 PUSH1 0x0 PUSH1 0x1 DUP5 PUSH2 0x1630 SWAP2 SWAP1 PUSH2 0x329F JUMP JUMPDEST DUP2 MSTORE PUSH1 0x20 ADD SWAP1 DUP2 MSTORE PUSH1 0x20 ADD PUSH1 0x0 KECCAK256 PUSH1 0x3 ADD PUSH1 0x0 SWAP1 SLOAD SWAP1 PUSH2 0x100 EXP SWAP1 DIV PUSH20 0xFFFFFFFFFFFFFFFFFFFFFFFFFFFFFFFFFFFFFFFF AND PUSH20 0xFFFFFFFFFFFFFFFFFFFFFFFFFFFFFFFFFFFFFFFF AND EQ ISZERO PUSH2 0x191E JUMPI PUSH1 0x0 PUSH1 0x67 PUSH1 0x0 PUSH1 0x1 DUP5 PUSH2 0x1691 SWAP2 SWAP1 PUSH2 0x329F JUMP JUMPDEST DUP2 MSTORE PUSH1 0x20 ADD SWAP1 DUP2 MSTORE PUSH1 0x20 ADD PUSH1 0x0 KECCAK256 SWAP1 POP DUP1 PUSH1 0x40 MLOAD DUP1 PUSH1 0xA0 ADD PUSH1 0x40 MSTORE SWAP1 DUP2 PUSH1 0x0 DUP3 ADD DUP1 SLOAD PUSH2 0x16BD SWAP1 PUSH2 0x339E JUMP JUMPDEST DUP1 PUSH1 0x1F ADD PUSH1 0x20 DUP1 SWAP2 DIV MUL PUSH1 0x20 ADD PUSH1 0x40 MLOAD SWAP1 DUP2 ADD PUSH1 0x40 MSTORE DUP1 SWAP3 SWAP2 SWAP1 DUP2 DUP2 MSTORE PUSH1 0x20 ADD DUP3 DUP1 SLOAD PUSH2 0x16E9 SWAP1 PUSH2 0x339E JUMP JUMPDEST DUP1 ISZERO PUSH2 0x1736 JUMPI DUP1 PUSH1 0x1F LT PUSH2 0x170B JUMPI PUSH2 0x100 DUP1 DUP4 SLOAD DIV MUL DUP4 MSTORE SWAP2 PUSH1 0x20 ADD SWAP2 PUSH2 0x1736 JUMP JUMPDEST DUP3 ADD SWAP2 SWAP1 PUSH1 0x0 MSTORE PUSH1 0x20 PUSH1 0x0 KECCAK256 SWAP1 JUMPDEST DUP2 SLOAD DUP2 MSTORE SWAP1 PUSH1 0x1 ADD SWAP1 PUSH1 0x20 ADD DUP1 DUP4 GT PUSH2 0x1719 JUMPI DUP3 SWAP1 SUB PUSH1 0x1F AND DUP3 ADD SWAP2 JUMPDEST POP POP POP POP POP DUP2 MSTORE PUSH1 0x20 ADD PUSH1 0x1 DUP3 ADD DUP1 SLOAD PUSH2 0x174F SWAP1 PUSH2 0x339E JUMP JUMPDEST DUP1 PUSH1 0x1F ADD PUSH1 0x20 DUP1 SWAP2 DIV MUL PUSH1 0x20 ADD PUSH1 0x40 MLOAD SWAP1 DUP2 ADD PUSH1 0x40 MSTORE DUP1 SWAP3 SWAP2 SWAP1 DUP2 DUP2 MSTORE PUSH1 0x20 ADD DUP3 DUP1 SLOAD PUSH2 0x177B SWAP1 PUSH2 0x339E JUMP JUMPDEST DUP1 ISZERO PUSH2 0x17C8 JUMPI DUP1 PUSH1 0x1F LT PUSH2 0x179D JUMPI PUSH2 0x100 DUP1 DUP4 SLOAD DIV MUL DUP4 MSTORE SWAP2 PUSH1 0x20 ADD SWAP2 PUSH2 0x17C8 JUMP JUMPDEST DUP3 ADD SWAP2 SWAP1 PUSH1 0x0 MSTORE PUSH1 0x20 PUSH1 0x0 KECCAK256 SWAP1 JUMPDEST DUP2 SLOAD DUP2 MSTORE SWAP1 PUSH1 0x1 ADD SWAP1 PUSH1 0x20 ADD DUP1 DUP4 GT PUSH2 0x17AB JUMPI DUP3 SWAP1 SUB PUSH1 0x1F AND DUP3 ADD SWAP2 JUMPDEST POP POP POP POP POP DUP2 MSTORE PUSH1 0x20 ADD PUSH1 0x2 DUP3 ADD DUP1 SLOAD PUSH2 0x17E1 SWAP1 PUSH2 0x339E JUMP JUMPDEST DUP1 PUSH1 0x1F ADD PUSH1 0x20 DUP1 SWAP2 DIV MUL PUSH1 0x20 ADD PUSH1 0x40 MLOAD SWAP1 DUP2 ADD PUSH1 0x40 MSTORE DUP1 SWAP3 SWAP2 SWAP1 DUP2 DUP2 MSTORE PUSH1 0x20 ADD DUP3 DUP1 SLOAD PUSH2 0x180D SWAP1 PUSH2 0x339E JUMP JUMPDEST DUP1 ISZERO PUSH2 0x185A JUMPI DUP1 PUSH1 0x1F LT PUSH2 0x182F JUMPI PUSH2 0x100 DUP1 DUP4 SLOAD DIV MUL DUP4 MSTORE SWAP2 PUSH1 0x20 ADD SWAP2 PUSH2 0x185A JUMP JUMPDEST DUP3 ADD SWAP2 SWAP1 PUSH1 0x0 MSTORE PUSH1 0x20 PUSH1 0x0 KECCAK256 SWAP1 JUMPDEST DUP2 SLOAD DUP2 MSTORE SWAP1 PUSH1 0x1 ADD SWAP1 PUSH1 0x20 ADD DUP1 DUP4 GT PUSH2 0x183D JUMPI DUP3 SWAP1 SUB PUSH1 0x1F AND DUP3 ADD SWAP2 JUMPDEST POP POP POP POP POP DUP2 MSTORE PUSH1 0x20 ADD PUSH1 0x3 DUP3 ADD PUSH1 0x0 SWAP1 SLOAD SWAP1 PUSH2 0x100 EXP SWAP1 DIV PUSH20 0xFFFFFFFFFFFFFFFFFFFFFFFFFFFFFFFFFFFFFFFF AND PUSH20 0xFFFFFFFFFFFFFFFFFFFFFFFFFFFFFFFFFFFFFFFF AND PUSH20 0xFFFFFFFFFFFFFFFFFFFFFFFFFFFFFFFFFFFFFFFF AND DUP2 MSTORE PUSH1 0x20 ADD PUSH1 0x3 DUP3 ADD PUSH1 0x14 SWAP1 SLOAD SWAP1 PUSH2 0x100 EXP SWAP1 DIV PUSH1 0xFF AND ISZERO ISZERO ISZERO ISZERO DUP2 MSTORE POP POP DUP4 DUP4 DUP2 MLOAD DUP2 LT PUSH2 0x190D JUMPI PUSH32 0x4E487B7100000000000000000000000000000000000000000000000000000000 PUSH1 0x0 MSTORE PUSH1 0x32 PUSH1 0x4 MSTORE PUSH1 0x24 PUSH1 0x0 REVERT JUMPDEST PUSH1 0x20 MUL PUSH1 0x20 ADD ADD DUP2 SWAP1 MSTORE POP POP PUSH2 0x1931 JUMP JUMPDEST DUP1 DUP1 PUSH2 0x1929 SWAP1 PUSH2 0x3401 JUMP JUMPDEST SWAP2 POP POP PUSH2 0x1600 JUMP JUMPDEST POP DUP1 SWAP3 POP POP POP SWAP2 SWAP1 POP JUMP JUMPDEST PUSH1 0x60 PUSH1 0x37 DUP1 SLOAD PUSH2 0x194B SWAP1 PUSH2 0x339E JUMP JUMPDEST DUP1 PUSH1 0x1F ADD PUSH1 0x20 DUP1 SWAP2 DIV MUL PUSH1 0x20 ADD PUSH1 0x40 MLOAD SWAP1 DUP2 ADD PUSH1 0x40 MSTORE DUP1 SWAP3 SWAP2 SWAP1 DUP2 DUP2 MSTORE PUSH1 0x20 ADD DUP3 DUP1 SLOAD PUSH2 0x1977 SWAP1 PUSH2 0x339E JUMP JUMPDEST DUP1 ISZERO PUSH2 0x19C4 JUMPI DUP1 PUSH1 0x1F LT PUSH2 0x1999 JUMPI PUSH2 0x100 DUP1 DUP4 SLOAD DIV MUL DUP4 MSTORE SWAP2 PUSH1 0x20 ADD SWAP2 PUSH2 0x19C4 JUMP JUMPDEST DUP3 ADD SWAP2 SWAP1 PUSH1 0x0 MSTORE PUSH1 0x20 PUSH1 0x0 KECCAK256 SWAP1 JUMPDEST DUP2 SLOAD DUP2 MSTORE SWAP1 PUSH1 0x1 ADD SWAP1 PUSH1 0x20 ADD DUP1 DUP4 GT PUSH2 0x19A7 JUMPI DUP3 SWAP1 SUB PUSH1 0x1F AND DUP3 ADD SWAP2 JUMPDEST POP POP POP POP POP SWAP1 POP SWAP1 JUMP JUMPDEST PUSH1 0x0 DUP1 PUSH2 0x19D9 PUSH2 0x20E5 JUMP JUMPDEST SWAP1 POP PUSH1 0x0 PUSH1 0x34 PUSH1 0x0 DUP4 PUSH20 0xFFFFFFFFFFFFFFFFFFFFFFFFFFFFFFFFFFFFFFFF AND PUSH20 0xFFFFFFFFFFFFFFFFFFFFFFFFFFFFFFFFFFFFFFFF AND DUP2 MSTORE PUSH1 0x20 ADD SWAP1 DUP2 MSTORE PUSH1 0x20 ADD PUSH1 0x0 KECCAK256 PUSH1 0x0 DUP7 PUSH20 0xFFFFFFFFFFFFFFFFFFFFFFFFFFFFFFFFFFFFFFFF AND PUSH20 0xFFFFFFFFFFFFFFFFFFFFFFFFFFFFFFFFFFFFFFFF AND DUP2 MSTORE PUSH1 0x20 ADD SWAP1 DUP2 MSTORE PUSH1 0x20 ADD PUSH1 0x0 KECCAK256 SLOAD SWAP1 POP DUP4 DUP2 LT ISZERO PUSH2 0x1A9F JUMPI PUSH1 0x40 MLOAD PUSH32 0x8C379A000000000000000000000000000000000000000000000000000000000 DUP2 MSTORE PUSH1 0x4 ADD PUSH2 0x1A96 SWAP1 PUSH2 0x316D JUMP JUMPDEST PUSH1 0x40 MLOAD DUP1 SWAP2 SUB SWAP1 REVERT JUMPDEST PUSH2 0x1AAC DUP3 DUP7 DUP7 DUP5 SUB PUSH2 0x20ED JUMP JUMPDEST PUSH1 0x1 SWAP3 POP POP POP SWAP3 SWAP2 POP POP JUMP JUMPDEST PUSH1 0x0 DUP1 PUSH2 0x1AC3 PUSH2 0x20E5 JUMP JUMPDEST SWAP1 POP PUSH2 0x1AD0 DUP2 DUP6 DUP6 PUSH2 0x2344 JUMP JUMPDEST PUSH1 0x1 SWAP2 POP POP SWAP3 SWAP2 POP POP JUMP JUMPDEST PUSH1 0x0 PUSH1 0x34 PUSH1 0x0 DUP5 PUSH20 0xFFFFFFFFFFFFFFFFFFFFFFFFFFFFFFFFFFFFFFFF AND PUSH20 0xFFFFFFFFFFFFFFFFFFFFFFFFFFFFFFFFFFFFFFFF AND DUP2 MSTORE PUSH1 0x20 ADD SWAP1 DUP2 MSTORE PUSH1 0x20 ADD PUSH1 0x0 KECCAK256 PUSH1 0x0 DUP4 PUSH20 0xFFFFFFFFFFFFFFFFFFFFFFFFFFFFFFFFFFFFFFFF AND PUSH20 0xFFFFFFFFFFFFFFFFFFFFFFFFFFFFFFFFFFFFFFFF AND DUP2 MSTORE PUSH1 0x20 ADD SWAP1 DUP2 MSTORE PUSH1 0x20 ADD PUSH1 0x0 KECCAK256 SLOAD SWAP1 POP SWAP3 SWAP2 POP POP JUMP JUMPDEST PUSH2 0x1B6C PUSH1 0x66 PUSH2 0x2644 JUMP JUMPDEST PUSH1 0x0 PUSH2 0x1B78 PUSH1 0x66 PUSH2 0x25C8 JUMP JUMPDEST SWAP1 POP PUSH1 0x1 ISZERO ISZERO DUP3 ISZERO ISZERO EQ ISZERO PUSH2 0x1E80 JUMPI PUSH1 0x0 PUSH2 0x1B92 DUP6 PUSH2 0xF52 JUMP JUMPDEST SWAP1 POP PUSH1 0x0 JUMPDEST DUP2 MLOAD DUP2 LT ISZERO PUSH2 0x1CC8 JUMPI PUSH1 0x0 JUMPDEST DUP4 DUP2 LT ISZERO PUSH2 0x1CB4 JUMPI DUP3 DUP3 DUP2 MLOAD DUP2 LT PUSH2 0x1BE4 JUMPI PUSH32 0x4E487B7100000000000000000000000000000000000000000000000000000000 PUSH1 0x0 MSTORE PUSH1 0x32 PUSH1 0x4 MSTORE PUSH1 0x24 PUSH1 0x0 REVERT JUMPDEST PUSH1 0x20 MUL PUSH1 0x20 ADD ADD MLOAD PUSH1 0x60 ADD MLOAD PUSH20 0xFFFFFFFFFFFFFFFFFFFFFFFFFFFFFFFFFFFFFFFF AND PUSH1 0x67 PUSH1 0x0 PUSH1 0x1 DUP5 PUSH2 0x1C17 SWAP2 SWAP1 PUSH2 0x329F JUMP JUMPDEST DUP2 MSTORE PUSH1 0x20 ADD SWAP1 DUP2 MSTORE PUSH1 0x20 ADD PUSH1 0x0 KECCAK256 PUSH1 0x3 ADD PUSH1 0x0 SWAP1 SLOAD SWAP1 PUSH2 0x100 EXP SWAP1 DIV PUSH20 0xFFFFFFFFFFFFFFFFFFFFFFFFFFFFFFFFFFFFFFFF AND PUSH20 0xFFFFFFFFFFFFFFFFFFFFFFFFFFFFFFFFFFFFFFFF AND EQ ISZERO PUSH2 0x1CA1 JUMPI PUSH1 0x0 PUSH1 0x67 PUSH1 0x0 PUSH1 0x1 DUP5 PUSH2 0x1C78 SWAP2 SWAP1 PUSH2 0x329F JUMP JUMPDEST DUP2 MSTORE PUSH1 0x20 ADD SWAP1 DUP2 MSTORE PUSH1 0x20 ADD PUSH1 0x0 KECCAK256 PUSH1 0x3 ADD PUSH1 0x14 PUSH2 0x100 EXP DUP2 SLOAD DUP2 PUSH1 0xFF MUL NOT AND SWAP1 DUP4 ISZERO ISZERO MUL OR SWAP1 SSTORE POP JUMPDEST DUP1 DUP1 PUSH2 0x1CAC SWAP1 PUSH2 0x3401 JUMP JUMPDEST SWAP2 POP POP PUSH2 0x1BA3 JUMP JUMPDEST POP DUP1 DUP1 PUSH2 0x1CC0 SWAP1 PUSH2 0x3401 JUMP JUMPDEST SWAP2 POP POP PUSH2 0x1B97 JUMP JUMPDEST POP PUSH1 0x0 PUSH2 0x1CD4 CALLER PUSH2 0x156E JUMP JUMPDEST SWAP1 POP PUSH1 0x0 JUMPDEST DUP2 MLOAD DUP2 LT ISZERO PUSH2 0x1E7C JUMPI PUSH1 0x0 PUSH2 0x1D31 DUP4 DUP4 DUP2 MLOAD DUP2 LT PUSH2 0x1D20 JUMPI PUSH32 0x4E487B7100000000000000000000000000000000000000000000000000000000 PUSH1 0x0 MSTORE PUSH1 0x32 PUSH1 0x4 MSTORE PUSH1 0x24 PUSH1 0x0 REVERT JUMPDEST PUSH1 0x20 MUL PUSH1 0x20 ADD ADD MLOAD PUSH1 0x20 ADD MLOAD PUSH2 0xF52 JUMP JUMPDEST SWAP1 POP PUSH1 0x0 JUMPDEST DUP2 MLOAD DUP2 LT ISZERO PUSH2 0x1E67 JUMPI PUSH1 0x0 JUMPDEST DUP7 DUP2 LT ISZERO PUSH2 0x1E53 JUMPI DUP3 DUP3 DUP2 MLOAD DUP2 LT PUSH2 0x1D83 JUMPI PUSH32 0x4E487B7100000000000000000000000000000000000000000000000000000000 PUSH1 0x0 MSTORE PUSH1 0x32 PUSH1 0x4 MSTORE PUSH1 0x24 PUSH1 0x0 REVERT JUMPDEST PUSH1 0x20 MUL PUSH1 0x20 ADD ADD MLOAD PUSH1 0x60 ADD MLOAD PUSH20 0xFFFFFFFFFFFFFFFFFFFFFFFFFFFFFFFFFFFFFFFF AND PUSH1 0x67 PUSH1 0x0 PUSH1 0x1 DUP5 PUSH2 0x1DB6 SWAP2 SWAP1 PUSH2 0x329F JUMP JUMPDEST DUP2 MSTORE PUSH1 0x20 ADD SWAP1 DUP2 MSTORE PUSH1 0x20 ADD PUSH1 0x0 KECCAK256 PUSH1 0x3 ADD PUSH1 0x0 SWAP1 SLOAD SWAP1 PUSH2 0x100 EXP SWAP1 DIV PUSH20 0xFFFFFFFFFFFFFFFFFFFFFFFFFFFFFFFFFFFFFFFF AND PUSH20 0xFFFFFFFFFFFFFFFFFFFFFFFFFFFFFFFFFFFFFFFF AND EQ ISZERO PUSH2 0x1E40 JUMPI PUSH1 0x0 PUSH1 0x67 PUSH1 0x0 PUSH1 0x1 DUP5 PUSH2 0x1E17 SWAP2 SWAP1 PUSH2 0x329F JUMP JUMPDEST DUP2 MSTORE PUSH1 0x20 ADD SWAP1 DUP2 MSTORE PUSH1 0x20 ADD PUSH1 0x0 KECCAK256 PUSH1 0x3 ADD PUSH1 0x14 PUSH2 0x100 EXP DUP2 SLOAD DUP2 PUSH1 0xFF MUL NOT AND SWAP1 DUP4 ISZERO ISZERO MUL OR SWAP1 SSTORE POP JUMPDEST DUP1 DUP1 PUSH2 0x1E4B SWAP1 PUSH2 0x3401 JUMP JUMPDEST SWAP2 POP POP PUSH2 0x1D42 JUMP JUMPDEST POP DUP1 DUP1 PUSH2 0x1E5F SWAP1 PUSH2 0x3401 JUMP JUMPDEST SWAP2 POP POP PUSH2 0x1D36 JUMP JUMPDEST POP POP DUP1 DUP1 PUSH2 0x1E74 SWAP1 PUSH2 0x3401 JUMP JUMPDEST SWAP2 POP POP PUSH2 0x1CD9 JUMP JUMPDEST POP POP POP JUMPDEST PUSH1 0x40 MLOAD DUP1 PUSH1 0xA0 ADD PUSH1 0x40 MSTORE DUP1 DUP7 DUP2 MSTORE PUSH1 0x20 ADD DUP6 DUP2 MSTORE PUSH1 0x20 ADD DUP5 DUP2 MSTORE PUSH1 0x20 ADD CALLER PUSH20 0xFFFFFFFFFFFFFFFFFFFFFFFFFFFFFFFFFFFFFFFF AND DUP2 MSTORE PUSH1 0x20 ADD DUP4 ISZERO ISZERO DUP2 MSTORE POP PUSH1 0x67 PUSH1 0x0 DUP4 DUP2 MSTORE PUSH1 0x20 ADD SWAP1 DUP2 MSTORE PUSH1 0x20 ADD PUSH1 0x0 KECCAK256 PUSH1 0x0 DUP3 ADD MLOAD DUP2 PUSH1 0x0 ADD SWAP1 DUP1 MLOAD SWAP1 PUSH1 0x20 ADD SWAP1 PUSH2 0x1EEE SWAP3 SWAP2 SWAP1 PUSH2 0x2708 JUMP JUMPDEST POP PUSH1 0x20 DUP3 ADD MLOAD DUP2 PUSH1 0x1 ADD SWAP1 DUP1 MLOAD SWAP1 PUSH1 0x20 ADD SWAP1 PUSH2 0x1F0B SWAP3 SWAP2 SWAP1 PUSH2 0x2708 JUMP JUMPDEST POP PUSH1 0x40 DUP3 ADD MLOAD DUP2 PUSH1 0x2 ADD SWAP1 DUP1 MLOAD SWAP1 PUSH1 0x20 ADD SWAP1 PUSH2 0x1F28 SWAP3 SWAP2 SWAP1 PUSH2 0x2708 JUMP JUMPDEST POP PUSH1 0x60 DUP3 ADD MLOAD DUP2 PUSH1 0x3 ADD PUSH1 0x0 PUSH2 0x100 EXP DUP2 SLOAD DUP2 PUSH20 0xFFFFFFFFFFFFFFFFFFFFFFFFFFFFFFFFFFFFFFFF MUL NOT AND SWAP1 DUP4 PUSH20 0xFFFFFFFFFFFFFFFFFFFFFFFFFFFFFFFFFFFFFFFF AND MUL OR SWAP1 SSTORE POP PUSH1 0x80 DUP3 ADD MLOAD DUP2 PUSH1 0x3 ADD PUSH1 0x14 PUSH2 0x100 EXP DUP2 SLOAD DUP2 PUSH1 0xFF MUL NOT AND SWAP1 DUP4 ISZERO ISZERO MUL OR SWAP1 SSTORE POP SWAP1 POP POP PUSH1 0x0 JUMPDEST DUP2 DUP2 LT ISZERO PUSH2 0x2062 JUMPI CALLER PUSH20 0xFFFFFFFFFFFFFFFFFFFFFFFFFFFFFFFFFFFFFFFF AND PUSH1 0x67 PUSH1 0x0 PUSH1 0x1 DUP5 PUSH2 0x1FC6 SWAP2 SWAP1 PUSH2 0x329F JUMP JUMPDEST DUP2 MSTORE PUSH1 0x20 ADD SWAP1 DUP2 MSTORE PUSH1 0x20 ADD PUSH1 0x0 KECCAK256 PUSH1 0x3 ADD PUSH1 0x0 SWAP1 SLOAD SWAP1 PUSH2 0x100 EXP SWAP1 DIV PUSH20 0xFFFFFFFFFFFFFFFFFFFFFFFFFFFFFFFFFFFFFFFF AND PUSH20 0xFFFFFFFFFFFFFFFFFFFFFFFFFFFFFFFFFFFFFFFF AND EQ ISZERO PUSH2 0x204F JUMPI DUP3 PUSH1 0x67 PUSH1 0x0 PUSH1 0x1 DUP5 PUSH2 0x2026 SWAP2 SWAP1 PUSH2 0x329F JUMP JUMPDEST DUP2 MSTORE PUSH1 0x20 ADD SWAP1 DUP2 MSTORE PUSH1 0x20 ADD PUSH1 0x0 KECCAK256 PUSH1 0x3 ADD PUSH1 0x14 PUSH2 0x100 EXP DUP2 SLOAD DUP2 PUSH1 0xFF MUL NOT AND SWAP1 DUP4 ISZERO ISZERO MUL OR SWAP1 SSTORE POP JUMPDEST DUP1 DUP1 PUSH2 0x205A SWAP1 PUSH2 0x3401 JUMP JUMPDEST SWAP2 POP POP PUSH2 0x1F96 JUMP JUMPDEST POP DUP3 PUSH1 0x40 MLOAD PUSH2 0x2071 SWAP2 SWAP1 PUSH2 0x2F34 JUMP JUMPDEST PUSH1 0x40 MLOAD DUP1 SWAP2 SUB SWAP1 KECCAK256 DUP5 PUSH1 0x40 MLOAD PUSH2 0x2087 SWAP2 SWAP1 PUSH2 0x2F34 JUMP JUMPDEST PUSH1 0x40 MLOAD DUP1 SWAP2 SUB SWAP1 KECCAK256 DUP7 PUSH1 0x40 MLOAD PUSH2 0x209D SWAP2 SWAP1 PUSH2 0x2F34 JUMP JUMPDEST PUSH1 0x40 MLOAD DUP1 SWAP2 SUB SWAP1 KECCAK256 PUSH32 0x2E3249F822BD56E4E9AE7D39402DEF6DF4618C14F212FBE4C35E0C94EDDEF9FE CALLER DUP7 PUSH1 0x40 MLOAD PUSH2 0x20D6 SWAP3 SWAP2 SWAP1 PUSH2 0x2F7D JUMP JUMPDEST PUSH1 0x40 MLOAD DUP1 SWAP2 SUB SWAP1 LOG4 POP POP POP POP POP JUMP JUMPDEST PUSH1 0x0 CALLER SWAP1 POP SWAP1 JUMP JUMPDEST PUSH1 0x0 PUSH20 0xFFFFFFFFFFFFFFFFFFFFFFFFFFFFFFFFFFFFFFFF AND DUP4 PUSH20 0xFFFFFFFFFFFFFFFFFFFFFFFFFFFFFFFFFFFFFFFF AND EQ ISZERO PUSH2 0x215D JUMPI PUSH1 0x40 MLOAD PUSH32 0x8C379A000000000000000000000000000000000000000000000000000000000 DUP2 MSTORE PUSH1 0x4 ADD PUSH2 0x2154 SWAP1 PUSH2 0x312D JUMP JUMPDEST PUSH1 0x40 MLOAD DUP1 SWAP2 SUB SWAP1 REVERT JUMPDEST PUSH1 0x0 PUSH20 0xFFFFFFFFFFFFFFFFFFFFFFFFFFFFFFFFFFFFFFFF AND DUP3 PUSH20 0xFFFFFFFFFFFFFFFFFFFFFFFFFFFFFFFFFFFFFFFF AND EQ ISZERO PUSH2 0x21CD JUMPI PUSH1 0x40 MLOAD PUSH32 0x8C379A000000000000000000000000000000000000000000000000000000000 DUP2 MSTORE PUSH1 0x4 ADD PUSH2 0x21C4 SWAP1 PUSH2 0x308D JUMP JUMPDEST PUSH1 0x40 MLOAD DUP1 SWAP2 SUB SWAP1 REVERT JUMPDEST DUP1 PUSH1 0x34 PUSH1 0x0 DUP6 PUSH20 0xFFFFFFFFFFFFFFFFFFFFFFFFFFFFFFFFFFFFFFFF AND PUSH20 0xFFFFFFFFFFFFFFFFFFFFFFFFFFFFFFFFFFFFFFFF AND DUP2 MSTORE PUSH1 0x20 ADD SWAP1 DUP2 MSTORE PUSH1 0x20 ADD PUSH1 0x0 KECCAK256 PUSH1 0x0 DUP5 PUSH20 0xFFFFFFFFFFFFFFFFFFFFFFFFFFFFFFFFFFFFFFFF AND PUSH20 0xFFFFFFFFFFFFFFFFFFFFFFFFFFFFFFFFFFFFFFFF AND DUP2 MSTORE PUSH1 0x20 ADD SWAP1 DUP2 MSTORE PUSH1 0x20 ADD PUSH1 0x0 KECCAK256 DUP2 SWAP1 SSTORE POP DUP2 PUSH20 0xFFFFFFFFFFFFFFFFFFFFFFFFFFFFFFFFFFFFFFFF AND DUP4 PUSH20 0xFFFFFFFFFFFFFFFFFFFFFFFFFFFFFFFFFFFFFFFF AND PUSH32 0x8C5BE1E5EBEC7D5BD14F71427D1E84F3DD0314C0F7B2291E5B200AC8C7C3B925 DUP4 PUSH1 0x40 MLOAD PUSH2 0x22AB SWAP2 SWAP1 PUSH2 0x318D JUMP JUMPDEST PUSH1 0x40 MLOAD DUP1 SWAP2 SUB SWAP1 LOG3 POP POP POP JUMP JUMPDEST PUSH1 0x0 PUSH2 0x22C4 DUP5 DUP5 PUSH2 0x1ADB JUMP JUMPDEST SWAP1 POP PUSH32 0xFFFFFFFFFFFFFFFFFFFFFFFFFFFFFFFFFFFFFFFFFFFFFFFFFFFFFFFFFFFFFFFF DUP2 EQ PUSH2 0x233E JUMPI DUP2 DUP2 LT ISZERO PUSH2 0x2330 JUMPI PUSH1 0x40 MLOAD PUSH32 0x8C379A000000000000000000000000000000000000000000000000000000000 DUP2 MSTORE PUSH1 0x4 ADD PUSH2 0x2327 SWAP1 PUSH2 0x30AD JUMP JUMPDEST PUSH1 0x40 MLOAD DUP1 SWAP2 SUB SWAP1 REVERT JUMPDEST PUSH2 0x233D DUP5 DUP5 DUP5 DUP5 SUB PUSH2 0x20ED JUMP JUMPDEST JUMPDEST POP POP POP POP JUMP JUMPDEST PUSH1 0x0 PUSH20 0xFFFFFFFFFFFFFFFFFFFFFFFFFFFFFFFFFFFFFFFF AND DUP4 PUSH20 0xFFFFFFFFFFFFFFFFFFFFFFFFFFFFFFFFFFFFFFFF AND EQ ISZERO PUSH2 0x23B4 JUMPI PUSH1 0x40 MLOAD PUSH32 0x8C379A000000000000000000000000000000000000000000000000000000000 DUP2 MSTORE PUSH1 0x4 ADD PUSH2 0x23AB SWAP1 PUSH2 0x310D JUMP JUMPDEST PUSH1 0x40 MLOAD DUP1 SWAP2 SUB SWAP1 REVERT JUMPDEST PUSH1 0x0 PUSH20 0xFFFFFFFFFFFFFFFFFFFFFFFFFFFFFFFFFFFFFFFF AND DUP3 PUSH20 0xFFFFFFFFFFFFFFFFFFFFFFFFFFFFFFFFFFFFFFFF AND EQ ISZERO PUSH2 0x2424 JUMPI PUSH1 0x40 MLOAD PUSH32 0x8C379A000000000000000000000000000000000000000000000000000000000 DUP2 MSTORE PUSH1 0x4 ADD PUSH2 0x241B SWAP1 PUSH2 0x306D JUMP JUMPDEST PUSH1 0x40 MLOAD DUP1 SWAP2 SUB SWAP1 REVERT JUMPDEST PUSH2 0x242F DUP4 DUP4 DUP4 PUSH2 0x265A JUMP JUMPDEST PUSH1 0x0 PUSH1 0x33 PUSH1 0x0 DUP6 PUSH20 0xFFFFFFFFFFFFFFFFFFFFFFFFFFFFFFFFFFFFFFFF AND PUSH20 0xFFFFFFFFFFFFFFFFFFFFFFFFFFFFFFFFFFFFFFFF AND DUP2 MSTORE PUSH1 0x20 ADD SWAP1 DUP2 MSTORE PUSH1 0x20 ADD PUSH1 0x0 KECCAK256 SLOAD SWAP1 POP DUP2 DUP2 LT ISZERO PUSH2 0x24B6 JUMPI PUSH1 0x40 MLOAD PUSH32 0x8C379A000000000000000000000000000000000000000000000000000000000 DUP2 MSTORE PUSH1 0x4 ADD PUSH2 0x24AD SWAP1 PUSH2 0x30CD JUMP JUMPDEST PUSH1 0x40 MLOAD DUP1 SWAP2 SUB SWAP1 REVERT JUMPDEST DUP2 DUP2 SUB PUSH1 0x33 PUSH1 0x0 DUP7 PUSH20 0xFFFFFFFFFFFFFFFFFFFFFFFFFFFFFFFFFFFFFFFF AND PUSH20 0xFFFFFFFFFFFFFFFFFFFFFFFFFFFFFFFFFFFFFFFF AND DUP2 MSTORE PUSH1 0x20 ADD SWAP1 DUP2 MSTORE PUSH1 0x20 ADD PUSH1 0x0 KECCAK256 DUP2 SWAP1 SSTORE POP DUP2 PUSH1 0x33 PUSH1 0x0 DUP6 PUSH20 0xFFFFFFFFFFFFFFFFFFFFFFFFFFFFFFFFFFFFFFFF AND PUSH20 0xFFFFFFFFFFFFFFFFFFFFFFFFFFFFFFFFFFFFFFFF AND DUP2 MSTORE PUSH1 0x20 ADD SWAP1 DUP2 MSTORE PUSH1 0x20 ADD PUSH1 0x0 KECCAK256 PUSH1 0x0 DUP3 DUP3 SLOAD PUSH2 0x254B SWAP2 SWAP1 PUSH2 0x329F JUMP JUMPDEST SWAP3 POP POP DUP2 SWAP1 SSTORE POP DUP3 PUSH20 0xFFFFFFFFFFFFFFFFFFFFFFFFFFFFFFFFFFFFFFFF AND DUP5 PUSH20 0xFFFFFFFFFFFFFFFFFFFFFFFFFFFFFFFFFFFFFFFF AND PUSH32 0xDDF252AD1BE2C89B69C2B068FC378DAA952BA7F163C4A11628F55A4DF523B3EF DUP5 PUSH1 0x40 MLOAD PUSH2 0x25AF SWAP2 SWAP1 PUSH2 0x318D JUMP JUMPDEST PUSH1 0x40 MLOAD DUP1 SWAP2 SUB SWAP1 LOG3 PUSH2 0x25C2 DUP5 DUP5 DUP5 PUSH2 0x265F JUMP JUMPDEST POP POP POP POP JUMP JUMPDEST PUSH1 0x0 DUP2 PUSH1 0x0 ADD SLOAD SWAP1 POP SWAP2 SWAP1 POP JUMP JUMPDEST PUSH1 0x0 PUSH2 0x25E1 ADDRESS PUSH2 0x2664 JUMP JUMPDEST ISZERO SWAP1 POP SWAP1 JUMP JUMPDEST PUSH1 0x0 PUSH1 0x1 SWAP1 SLOAD SWAP1 PUSH2 0x100 EXP SWAP1 DIV PUSH1 0xFF AND PUSH2 0x2636 JUMPI PUSH1 0x40 MLOAD PUSH32 0x8C379A000000000000000000000000000000000000000000000000000000000 DUP2 MSTORE PUSH1 0x4 ADD PUSH2 0x262D SWAP1 PUSH2 0x314D JUMP JUMPDEST PUSH1 0x40 MLOAD DUP1 SWAP2 SUB SWAP1 REVERT JUMPDEST PUSH2 0x2640 DUP3 DUP3 PUSH2 0x2687 JUMP JUMPDEST POP POP JUMP JUMPDEST PUSH1 0x1 DUP2 PUSH1 0x0 ADD PUSH1 0x0 DUP3 DUP3 SLOAD ADD SWAP3 POP POP DUP2 SWAP1 SSTORE POP POP JUMP JUMPDEST POP POP POP JUMP JUMPDEST POP POP POP JUMP JUMPDEST PUSH1 0x0 DUP1 DUP3 PUSH20 0xFFFFFFFFFFFFFFFFFFFFFFFFFFFFFFFFFFFFFFFF AND EXTCODESIZE GT SWAP1 POP SWAP2 SWAP1 POP JUMP JUMPDEST PUSH1 0x0 PUSH1 0x1 SWAP1 SLOAD SWAP1 PUSH2 0x100 EXP SWAP1 DIV PUSH1 0xFF AND PUSH2 0x26D6 JUMPI PUSH1 0x40 MLOAD PUSH32 0x8C379A000000000000000000000000000000000000000000000000000000000 DUP2 MSTORE PUSH1 0x4 ADD PUSH2 0x26CD SWAP1 PUSH2 0x314D JUMP JUMPDEST PUSH1 0x40 MLOAD DUP1 SWAP2 SUB SWAP1 REVERT JUMPDEST DUP2 PUSH1 0x36 SWAP1 DUP1 MLOAD SWAP1 PUSH1 0x20 ADD SWAP1 PUSH2 0x26EC SWAP3 SWAP2 SWAP1 PUSH2 0x2708 JUMP JUMPDEST POP DUP1 PUSH1 0x37 SWAP1 DUP1 MLOAD SWAP1 PUSH1 0x20 ADD SWAP1 PUSH2 0x2703 SWAP3 SWAP2 SWAP1 PUSH2 0x2708 JUMP JUMPDEST POP POP POP JUMP JUMPDEST DUP3 DUP1 SLOAD PUSH2 0x2714 SWAP1 PUSH2 0x339E JUMP JUMPDEST SWAP1 PUSH1 0x0 MSTORE PUSH1 0x20 PUSH1 0x0 KECCAK256 SWAP1 PUSH1 0x1F ADD PUSH1 0x20 SWAP1 DIV DUP2 ADD SWAP3 DUP3 PUSH2 0x2736 JUMPI PUSH1 0x0 DUP6 SSTORE PUSH2 0x277D JUMP JUMPDEST DUP3 PUSH1 0x1F LT PUSH2 0x274F JUMPI DUP1 MLOAD PUSH1 0xFF NOT AND DUP4 DUP1 ADD OR DUP6 SSTORE PUSH2 0x277D JUMP JUMPDEST DUP3 DUP1 ADD PUSH1 0x1 ADD DUP6 SSTORE DUP3 ISZERO PUSH2 0x277D JUMPI SWAP2 DUP3 ADD JUMPDEST DUP3 DUP2 GT ISZERO PUSH2 0x277C JUMPI DUP3 MLOAD DUP3 SSTORE SWAP2 PUSH1 0x20 ADD SWAP2 SWAP1 PUSH1 0x1 ADD SWAP1 PUSH2 0x2761 JUMP JUMPDEST JUMPDEST POP SWAP1 POP PUSH2 0x278A SWAP2 SWAP1 PUSH2 0x27D5 JUMP JUMPDEST POP SWAP1 JUMP JUMPDEST PUSH1 0x40 MLOAD DUP1 PUSH1 0xA0 ADD PUSH1 0x40 MSTORE DUP1 PUSH1 0x60 DUP2 MSTORE PUSH1 0x20 ADD PUSH1 0x60 DUP2 MSTORE PUSH1 0x20 ADD PUSH1 0x60 DUP2 MSTORE PUSH1 0x20 ADD PUSH1 0x0 PUSH20 0xFFFFFFFFFFFFFFFFFFFFFFFFFFFFFFFFFFFFFFFF AND DUP2 MSTORE PUSH1 0x20 ADD PUSH1 0x0 ISZERO ISZERO DUP2 MSTORE POP SWAP1 JUMP JUMPDEST JUMPDEST DUP1 DUP3 GT ISZERO PUSH2 0x27EE JUMPI PUSH1 0x0 DUP2 PUSH1 0x0 SWAP1 SSTORE POP PUSH1 0x1 ADD PUSH2 0x27D6 JUMP JUMPDEST POP SWAP1 JUMP JUMPDEST PUSH1 0x0 PUSH2 0x2805 PUSH2 0x2800 DUP5 PUSH2 0x31E8 JUMP JUMPDEST PUSH2 0x31C3 JUMP JUMPDEST SWAP1 POP DUP3 DUP2 MSTORE PUSH1 0x20 DUP2 ADD DUP5 DUP5 DUP5 ADD GT ISZERO PUSH2 0x281D JUMPI PUSH1 0x0 DUP1 REVERT JUMPDEST PUSH2 0x2828 DUP5 DUP3 DUP6 PUSH2 0x335C JUMP JUMPDEST POP SWAP4 SWAP3 POP POP POP JUMP JUMPDEST PUSH1 0x0 DUP2 CALLDATALOAD SWAP1 POP PUSH2 0x283F DUP2 PUSH2 0x3789 JUMP JUMPDEST SWAP3 SWAP2 POP POP JUMP JUMPDEST PUSH1 0x0 DUP2 CALLDATALOAD SWAP1 POP PUSH2 0x2854 DUP2 PUSH2 0x37A0 JUMP JUMPDEST SWAP3 SWAP2 POP POP JUMP JUMPDEST PUSH1 0x0 DUP3 PUSH1 0x1F DUP4 ADD SLT PUSH2 0x286B JUMPI PUSH1 0x0 DUP1 REVERT JUMPDEST DUP2 CALLDATALOAD PUSH2 0x287B DUP5 DUP3 PUSH1 0x20 DUP7 ADD PUSH2 0x27F2 JUMP JUMPDEST SWAP2 POP POP SWAP3 SWAP2 POP POP JUMP JUMPDEST PUSH1 0x0 DUP2 CALLDATALOAD SWAP1 POP PUSH2 0x2893 DUP2 PUSH2 0x37B7 JUMP JUMPDEST SWAP3 SWAP2 POP POP JUMP JUMPDEST PUSH1 0x0 PUSH1 0x20 DUP3 DUP5 SUB SLT ISZERO PUSH2 0x28AB JUMPI PUSH1 0x0 DUP1 REVERT JUMPDEST PUSH1 0x0 PUSH2 0x28B9 DUP5 DUP3 DUP6 ADD PUSH2 0x2830 JUMP JUMPDEST SWAP2 POP POP SWAP3 SWAP2 POP POP JUMP JUMPDEST PUSH1 0x0 DUP1 PUSH1 0x40 DUP4 DUP6 SUB SLT ISZERO PUSH2 0x28D5 JUMPI PUSH1 0x0 DUP1 REVERT JUMPDEST PUSH1 0x0 PUSH2 0x28E3 DUP6 DUP3 DUP7 ADD PUSH2 0x2830 JUMP JUMPDEST SWAP3 POP POP PUSH1 0x20 PUSH2 0x28F4 DUP6 DUP3 DUP7 ADD PUSH2 0x2830 JUMP JUMPDEST SWAP2 POP POP SWAP3 POP SWAP3 SWAP1 POP JUMP JUMPDEST PUSH1 0x0 DUP1 PUSH1 0x0 PUSH1 0x60 DUP5 DUP7 SUB SLT ISZERO PUSH2 0x2913 JUMPI PUSH1 0x0 DUP1 REVERT JUMPDEST PUSH1 0x0 PUSH2 0x2921 DUP7 DUP3 DUP8 ADD PUSH2 0x2830 JUMP JUMPDEST SWAP4 POP POP PUSH1 0x20 PUSH2 0x2932 DUP7 DUP3 DUP8 ADD PUSH2 0x2830 JUMP JUMPDEST SWAP3 POP POP PUSH1 0x40 PUSH2 0x2943 DUP7 DUP3 DUP8 ADD PUSH2 0x2884 JUMP JUMPDEST SWAP2 POP POP SWAP3 POP SWAP3 POP SWAP3 JUMP JUMPDEST PUSH1 0x0 DUP1 PUSH1 0x40 DUP4 DUP6 SUB SLT ISZERO PUSH2 0x2960 JUMPI PUSH1 0x0 DUP1 REVERT JUMPDEST PUSH1 0x0 PUSH2 0x296E DUP6 DUP3 DUP7 ADD PUSH2 0x2830 JUMP JUMPDEST SWAP3 POP POP PUSH1 0x20 PUSH2 0x297F DUP6 DUP3 DUP7 ADD PUSH2 0x2884 JUMP JUMPDEST SWAP2 POP POP SWAP3 POP SWAP3 SWAP1 POP JUMP JUMPDEST PUSH1 0x0 PUSH1 0x20 DUP3 DUP5 SUB SLT ISZERO PUSH2 0x299B JUMPI PUSH1 0x0 DUP1 REVERT JUMPDEST PUSH1 0x0 DUP3 ADD CALLDATALOAD PUSH8 0xFFFFFFFFFFFFFFFF DUP2 GT ISZERO PUSH2 0x29B5 JUMPI PUSH1 0x0 DUP1 REVERT JUMPDEST PUSH2 0x29C1 DUP5 DUP3 DUP6 ADD PUSH2 0x285A JUMP JUMPDEST SWAP2 POP POP SWAP3 SWAP2 POP POP JUMP JUMPDEST PUSH1 0x0 DUP1 PUSH1 0x0 DUP1 PUSH1 0x80 DUP6 DUP8 SUB SLT ISZERO PUSH2 0x29E0 JUMPI PUSH1 0x0 DUP1 REVERT JUMPDEST PUSH1 0x0 DUP6 ADD CALLDATALOAD PUSH8 0xFFFFFFFFFFFFFFFF DUP2 GT ISZERO PUSH2 0x29FA JUMPI PUSH1 0x0 DUP1 REVERT JUMPDEST PUSH2 0x2A06 DUP8 DUP3 DUP9 ADD PUSH2 0x285A JUMP JUMPDEST SWAP5 POP POP PUSH1 0x20 DUP6 ADD CALLDATALOAD PUSH8 0xFFFFFFFFFFFFFFFF DUP2 GT ISZERO PUSH2 0x2A23 JUMPI PUSH1 0x0 DUP1 REVERT JUMPDEST PUSH2 0x2A2F DUP8 DUP3 DUP9 ADD PUSH2 0x285A JUMP JUMPDEST SWAP4 POP POP PUSH1 0x40 DUP6 ADD CALLDATALOAD PUSH8 0xFFFFFFFFFFFFFFFF DUP2 GT ISZERO PUSH2 0x2A4C JUMPI PUSH1 0x0 DUP1 REVERT JUMPDEST PUSH2 0x2A58 DUP8 DUP3 DUP9 ADD PUSH2 0x285A JUMP JUMPDEST SWAP3 POP POP PUSH1 0x60 PUSH2 0x2A69 DUP8 DUP3 DUP9 ADD PUSH2 0x2845 JUMP JUMPDEST SWAP2 POP POP SWAP3 SWAP6 SWAP2 SWAP5 POP SWAP3 POP JUMP JUMPDEST PUSH1 0x0 DUP1 PUSH1 0x0 DUP1 PUSH1 0x80 DUP6 DUP8 SUB SLT ISZERO PUSH2 0x2A8B JUMPI PUSH1 0x0 DUP1 REVERT JUMPDEST PUSH1 0x0 DUP6 ADD CALLDATALOAD PUSH8 0xFFFFFFFFFFFFFFFF DUP2 GT ISZERO PUSH2 0x2AA5 JUMPI PUSH1 0x0 DUP1 REVERT JUMPDEST PUSH2 0x2AB1 DUP8 DUP3 DUP9 ADD PUSH2 0x285A JUMP JUMPDEST SWAP5 POP POP PUSH1 0x20 DUP6 ADD CALLDATALOAD PUSH8 0xFFFFFFFFFFFFFFFF DUP2 GT ISZERO PUSH2 0x2ACE JUMPI PUSH1 0x0 DUP1 REVERT JUMPDEST PUSH2 0x2ADA DUP8 DUP3 DUP9 ADD PUSH2 0x285A JUMP JUMPDEST SWAP4 POP POP PUSH1 0x40 DUP6 ADD CALLDATALOAD PUSH8 0xFFFFFFFFFFFFFFFF DUP2 GT ISZERO PUSH2 0x2AF7 JUMPI PUSH1 0x0 DUP1 REVERT JUMPDEST PUSH2 0x2B03 DUP8 DUP3 DUP9 ADD PUSH2 0x285A JUMP JUMPDEST SWAP3 POP POP PUSH1 0x60 DUP6 ADD CALLDATALOAD PUSH8 0xFFFFFFFFFFFFFFFF DUP2 GT ISZERO PUSH2 0x2B20 JUMPI PUSH1 0x0 DUP1 REVERT JUMPDEST PUSH2 0x2B2C DUP8 DUP3 DUP9 ADD PUSH2 0x285A JUMP JUMPDEST SWAP2 POP POP SWAP3 SWAP6 SWAP2 SWAP5 POP SWAP3 POP JUMP JUMPDEST PUSH1 0x0 PUSH1 0x20 DUP3 DUP5 SUB SLT ISZERO PUSH2 0x2B4A JUMPI PUSH1 0x0 DUP1 REVERT JUMPDEST PUSH1 0x0 PUSH2 0x2B58 DUP5 DUP3 DUP6 ADD PUSH2 0x2884 JUMP JUMPDEST SWAP2 POP POP SWAP3 SWAP2 POP POP JUMP JUMPDEST PUSH1 0x0 PUSH2 0x2B6D DUP4 DUP4 PUSH2 0x2E92 JUMP JUMPDEST SWAP1 POP SWAP3 SWAP2 POP POP JUMP JUMPDEST PUSH2 0x2B7E DUP2 PUSH2 0x3307 JUMP JUMPDEST DUP3 MSTORE POP POP JUMP JUMPDEST PUSH2 0x2B8D DUP2 PUSH2 0x32F5 JUMP JUMPDEST DUP3 MSTORE POP POP JUMP JUMPDEST PUSH2 0x2B9C DUP2 PUSH2 0x32F5 JUMP JUMPDEST DUP3 MSTORE POP POP JUMP JUMPDEST PUSH1 0x0 PUSH2 0x2BAD DUP3 PUSH2 0x323E JUMP JUMPDEST PUSH2 0x2BB7 DUP2 DUP6 PUSH2 0x3261 JUMP JUMPDEST SWAP4 POP DUP4 PUSH1 0x20 DUP3 MUL DUP6 ADD PUSH2 0x2BC9 DUP6 PUSH2 0x3219 JUMP JUMPDEST DUP1 PUSH1 0x0 JUMPDEST DUP6 DUP2 LT ISZERO PUSH2 0x2C05 JUMPI DUP5 DUP5 SUB DUP10 MSTORE DUP2 MLOAD PUSH2 0x2BE6 DUP6 DUP3 PUSH2 0x2B61 JUMP JUMPDEST SWAP5 POP PUSH2 0x2BF1 DUP4 PUSH2 0x3254 JUMP JUMPDEST SWAP3 POP PUSH1 0x20 DUP11 ADD SWAP10 POP POP PUSH1 0x1 DUP2 ADD SWAP1 POP PUSH2 0x2BCD JUMP JUMPDEST POP DUP3 SWAP8 POP DUP8 SWAP6 POP POP POP POP POP POP SWAP3 SWAP2 POP POP JUMP JUMPDEST PUSH2 0x2C20 DUP2 PUSH2 0x3319 JUMP JUMPDEST DUP3 MSTORE POP POP JUMP JUMPDEST PUSH2 0x2C2F DUP2 PUSH2 0x3319 JUMP JUMPDEST DUP3 MSTORE POP POP JUMP JUMPDEST PUSH1 0x0 PUSH2 0x2C40 DUP3 PUSH2 0x3249 JUMP JUMPDEST PUSH2 0x2C4A DUP2 DUP6 PUSH2 0x3272 JUMP JUMPDEST SWAP4 POP PUSH2 0x2C5A DUP2 DUP6 PUSH1 0x20 DUP7 ADD PUSH2 0x336B JUMP JUMPDEST PUSH2 0x2C63 DUP2 PUSH2 0x34D7 JUMP JUMPDEST DUP5 ADD SWAP2 POP POP SWAP3 SWAP2 POP POP JUMP JUMPDEST PUSH1 0x0 PUSH2 0x2C79 DUP3 PUSH2 0x3249 JUMP JUMPDEST PUSH2 0x2C83 DUP2 DUP6 PUSH2 0x3283 JUMP JUMPDEST SWAP4 POP PUSH2 0x2C93 DUP2 DUP6 PUSH1 0x20 DUP7 ADD PUSH2 0x336B JUMP JUMPDEST PUSH2 0x2C9C DUP2 PUSH2 0x34D7 JUMP JUMPDEST DUP5 ADD SWAP2 POP POP SWAP3 SWAP2 POP POP JUMP JUMPDEST PUSH1 0x0 PUSH2 0x2CB2 DUP3 PUSH2 0x3249 JUMP JUMPDEST PUSH2 0x2CBC DUP2 DUP6 PUSH2 0x3294 JUMP JUMPDEST SWAP4 POP PUSH2 0x2CCC DUP2 DUP6 PUSH1 0x20 DUP7 ADD PUSH2 0x336B JUMP JUMPDEST DUP1 DUP5 ADD SWAP2 POP POP SWAP3 SWAP2 POP POP JUMP JUMPDEST PUSH1 0x0 DUP2 SLOAD PUSH2 0x2CE5 DUP2 PUSH2 0x339E JUMP JUMPDEST PUSH2 0x2CEF DUP2 DUP7 PUSH2 0x3294 JUMP JUMPDEST SWAP5 POP PUSH1 0x1 DUP3 AND PUSH1 0x0 DUP2 EQ PUSH2 0x2D0A JUMPI PUSH1 0x1 DUP2 EQ PUSH2 0x2D1B JUMPI PUSH2 0x2D4E JUMP JUMPDEST PUSH1 0xFF NOT DUP4 AND DUP7 MSTORE DUP2 DUP7 ADD SWAP4 POP PUSH2 0x2D4E JUMP JUMPDEST PUSH2 0x2D24 DUP6 PUSH2 0x3229 JUMP JUMPDEST PUSH1 0x0 JUMPDEST DUP4 DUP2 LT ISZERO PUSH2 0x2D46 JUMPI DUP2 SLOAD DUP2 DUP10 ADD MSTORE PUSH1 0x1 DUP3 ADD SWAP2 POP PUSH1 0x20 DUP2 ADD SWAP1 POP PUSH2 0x2D27 JUMP JUMPDEST DUP4 DUP9 ADD SWAP6 POP POP POP JUMPDEST POP POP POP SWAP3 SWAP2 POP POP JUMP JUMPDEST PUSH1 0x0 PUSH2 0x2D64 PUSH1 0x23 DUP4 PUSH2 0x3283 JUMP JUMPDEST SWAP2 POP PUSH2 0x2D6F DUP3 PUSH2 0x34E8 JUMP JUMPDEST PUSH1 0x40 DUP3 ADD SWAP1 POP SWAP2 SWAP1 POP JUMP JUMPDEST PUSH1 0x0 PUSH2 0x2D87 PUSH1 0x22 DUP4 PUSH2 0x3283 JUMP JUMPDEST SWAP2 POP PUSH2 0x2D92 DUP3 PUSH2 0x3537 JUMP JUMPDEST PUSH1 0x40 DUP3 ADD SWAP1 POP SWAP2 SWAP1 POP JUMP JUMPDEST PUSH1 0x0 PUSH2 0x2DAA PUSH1 0x1D DUP4 PUSH2 0x3283 JUMP JUMPDEST SWAP2 POP PUSH2 0x2DB5 DUP3 PUSH2 0x3586 JUMP JUMPDEST PUSH1 0x20 DUP3 ADD SWAP1 POP SWAP2 SWAP1 POP JUMP JUMPDEST PUSH1 0x0 PUSH2 0x2DCD PUSH1 0x26 DUP4 PUSH2 0x3283 JUMP JUMPDEST SWAP2 POP PUSH2 0x2DD8 DUP3 PUSH2 0x35AF JUMP JUMPDEST PUSH1 0x40 DUP3 ADD SWAP1 POP SWAP2 SWAP1 POP JUMP JUMPDEST PUSH1 0x0 PUSH2 0x2DF0 PUSH1 0x2E DUP4 PUSH2 0x3283 JUMP JUMPDEST SWAP2 POP PUSH2 0x2DFB DUP3 PUSH2 0x35FE JUMP JUMPDEST PUSH1 0x40 DUP3 ADD SWAP1 POP SWAP2 SWAP1 POP JUMP JUMPDEST PUSH1 0x0 PUSH2 0x2E13 PUSH1 0x25 DUP4 PUSH2 0x3283 JUMP JUMPDEST SWAP2 POP PUSH2 0x2E1E DUP3 PUSH2 0x364D JUMP JUMPDEST PUSH1 0x40 DUP3 ADD SWAP1 POP SWAP2 SWAP1 POP JUMP JUMPDEST PUSH1 0x0 PUSH2 0x2E36 PUSH1 0x24 DUP4 PUSH2 0x3283 JUMP JUMPDEST SWAP2 POP PUSH2 0x2E41 DUP3 PUSH2 0x369C JUMP JUMPDEST PUSH1 0x40 DUP3 ADD SWAP1 POP SWAP2 SWAP1 POP JUMP JUMPDEST PUSH1 0x0 PUSH2 0x2E59 PUSH1 0x2B DUP4 PUSH2 0x3283 JUMP JUMPDEST SWAP2 POP PUSH2 0x2E64 DUP3 PUSH2 0x36EB JUMP JUMPDEST PUSH1 0x40 DUP3 ADD SWAP1 POP SWAP2 SWAP1 POP JUMP JUMPDEST PUSH1 0x0 PUSH2 0x2E7C PUSH1 0x25 DUP4 PUSH2 0x3283 JUMP JUMPDEST SWAP2 POP PUSH2 0x2E87 DUP3 PUSH2 0x373A JUMP JUMPDEST PUSH1 0x40 DUP3 ADD SWAP1 POP SWAP2 SWAP1 POP JUMP JUMPDEST PUSH1 0x0 PUSH1 0xA0 DUP4 ADD PUSH1 0x0 DUP4 ADD MLOAD DUP5 DUP3 SUB PUSH1 0x0 DUP7 ADD MSTORE PUSH2 0x2EAF DUP3 DUP3 PUSH2 0x2C35 JUMP JUMPDEST SWAP2 POP POP PUSH1 0x20 DUP4 ADD MLOAD DUP5 DUP3 SUB PUSH1 0x20 DUP7 ADD MSTORE PUSH2 0x2EC9 DUP3 DUP3 PUSH2 0x2C35 JUMP JUMPDEST SWAP2 POP POP PUSH1 0x40 DUP4 ADD MLOAD DUP5 DUP3 SUB PUSH1 0x40 DUP7 ADD MSTORE PUSH2 0x2EE3 DUP3 DUP3 PUSH2 0x2C35 JUMP JUMPDEST SWAP2 POP POP PUSH1 0x60 DUP4 ADD MLOAD PUSH2 0x2EF8 PUSH1 0x60 DUP7 ADD DUP3 PUSH2 0x2B84 JUMP JUMPDEST POP PUSH1 0x80 DUP4 ADD MLOAD PUSH2 0x2F0B PUSH1 0x80 DUP7 ADD DUP3 PUSH2 0x2C17 JUMP JUMPDEST POP DUP1 SWAP2 POP POP SWAP3 SWAP2 POP POP JUMP JUMPDEST PUSH2 0x2F1F DUP2 PUSH2 0x3345 JUMP JUMPDEST DUP3 MSTORE POP POP JUMP JUMPDEST PUSH2 0x2F2E DUP2 PUSH2 0x334F JUMP JUMPDEST DUP3 MSTORE POP POP JUMP JUMPDEST PUSH1 0x0 PUSH2 0x2F40 DUP3 DUP5 PUSH2 0x2CA7 JUMP JUMPDEST SWAP2 POP DUP2 SWAP1 POP SWAP3 SWAP2 POP POP JUMP JUMPDEST PUSH1 0x0 PUSH2 0x2F57 DUP3 DUP5 PUSH2 0x2CD8 JUMP JUMPDEST SWAP2 POP DUP2 SWAP1 POP SWAP3 SWAP2 POP POP JUMP JUMPDEST PUSH1 0x0 PUSH1 0x20 DUP3 ADD SWAP1 POP PUSH2 0x2F77 PUSH1 0x0 DUP4 ADD DUP5 PUSH2 0x2B75 JUMP JUMPDEST SWAP3 SWAP2 POP POP JUMP JUMPDEST PUSH1 0x0 PUSH1 0x40 DUP3 ADD SWAP1 POP PUSH2 0x2F92 PUSH1 0x0 DUP4 ADD DUP6 PUSH2 0x2B93 JUMP JUMPDEST PUSH2 0x2F9F PUSH1 0x20 DUP4 ADD DUP5 PUSH2 0x2C26 JUMP JUMPDEST SWAP4 SWAP3 POP POP POP JUMP JUMPDEST PUSH1 0x0 PUSH1 0x20 DUP3 ADD SWAP1 POP DUP2 DUP2 SUB PUSH1 0x0 DUP4 ADD MSTORE PUSH2 0x2FC0 DUP2 DUP5 PUSH2 0x2BA2 JUMP JUMPDEST SWAP1 POP SWAP3 SWAP2 POP POP JUMP JUMPDEST PUSH1 0x0 PUSH1 0x20 DUP3 ADD SWAP1 POP PUSH2 0x2FDD PUSH1 0x0 DUP4 ADD DUP5 PUSH2 0x2C26 JUMP JUMPDEST SWAP3 SWAP2 POP POP JUMP JUMPDEST PUSH1 0x0 PUSH1 0x20 DUP3 ADD SWAP1 POP DUP2 DUP2 SUB PUSH1 0x0 DUP4 ADD MSTORE PUSH2 0x2FFD DUP2 DUP5 PUSH2 0x2C6E JUMP JUMPDEST SWAP1 POP SWAP3 SWAP2 POP POP JUMP JUMPDEST PUSH1 0x0 PUSH1 0xA0 DUP3 ADD SWAP1 POP DUP2 DUP2 SUB PUSH1 0x0 DUP4 ADD MSTORE PUSH2 0x301F DUP2 DUP9 PUSH2 0x2C6E JUMP JUMPDEST SWAP1 POP DUP2 DUP2 SUB PUSH1 0x20 DUP4 ADD MSTORE PUSH2 0x3033 DUP2 DUP8 PUSH2 0x2C6E JUMP JUMPDEST SWAP1 POP DUP2 DUP2 SUB PUSH1 0x40 DUP4 ADD MSTORE PUSH2 0x3047 DUP2 DUP7 PUSH2 0x2C6E JUMP JUMPDEST SWAP1 POP PUSH2 0x3056 PUSH1 0x60 DUP4 ADD DUP6 PUSH2 0x2B93 JUMP JUMPDEST PUSH2 0x3063 PUSH1 0x80 DUP4 ADD DUP5 PUSH2 0x2C26 JUMP JUMPDEST SWAP7 SWAP6 POP POP POP POP POP POP JUMP JUMPDEST PUSH1 0x0 PUSH1 0x20 DUP3 ADD SWAP1 POP DUP2 DUP2 SUB PUSH1 0x0 DUP4 ADD MSTORE PUSH2 0x3086 DUP2 PUSH2 0x2D57 JUMP JUMPDEST SWAP1 POP SWAP2 SWAP1 POP JUMP JUMPDEST PUSH1 0x0 PUSH1 0x20 DUP3 ADD SWAP1 POP DUP2 DUP2 SUB PUSH1 0x0 DUP4 ADD MSTORE PUSH2 0x30A6 DUP2 PUSH2 0x2D7A JUMP JUMPDEST SWAP1 POP SWAP2 SWAP1 POP JUMP JUMPDEST PUSH1 0x0 PUSH1 0x20 DUP3 ADD SWAP1 POP DUP2 DUP2 SUB PUSH1 0x0 DUP4 ADD MSTORE PUSH2 0x30C6 DUP2 PUSH2 0x2D9D JUMP JUMPDEST SWAP1 POP SWAP2 SWAP1 POP JUMP JUMPDEST PUSH1 0x0 PUSH1 0x20 DUP3 ADD SWAP1 POP DUP2 DUP2 SUB PUSH1 0x0 DUP4 ADD MSTORE PUSH2 0x30E6 DUP2 PUSH2 0x2DC0 JUMP JUMPDEST SWAP1 POP SWAP2 SWAP1 POP JUMP JUMPDEST PUSH1 0x0 PUSH1 0x20 DUP3 ADD SWAP1 POP DUP2 DUP2 SUB PUSH1 0x0 DUP4 ADD MSTORE PUSH2 0x3106 DUP2 PUSH2 0x2DE3 JUMP JUMPDEST SWAP1 POP SWAP2 SWAP1 POP JUMP JUMPDEST PUSH1 0x0 PUSH1 0x20 DUP3 ADD SWAP1 POP DUP2 DUP2 SUB PUSH1 0x0 DUP4 ADD MSTORE PUSH2 0x3126 DUP2 PUSH2 0x2E06 JUMP JUMPDEST SWAP1 POP SWAP2 SWAP1 POP JUMP JUMPDEST PUSH1 0x0 PUSH1 0x20 DUP3 ADD SWAP1 POP DUP2 DUP2 SUB PUSH1 0x0 DUP4 ADD MSTORE PUSH2 0x3146 DUP2 PUSH2 0x2E29 JUMP JUMPDEST SWAP1 POP SWAP2 SWAP1 POP JUMP JUMPDEST PUSH1 0x0 PUSH1 0x20 DUP3 ADD SWAP1 POP DUP2 DUP2 SUB PUSH1 0x0 DUP4 ADD MSTORE PUSH2 0x3166 DUP2 PUSH2 0x2E4C JUMP JUMPDEST SWAP1 POP SWAP2 SWAP1 POP JUMP JUMPDEST PUSH1 0x0 PUSH1 0x20 DUP3 ADD SWAP1 POP DUP2 DUP2 SUB PUSH1 0x0 DUP4 ADD MSTORE PUSH2 0x3186 DUP2 PUSH2 0x2E6F JUMP JUMPDEST SWAP1 POP SWAP2 SWAP1 POP JUMP JUMPDEST PUSH1 0x0 PUSH1 0x20 DUP3 ADD SWAP1 POP PUSH2 0x31A2 PUSH1 0x0 DUP4 ADD DUP5 PUSH2 0x2F16 JUMP JUMPDEST SWAP3 SWAP2 POP POP JUMP JUMPDEST PUSH1 0x0 PUSH1 0x20 DUP3 ADD SWAP1 POP PUSH2 0x31BD PUSH1 0x0 DUP4 ADD DUP5 PUSH2 0x2F25 JUMP JUMPDEST SWAP3 SWAP2 POP POP JUMP JUMPDEST PUSH1 0x0 PUSH2 0x31CD PUSH2 0x31DE JUMP JUMPDEST SWAP1 POP PUSH2 0x31D9 DUP3 DUP3 PUSH2 0x33D0 JUMP JUMPDEST SWAP2 SWAP1 POP JUMP JUMPDEST PUSH1 0x0 PUSH1 0x40 MLOAD SWAP1 POP SWAP1 JUMP JUMPDEST PUSH1 0x0 PUSH8 0xFFFFFFFFFFFFFFFF DUP3 GT ISZERO PUSH2 0x3203 JUMPI PUSH2 0x3202 PUSH2 0x34A8 JUMP JUMPDEST JUMPDEST PUSH2 0x320C DUP3 PUSH2 0x34D7 JUMP JUMPDEST SWAP1 POP PUSH1 0x20 DUP2 ADD SWAP1 POP SWAP2 SWAP1 POP JUMP JUMPDEST PUSH1 0x0 DUP2 SWAP1 POP PUSH1 0x20 DUP3 ADD SWAP1 POP SWAP2 SWAP1 POP JUMP JUMPDEST PUSH1 0x0 DUP2 SWAP1 POP DUP2 PUSH1 0x0 MSTORE PUSH1 0x20 PUSH1 0x0 KECCAK256 SWAP1 POP SWAP2 SWAP1 POP JUMP JUMPDEST PUSH1 0x0 DUP2 MLOAD SWAP1 POP SWAP2 SWAP1 POP JUMP JUMPDEST PUSH1 0x0 DUP2 MLOAD SWAP1 POP SWAP2 SWAP1 POP JUMP JUMPDEST PUSH1 0x0 PUSH1 0x20 DUP3 ADD SWAP1 POP SWAP2 SWAP1 POP JUMP JUMPDEST PUSH1 0x0 DUP3 DUP3 MSTORE PUSH1 0x20 DUP3 ADD SWAP1 POP SWAP3 SWAP2 POP POP JUMP JUMPDEST PUSH1 0x0 DUP3 DUP3 MSTORE PUSH1 0x20 DUP3 ADD SWAP1 POP SWAP3 SWAP2 POP POP JUMP JUMPDEST PUSH1 0x0 DUP3 DUP3 MSTORE PUSH1 0x20 DUP3 ADD SWAP1 POP SWAP3 SWAP2 POP POP JUMP JUMPDEST PUSH1 0x0 DUP2 SWAP1 POP SWAP3 SWAP2 POP POP JUMP JUMPDEST PUSH1 0x0 PUSH2 0x32AA DUP3 PUSH2 0x3345 JUMP JUMPDEST SWAP2 POP PUSH2 0x32B5 DUP4 PUSH2 0x3345 JUMP JUMPDEST SWAP3 POP DUP3 PUSH32 0xFFFFFFFFFFFFFFFFFFFFFFFFFFFFFFFFFFFFFFFFFFFFFFFFFFFFFFFFFFFFFFFF SUB DUP3 GT ISZERO PUSH2 0x32EA JUMPI PUSH2 0x32E9 PUSH2 0x344A JUMP JUMPDEST JUMPDEST DUP3 DUP3 ADD SWAP1 POP SWAP3 SWAP2 POP POP JUMP JUMPDEST PUSH1 0x0 PUSH2 0x3300 DUP3 PUSH2 0x3325 JUMP JUMPDEST SWAP1 POP SWAP2 SWAP1 POP JUMP JUMPDEST PUSH1 0x0 PUSH2 0x3312 DUP3 PUSH2 0x3325 JUMP JUMPDEST SWAP1 POP SWAP2 SWAP1 POP JUMP JUMPDEST PUSH1 0x0 DUP2 ISZERO ISZERO SWAP1 POP SWAP2 SWAP1 POP JUMP JUMPDEST PUSH1 0x0 PUSH20 0xFFFFFFFFFFFFFFFFFFFFFFFFFFFFFFFFFFFFFFFF DUP3 AND SWAP1 POP SWAP2 SWAP1 POP JUMP JUMPDEST PUSH1 0x0 DUP2 SWAP1 POP SWAP2 SWAP1 POP JUMP JUMPDEST PUSH1 0x0 PUSH1 0xFF DUP3 AND SWAP1 POP SWAP2 SWAP1 POP JUMP JUMPDEST DUP3 DUP2 DUP4 CALLDATACOPY PUSH1 0x0 DUP4 DUP4 ADD MSTORE POP POP POP JUMP JUMPDEST PUSH1 0x0 JUMPDEST DUP4 DUP2 LT ISZERO PUSH2 0x3389 JUMPI DUP1 DUP3 ADD MLOAD DUP2 DUP5 ADD MSTORE PUSH1 0x20 DUP2 ADD SWAP1 POP PUSH2 0x336E JUMP JUMPDEST DUP4 DUP2 GT ISZERO PUSH2 0x3398 JUMPI PUSH1 0x0 DUP5 DUP5 ADD MSTORE JUMPDEST POP POP POP POP JUMP JUMPDEST PUSH1 0x0 PUSH1 0x2 DUP3 DIV SWAP1 POP PUSH1 0x1 DUP3 AND DUP1 PUSH2 0x33B6 JUMPI PUSH1 0x7F DUP3 AND SWAP2 POP JUMPDEST PUSH1 0x20 DUP3 LT DUP2 EQ ISZERO PUSH2 0x33CA JUMPI PUSH2 0x33C9 PUSH2 0x3479 JUMP JUMPDEST JUMPDEST POP SWAP2 SWAP1 POP JUMP JUMPDEST PUSH2 0x33D9 DUP3 PUSH2 0x34D7 JUMP JUMPDEST DUP2 ADD DUP2 DUP2 LT PUSH8 0xFFFFFFFFFFFFFFFF DUP3 GT OR ISZERO PUSH2 0x33F8 JUMPI PUSH2 0x33F7 PUSH2 0x34A8 JUMP JUMPDEST JUMPDEST DUP1 PUSH1 0x40 MSTORE POP POP POP JUMP JUMPDEST PUSH1 0x0 PUSH2 0x340C DUP3 PUSH2 0x3345 JUMP JUMPDEST SWAP2 POP PUSH32 0xFFFFFFFFFFFFFFFFFFFFFFFFFFFFFFFFFFFFFFFFFFFFFFFFFFFFFFFFFFFFFFFF DUP3 EQ ISZERO PUSH2 0x343F JUMPI PUSH2 0x343E PUSH2 0x344A JUMP JUMPDEST JUMPDEST PUSH1 0x1 DUP3 ADD SWAP1 POP SWAP2 SWAP1 POP JUMP JUMPDEST PUSH32 0x4E487B7100000000000000000000000000000000000000000000000000000000 PUSH1 0x0 MSTORE PUSH1 0x11 PUSH1 0x4 MSTORE PUSH1 0x24 PUSH1 0x0 REVERT JUMPDEST PUSH32 0x4E487B7100000000000000000000000000000000000000000000000000000000 PUSH1 0x0 MSTORE PUSH1 0x22 PUSH1 0x4 MSTORE PUSH1 0x24 PUSH1 0x0 REVERT JUMPDEST PUSH32 0x4E487B7100000000000000000000000000000000000000000000000000000000 PUSH1 0x0 MSTORE PUSH1 0x41 PUSH1 0x4 MSTORE PUSH1 0x24 PUSH1 0x0 REVERT JUMPDEST PUSH1 0x0 PUSH1 0x1F NOT PUSH1 0x1F DUP4 ADD AND SWAP1 POP SWAP2 SWAP1 POP JUMP JUMPDEST PUSH32 0x45524332303A207472616E7366657220746F20746865207A65726F2061646472 PUSH1 0x0 DUP3 ADD MSTORE PUSH32 0x6573730000000000000000000000000000000000000000000000000000000000 PUSH1 0x20 DUP3 ADD MSTORE POP JUMP JUMPDEST PUSH32 0x45524332303A20617070726F766520746F20746865207A65726F206164647265 PUSH1 0x0 DUP3 ADD MSTORE PUSH32 0x7373000000000000000000000000000000000000000000000000000000000000 PUSH1 0x20 DUP3 ADD MSTORE POP JUMP JUMPDEST PUSH32 0x45524332303A20696E73756666696369656E7420616C6C6F77616E6365000000 PUSH1 0x0 DUP3 ADD MSTORE POP JUMP JUMPDEST PUSH32 0x45524332303A207472616E7366657220616D6F756E7420657863656564732062 PUSH1 0x0 DUP3 ADD MSTORE PUSH32 0x616C616E63650000000000000000000000000000000000000000000000000000 PUSH1 0x20 DUP3 ADD MSTORE POP JUMP JUMPDEST PUSH32 0x496E697469616C697A61626C653A20636F6E747261637420697320616C726561 PUSH1 0x0 DUP3 ADD MSTORE PUSH32 0x647920696E697469616C697A6564000000000000000000000000000000000000 PUSH1 0x20 DUP3 ADD MSTORE POP JUMP JUMPDEST PUSH32 0x45524332303A207472616E736665722066726F6D20746865207A65726F206164 PUSH1 0x0 DUP3 ADD MSTORE PUSH32 0x6472657373000000000000000000000000000000000000000000000000000000 PUSH1 0x20 DUP3 ADD MSTORE POP JUMP JUMPDEST PUSH32 0x45524332303A20617070726F76652066726F6D20746865207A65726F20616464 PUSH1 0x0 DUP3 ADD MSTORE PUSH32 0x7265737300000000000000000000000000000000000000000000000000000000 PUSH1 0x20 DUP3 ADD MSTORE POP JUMP JUMPDEST PUSH32 0x496E697469616C697A61626C653A20636F6E7472616374206973206E6F742069 PUSH1 0x0 DUP3 ADD MSTORE PUSH32 0x6E697469616C697A696E67000000000000000000000000000000000000000000 PUSH1 0x20 DUP3 ADD MSTORE POP JUMP JUMPDEST PUSH32 0x45524332303A2064656372656173656420616C6C6F77616E63652062656C6F77 PUSH1 0x0 DUP3 ADD MSTORE PUSH32 0x207A65726F000000000000000000000000000000000000000000000000000000 PUSH1 0x20 DUP3 ADD MSTORE POP JUMP JUMPDEST PUSH2 0x3792 DUP2 PUSH2 0x32F5 JUMP JUMPDEST DUP2 EQ PUSH2 0x379D JUMPI PUSH1 0x0 DUP1 REVERT JUMPDEST POP JUMP JUMPDEST PUSH2 0x37A9 DUP2 PUSH2 0x3319 JUMP JUMPDEST DUP2 EQ PUSH2 0x37B4 JUMPI PUSH1 0x0 DUP1 REVERT JUMPDEST POP JUMP JUMPDEST PUSH2 0x37C0 DUP2 PUSH2 0x3345 JUMP JUMPDEST DUP2 EQ PUSH2 0x37CB JUMPI PUSH1 0x0 DUP1 REVERT JUMPDEST POP JUMP INVALID LOG2 PUSH5 0x6970667358 0x22 SLT KECCAK256 0x4C 0xD6 SMOD 0x1E 0xB0 NOT DIV DUP5 0xF6 DUP8 0x2B PUSH7 0x35638079E7B8B1 SSTORE CALLCODE 0x27 MOD 0x49 CREATE 0xE9 EQ 0xCD 0xA5 0xBE 0xDA ORIGIN PUSH5 0x736F6C6343 STOP ADDMOD DIV STOP CALLER "
        },
        "methodIdentifiers": {
          "_itemIds()": "34a7f193",
          "allowance(address,address)": "dd62ed3e",
          "approve(address,uint256)": "095ea7b3",
          "balanceOf(address)": "70a08231",
          "decimals()": "313ce567",
          "decreaseAllowance(address,uint256)": "a457c2d7",
          "editProfile(string,string,string,string)": "3e3a648d",
          "enterDetails(string,string,string,bool)": "fcb02e73",
          "fetchAllWalletAddress(string)": "6e997665",
          "getMarketOwner()": "451e9cf0",
          "getPhoneToDetails()": "5a12d0f8",
          "getWalletDetails(address)": "8cae45d2",
          "increaseAllowance(address,uint256)": "39509351",
          "initialize()": "8129fc1c",
          "marketowner()": "5e385b92",
          "name()": "06fdde03",
          "phoneToDetails(uint256)": "52d95491",
          "sendToken(address,uint256)": "412664ae",
          "symbol()": "95d89b41",
          "totalSupply()": "18160ddd",
          "transfer(address,uint256)": "a9059cbb",
          "transferFrom(address,address,uint256)": "23b872dd"
        }
      },
      "storageLayout": {
        "storage": [
          {
            "astId": 6,
            "contract": "contracts/phoneLink.sol:phoneLink",
            "label": "_initialized",
            "offset": 0,
            "slot": "0",
            "type": "t_bool"
          },
          {
            "astId": 9,
            "contract": "contracts/phoneLink.sol:phoneLink",
            "label": "_initializing",
            "offset": 1,
            "slot": "0",
            "type": "t_bool"
          },
          {
            "astId": 1073,
            "contract": "contracts/phoneLink.sol:phoneLink",
            "label": "__gap",
            "offset": 0,
            "slot": "1",
            "type": "t_array(t_uint256)50_storage"
          },
          {
            "astId": 92,
            "contract": "contracts/phoneLink.sol:phoneLink",
            "label": "_balances",
            "offset": 0,
            "slot": "51",
            "type": "t_mapping(t_address,t_uint256)"
          },
          {
            "astId": 98,
            "contract": "contracts/phoneLink.sol:phoneLink",
            "label": "_allowances",
            "offset": 0,
            "slot": "52",
            "type": "t_mapping(t_address,t_mapping(t_address,t_uint256))"
          },
          {
            "astId": 100,
            "contract": "contracts/phoneLink.sol:phoneLink",
            "label": "_totalSupply",
            "offset": 0,
            "slot": "53",
            "type": "t_uint256"
          },
          {
            "astId": 102,
            "contract": "contracts/phoneLink.sol:phoneLink",
            "label": "_name",
            "offset": 0,
            "slot": "54",
            "type": "t_string_storage"
          },
          {
            "astId": 104,
            "contract": "contracts/phoneLink.sol:phoneLink",
            "label": "_symbol",
            "offset": 0,
            "slot": "55",
            "type": "t_string_storage"
          },
          {
            "astId": 685,
            "contract": "contracts/phoneLink.sol:phoneLink",
            "label": "__gap",
            "offset": 0,
            "slot": "56",
            "type": "t_array(t_uint256)45_storage"
          },
          {
            "astId": 1159,
            "contract": "contracts/phoneLink.sol:phoneLink",
            "label": "marketowner",
            "offset": 0,
            "slot": "101",
            "type": "t_address_payable"
          },
          {
            "astId": 1166,
            "contract": "contracts/phoneLink.sol:phoneLink",
            "label": "_itemIds",
            "offset": 0,
            "slot": "102",
            "type": "t_struct(Counter)1080_storage"
          },
          {
            "astId": 1209,
            "contract": "contracts/phoneLink.sol:phoneLink",
            "label": "phoneToDetails",
            "offset": 0,
            "slot": "103",
            "type": "t_mapping(t_uint256,t_struct(Details)1204_storage)"
          }
        ],
        "types": {
          "t_address": {
            "encoding": "inplace",
            "label": "address",
            "numberOfBytes": "20"
          },
          "t_address_payable": {
            "encoding": "inplace",
            "label": "address payable",
            "numberOfBytes": "20"
          },
          "t_array(t_uint256)45_storage": {
            "base": "t_uint256",
            "encoding": "inplace",
            "label": "uint256[45]",
            "numberOfBytes": "1440"
          },
          "t_array(t_uint256)50_storage": {
            "base": "t_uint256",
            "encoding": "inplace",
            "label": "uint256[50]",
            "numberOfBytes": "1600"
          },
          "t_bool": {
            "encoding": "inplace",
            "label": "bool",
            "numberOfBytes": "1"
          },
          "t_mapping(t_address,t_mapping(t_address,t_uint256))": {
            "encoding": "mapping",
            "key": "t_address",
            "label": "mapping(address => mapping(address => uint256))",
            "numberOfBytes": "32",
            "value": "t_mapping(t_address,t_uint256)"
          },
          "t_mapping(t_address,t_uint256)": {
            "encoding": "mapping",
            "key": "t_address",
            "label": "mapping(address => uint256)",
            "numberOfBytes": "32",
            "value": "t_uint256"
          },
          "t_mapping(t_uint256,t_struct(Details)1204_storage)": {
            "encoding": "mapping",
            "key": "t_uint256",
            "label": "mapping(uint256 => struct phoneLink.Details)",
            "numberOfBytes": "32",
            "value": "t_struct(Details)1204_storage"
          },
          "t_string_storage": {
            "encoding": "bytes",
            "label": "string",
            "numberOfBytes": "32"
          },
          "t_struct(Counter)1080_storage": {
            "encoding": "inplace",
            "label": "struct Counters.Counter",
            "members": [
              {
                "astId": 1079,
                "contract": "contracts/phoneLink.sol:phoneLink",
                "label": "_value",
                "offset": 0,
                "slot": "0",
                "type": "t_uint256"
              }
            ],
            "numberOfBytes": "32"
          },
          "t_struct(Details)1204_storage": {
            "encoding": "inplace",
            "label": "struct phoneLink.Details",
            "members": [
              {
                "astId": 1195,
                "contract": "contracts/phoneLink.sol:phoneLink",
                "label": "name",
                "offset": 0,
                "slot": "0",
                "type": "t_string_storage"
              },
              {
                "astId": 1197,
                "contract": "contracts/phoneLink.sol:phoneLink",
                "label": "identifier",
                "offset": 0,
                "slot": "1",
                "type": "t_string_storage"
              },
              {
                "astId": 1199,
                "contract": "contracts/phoneLink.sol:phoneLink",
                "label": "typeOfIdentifier",
                "offset": 0,
                "slot": "2",
                "type": "t_string_storage"
              },
              {
                "astId": 1201,
                "contract": "contracts/phoneLink.sol:phoneLink",
                "label": "connectedWalletAddress",
                "offset": 0,
                "slot": "3",
                "type": "t_address"
              },
              {
                "astId": 1203,
                "contract": "contracts/phoneLink.sol:phoneLink",
                "label": "isPrimaryWallet",
                "offset": 20,
                "slot": "3",
                "type": "t_bool"
              }
            ],
            "numberOfBytes": "128"
          },
          "t_uint256": {
            "encoding": "inplace",
            "label": "uint256",
            "numberOfBytes": "32"
          }
        }
      }
    }
  }
}