{
  "_format": "hh-sol-artifact-1",
  "contractName": "phoneLink",
  "sourceName": "contracts/phoneLink.sol",
  "abi": [
    {
      "anonymous": false,
      "inputs": [
        {
          "indexed": false,
          "internalType": "address",
          "name": "previousAdmin",
          "type": "address"
        },
        {
          "indexed": false,
          "internalType": "address",
          "name": "newAdmin",
          "type": "address"
        }
      ],
      "name": "AdminChanged",
      "type": "event"
    },
    {
      "anonymous": false,
      "inputs": [
        {
          "indexed": true,
          "internalType": "address",
          "name": "owner",
          "type": "address"
        },
        {
          "indexed": true,
          "internalType": "address",
          "name": "spender",
          "type": "address"
        },
        {
          "indexed": false,
          "internalType": "uint256",
          "name": "value",
          "type": "uint256"
        }
      ],
      "name": "Approval",
      "type": "event"
    },
    {
      "anonymous": false,
      "inputs": [
        {
          "indexed": true,
          "internalType": "address",
          "name": "beacon",
          "type": "address"
        }
      ],
      "name": "BeaconUpgraded",
      "type": "event"
    },
    {
      "anonymous": false,
      "inputs": [
        {
          "indexed": true,
          "internalType": "string",
          "name": "name",
          "type": "string"
        },
        {
          "indexed": true,
          "internalType": "string",
          "name": "phoneNumber",
          "type": "string"
        },
        {
          "indexed": true,
          "internalType": "address",
          "name": "connectedWalletAddress",
          "type": "address"
        }
      ],
      "name": "DetailsCreated",
      "type": "event"
    },
    {
      "anonymous": false,
      "inputs": [
        {
          "indexed": true,
          "internalType": "address",
          "name": "previousOwner",
          "type": "address"
        },
        {
          "indexed": true,
          "internalType": "address",
          "name": "newOwner",
          "type": "address"
        }
      ],
      "name": "OwnershipTransferred",
      "type": "event"
    },
    {
      "anonymous": false,
      "inputs": [
        {
          "indexed": true,
          "internalType": "address",
          "name": "from",
          "type": "address"
        },
        {
          "indexed": true,
          "internalType": "address",
          "name": "to",
          "type": "address"
        },
        {
          "indexed": false,
          "internalType": "uint256",
          "name": "value",
          "type": "uint256"
        }
      ],
      "name": "Transfer",
      "type": "event"
    },
    {
      "anonymous": false,
      "inputs": [
        {
          "indexed": true,
          "internalType": "address",
          "name": "implementation",
          "type": "address"
        }
      ],
      "name": "Upgraded",
      "type": "event"
    },
    {
      "inputs": [],
      "name": "_itemIds",
      "outputs": [
        {
          "internalType": "uint256",
          "name": "_value",
          "type": "uint256"
        }
      ],
      "stateMutability": "view",
      "type": "function"
    },
    {
      "inputs": [
        {
          "internalType": "address",
          "name": "owner",
          "type": "address"
        },
        {
          "internalType": "address",
          "name": "spender",
          "type": "address"
        }
      ],
      "name": "allowance",
      "outputs": [
        {
          "internalType": "uint256",
          "name": "",
          "type": "uint256"
        }
      ],
      "stateMutability": "view",
      "type": "function"
    },
    {
      "inputs": [
        {
          "internalType": "address",
          "name": "spender",
          "type": "address"
        },
        {
          "internalType": "uint256",
          "name": "amount",
          "type": "uint256"
        }
      ],
      "name": "approve",
      "outputs": [
        {
          "internalType": "bool",
          "name": "",
          "type": "bool"
        }
      ],
      "stateMutability": "nonpayable",
      "type": "function"
    },
    {
      "inputs": [
        {
          "internalType": "address",
          "name": "account",
          "type": "address"
        }
      ],
      "name": "balanceOf",
      "outputs": [
        {
          "internalType": "uint256",
          "name": "",
          "type": "uint256"
        }
      ],
      "stateMutability": "view",
      "type": "function"
    },
    {
      "inputs": [],
      "name": "decimals",
      "outputs": [
        {
          "internalType": "uint8",
          "name": "",
          "type": "uint8"
        }
      ],
      "stateMutability": "view",
      "type": "function"
    },
    {
      "inputs": [
        {
          "internalType": "address",
          "name": "spender",
          "type": "address"
        },
        {
          "internalType": "uint256",
          "name": "subtractedValue",
          "type": "uint256"
        }
      ],
      "name": "decreaseAllowance",
      "outputs": [
        {
          "internalType": "bool",
          "name": "",
          "type": "bool"
        }
      ],
      "stateMutability": "nonpayable",
      "type": "function"
    },
    {
      "inputs": [
        {
          "internalType": "string",
          "name": "userPhoneNumber",
          "type": "string"
        }
      ],
      "name": "editPhoneNumber",
      "outputs": [],
      "stateMutability": "nonpayable",
      "type": "function"
    },
    {
      "inputs": [
        {
          "internalType": "string",
          "name": "name",
          "type": "string"
        },
        {
          "internalType": "string",
          "name": "phoneNumber",
          "type": "string"
        }
      ],
      "name": "enterDetails",
      "outputs": [],
      "stateMutability": "nonpayable",
      "type": "function"
    },
    {
      "inputs": [],
      "name": "fetchPhoneNumber",
      "outputs": [
        {
          "internalType": "string",
          "name": "",
          "type": "string"
        }
      ],
      "stateMutability": "view",
      "type": "function"
    },
    {
      "inputs": [
        {
          "internalType": "string",
          "name": "userPhoneNumber",
          "type": "string"
        }
      ],
      "name": "fetchWalletAddress",
      "outputs": [
        {
          "components": [
            {
              "internalType": "string",
              "name": "name",
              "type": "string"
            },
            {
              "internalType": "string",
              "name": "phoneNumber",
              "type": "string"
            },
            {
              "internalType": "address",
              "name": "connectedWalletAddress",
              "type": "address"
            }
          ],
          "internalType": "struct phoneLink.Details[]",
          "name": "",
          "type": "tuple[]"
        }
      ],
      "stateMutability": "view",
      "type": "function"
    },
    {
      "inputs": [],
      "name": "getMarketOwner",
      "outputs": [
        {
          "internalType": "address payable",
          "name": "",
          "type": "address"
        }
      ],
      "stateMutability": "view",
      "type": "function"
    },
    {
      "inputs": [],
      "name": "getPhoneToDetails",
      "outputs": [
        {
          "components": [
            {
              "internalType": "string",
              "name": "name",
              "type": "string"
            },
            {
              "internalType": "string",
              "name": "phoneNumber",
              "type": "string"
            },
            {
              "internalType": "address",
              "name": "connectedWalletAddress",
              "type": "address"
            }
          ],
          "internalType": "struct phoneLink.Details[]",
          "name": "",
          "type": "tuple[]"
        }
      ],
      "stateMutability": "view",
      "type": "function"
    },
    {
      "inputs": [
        {
          "internalType": "address",
          "name": "walletAddress",
          "type": "address"
        }
      ],
      "name": "getWalletDetails",
      "outputs": [
        {
          "components": [
            {
              "internalType": "string",
              "name": "name",
              "type": "string"
            },
            {
              "internalType": "string",
              "name": "phoneNumber",
              "type": "string"
            },
            {
              "internalType": "address",
              "name": "connectedWalletAddress",
              "type": "address"
            }
          ],
          "internalType": "struct phoneLink.Details[]",
          "name": "",
          "type": "tuple[]"
        }
      ],
      "stateMutability": "view",
      "type": "function"
    },
    {
      "inputs": [
        {
          "internalType": "address",
          "name": "spender",
          "type": "address"
        },
        {
          "internalType": "uint256",
          "name": "addedValue",
          "type": "uint256"
        }
      ],
      "name": "increaseAllowance",
      "outputs": [
        {
          "internalType": "bool",
          "name": "",
          "type": "bool"
        }
      ],
      "stateMutability": "nonpayable",
      "type": "function"
    },
    {
      "inputs": [],
      "name": "initialize",
      "outputs": [],
      "stateMutability": "nonpayable",
      "type": "function"
    },
    {
      "inputs": [],
      "name": "marketowner",
      "outputs": [
        {
          "internalType": "address payable",
          "name": "",
          "type": "address"
        }
      ],
      "stateMutability": "view",
      "type": "function"
    },
    {
      "inputs": [],
      "name": "name",
      "outputs": [
        {
          "internalType": "string",
          "name": "",
          "type": "string"
        }
      ],
      "stateMutability": "view",
      "type": "function"
    },
    {
      "inputs": [],
      "name": "owner",
      "outputs": [
        {
          "internalType": "address",
          "name": "",
          "type": "address"
        }
      ],
      "stateMutability": "view",
      "type": "function"
    },
    {
      "inputs": [
        {
          "internalType": "uint256",
          "name": "",
          "type": "uint256"
        }
      ],
      "name": "phoneToDetails",
      "outputs": [
        {
          "internalType": "string",
          "name": "name",
          "type": "string"
        },
        {
          "internalType": "string",
          "name": "phoneNumber",
          "type": "string"
        },
        {
          "internalType": "address",
          "name": "connectedWalletAddress",
          "type": "address"
        }
      ],
      "stateMutability": "view",
      "type": "function"
    },
    {
      "inputs": [],
      "name": "proxiableUUID",
      "outputs": [
        {
          "internalType": "bytes32",
          "name": "",
          "type": "bytes32"
        }
      ],
      "stateMutability": "view",
      "type": "function"
    },
    {
      "inputs": [],
      "name": "renounceOwnership",
      "outputs": [],
      "stateMutability": "nonpayable",
      "type": "function"
    },
    {
      "inputs": [
        {
          "internalType": "address",
          "name": "destination",
          "type": "address"
        },
        {
          "internalType": "uint256",
          "name": "amount",
          "type": "uint256"
        }
      ],
      "name": "sendToken",
      "outputs": [],
      "stateMutability": "payable",
      "type": "function"
    },
    {
      "inputs": [],
      "name": "symbol",
      "outputs": [
        {
          "internalType": "string",
          "name": "",
          "type": "string"
        }
      ],
      "stateMutability": "view",
      "type": "function"
    },
    {
      "inputs": [],
      "name": "totalSupply",
      "outputs": [
        {
          "internalType": "uint256",
          "name": "",
          "type": "uint256"
        }
      ],
      "stateMutability": "view",
      "type": "function"
    },
    {
      "inputs": [
        {
          "internalType": "address",
          "name": "to",
          "type": "address"
        },
        {
          "internalType": "uint256",
          "name": "amount",
          "type": "uint256"
        }
      ],
      "name": "transfer",
      "outputs": [
        {
          "internalType": "bool",
          "name": "",
          "type": "bool"
        }
      ],
      "stateMutability": "nonpayable",
      "type": "function"
    },
    {
      "inputs": [
        {
          "internalType": "address",
          "name": "from",
          "type": "address"
        },
        {
          "internalType": "address",
          "name": "to",
          "type": "address"
        },
        {
          "internalType": "uint256",
          "name": "amount",
          "type": "uint256"
        }
      ],
      "name": "transferFrom",
      "outputs": [
        {
          "internalType": "bool",
          "name": "",
          "type": "bool"
        }
      ],
      "stateMutability": "nonpayable",
      "type": "function"
    },
    {
      "inputs": [
        {
          "internalType": "address",
          "name": "newOwner",
          "type": "address"
        }
      ],
      "name": "transferOwnership",
      "outputs": [],
      "stateMutability": "nonpayable",
      "type": "function"
    },
    {
      "inputs": [
        {
          "internalType": "address",
          "name": "newImplementation",
          "type": "address"
        }
      ],
      "name": "upgradeTo",
      "outputs": [],
      "stateMutability": "nonpayable",
      "type": "function"
    },
    {
      "inputs": [
        {
          "internalType": "address",
          "name": "newImplementation",
          "type": "address"
        },
        {
          "internalType": "bytes",
          "name": "data",
          "type": "bytes"
        }
      ],
      "name": "upgradeToAndCall",
      "outputs": [],
      "stateMutability": "payable",
      "type": "function"
    }
  ],
  "bytecode": "0x60a06040523073ffffffffffffffffffffffffffffffffffffffff1660809073ffffffffffffffffffffffffffffffffffffffff1660601b81525034801561004657600080fd5b5060805160601c6143f8610081600039600081816109b201528181610a4101528181610c8001528181610d0f0152610dbf01526143f86000f3fe6080604052600436106101c25760003560e01c80635a12d0f8116100f75780638129fc1c11610095578063a457c2d711610064578063a457c2d71461062e578063a9059cbb1461066b578063dd62ed3e146106a8578063f2fde38b146106e5576101c2565b80638129fc1c146105845780638cae45d21461059b5780638da5cb5b146105d857806395d89b4114610603576101c2565b806370a08231116100d157806370a08231146104dc578063715018a61461051957806373a329c11461053057806379c482af14610559576101c2565b80635a12d0f8146104495780635e385b9214610474578063624a88cb1461049f576101c2565b80633659cfe611610164578063451e9cf01161013e578063451e9cf0146103985780634f1ef286146103c357806352d1902d146103df57806352d954911461040a576101c2565b80633659cfe614610316578063395093511461033f578063412664ae1461037c576101c2565b806318160ddd116101a057806318160ddd1461025857806323b872dd14610283578063313ce567146102c057806334a7f193146102eb576101c2565b806306fdde03146101c7578063095ea7b3146101f25780630fab30a51461022f575b600080fd5b3480156101d357600080fd5b506101dc61070e565b6040516101e99190613752565b60405180910390f35b3480156101fe57600080fd5b506102196004803603810190610214919061300f565b6107a0565b604051610226919061371c565b60405180910390f35b34801561023b57600080fd5b50610256600480360381019061025191906130b5565b6107c3565b005b34801561026457600080fd5b5061026d610962565b60405161027a9190613a19565b60405180910390f35b34801561028f57600080fd5b506102aa60048036038101906102a59190612f6c565b61096c565b6040516102b7919061371c565b60405180910390f35b3480156102cc57600080fd5b506102d561099b565b6040516102e29190613a34565b60405180910390f35b3480156102f757600080fd5b506103006109a4565b60405161030d9190613a19565b60405180910390f35b34801561032257600080fd5b5061033d60048036038101906103389190612f07565b6109b0565b005b34801561034b57600080fd5b506103666004803603810190610361919061300f565b610b5f565b604051610373919061371c565b60405180910390f35b6103966004803603810190610391919061300f565b610c09565b005b3480156103a457600080fd5b506103ad610c54565b6040516103ba91906136df565b60405180910390f35b6103dd60048036038101906103d89190612fbb565b610c7e565b005b3480156103eb57600080fd5b506103f4610dbb565b6040516104019190613737565b60405180910390f35b34801561041657600080fd5b50610431600480360381019061042c9190613121565b610e74565b60405161044093929190613774565b60405180910390f35b34801561045557600080fd5b5061045e610fce565b60405161046b91906136fa565b60405180910390f35b34801561048057600080fd5b50610489611277565b60405161049691906136df565b60405180910390f35b3480156104ab57600080fd5b506104c660048036038101906104c19190613074565b61129d565b6040516104d391906136fa565b60405180910390f35b3480156104e857600080fd5b5061050360048036038101906104fe9190612f07565b611676565b6040516105109190613a19565b60405180910390f35b34801561052557600080fd5b5061052e6116bf565b005b34801561053c57600080fd5b5061055760048036038101906105529190613074565b611747565b005b34801561056557600080fd5b5061056e611826565b60405161057b9190613752565b60405180910390f35b34801561059057600080fd5b50610599611999565b005b3480156105a757600080fd5b506105c260048036038101906105bd9190612f07565b611ae6565b6040516105cf91906136fa565b60405180910390f35b3480156105e457600080fd5b506105ed611e07565b6040516105fa91906136c4565b60405180910390f35b34801561060f57600080fd5b50610618611e31565b6040516106259190613752565b60405180910390f35b34801561063a57600080fd5b506106556004803603810190610650919061300f565b611ec3565b604051610662919061371c565b60405180910390f35b34801561067757600080fd5b50610692600480360381019061068d919061300f565b611fad565b60405161069f919061371c565b60405180910390f35b3480156106b457600080fd5b506106cf60048036038101906106ca9190612f30565b611fd0565b6040516106dc9190613a19565b60405180910390f35b3480156106f157600080fd5b5061070c60048036038101906107079190612f07565b612057565b005b60606036805461071d90613c7b565b80601f016020809104026020016040519081016040528092919081815260200182805461074990613c7b565b80156107965780601f1061076b57610100808354040283529160200191610796565b820191906000526020600020905b81548152906001019060200180831161077957829003601f168201915b5050505050905090565b6000806107ab61214f565b90506107b8818585612157565b600191505092915050565b60006107cd611826565b511461080e576040517f08c379a0000000000000000000000000000000000000000000000000000000008152600401610805906138b9565b60405180910390fd5b61081860fc612322565b600061082460fc612338565b905060405180606001604052808481526020018381526020013373ffffffffffffffffffffffffffffffffffffffff1681525060fd60008381526020019081526020016000206000820151816000019080519060200190610886929190612d1e565b5060208201518160010190805190602001906108a3929190612d1e565b5060408201518160020160006101000a81548173ffffffffffffffffffffffffffffffffffffffff021916908373ffffffffffffffffffffffffffffffffffffffff1602179055509050503373ffffffffffffffffffffffffffffffffffffffff16826040516109139190613696565b6040518091039020846040516109299190613696565b60405180910390207f7f689438dc4159ee7b75d6e5da3ab5fb1ba41563c8113547552ccfb7669c2e3360405160405180910390a4505050565b6000603554905090565b60008061097761214f565b9050610984858285612346565b61098f8585856123d2565b60019150509392505050565b60006012905090565b60fc8060000154905081565b7f000000000000000000000000000000000000000000000000000000000000000073ffffffffffffffffffffffffffffffffffffffff163073ffffffffffffffffffffffffffffffffffffffff161415610a3f576040517f08c379a0000000000000000000000000000000000000000000000000000000008152600401610a3690613819565b60405180910390fd5b7f000000000000000000000000000000000000000000000000000000000000000073ffffffffffffffffffffffffffffffffffffffff16610a7e612656565b73ffffffffffffffffffffffffffffffffffffffff1614610ad4576040517f08c379a0000000000000000000000000000000000000000000000000000000008152600401610acb90613879565b60405180910390fd5b610add816126ad565b610b5c81600067ffffffffffffffff811115610b22577f4e487b7100000000000000000000000000000000000000000000000000000000600052604160045260246000fd5b6040519080825280601f01601f191660200182016040528015610b545781602001600182028036833780820191505090505b50600061272c565b50565b600080610b6a61214f565b9050610bfe818585603460008673ffffffffffffffffffffffffffffffffffffffff1673ffffffffffffffffffffffffffffffffffffffff16815260200190815260200160002060008973ffffffffffffffffffffffffffffffffffffffff1673ffffffffffffffffffffffffffffffffffffffff16815260200190815260200160002054610bf99190613b72565b612157565b600191505092915050565b8173ffffffffffffffffffffffffffffffffffffffff166108fc829081150290604051600060405180830381858888f19350505050158015610c4f573d6000803e3d6000fd5b505050565b600060fb60009054906101000a900473ffffffffffffffffffffffffffffffffffffffff16905090565b7f000000000000000000000000000000000000000000000000000000000000000073ffffffffffffffffffffffffffffffffffffffff163073ffffffffffffffffffffffffffffffffffffffff161415610d0d576040517f08c379a0000000000000000000000000000000000000000000000000000000008152600401610d0490613819565b60405180910390fd5b7f000000000000000000000000000000000000000000000000000000000000000073ffffffffffffffffffffffffffffffffffffffff16610d4c612656565b73ffffffffffffffffffffffffffffffffffffffff1614610da2576040517f08c379a0000000000000000000000000000000000000000000000000000000008152600401610d9990613879565b60405180910390fd5b610dab826126ad565b610db78282600161272c565b5050565b60007f000000000000000000000000000000000000000000000000000000000000000073ffffffffffffffffffffffffffffffffffffffff163073ffffffffffffffffffffffffffffffffffffffff1614610e4b576040517f08c379a0000000000000000000000000000000000000000000000000000000008152600401610e4290613899565b60405180910390fd5b7f360894a13ba1a3210667c828492db98dca3e2076cc3735a920a3ca505d382bbc60001b905090565b60fd602052806000526040600020600091509050806000018054610e9790613c7b565b80601f0160208091040260200160405190810160405280929190818152602001828054610ec390613c7b565b8015610f105780601f10610ee557610100808354040283529160200191610f10565b820191906000526020600020905b815481529060010190602001808311610ef357829003601f168201915b505050505090806001018054610f2590613c7b565b80601f0160208091040260200160405190810160405280929190818152602001828054610f5190613c7b565b8015610f9e5780601f10610f7357610100808354040283529160200191610f9e565b820191906000526020600020905b815481529060010190602001808311610f8157829003601f168201915b5050505050908060020160009054906101000a900473ffffffffffffffffffffffffffffffffffffffff16905083565b60606000610fdc60fc612338565b905060008167ffffffffffffffff811115611020577f4e487b7100000000000000000000000000000000000000000000000000000000600052604160045260246000fd5b60405190808252806020026020018201604052801561105957816020015b611046612da4565b81526020019060019003908161103e5790505b50905060005b8281101561126e5760006001826110769190613b72565b9050600060fd60008381526020019081526020016000209050806040518060600160405290816000820180546110ab90613c7b565b80601f01602080910402602001604051908101604052809291908181526020018280546110d790613c7b565b80156111245780601f106110f957610100808354040283529160200191611124565b820191906000526020600020905b81548152906001019060200180831161110757829003601f168201915b5050505050815260200160018201805461113d90613c7b565b80601f016020809104026020016040519081016040528092919081815260200182805461116990613c7b565b80156111b65780601f1061118b576101008083540402835291602001916111b6565b820191906000526020600020905b81548152906001019060200180831161119957829003601f168201915b505050505081526020016002820160009054906101000a900473ffffffffffffffffffffffffffffffffffffffff1673ffffffffffffffffffffffffffffffffffffffff1673ffffffffffffffffffffffffffffffffffffffff168152505084848151811061124e577f4e487b7100000000000000000000000000000000000000000000000000000000600052603260045260246000fd5b60200260200101819052505050808061126690613cde565b91505061105f565b50809250505090565b60fb60009054906101000a900473ffffffffffffffffffffffffffffffffffffffff1681565b606060006112ab60fc612338565b905060008060005b8381101561135357856040516020016112cc9190613696565b6040516020818303038152906040528051906020012060fd60006001846112f39190613b72565b815260200190815260200160002060010160405160200161131491906136ad565b6040516020818303038152906040528051906020012014156113405760018361133d9190613b72565b92505b808061134b90613cde565b9150506112b3565b5060008267ffffffffffffffff811115611396577f4e487b7100000000000000000000000000000000000000000000000000000000600052604160045260246000fd5b6040519080825280602002602001820160405280156113cf57816020015b6113bc612da4565b8152602001906001900390816113b45790505b50905060005b8481101561166957866040516020016113ee9190613696565b6040516020818303038152906040528051906020012060fd60006001846114159190613b72565b815260200190815260200160002060010160405160200161143691906136ad565b6040516020818303038152906040528051906020012014156116565760006001826114619190613b72565b9050600060fd600083815260200190815260200160002090508060405180606001604052908160008201805461149690613c7b565b80601f01602080910402602001604051908101604052809291908181526020018280546114c290613c7b565b801561150f5780601f106114e45761010080835404028352916020019161150f565b820191906000526020600020905b8154815290600101906020018083116114f257829003601f168201915b5050505050815260200160018201805461152890613c7b565b80601f016020809104026020016040519081016040528092919081815260200182805461155490613c7b565b80156115a15780601f10611576576101008083540402835291602001916115a1565b820191906000526020600020905b81548152906001019060200180831161158457829003601f168201915b505050505081526020016002820160009054906101000a900473ffffffffffffffffffffffffffffffffffffffff1673ffffffffffffffffffffffffffffffffffffffff1673ffffffffffffffffffffffffffffffffffffffff1681525050848681518110611639577f4e487b7100000000000000000000000000000000000000000000000000000000600052603260045260246000fd5b60200260200101819052506001856116519190613b72565b945050505b808061166190613cde565b9150506113d5565b5080945050505050919050565b6000603360008373ffffffffffffffffffffffffffffffffffffffff1673ffffffffffffffffffffffffffffffffffffffff168152602001908152602001600020549050919050565b6116c761214f565b73ffffffffffffffffffffffffffffffffffffffff166116e5611e07565b73ffffffffffffffffffffffffffffffffffffffff161461173b576040517f08c379a000000000000000000000000000000000000000000000000000000000815260040161173290613959565b60405180910390fd5b61174560006128a9565b565b600061175360fc612338565b905060005b81811015611821573373ffffffffffffffffffffffffffffffffffffffff1660fd60006001846117889190613b72565b815260200190815260200160002060020160009054906101000a900473ffffffffffffffffffffffffffffffffffffffff1673ffffffffffffffffffffffffffffffffffffffff16141561180e578260fd60006001846117e89190613b72565b8152602001908152602001600020600101908051906020019061180c929190612d1e565b505b808061181990613cde565b915050611758565b505050565b6060600061183460fc612338565b9050600060405180602001604052806000815250905060005b82811015611990573373ffffffffffffffffffffffffffffffffffffffff1660fd600060018461187d9190613b72565b815260200190815260200160002060020160009054906101000a900473ffffffffffffffffffffffffffffffffffffffff1673ffffffffffffffffffffffffffffffffffffffff16141561197d5760fd60006001836118dc9190613b72565b815260200190815260200160002060010180546118f890613c7b565b80601f016020809104026020016040519081016040528092919081815260200182805461192490613c7b565b80156119715780601f1061194657610100808354040283529160200191611971565b820191906000526020600020905b81548152906001019060200180831161195457829003601f168201915b50505050509150611990565b808061198890613cde565b91505061184d565b50809250505090565b600060019054906101000a900460ff166119c15760008054906101000a900460ff16156119ca565b6119c961296f565b5b611a09576040517f08c379a0000000000000000000000000000000000000000000000000000000008152600401611a00906138f9565b60405180910390fd5b60008060019054906101000a900460ff161590508015611a59576001600060016101000a81548160ff02191690831515021790555060016000806101000a81548160ff0219169083151502179055505b611a816040518060200160405280600081525060405180602001604052806000815250612980565b3360fb60006101000a81548173ffffffffffffffffffffffffffffffffffffffff021916908373ffffffffffffffffffffffffffffffffffffffff1602179055508015611ae35760008060016101000a81548160ff0219169083151502179055505b50565b60606000611af460fc612338565b90506000600167ffffffffffffffff811115611b39577f4e487b7100000000000000000000000000000000000000000000000000000000600052604160045260246000fd5b604051908082528060200260200182016040528015611b7257816020015b611b5f612da4565b815260200190600190039081611b575790505b50905060005b82811015611dfc578473ffffffffffffffffffffffffffffffffffffffff1660fd6000600184611ba89190613b72565b815260200190815260200160002060020160009054906101000a900473ffffffffffffffffffffffffffffffffffffffff1673ffffffffffffffffffffffffffffffffffffffff161415611de957600060fd6000600184611c099190613b72565b8152602001908152602001600020905080604051806060016040529081600082018054611c3590613c7b565b80601f0160208091040260200160405190810160405280929190818152602001828054611c6190613c7b565b8015611cae5780601f10611c8357610100808354040283529160200191611cae565b820191906000526020600020905b815481529060010190602001808311611c9157829003601f168201915b50505050508152602001600182018054611cc790613c7b565b80601f0160208091040260200160405190810160405280929190818152602001828054611cf390613c7b565b8015611d405780601f10611d1557610100808354040283529160200191611d40565b820191906000526020600020905b815481529060010190602001808311611d2357829003601f168201915b505050505081526020016002820160009054906101000a900473ffffffffffffffffffffffffffffffffffffffff1673ffffffffffffffffffffffffffffffffffffffff1673ffffffffffffffffffffffffffffffffffffffff1681525050838381518110611dd8577f4e487b7100000000000000000000000000000000000000000000000000000000600052603260045260246000fd5b602002602001018190525050611dfc565b8080611df490613cde565b915050611b78565b508092505050919050565b600060c960009054906101000a900473ffffffffffffffffffffffffffffffffffffffff16905090565b606060378054611e4090613c7b565b80601f0160208091040260200160405190810160405280929190818152602001828054611e6c90613c7b565b8015611eb95780601f10611e8e57610100808354040283529160200191611eb9565b820191906000526020600020905b815481529060010190602001808311611e9c57829003601f168201915b5050505050905090565b600080611ece61214f565b90506000603460008373ffffffffffffffffffffffffffffffffffffffff1673ffffffffffffffffffffffffffffffffffffffff16815260200190815260200160002060008673ffffffffffffffffffffffffffffffffffffffff1673ffffffffffffffffffffffffffffffffffffffff16815260200190815260200160002054905083811015611f94576040517f08c379a0000000000000000000000000000000000000000000000000000000008152600401611f8b906139f9565b60405180910390fd5b611fa18286868403612157565b60019250505092915050565b600080611fb861214f565b9050611fc58185856123d2565b600191505092915050565b6000603460008473ffffffffffffffffffffffffffffffffffffffff1673ffffffffffffffffffffffffffffffffffffffff16815260200190815260200160002060008373ffffffffffffffffffffffffffffffffffffffff1673ffffffffffffffffffffffffffffffffffffffff16815260200190815260200160002054905092915050565b61205f61214f565b73ffffffffffffffffffffffffffffffffffffffff1661207d611e07565b73ffffffffffffffffffffffffffffffffffffffff16146120d3576040517f08c379a00000000000000000000000000000000000000000000000000000000081526004016120ca90613959565b60405180910390fd5b600073ffffffffffffffffffffffffffffffffffffffff168173ffffffffffffffffffffffffffffffffffffffff161415612143576040517f08c379a000000000000000000000000000000000000000000000000000000000815260040161213a906137d9565b60405180910390fd5b61214c816128a9565b50565b600033905090565b600073ffffffffffffffffffffffffffffffffffffffff168373ffffffffffffffffffffffffffffffffffffffff1614156121c7576040517f08c379a00000000000000000000000000000000000000000000000000000000081526004016121be906139b9565b60405180910390fd5b600073ffffffffffffffffffffffffffffffffffffffff168273ffffffffffffffffffffffffffffffffffffffff161415612237576040517f08c379a000000000000000000000000000000000000000000000000000000000815260040161222e906137f9565b60405180910390fd5b80603460008573ffffffffffffffffffffffffffffffffffffffff1673ffffffffffffffffffffffffffffffffffffffff16815260200190815260200160002060008473ffffffffffffffffffffffffffffffffffffffff1673ffffffffffffffffffffffffffffffffffffffff168152602001908152602001600020819055508173ffffffffffffffffffffffffffffffffffffffff168373ffffffffffffffffffffffffffffffffffffffff167f8c5be1e5ebec7d5bd14f71427d1e84f3dd0314c0f7b2291e5b200ac8c7c3b925836040516123159190613a19565b60405180910390a3505050565b6001816000016000828254019250508190555050565b600081600001549050919050565b60006123528484611fd0565b90507fffffffffffffffffffffffffffffffffffffffffffffffffffffffffffffffff81146123cc57818110156123be576040517f08c379a00000000000000000000000000000000000000000000000000000000081526004016123b590613839565b60405180910390fd5b6123cb8484848403612157565b5b50505050565b600073ffffffffffffffffffffffffffffffffffffffff168373ffffffffffffffffffffffffffffffffffffffff161415612442576040517f08c379a000000000000000000000000000000000000000000000000000000000815260040161243990613999565b60405180910390fd5b600073ffffffffffffffffffffffffffffffffffffffff168273ffffffffffffffffffffffffffffffffffffffff1614156124b2576040517f08c379a00000000000000000000000000000000000000000000000000000000081526004016124a9906137b9565b60405180910390fd5b6124bd8383836129dd565b6000603360008573ffffffffffffffffffffffffffffffffffffffff1673ffffffffffffffffffffffffffffffffffffffff16815260200190815260200160002054905081811015612544576040517f08c379a000000000000000000000000000000000000000000000000000000000815260040161253b90613859565b60405180910390fd5b818103603360008673ffffffffffffffffffffffffffffffffffffffff1673ffffffffffffffffffffffffffffffffffffffff1681526020019081526020016000208190555081603360008573ffffffffffffffffffffffffffffffffffffffff1673ffffffffffffffffffffffffffffffffffffffff16815260200190815260200160002060008282546125d99190613b72565b925050819055508273ffffffffffffffffffffffffffffffffffffffff168473ffffffffffffffffffffffffffffffffffffffff167fddf252ad1be2c89b69c2b068fc378daa952ba7f163c4a11628f55a4df523b3ef8460405161263d9190613a19565b60405180910390a36126508484846129e2565b50505050565b60006126847f360894a13ba1a3210667c828492db98dca3e2076cc3735a920a3ca505d382bbc60001b6129e7565b60000160009054906101000a900473ffffffffffffffffffffffffffffffffffffffff16905090565b6126b561214f565b73ffffffffffffffffffffffffffffffffffffffff166126d3611e07565b73ffffffffffffffffffffffffffffffffffffffff1614612729576040517f08c379a000000000000000000000000000000000000000000000000000000000815260040161272090613959565b60405180910390fd5b50565b6127587f4910fdfa16fed3260ed0e7147f7cc6da11a60208b5b9406d12a635614ffd914360001b6129f1565b60000160009054906101000a900460ff161561277c57612777836129fb565b6128a4565b8273ffffffffffffffffffffffffffffffffffffffff166352d1902d6040518163ffffffff1660e01b815260040160206040518083038186803b1580156127c257600080fd5b505afa9250505080156127f357506040513d601f19601f820116820180604052508101906127f0919061304b565b60015b612832576040517f08c379a000000000000000000000000000000000000000000000000000000000815260040161282990613919565b60405180910390fd5b7f360894a13ba1a3210667c828492db98dca3e2076cc3735a920a3ca505d382bbc60001b8114612897576040517f08c379a000000000000000000000000000000000000000000000000000000000815260040161288e906138d9565b60405180910390fd5b506128a3838383612ab4565b5b505050565b600060c960009054906101000a900473ffffffffffffffffffffffffffffffffffffffff1690508160c960006101000a81548173ffffffffffffffffffffffffffffffffffffffff021916908373ffffffffffffffffffffffffffffffffffffffff1602179055508173ffffffffffffffffffffffffffffffffffffffff168173ffffffffffffffffffffffffffffffffffffffff167f8be0079c531659141344cd1fd0a4f28419497f9722a3daafe3b4186f6b6457e060405160405180910390a35050565b600061297a30612ae0565b15905090565b600060019054906101000a900460ff166129cf576040517f08c379a00000000000000000000000000000000000000000000000000000000081526004016129c6906139d9565b60405180910390fd5b6129d98282612b03565b5050565b505050565b505050565b6000819050919050565b6000819050919050565b612a0481612ae0565b612a43576040517f08c379a0000000000000000000000000000000000000000000000000000000008152600401612a3a90613939565b60405180910390fd5b80612a707f360894a13ba1a3210667c828492db98dca3e2076cc3735a920a3ca505d382bbc60001b6129e7565b60000160006101000a81548173ffffffffffffffffffffffffffffffffffffffff021916908373ffffffffffffffffffffffffffffffffffffffff16021790555050565b612abd83612b84565b600082511180612aca5750805b15612adb57612ad98383612bd3565b505b505050565b6000808273ffffffffffffffffffffffffffffffffffffffff163b119050919050565b600060019054906101000a900460ff16612b52576040517f08c379a0000000000000000000000000000000000000000000000000000000008152600401612b49906139d9565b60405180910390fd5b8160369080519060200190612b68929190612d1e565b508060379080519060200190612b7f929190612d1e565b505050565b612b8d816129fb565b8073ffffffffffffffffffffffffffffffffffffffff167fbc7cd75a20ee27fd9adebab32041f755214dbc6bffa90cc0225b39da2e5c2d3b60405160405180910390a250565b6060612bde83612ae0565b612c1d576040517f08c379a0000000000000000000000000000000000000000000000000000000008152600401612c1490613979565b60405180910390fd5b6000808473ffffffffffffffffffffffffffffffffffffffff1684604051612c45919061367f565b600060405180830381855af49150503d8060008114612c80576040519150601f19603f3d011682016040523d82523d6000602084013e612c85565b606091505b5091509150612cad828260405180606001604052806027815260200161439c60279139612cb7565b9250505092915050565b60608315612cc757829050612d17565b600083511115612cda5782518084602001fd5b816040517f08c379a0000000000000000000000000000000000000000000000000000000008152600401612d0e9190613752565b60405180910390fd5b9392505050565b828054612d2a90613c7b565b90600052602060002090601f016020900481019282612d4c5760008555612d93565b82601f10612d6557805160ff1916838001178555612d93565b82800160010185558215612d93579182015b82811115612d92578251825591602001919060010190612d77565b5b509050612da09190612ddb565b5090565b60405180606001604052806060815260200160608152602001600073ffffffffffffffffffffffffffffffffffffffff1681525090565b5b80821115612df4576000816000905550600101612ddc565b5090565b6000612e0b612e0684613a74565b613a4f565b905082815260208101848484011115612e2357600080fd5b612e2e848285613c39565b509392505050565b6000612e49612e4484613aa5565b613a4f565b905082815260208101848484011115612e6157600080fd5b612e6c848285613c39565b509392505050565b600081359050612e8381614356565b92915050565b600081519050612e988161436d565b92915050565b600082601f830112612eaf57600080fd5b8135612ebf848260208601612df8565b91505092915050565b600082601f830112612ed957600080fd5b8135612ee9848260208601612e36565b91505092915050565b600081359050612f0181614384565b92915050565b600060208284031215612f1957600080fd5b6000612f2784828501612e74565b91505092915050565b60008060408385031215612f4357600080fd5b6000612f5185828601612e74565b9250506020612f6285828601612e74565b9150509250929050565b600080600060608486031215612f8157600080fd5b6000612f8f86828701612e74565b9350506020612fa086828701612e74565b9250506040612fb186828701612ef2565b9150509250925092565b60008060408385031215612fce57600080fd5b6000612fdc85828601612e74565b925050602083013567ffffffffffffffff811115612ff957600080fd5b61300585828601612e9e565b9150509250929050565b6000806040838503121561302257600080fd5b600061303085828601612e74565b925050602061304185828601612ef2565b9150509250929050565b60006020828403121561305d57600080fd5b600061306b84828501612e89565b91505092915050565b60006020828403121561308657600080fd5b600082013567ffffffffffffffff8111156130a057600080fd5b6130ac84828501612ec8565b91505092915050565b600080604083850312156130c857600080fd5b600083013567ffffffffffffffff8111156130e257600080fd5b6130ee85828601612ec8565b925050602083013567ffffffffffffffff81111561310b57600080fd5b61311785828601612ec8565b9150509250929050565b60006020828403121561313357600080fd5b600061314184828501612ef2565b91505092915050565b6000613156838361360a565b905092915050565b61316781613bda565b82525050565b61317681613bc8565b82525050565b61318581613bc8565b82525050565b600061319682613afb565b6131a08185613b29565b9350836020820285016131b285613ad6565b8060005b858110156131ee57848403895281516131cf858261314a565b94506131da83613b1c565b925060208a019950506001810190506131b6565b50829750879550505050505092915050565b61320981613bec565b82525050565b61321881613bf8565b82525050565b600061322982613b06565b6132338185613b3a565b9350613243818560208601613c48565b80840191505092915050565b600061325a82613b11565b6132648185613b45565b9350613274818560208601613c48565b61327d81613db4565b840191505092915050565b600061329382613b11565b61329d8185613b56565b93506132ad818560208601613c48565b6132b681613db4565b840191505092915050565b60006132cc82613b11565b6132d68185613b67565b93506132e6818560208601613c48565b80840191505092915050565b600081546132ff81613c7b565b6133098186613b67565b94506001821660008114613324576001811461333557613368565b60ff19831686528186019350613368565b61333e85613ae6565b60005b8381101561336057815481890152600182019150602081019050613341565b838801955050505b50505092915050565b600061337e602383613b56565b915061338982613dc5565b604082019050919050565b60006133a1602683613b56565b91506133ac82613e14565b604082019050919050565b60006133c4602283613b56565b91506133cf82613e63565b604082019050919050565b60006133e7602c83613b56565b91506133f282613eb2565b604082019050919050565b600061340a601d83613b56565b915061341582613f01565b602082019050919050565b600061342d602683613b56565b915061343882613f2a565b604082019050919050565b6000613450602c83613b56565b915061345b82613f79565b604082019050919050565b6000613473603883613b56565b915061347e82613fc8565b604082019050919050565b6000613496603083613b56565b91506134a182614017565b604082019050919050565b60006134b9602983613b56565b91506134c482614066565b604082019050919050565b60006134dc602e83613b56565b91506134e7826140b5565b604082019050919050565b60006134ff602e83613b56565b915061350a82614104565b604082019050919050565b6000613522602d83613b56565b915061352d82614153565b604082019050919050565b6000613545602083613b56565b9150613550826141a2565b602082019050919050565b6000613568602683613b56565b9150613573826141cb565b604082019050919050565b600061358b602583613b56565b91506135968261421a565b604082019050919050565b60006135ae602483613b56565b91506135b982614269565b604082019050919050565b60006135d1602b83613b56565b91506135dc826142b8565b604082019050919050565b60006135f4602583613b56565b91506135ff82614307565b604082019050919050565b60006060830160008301518482036000860152613627828261324f565b91505060208301518482036020860152613641828261324f565b9150506040830151613656604086018261316d565b508091505092915050565b61366a81613c22565b82525050565b61367981613c2c565b82525050565b600061368b828461321e565b915081905092915050565b60006136a282846132c1565b915081905092915050565b60006136b982846132f2565b915081905092915050565b60006020820190506136d9600083018461317c565b92915050565b60006020820190506136f4600083018461315e565b92915050565b60006020820190508181036000830152613714818461318b565b905092915050565b60006020820190506137316000830184613200565b92915050565b600060208201905061374c600083018461320f565b92915050565b6000602082019050818103600083015261376c8184613288565b905092915050565b6000606082019050818103600083015261378e8186613288565b905081810360208301526137a28185613288565b90506137b1604083018461317c565b949350505050565b600060208201905081810360008301526137d281613371565b9050919050565b600060208201905081810360008301526137f281613394565b9050919050565b60006020820190508181036000830152613812816133b7565b9050919050565b60006020820190508181036000830152613832816133da565b9050919050565b60006020820190508181036000830152613852816133fd565b9050919050565b6000602082019050818103600083015261387281613420565b9050919050565b6000602082019050818103600083015261389281613443565b9050919050565b600060208201905081810360008301526138b281613466565b9050919050565b600060208201905081810360008301526138d281613489565b9050919050565b600060208201905081810360008301526138f2816134ac565b9050919050565b60006020820190508181036000830152613912816134cf565b9050919050565b60006020820190508181036000830152613932816134f2565b9050919050565b6000602082019050818103600083015261395281613515565b9050919050565b6000602082019050818103600083015261397281613538565b9050919050565b600060208201905081810360008301526139928161355b565b9050919050565b600060208201905081810360008301526139b28161357e565b9050919050565b600060208201905081810360008301526139d2816135a1565b9050919050565b600060208201905081810360008301526139f2816135c4565b9050919050565b60006020820190508181036000830152613a12816135e7565b9050919050565b6000602082019050613a2e6000830184613661565b92915050565b6000602082019050613a496000830184613670565b92915050565b6000613a59613a6a565b9050613a658282613cad565b919050565b6000604051905090565b600067ffffffffffffffff821115613a8f57613a8e613d85565b5b613a9882613db4565b9050602081019050919050565b600067ffffffffffffffff821115613ac057613abf613d85565b5b613ac982613db4565b9050602081019050919050565b6000819050602082019050919050565b60008190508160005260206000209050919050565b600081519050919050565b600081519050919050565b600081519050919050565b6000602082019050919050565b600082825260208201905092915050565b600081905092915050565b600082825260208201905092915050565b600082825260208201905092915050565b600081905092915050565b6000613b7d82613c22565b9150613b8883613c22565b9250827fffffffffffffffffffffffffffffffffffffffffffffffffffffffffffffffff03821115613bbd57613bbc613d27565b5b828201905092915050565b6000613bd382613c02565b9050919050565b6000613be582613c02565b9050919050565b60008115159050919050565b6000819050919050565b600073ffffffffffffffffffffffffffffffffffffffff82169050919050565b6000819050919050565b600060ff82169050919050565b82818337600083830152505050565b60005b83811015613c66578082015181840152602081019050613c4b565b83811115613c75576000848401525b50505050565b60006002820490506001821680613c9357607f821691505b60208210811415613ca757613ca6613d56565b5b50919050565b613cb682613db4565b810181811067ffffffffffffffff82111715613cd557613cd4613d85565b5b80604052505050565b6000613ce982613c22565b91507fffffffffffffffffffffffffffffffffffffffffffffffffffffffffffffffff821415613d1c57613d1b613d27565b5b600182019050919050565b7f4e487b7100000000000000000000000000000000000000000000000000000000600052601160045260246000fd5b7f4e487b7100000000000000000000000000000000000000000000000000000000600052602260045260246000fd5b7f4e487b7100000000000000000000000000000000000000000000000000000000600052604160045260246000fd5b6000601f19601f8301169050919050565b7f45524332303a207472616e7366657220746f20746865207a65726f206164647260008201527f6573730000000000000000000000000000000000000000000000000000000000602082015250565b7f4f776e61626c653a206e6577206f776e657220697320746865207a65726f206160008201527f6464726573730000000000000000000000000000000000000000000000000000602082015250565b7f45524332303a20617070726f766520746f20746865207a65726f20616464726560008201527f7373000000000000000000000000000000000000000000000000000000000000602082015250565b7f46756e6374696f6e206d7573742062652063616c6c6564207468726f7567682060008201527f64656c656761746563616c6c0000000000000000000000000000000000000000602082015250565b7f45524332303a20696e73756666696369656e7420616c6c6f77616e6365000000600082015250565b7f45524332303a207472616e7366657220616d6f756e742065786365656473206260008201527f616c616e63650000000000000000000000000000000000000000000000000000602082015250565b7f46756e6374696f6e206d7573742062652063616c6c6564207468726f7567682060008201527f6163746976652070726f78790000000000000000000000000000000000000000602082015250565b7f555550535570677261646561626c653a206d757374206e6f742062652063616c60008201527f6c6564207468726f7567682064656c656761746563616c6c0000000000000000602082015250565b7f596f75722077616c6c657420697320616c7265616479206c696e6b656420746f60008201527f20612070686f6e65206e756d6265722e00000000000000000000000000000000602082015250565b7f45524331393637557067726164653a20756e737570706f727465642070726f7860008201527f6961626c65555549440000000000000000000000000000000000000000000000602082015250565b7f496e697469616c697a61626c653a20636f6e747261637420697320616c72656160008201527f647920696e697469616c697a6564000000000000000000000000000000000000602082015250565b7f45524331393637557067726164653a206e657720696d706c656d656e7461746960008201527f6f6e206973206e6f742055555053000000000000000000000000000000000000602082015250565b7f455243313936373a206e657720696d706c656d656e746174696f6e206973206e60008201527f6f74206120636f6e747261637400000000000000000000000000000000000000602082015250565b7f4f776e61626c653a2063616c6c6572206973206e6f7420746865206f776e6572600082015250565b7f416464726573733a2064656c65676174652063616c6c20746f206e6f6e2d636f60008201527f6e74726163740000000000000000000000000000000000000000000000000000602082015250565b7f45524332303a207472616e736665722066726f6d20746865207a65726f20616460008201527f6472657373000000000000000000000000000000000000000000000000000000602082015250565b7f45524332303a20617070726f76652066726f6d20746865207a65726f2061646460008201527f7265737300000000000000000000000000000000000000000000000000000000602082015250565b7f496e697469616c697a61626c653a20636f6e7472616374206973206e6f74206960008201527f6e697469616c697a696e67000000000000000000000000000000000000000000602082015250565b7f45524332303a2064656372656173656420616c6c6f77616e63652062656c6f7760008201527f207a65726f000000000000000000000000000000000000000000000000000000602082015250565b61435f81613bc8565b811461436a57600080fd5b50565b61437681613bf8565b811461438157600080fd5b50565b61438d81613c22565b811461439857600080fd5b5056fe416464726573733a206c6f772d6c6576656c2064656c65676174652063616c6c206661696c6564a2646970667358221220af1a877143b56f0c4adb63a83616c3d3e6a0b382b9738c5e4d3cb4b2c4488c4464736f6c63430008040033",
  "linkReferences": {},
  "deployedLinkReferences": {}
}