{
  "_format": "hh-sol-artifact-1",
  "contractName": "phoneLink",
  "sourceName": "contracts/phoneLink.sol",
  "abi": [
    {
      "anonymous": false,
      "inputs": [
        {
          "indexed": true,
          "internalType": "address",
          "name": "owner",
          "type": "address"
        },
        {
          "indexed": true,
          "internalType": "address",
          "name": "spender",
          "type": "address"
        },
        {
          "indexed": false,
          "internalType": "uint256",
          "name": "value",
          "type": "uint256"
        }
      ],
      "name": "Approval",
      "type": "event"
    },
    {
      "anonymous": false,
      "inputs": [
        {
          "indexed": true,
          "internalType": "string",
          "name": "name",
          "type": "string"
        },
        {
          "indexed": true,
          "internalType": "string",
          "name": "phoneNumber",
          "type": "string"
        },
        {
          "indexed": true,
          "internalType": "address",
          "name": "connectedWalletAddress",
          "type": "address"
        }
      ],
      "name": "DetailsCreated",
      "type": "event"
    },
    {
      "anonymous": false,
      "inputs": [
        {
          "indexed": true,
          "internalType": "address",
          "name": "from",
          "type": "address"
        },
        {
          "indexed": true,
          "internalType": "address",
          "name": "to",
          "type": "address"
        },
        {
          "indexed": false,
          "internalType": "uint256",
          "name": "value",
          "type": "uint256"
        }
      ],
      "name": "Transfer",
      "type": "event"
    },
    {
      "inputs": [],
      "name": "_itemIds",
      "outputs": [
        {
          "internalType": "uint256",
          "name": "_value",
          "type": "uint256"
        }
      ],
      "stateMutability": "view",
      "type": "function"
    },
    {
      "inputs": [
        {
          "internalType": "address",
          "name": "owner",
          "type": "address"
        },
        {
          "internalType": "address",
          "name": "spender",
          "type": "address"
        }
      ],
      "name": "allowance",
      "outputs": [
        {
          "internalType": "uint256",
          "name": "",
          "type": "uint256"
        }
      ],
      "stateMutability": "view",
      "type": "function"
    },
    {
      "inputs": [
        {
          "internalType": "address",
          "name": "spender",
          "type": "address"
        },
        {
          "internalType": "uint256",
          "name": "amount",
          "type": "uint256"
        }
      ],
      "name": "approve",
      "outputs": [
        {
          "internalType": "bool",
          "name": "",
          "type": "bool"
        }
      ],
      "stateMutability": "nonpayable",
      "type": "function"
    },
    {
      "inputs": [
        {
          "internalType": "address",
          "name": "account",
          "type": "address"
        }
      ],
      "name": "balanceOf",
      "outputs": [
        {
          "internalType": "uint256",
          "name": "",
          "type": "uint256"
        }
      ],
      "stateMutability": "view",
      "type": "function"
    },
    {
      "inputs": [],
      "name": "decimals",
      "outputs": [
        {
          "internalType": "uint8",
          "name": "",
          "type": "uint8"
        }
      ],
      "stateMutability": "view",
      "type": "function"
    },
    {
      "inputs": [
        {
          "internalType": "address",
          "name": "spender",
          "type": "address"
        },
        {
          "internalType": "uint256",
          "name": "subtractedValue",
          "type": "uint256"
        }
      ],
      "name": "decreaseAllowance",
      "outputs": [
        {
          "internalType": "bool",
          "name": "",
          "type": "bool"
        }
      ],
      "stateMutability": "nonpayable",
      "type": "function"
    },
    {
      "inputs": [
        {
          "internalType": "string",
          "name": "userPhoneNumber",
          "type": "string"
        }
      ],
      "name": "editPhoneNumber",
      "outputs": [],
      "stateMutability": "nonpayable",
      "type": "function"
    },
    {
      "inputs": [
        {
          "internalType": "string",
          "name": "name",
          "type": "string"
        },
        {
          "internalType": "string",
          "name": "phoneNumber",
          "type": "string"
        }
      ],
      "name": "enterDetails",
      "outputs": [],
      "stateMutability": "nonpayable",
      "type": "function"
    },
    {
      "inputs": [],
      "name": "fetchPhoneNumber",
      "outputs": [
        {
          "internalType": "string",
          "name": "",
          "type": "string"
        }
      ],
      "stateMutability": "view",
      "type": "function"
    },
    {
      "inputs": [
        {
          "internalType": "string",
          "name": "userPhoneNumber",
          "type": "string"
        }
      ],
      "name": "fetchWalletAddress",
      "outputs": [
        {
          "components": [
            {
              "internalType": "string",
              "name": "name",
              "type": "string"
            },
            {
              "internalType": "string",
              "name": "phoneNumber",
              "type": "string"
            },
            {
              "internalType": "address",
              "name": "connectedWalletAddress",
              "type": "address"
            }
          ],
          "internalType": "struct phoneLink.Details[]",
          "name": "",
          "type": "tuple[]"
        }
      ],
      "stateMutability": "view",
      "type": "function"
    },
    {
      "inputs": [],
      "name": "getMarketOwner",
      "outputs": [
        {
          "internalType": "address payable",
          "name": "",
          "type": "address"
        }
      ],
      "stateMutability": "view",
      "type": "function"
    },
    {
      "inputs": [],
      "name": "getPhoneToDetails",
      "outputs": [
        {
          "components": [
            {
              "internalType": "string",
              "name": "name",
              "type": "string"
            },
            {
              "internalType": "string",
              "name": "phoneNumber",
              "type": "string"
            },
            {
              "internalType": "address",
              "name": "connectedWalletAddress",
              "type": "address"
            }
          ],
          "internalType": "struct phoneLink.Details[]",
          "name": "",
          "type": "tuple[]"
        }
      ],
      "stateMutability": "view",
      "type": "function"
    },
    {
      "inputs": [
        {
          "internalType": "address",
          "name": "walletAddress",
          "type": "address"
        }
      ],
      "name": "getWalletDetails",
      "outputs": [
        {
          "components": [
            {
              "internalType": "string",
              "name": "name",
              "type": "string"
            },
            {
              "internalType": "string",
              "name": "phoneNumber",
              "type": "string"
            },
            {
              "internalType": "address",
              "name": "connectedWalletAddress",
              "type": "address"
            }
          ],
          "internalType": "struct phoneLink.Details[]",
          "name": "",
          "type": "tuple[]"
        }
      ],
      "stateMutability": "view",
      "type": "function"
    },
    {
      "inputs": [
        {
          "internalType": "address",
          "name": "spender",
          "type": "address"
        },
        {
          "internalType": "uint256",
          "name": "addedValue",
          "type": "uint256"
        }
      ],
      "name": "increaseAllowance",
      "outputs": [
        {
          "internalType": "bool",
          "name": "",
          "type": "bool"
        }
      ],
      "stateMutability": "nonpayable",
      "type": "function"
    },
    {
      "inputs": [],
      "name": "initialize",
      "outputs": [],
      "stateMutability": "nonpayable",
      "type": "function"
    },
    {
      "inputs": [],
      "name": "marketowner",
      "outputs": [
        {
          "internalType": "address payable",
          "name": "",
          "type": "address"
        }
      ],
      "stateMutability": "view",
      "type": "function"
    },
    {
      "inputs": [],
      "name": "name",
      "outputs": [
        {
          "internalType": "string",
          "name": "",
          "type": "string"
        }
      ],
      "stateMutability": "view",
      "type": "function"
    },
    {
      "inputs": [
        {
          "internalType": "uint256",
          "name": "",
          "type": "uint256"
        }
      ],
      "name": "phoneToDetails",
      "outputs": [
        {
          "internalType": "string",
          "name": "name",
          "type": "string"
        },
        {
          "internalType": "string",
          "name": "phoneNumber",
          "type": "string"
        },
        {
          "internalType": "address",
          "name": "connectedWalletAddress",
          "type": "address"
        }
      ],
      "stateMutability": "view",
      "type": "function"
    },
    {
      "inputs": [
        {
          "internalType": "address",
          "name": "destination",
          "type": "address"
        },
        {
          "internalType": "uint256",
          "name": "amount",
          "type": "uint256"
        }
      ],
      "name": "sendToken",
      "outputs": [],
      "stateMutability": "payable",
      "type": "function"
    },
    {
      "inputs": [],
      "name": "symbol",
      "outputs": [
        {
          "internalType": "string",
          "name": "",
          "type": "string"
        }
      ],
      "stateMutability": "view",
      "type": "function"
    },
    {
      "inputs": [],
      "name": "totalSupply",
      "outputs": [
        {
          "internalType": "uint256",
          "name": "",
          "type": "uint256"
        }
      ],
      "stateMutability": "view",
      "type": "function"
    },
    {
      "inputs": [
        {
          "internalType": "address",
          "name": "to",
          "type": "address"
        },
        {
          "internalType": "uint256",
          "name": "amount",
          "type": "uint256"
        }
      ],
      "name": "transfer",
      "outputs": [
        {
          "internalType": "bool",
          "name": "",
          "type": "bool"
        }
      ],
      "stateMutability": "nonpayable",
      "type": "function"
    },
    {
      "inputs": [
        {
          "internalType": "address",
          "name": "from",
          "type": "address"
        },
        {
          "internalType": "address",
          "name": "to",
          "type": "address"
        },
        {
          "internalType": "uint256",
          "name": "amount",
          "type": "uint256"
        }
      ],
      "name": "transferFrom",
      "outputs": [
        {
          "internalType": "bool",
          "name": "",
          "type": "bool"
        }
      ],
      "stateMutability": "nonpayable",
      "type": "function"
    }
  ],
  "bytecode": "0x608060405234801561001057600080fd5b5061308e806100206000396000f3fe6080604052600436106101405760003560e01c80635a12d0f8116100b65780638129fc1c1161006f5780638129fc1c1461047b5780638cae45d21461049257806395d89b41146104cf578063a457c2d7146104fa578063a9059cbb14610537578063dd62ed3e1461057457610140565b80635a12d0f8146103575780635e385b9214610382578063624a88cb146103ad57806370a08231146103ea57806373a329c11461042757806379c482af1461045057610140565b8063313ce56711610108578063313ce5671461023e57806334a7f193146102695780633950935114610294578063412664ae146102d1578063451e9cf0146102ed57806352d954911461031857610140565b806306fdde0314610145578063095ea7b3146101705780630fab30a5146101ad57806318160ddd146101d657806323b872dd14610201575b600080fd5b34801561015157600080fd5b5061015a6105b1565b6040516101679190612838565b60405180910390f35b34801561017c57600080fd5b50610197600480360381019061019291906122e6565b610643565b6040516101a4919061281d565b60405180910390f35b3480156101b957600080fd5b506101d460048036038101906101cf9190612363565b610666565b005b3480156101e257600080fd5b506101eb610805565b6040516101f891906129df565b60405180910390f35b34801561020d57600080fd5b5061022860048036038101906102239190612297565b61080f565b604051610235919061281d565b60405180910390f35b34801561024a57600080fd5b5061025361083e565b60405161026091906129fa565b60405180910390f35b34801561027557600080fd5b5061027e610847565b60405161028b91906129df565b60405180910390f35b3480156102a057600080fd5b506102bb60048036038101906102b691906122e6565b610853565b6040516102c8919061281d565b60405180910390f35b6102eb60048036038101906102e691906122e6565b6108fd565b005b3480156102f957600080fd5b50610302610948565b60405161030f91906127e0565b60405180910390f35b34801561032457600080fd5b5061033f600480360381019061033a91906123cf565b610972565b60405161034e9392919061285a565b60405180910390f35b34801561036357600080fd5b5061036c610acc565b60405161037991906127fb565b60405180910390f35b34801561038e57600080fd5b50610397610d75565b6040516103a491906127e0565b60405180910390f35b3480156103b957600080fd5b506103d460048036038101906103cf9190612322565b610d9b565b6040516103e191906127fb565b60405180910390f35b3480156103f657600080fd5b50610411600480360381019061040c9190612232565b611174565b60405161041e91906129df565b60405180910390f35b34801561043357600080fd5b5061044e60048036038101906104499190612322565b6111bd565b005b34801561045c57600080fd5b5061046561129c565b6040516104729190612838565b60405180910390f35b34801561048757600080fd5b5061049061140f565b005b34801561049e57600080fd5b506104b960048036038101906104b49190612232565b61155c565b6040516104c691906127fb565b60405180910390f35b3480156104db57600080fd5b506104e461187d565b6040516104f19190612838565b60405180910390f35b34801561050657600080fd5b50610521600480360381019061051c91906122e6565b61190f565b60405161052e919061281d565b60405180910390f35b34801561054357600080fd5b5061055e600480360381019061055991906122e6565b6119f9565b60405161056b919061281d565b60405180910390f35b34801561058057600080fd5b5061059b6004803603810190610596919061225b565b611a1c565b6040516105a891906129df565b60405180910390f35b6060603680546105c090612bf0565b80601f01602080910402602001604051908101604052809291908181526020018280546105ec90612bf0565b80156106395780601f1061060e57610100808354040283529160200191610639565b820191906000526020600020905b81548152906001019060200180831161061c57829003601f168201915b5050505050905090565b60008061064e611aa3565b905061065b818585611aab565b600191505092915050565b600061067061129c565b51146106b1576040517f08c379a00000000000000000000000000000000000000000000000000000000081526004016106a89061291f565b60405180910390fd5b6106bb6066611c76565b60006106c76066611c8c565b905060405180606001604052808481526020018381526020013373ffffffffffffffffffffffffffffffffffffffff168152506067600083815260200190815260200160002060008201518160000190805190602001906107299291906120c6565b5060208201518160010190805190602001906107469291906120c6565b5060408201518160020160006101000a81548173ffffffffffffffffffffffffffffffffffffffff021916908373ffffffffffffffffffffffffffffffffffffffff1602179055509050503373ffffffffffffffffffffffffffffffffffffffff16826040516107b691906127b2565b6040518091039020846040516107cc91906127b2565b60405180910390207f7f689438dc4159ee7b75d6e5da3ab5fb1ba41563c8113547552ccfb7669c2e3360405160405180910390a4505050565b6000603554905090565b60008061081a611aa3565b9050610827858285611c9a565b610832858585611d26565b60019150509392505050565b60006012905090565b60668060000154905081565b60008061085e611aa3565b90506108f2818585603460008673ffffffffffffffffffffffffffffffffffffffff1673ffffffffffffffffffffffffffffffffffffffff16815260200190815260200160002060008973ffffffffffffffffffffffffffffffffffffffff1673ffffffffffffffffffffffffffffffffffffffff168152602001908152602001600020546108ed9190612af1565b611aab565b600191505092915050565b8173ffffffffffffffffffffffffffffffffffffffff166108fc829081150290604051600060405180830381858888f19350505050158015610943573d6000803e3d6000fd5b505050565b6000606560009054906101000a900473ffffffffffffffffffffffffffffffffffffffff16905090565b606760205280600052604060002060009150905080600001805461099590612bf0565b80601f01602080910402602001604051908101604052809291908181526020018280546109c190612bf0565b8015610a0e5780601f106109e357610100808354040283529160200191610a0e565b820191906000526020600020905b8154815290600101906020018083116109f157829003601f168201915b505050505090806001018054610a2390612bf0565b80601f0160208091040260200160405190810160405280929190818152602001828054610a4f90612bf0565b8015610a9c5780601f10610a7157610100808354040283529160200191610a9c565b820191906000526020600020905b815481529060010190602001808311610a7f57829003601f168201915b5050505050908060020160009054906101000a900473ffffffffffffffffffffffffffffffffffffffff16905083565b60606000610ada6066611c8c565b905060008167ffffffffffffffff811115610b1e577f4e487b7100000000000000000000000000000000000000000000000000000000600052604160045260246000fd5b604051908082528060200260200182016040528015610b5757816020015b610b4461214c565b815260200190600190039081610b3c5790505b50905060005b82811015610d6c576000600182610b749190612af1565b9050600060676000838152602001908152602001600020905080604051806060016040529081600082018054610ba990612bf0565b80601f0160208091040260200160405190810160405280929190818152602001828054610bd590612bf0565b8015610c225780601f10610bf757610100808354040283529160200191610c22565b820191906000526020600020905b815481529060010190602001808311610c0557829003601f168201915b50505050508152602001600182018054610c3b90612bf0565b80601f0160208091040260200160405190810160405280929190818152602001828054610c6790612bf0565b8015610cb45780601f10610c8957610100808354040283529160200191610cb4565b820191906000526020600020905b815481529060010190602001808311610c9757829003601f168201915b505050505081526020016002820160009054906101000a900473ffffffffffffffffffffffffffffffffffffffff1673ffffffffffffffffffffffffffffffffffffffff1673ffffffffffffffffffffffffffffffffffffffff1681525050848481518110610d4c577f4e487b7100000000000000000000000000000000000000000000000000000000600052603260045260246000fd5b602002602001018190525050508080610d6490612c53565b915050610b5d565b50809250505090565b606560009054906101000a900473ffffffffffffffffffffffffffffffffffffffff1681565b60606000610da96066611c8c565b905060008060005b83811015610e515785604051602001610dca91906127b2565b6040516020818303038152906040528051906020012060676000600184610df19190612af1565b8152602001908152602001600020600101604051602001610e1291906127c9565b604051602081830303815290604052805190602001201415610e3e57600183610e3b9190612af1565b92505b8080610e4990612c53565b915050610db1565b5060008267ffffffffffffffff811115610e94577f4e487b7100000000000000000000000000000000000000000000000000000000600052604160045260246000fd5b604051908082528060200260200182016040528015610ecd57816020015b610eba61214c565b815260200190600190039081610eb25790505b50905060005b848110156111675786604051602001610eec91906127b2565b6040516020818303038152906040528051906020012060676000600184610f139190612af1565b8152602001908152602001600020600101604051602001610f3491906127c9565b604051602081830303815290604052805190602001201415611154576000600182610f5f9190612af1565b9050600060676000838152602001908152602001600020905080604051806060016040529081600082018054610f9490612bf0565b80601f0160208091040260200160405190810160405280929190818152602001828054610fc090612bf0565b801561100d5780601f10610fe25761010080835404028352916020019161100d565b820191906000526020600020905b815481529060010190602001808311610ff057829003601f168201915b5050505050815260200160018201805461102690612bf0565b80601f016020809104026020016040519081016040528092919081815260200182805461105290612bf0565b801561109f5780601f106110745761010080835404028352916020019161109f565b820191906000526020600020905b81548152906001019060200180831161108257829003601f168201915b505050505081526020016002820160009054906101000a900473ffffffffffffffffffffffffffffffffffffffff1673ffffffffffffffffffffffffffffffffffffffff1673ffffffffffffffffffffffffffffffffffffffff1681525050848681518110611137577f4e487b7100000000000000000000000000000000000000000000000000000000600052603260045260246000fd5b602002602001018190525060018561114f9190612af1565b945050505b808061115f90612c53565b915050610ed3565b5080945050505050919050565b6000603360008373ffffffffffffffffffffffffffffffffffffffff1673ffffffffffffffffffffffffffffffffffffffff168152602001908152602001600020549050919050565b60006111c96066611c8c565b905060005b81811015611297573373ffffffffffffffffffffffffffffffffffffffff16606760006001846111fe9190612af1565b815260200190815260200160002060020160009054906101000a900473ffffffffffffffffffffffffffffffffffffffff1673ffffffffffffffffffffffffffffffffffffffff16141561128457826067600060018461125e9190612af1565b815260200190815260200160002060010190805190602001906112829291906120c6565b505b808061128f90612c53565b9150506111ce565b505050565b606060006112aa6066611c8c565b9050600060405180602001604052806000815250905060005b82811015611406573373ffffffffffffffffffffffffffffffffffffffff16606760006001846112f39190612af1565b815260200190815260200160002060020160009054906101000a900473ffffffffffffffffffffffffffffffffffffffff1673ffffffffffffffffffffffffffffffffffffffff1614156113f357606760006001836113529190612af1565b8152602001908152602001600020600101805461136e90612bf0565b80601f016020809104026020016040519081016040528092919081815260200182805461139a90612bf0565b80156113e75780601f106113bc576101008083540402835291602001916113e7565b820191906000526020600020905b8154815290600101906020018083116113ca57829003601f168201915b50505050509150611406565b80806113fe90612c53565b9150506112c3565b50809250505090565b600060019054906101000a900460ff166114375760008054906101000a900460ff1615611440565b61143f611faa565b5b61147f576040517f08c379a00000000000000000000000000000000000000000000000000000000081526004016114769061293f565b60405180910390fd5b60008060019054906101000a900460ff1615905080156114cf576001600060016101000a81548160ff02191690831515021790555060016000806101000a81548160ff0219169083151502179055505b6114f76040518060200160405280600081525060405180602001604052806000815250611fbb565b33606560006101000a81548173ffffffffffffffffffffffffffffffffffffffff021916908373ffffffffffffffffffffffffffffffffffffffff16021790555080156115595760008060016101000a81548160ff0219169083151502179055505b50565b6060600061156a6066611c8c565b90506000600167ffffffffffffffff8111156115af577f4e487b7100000000000000000000000000000000000000000000000000000000600052604160045260246000fd5b6040519080825280602002602001820160405280156115e857816020015b6115d561214c565b8152602001906001900390816115cd5790505b50905060005b82811015611872578473ffffffffffffffffffffffffffffffffffffffff166067600060018461161e9190612af1565b815260200190815260200160002060020160009054906101000a900473ffffffffffffffffffffffffffffffffffffffff1673ffffffffffffffffffffffffffffffffffffffff16141561185f5760006067600060018461167f9190612af1565b81526020019081526020016000209050806040518060600160405290816000820180546116ab90612bf0565b80601f01602080910402602001604051908101604052809291908181526020018280546116d790612bf0565b80156117245780601f106116f957610100808354040283529160200191611724565b820191906000526020600020905b81548152906001019060200180831161170757829003601f168201915b5050505050815260200160018201805461173d90612bf0565b80601f016020809104026020016040519081016040528092919081815260200182805461176990612bf0565b80156117b65780601f1061178b576101008083540402835291602001916117b6565b820191906000526020600020905b81548152906001019060200180831161179957829003601f168201915b505050505081526020016002820160009054906101000a900473ffffffffffffffffffffffffffffffffffffffff1673ffffffffffffffffffffffffffffffffffffffff1673ffffffffffffffffffffffffffffffffffffffff168152505083838151811061184e577f4e487b7100000000000000000000000000000000000000000000000000000000600052603260045260246000fd5b602002602001018190525050611872565b808061186a90612c53565b9150506115ee565b508092505050919050565b60606037805461188c90612bf0565b80601f01602080910402602001604051908101604052809291908181526020018280546118b890612bf0565b80156119055780601f106118da57610100808354040283529160200191611905565b820191906000526020600020905b8154815290600101906020018083116118e857829003601f168201915b5050505050905090565b60008061191a611aa3565b90506000603460008373ffffffffffffffffffffffffffffffffffffffff1673ffffffffffffffffffffffffffffffffffffffff16815260200190815260200160002060008673ffffffffffffffffffffffffffffffffffffffff1673ffffffffffffffffffffffffffffffffffffffff168152602001908152602001600020549050838110156119e0576040517f08c379a00000000000000000000000000000000000000000000000000000000081526004016119d7906129bf565b60405180910390fd5b6119ed8286868403611aab565b60019250505092915050565b600080611a04611aa3565b9050611a11818585611d26565b600191505092915050565b6000603460008473ffffffffffffffffffffffffffffffffffffffff1673ffffffffffffffffffffffffffffffffffffffff16815260200190815260200160002060008373ffffffffffffffffffffffffffffffffffffffff1673ffffffffffffffffffffffffffffffffffffffff16815260200190815260200160002054905092915050565b600033905090565b600073ffffffffffffffffffffffffffffffffffffffff168373ffffffffffffffffffffffffffffffffffffffff161415611b1b576040517f08c379a0000000000000000000000000000000000000000000000000000000008152600401611b129061297f565b60405180910390fd5b600073ffffffffffffffffffffffffffffffffffffffff168273ffffffffffffffffffffffffffffffffffffffff161415611b8b576040517f08c379a0000000000000000000000000000000000000000000000000000000008152600401611b82906128bf565b60405180910390fd5b80603460008573ffffffffffffffffffffffffffffffffffffffff1673ffffffffffffffffffffffffffffffffffffffff16815260200190815260200160002060008473ffffffffffffffffffffffffffffffffffffffff1673ffffffffffffffffffffffffffffffffffffffff168152602001908152602001600020819055508173ffffffffffffffffffffffffffffffffffffffff168373ffffffffffffffffffffffffffffffffffffffff167f8c5be1e5ebec7d5bd14f71427d1e84f3dd0314c0f7b2291e5b200ac8c7c3b92583604051611c6991906129df565b60405180910390a3505050565b6001816000016000828254019250508190555050565b600081600001549050919050565b6000611ca68484611a1c565b90507fffffffffffffffffffffffffffffffffffffffffffffffffffffffffffffffff8114611d205781811015611d12576040517f08c379a0000000000000000000000000000000000000000000000000000000008152600401611d09906128df565b60405180910390fd5b611d1f8484848403611aab565b5b50505050565b600073ffffffffffffffffffffffffffffffffffffffff168373ffffffffffffffffffffffffffffffffffffffff161415611d96576040517f08c379a0000000000000000000000000000000000000000000000000000000008152600401611d8d9061295f565b60405180910390fd5b600073ffffffffffffffffffffffffffffffffffffffff168273ffffffffffffffffffffffffffffffffffffffff161415611e06576040517f08c379a0000000000000000000000000000000000000000000000000000000008152600401611dfd9061289f565b60405180910390fd5b611e11838383612018565b6000603360008573ffffffffffffffffffffffffffffffffffffffff1673ffffffffffffffffffffffffffffffffffffffff16815260200190815260200160002054905081811015611e98576040517f08c379a0000000000000000000000000000000000000000000000000000000008152600401611e8f906128ff565b60405180910390fd5b818103603360008673ffffffffffffffffffffffffffffffffffffffff1673ffffffffffffffffffffffffffffffffffffffff1681526020019081526020016000208190555081603360008573ffffffffffffffffffffffffffffffffffffffff1673ffffffffffffffffffffffffffffffffffffffff1681526020019081526020016000206000828254611f2d9190612af1565b925050819055508273ffffffffffffffffffffffffffffffffffffffff168473ffffffffffffffffffffffffffffffffffffffff167fddf252ad1be2c89b69c2b068fc378daa952ba7f163c4a11628f55a4df523b3ef84604051611f9191906129df565b60405180910390a3611fa484848461201d565b50505050565b6000611fb530612022565b15905090565b600060019054906101000a900460ff1661200a576040517f08c379a00000000000000000000000000000000000000000000000000000000081526004016120019061299f565b60405180910390fd5b6120148282612045565b5050565b505050565b505050565b6000808273ffffffffffffffffffffffffffffffffffffffff163b119050919050565b600060019054906101000a900460ff16612094576040517f08c379a000000000000000000000000000000000000000000000000000000000815260040161208b9061299f565b60405180910390fd5b81603690805190602001906120aa9291906120c6565b5080603790805190602001906120c19291906120c6565b505050565b8280546120d290612bf0565b90600052602060002090601f0160209004810192826120f4576000855561213b565b82601f1061210d57805160ff191683800117855561213b565b8280016001018555821561213b579182015b8281111561213a57825182559160200191906001019061211f565b5b5090506121489190612183565b5090565b60405180606001604052806060815260200160608152602001600073ffffffffffffffffffffffffffffffffffffffff1681525090565b5b8082111561219c576000816000905550600101612184565b5090565b60006121b36121ae84612a3a565b612a15565b9050828152602081018484840111156121cb57600080fd5b6121d6848285612bae565b509392505050565b6000813590506121ed8161302a565b92915050565b600082601f83011261220457600080fd5b81356122148482602086016121a0565b91505092915050565b60008135905061222c81613041565b92915050565b60006020828403121561224457600080fd5b6000612252848285016121de565b91505092915050565b6000806040838503121561226e57600080fd5b600061227c858286016121de565b925050602061228d858286016121de565b9150509250929050565b6000806000606084860312156122ac57600080fd5b60006122ba868287016121de565b93505060206122cb868287016121de565b92505060406122dc8682870161221d565b9150509250925092565b600080604083850312156122f957600080fd5b6000612307858286016121de565b92505060206123188582860161221d565b9150509250929050565b60006020828403121561233457600080fd5b600082013567ffffffffffffffff81111561234e57600080fd5b61235a848285016121f3565b91505092915050565b6000806040838503121561237657600080fd5b600083013567ffffffffffffffff81111561239057600080fd5b61239c858286016121f3565b925050602083013567ffffffffffffffff8111156123b957600080fd5b6123c5858286016121f3565b9150509250929050565b6000602082840312156123e157600080fd5b60006123ef8482850161221d565b91505092915050565b6000612404838361273d565b905092915050565b61241581612b59565b82525050565b61242481612b47565b82525050565b61243381612b47565b82525050565b600061244482612a90565b61244e8185612ab3565b93508360208202850161246085612a6b565b8060005b8581101561249c578484038952815161247d85826123f8565b945061248883612aa6565b925060208a01995050600181019050612464565b50829750879550505050505092915050565b6124b781612b6b565b82525050565b60006124c882612a9b565b6124d28185612ac4565b93506124e2818560208601612bbd565b6124eb81612d29565b840191505092915050565b600061250182612a9b565b61250b8185612ad5565b935061251b818560208601612bbd565b61252481612d29565b840191505092915050565b600061253a82612a9b565b6125448185612ae6565b9350612554818560208601612bbd565b80840191505092915050565b6000815461256d81612bf0565b6125778186612ae6565b9450600182166000811461259257600181146125a3576125d6565b60ff198316865281860193506125d6565b6125ac85612a7b565b60005b838110156125ce578154818901526001820191506020810190506125af565b838801955050505b50505092915050565b60006125ec602383612ad5565b91506125f782612d3a565b604082019050919050565b600061260f602283612ad5565b915061261a82612d89565b604082019050919050565b6000612632601d83612ad5565b915061263d82612dd8565b602082019050919050565b6000612655602683612ad5565b915061266082612e01565b604082019050919050565b6000612678603083612ad5565b915061268382612e50565b604082019050919050565b600061269b602e83612ad5565b91506126a682612e9f565b604082019050919050565b60006126be602583612ad5565b91506126c982612eee565b604082019050919050565b60006126e1602483612ad5565b91506126ec82612f3d565b604082019050919050565b6000612704602b83612ad5565b915061270f82612f8c565b604082019050919050565b6000612727602583612ad5565b915061273282612fdb565b604082019050919050565b6000606083016000830151848203600086015261275a82826124bd565b9150506020830151848203602086015261277482826124bd565b9150506040830151612789604086018261241b565b508091505092915050565b61279d81612b97565b82525050565b6127ac81612ba1565b82525050565b60006127be828461252f565b915081905092915050565b60006127d58284612560565b915081905092915050565b60006020820190506127f5600083018461240c565b92915050565b600060208201905081810360008301526128158184612439565b905092915050565b600060208201905061283260008301846124ae565b92915050565b6000602082019050818103600083015261285281846124f6565b905092915050565b6000606082019050818103600083015261287481866124f6565b9050818103602083015261288881856124f6565b9050612897604083018461242a565b949350505050565b600060208201905081810360008301526128b8816125df565b9050919050565b600060208201905081810360008301526128d881612602565b9050919050565b600060208201905081810360008301526128f881612625565b9050919050565b6000602082019050818103600083015261291881612648565b9050919050565b600060208201905081810360008301526129388161266b565b9050919050565b600060208201905081810360008301526129588161268e565b9050919050565b60006020820190508181036000830152612978816126b1565b9050919050565b60006020820190508181036000830152612998816126d4565b9050919050565b600060208201905081810360008301526129b8816126f7565b9050919050565b600060208201905081810360008301526129d88161271a565b9050919050565b60006020820190506129f46000830184612794565b92915050565b6000602082019050612a0f60008301846127a3565b92915050565b6000612a1f612a30565b9050612a2b8282612c22565b919050565b6000604051905090565b600067ffffffffffffffff821115612a5557612a54612cfa565b5b612a5e82612d29565b9050602081019050919050565b6000819050602082019050919050565b60008190508160005260206000209050919050565b600081519050919050565b600081519050919050565b6000602082019050919050565b600082825260208201905092915050565b600082825260208201905092915050565b600082825260208201905092915050565b600081905092915050565b6000612afc82612b97565b9150612b0783612b97565b9250827fffffffffffffffffffffffffffffffffffffffffffffffffffffffffffffffff03821115612b3c57612b3b612c9c565b5b828201905092915050565b6000612b5282612b77565b9050919050565b6000612b6482612b77565b9050919050565b60008115159050919050565b600073ffffffffffffffffffffffffffffffffffffffff82169050919050565b6000819050919050565b600060ff82169050919050565b82818337600083830152505050565b60005b83811015612bdb578082015181840152602081019050612bc0565b83811115612bea576000848401525b50505050565b60006002820490506001821680612c0857607f821691505b60208210811415612c1c57612c1b612ccb565b5b50919050565b612c2b82612d29565b810181811067ffffffffffffffff82111715612c4a57612c49612cfa565b5b80604052505050565b6000612c5e82612b97565b91507fffffffffffffffffffffffffffffffffffffffffffffffffffffffffffffffff821415612c9157612c90612c9c565b5b600182019050919050565b7f4e487b7100000000000000000000000000000000000000000000000000000000600052601160045260246000fd5b7f4e487b7100000000000000000000000000000000000000000000000000000000600052602260045260246000fd5b7f4e487b7100000000000000000000000000000000000000000000000000000000600052604160045260246000fd5b6000601f19601f8301169050919050565b7f45524332303a207472616e7366657220746f20746865207a65726f206164647260008201527f6573730000000000000000000000000000000000000000000000000000000000602082015250565b7f45524332303a20617070726f766520746f20746865207a65726f20616464726560008201527f7373000000000000000000000000000000000000000000000000000000000000602082015250565b7f45524332303a20696e73756666696369656e7420616c6c6f77616e6365000000600082015250565b7f45524332303a207472616e7366657220616d6f756e742065786365656473206260008201527f616c616e63650000000000000000000000000000000000000000000000000000602082015250565b7f596f75722077616c6c657420697320616c7265616479206c696e6b656420746f60008201527f20612070686f6e65206e756d6265722e00000000000000000000000000000000602082015250565b7f496e697469616c697a61626c653a20636f6e747261637420697320616c72656160008201527f647920696e697469616c697a6564000000000000000000000000000000000000602082015250565b7f45524332303a207472616e736665722066726f6d20746865207a65726f20616460008201527f6472657373000000000000000000000000000000000000000000000000000000602082015250565b7f45524332303a20617070726f76652066726f6d20746865207a65726f2061646460008201527f7265737300000000000000000000000000000000000000000000000000000000602082015250565b7f496e697469616c697a61626c653a20636f6e7472616374206973206e6f74206960008201527f6e697469616c697a696e67000000000000000000000000000000000000000000602082015250565b7f45524332303a2064656372656173656420616c6c6f77616e63652062656c6f7760008201527f207a65726f000000000000000000000000000000000000000000000000000000602082015250565b61303381612b47565b811461303e57600080fd5b50565b61304a81612b97565b811461305557600080fd5b5056fea2646970667358221220c01cc5d4faee8f412614d8bf8792ec364bddf6074df6f514b06ad000a45364ea64736f6c63430008040033",
  "linkReferences": {},
  "deployedLinkReferences": {}
}