{
  "_format": "hh-sol-artifact-1",
  "contractName": "phoneLink",
  "sourceName": "contracts/phoneLink.sol",
  "abi": [
    {
      "anonymous": false,
      "inputs": [
        {
          "indexed": true,
          "internalType": "address",
          "name": "owner",
          "type": "address"
        },
        {
          "indexed": true,
          "internalType": "address",
          "name": "spender",
          "type": "address"
        },
        {
          "indexed": false,
          "internalType": "uint256",
          "name": "value",
          "type": "uint256"
        }
      ],
      "name": "Approval",
      "type": "event"
    },
    {
      "anonymous": false,
      "inputs": [
        {
          "indexed": true,
          "internalType": "string",
          "name": "name",
          "type": "string"
        },
        {
          "indexed": true,
          "internalType": "string",
          "name": "identifier",
          "type": "string"
        },
        {
          "indexed": true,
          "internalType": "string",
          "name": "typeOfIdentifier",
          "type": "string"
        },
        {
          "indexed": false,
          "internalType": "address",
          "name": "connectedWalletAddress",
          "type": "address"
        },
        {
          "indexed": false,
          "internalType": "bool",
          "name": "isPrimaryWallet",
          "type": "bool"
        }
      ],
      "name": "DetailsCreated",
      "type": "event"
    },
    {
      "anonymous": false,
      "inputs": [
        {
          "indexed": true,
          "internalType": "address",
          "name": "from",
          "type": "address"
        },
        {
          "indexed": true,
          "internalType": "address",
          "name": "to",
          "type": "address"
        },
        {
          "indexed": false,
          "internalType": "uint256",
          "name": "value",
          "type": "uint256"
        }
      ],
      "name": "Transfer",
      "type": "event"
    },
    {
      "inputs": [],
      "name": "_itemIds",
      "outputs": [
        {
          "internalType": "uint256",
          "name": "_value",
          "type": "uint256"
        }
      ],
      "stateMutability": "view",
      "type": "function"
    },
    {
      "inputs": [
        {
          "internalType": "address",
          "name": "owner",
          "type": "address"
        },
        {
          "internalType": "address",
          "name": "spender",
          "type": "address"
        }
      ],
      "name": "allowance",
      "outputs": [
        {
          "internalType": "uint256",
          "name": "",
          "type": "uint256"
        }
      ],
      "stateMutability": "view",
      "type": "function"
    },
    {
      "inputs": [
        {
          "internalType": "address",
          "name": "spender",
          "type": "address"
        },
        {
          "internalType": "uint256",
          "name": "amount",
          "type": "uint256"
        }
      ],
      "name": "approve",
      "outputs": [
        {
          "internalType": "bool",
          "name": "",
          "type": "bool"
        }
      ],
      "stateMutability": "nonpayable",
      "type": "function"
    },
    {
      "inputs": [
        {
          "internalType": "address",
          "name": "account",
          "type": "address"
        }
      ],
      "name": "balanceOf",
      "outputs": [
        {
          "internalType": "uint256",
          "name": "",
          "type": "uint256"
        }
      ],
      "stateMutability": "view",
      "type": "function"
    },
    {
      "inputs": [],
      "name": "decimals",
      "outputs": [
        {
          "internalType": "uint8",
          "name": "",
          "type": "uint8"
        }
      ],
      "stateMutability": "view",
      "type": "function"
    },
    {
      "inputs": [
        {
          "internalType": "address",
          "name": "spender",
          "type": "address"
        },
        {
          "internalType": "uint256",
          "name": "subtractedValue",
          "type": "uint256"
        }
      ],
      "name": "decreaseAllowance",
      "outputs": [
        {
          "internalType": "bool",
          "name": "",
          "type": "bool"
        }
      ],
      "stateMutability": "nonpayable",
      "type": "function"
    },
    {
      "inputs": [
        {
          "internalType": "string",
          "name": "name",
          "type": "string"
        },
        {
          "internalType": "string",
          "name": "identifier",
          "type": "string"
        },
        {
          "internalType": "string",
          "name": "typeOfIdentifier",
          "type": "string"
        },
        {
          "internalType": "string",
          "name": "oldIdentifier",
          "type": "string"
        }
      ],
      "name": "editProfile",
      "outputs": [],
      "stateMutability": "nonpayable",
      "type": "function"
    },
    {
      "inputs": [
        {
          "internalType": "string",
          "name": "name",
          "type": "string"
        },
        {
          "internalType": "string",
          "name": "identifier",
          "type": "string"
        },
        {
          "internalType": "string",
          "name": "typeOfIdentifier",
          "type": "string"
        },
        {
          "internalType": "bool",
          "name": "isPrimaryWallet",
          "type": "bool"
        }
      ],
      "name": "enterDetails",
      "outputs": [],
      "stateMutability": "nonpayable",
      "type": "function"
    },
    {
      "inputs": [
        {
          "internalType": "string",
          "name": "userIdentifier",
          "type": "string"
        }
      ],
      "name": "fetchAllWalletAddress",
      "outputs": [
        {
          "components": [
            {
              "internalType": "string",
              "name": "name",
              "type": "string"
            },
            {
              "internalType": "string",
              "name": "identifier",
              "type": "string"
            },
            {
              "internalType": "string",
              "name": "typeOfIdentifier",
              "type": "string"
            },
            {
              "internalType": "address",
              "name": "connectedWalletAddress",
              "type": "address"
            },
            {
              "internalType": "bool",
              "name": "isPrimaryWallet",
              "type": "bool"
            }
          ],
          "internalType": "struct phoneLink.Details[]",
          "name": "",
          "type": "tuple[]"
        }
      ],
      "stateMutability": "view",
      "type": "function"
    },
    {
      "inputs": [],
      "name": "getMarketOwner",
      "outputs": [
        {
          "internalType": "address payable",
          "name": "",
          "type": "address"
        }
      ],
      "stateMutability": "view",
      "type": "function"
    },
    {
      "inputs": [],
      "name": "getPhoneToDetails",
      "outputs": [
        {
          "components": [
            {
              "internalType": "string",
              "name": "name",
              "type": "string"
            },
            {
              "internalType": "string",
              "name": "identifier",
              "type": "string"
            },
            {
              "internalType": "string",
              "name": "typeOfIdentifier",
              "type": "string"
            },
            {
              "internalType": "address",
              "name": "connectedWalletAddress",
              "type": "address"
            },
            {
              "internalType": "bool",
              "name": "isPrimaryWallet",
              "type": "bool"
            }
          ],
          "internalType": "struct phoneLink.Details[]",
          "name": "",
          "type": "tuple[]"
        }
      ],
      "stateMutability": "view",
      "type": "function"
    },
    {
      "inputs": [
        {
          "internalType": "address",
          "name": "walletAddress",
          "type": "address"
        }
      ],
      "name": "getWalletDetails",
      "outputs": [
        {
          "components": [
            {
              "internalType": "string",
              "name": "name",
              "type": "string"
            },
            {
              "internalType": "string",
              "name": "identifier",
              "type": "string"
            },
            {
              "internalType": "string",
              "name": "typeOfIdentifier",
              "type": "string"
            },
            {
              "internalType": "address",
              "name": "connectedWalletAddress",
              "type": "address"
            },
            {
              "internalType": "bool",
              "name": "isPrimaryWallet",
              "type": "bool"
            }
          ],
          "internalType": "struct phoneLink.Details[]",
          "name": "",
          "type": "tuple[]"
        }
      ],
      "stateMutability": "view",
      "type": "function"
    },
    {
      "inputs": [
        {
          "internalType": "address",
          "name": "spender",
          "type": "address"
        },
        {
          "internalType": "uint256",
          "name": "addedValue",
          "type": "uint256"
        }
      ],
      "name": "increaseAllowance",
      "outputs": [
        {
          "internalType": "bool",
          "name": "",
          "type": "bool"
        }
      ],
      "stateMutability": "nonpayable",
      "type": "function"
    },
    {
      "inputs": [],
      "name": "initialize",
      "outputs": [],
      "stateMutability": "nonpayable",
      "type": "function"
    },
    {
      "inputs": [],
      "name": "marketowner",
      "outputs": [
        {
          "internalType": "address payable",
          "name": "",
          "type": "address"
        }
      ],
      "stateMutability": "view",
      "type": "function"
    },
    {
      "inputs": [],
      "name": "name",
      "outputs": [
        {
          "internalType": "string",
          "name": "",
          "type": "string"
        }
      ],
      "stateMutability": "view",
      "type": "function"
    },
    {
      "inputs": [
        {
          "internalType": "uint256",
          "name": "",
          "type": "uint256"
        }
      ],
      "name": "phoneToDetails",
      "outputs": [
        {
          "internalType": "string",
          "name": "name",
          "type": "string"
        },
        {
          "internalType": "string",
          "name": "identifier",
          "type": "string"
        },
        {
          "internalType": "string",
          "name": "typeOfIdentifier",
          "type": "string"
        },
        {
          "internalType": "address",
          "name": "connectedWalletAddress",
          "type": "address"
        },
        {
          "internalType": "bool",
          "name": "isPrimaryWallet",
          "type": "bool"
        }
      ],
      "stateMutability": "view",
      "type": "function"
    },
    {
      "inputs": [
        {
          "internalType": "address",
          "name": "destination",
          "type": "address"
        },
        {
          "internalType": "uint256",
          "name": "amount",
          "type": "uint256"
        }
      ],
      "name": "sendToken",
      "outputs": [],
      "stateMutability": "payable",
      "type": "function"
    },
    {
      "inputs": [],
      "name": "symbol",
      "outputs": [
        {
          "internalType": "string",
          "name": "",
          "type": "string"
        }
      ],
      "stateMutability": "view",
      "type": "function"
    },
    {
      "inputs": [],
      "name": "totalSupply",
      "outputs": [
        {
          "internalType": "uint256",
          "name": "",
          "type": "uint256"
        }
      ],
      "stateMutability": "view",
      "type": "function"
    },
    {
      "inputs": [
        {
          "internalType": "address",
          "name": "to",
          "type": "address"
        },
        {
          "internalType": "uint256",
          "name": "amount",
          "type": "uint256"
        }
      ],
      "name": "transfer",
      "outputs": [
        {
          "internalType": "bool",
          "name": "",
          "type": "bool"
        }
      ],
      "stateMutability": "nonpayable",
      "type": "function"
    },
    {
      "inputs": [
        {
          "internalType": "address",
          "name": "from",
          "type": "address"
        },
        {
          "internalType": "address",
          "name": "to",
          "type": "address"
        },
        {
          "internalType": "uint256",
          "name": "amount",
          "type": "uint256"
        }
      ],
      "name": "transferFrom",
      "outputs": [
        {
          "internalType": "bool",
          "name": "",
          "type": "bool"
        }
      ],
      "stateMutability": "nonpayable",
      "type": "function"
    }
  ],
  "bytecode": "0x608060405234801561001057600080fd5b506137ff806100206000396000f3fe6080604052600436106101355760003560e01c80635a12d0f8116100ab5780638cae45d21161006f5780638cae45d21461043557806395d89b4114610472578063a457c2d71461049d578063a9059cbb146104da578063dd62ed3e14610517578063fcb02e731461055457610135565b80635a12d0f81461034e5780635e385b92146103795780636e997665146103a457806370a08231146103e15780638129fc1c1461041e57610135565b806334a7f193116100fd57806334a7f1931461023557806339509351146102605780633e3a648d1461029d578063412664ae146102c6578063451e9cf0146102e257806352d954911461030d57610135565b806306fdde031461013a578063095ea7b31461016557806318160ddd146101a257806323b872dd146101cd578063313ce5671461020a575b600080fd5b34801561014657600080fd5b5061014f61057d565b60405161015c9190612fde565b60405180910390f35b34801561017157600080fd5b5061018c60048036038101906101879190612948565b61060f565b6040516101999190612fc3565b60405180910390f35b3480156101ae57600080fd5b506101b7610632565b6040516101c49190613188565b60405180910390f35b3480156101d957600080fd5b506101f460048036038101906101ef91906128f9565b61063c565b6040516102019190612fc3565b60405180910390f35b34801561021657600080fd5b5061021f61066b565b60405161022c91906131a3565b60405180910390f35b34801561024157600080fd5b5061024a610674565b6040516102579190613188565b60405180910390f35b34801561026c57600080fd5b5061028760048036038101906102829190612948565b610680565b6040516102949190612fc3565b60405180910390f35b3480156102a957600080fd5b506102c460048036038101906102bf9190612a70565b61072a565b005b6102e060048036038101906102db9190612948565b610966565b005b3480156102ee57600080fd5b506102f76109b1565b6040516103049190612f5d565b60405180910390f35b34801561031957600080fd5b50610334600480360381019061032f9190612b33565b6109db565b604051610345959493929190613000565b60405180910390f35b34801561035a57600080fd5b50610363610bd6565b6040516103709190612fa1565b60405180910390f35b34801561038557600080fd5b5061038e610f2c565b60405161039b9190612f5d565b60405180910390f35b3480156103b057600080fd5b506103cb60048036038101906103c69190612984565b610f52565b6040516103d89190612fa1565b60405180910390f35b3480156103ed57600080fd5b5061040860048036038101906104039190612894565b6113d8565b6040516104159190613188565b60405180910390f35b34801561042a57600080fd5b50610433611421565b005b34801561044157600080fd5b5061045c60048036038101906104579190612894565b61156e565b6040516104699190612fa1565b60405180910390f35b34801561047e57600080fd5b50610487611937565b6040516104949190612fde565b60405180910390f35b3480156104a957600080fd5b506104c460048036038101906104bf9190612948565b6119c9565b6040516104d19190612fc3565b60405180910390f35b3480156104e657600080fd5b5061050160048036038101906104fc9190612948565b611ab3565b60405161050e9190612fc3565b60405180910390f35b34801561052357600080fd5b5061053e600480360381019061053991906128bd565b611ad6565b60405161054b9190613188565b60405180910390f35b34801561056057600080fd5b5061057b600480360381019061057691906129c5565b611b5d565b005b60606036805461058c90613399565b80601f01602080910402602001604051908101604052809291908181526020018280546105b890613399565b80156106055780601f106105da57610100808354040283529160200191610605565b820191906000526020600020905b8154815290600101906020018083116105e857829003601f168201915b5050505050905090565b60008061061a6120e0565b90506106278185856120e8565b600191505092915050565b6000603554905090565b6000806106476120e0565b90506106548582856122b3565b61065f85858561233f565b60019150509392505050565b60006012905090565b60668060000154905081565b60008061068b6120e0565b905061071f818585603460008673ffffffffffffffffffffffffffffffffffffffff1673ffffffffffffffffffffffffffffffffffffffff16815260200190815260200160002060008973ffffffffffffffffffffffffffffffffffffffff1673ffffffffffffffffffffffffffffffffffffffff1681526020019081526020016000205461071a919061329a565b6120e8565b600191505092915050565b600061073660666125c3565b905060005b8181101561095e573373ffffffffffffffffffffffffffffffffffffffff166067600060018461076b919061329a565b815260200190815260200160002060030160009054906101000a900473ffffffffffffffffffffffffffffffffffffffff1673ffffffffffffffffffffffffffffffffffffffff16141561094b57836040516020016107ca9190612f2f565b60405160208183030381529060405280519060200120606760006001846107f1919061329a565b81526020019081526020016000206002016040516020016108129190612f46565b60405160208183030381529060405280519060200120141561094a578260405160200161083f9190612f2f565b6040516020818303038152906040528051906020012060676000600184610866919061329a565b81526020019081526020016000206001016040516020016108879190612f46565b6040516020818303038152906040528051906020012014156109495785606760006001846108b5919061329a565b815260200190815260200160002060000190805190602001906108d9929190612703565b5084606760006001846108ec919061329a565b81526020019081526020016000206001019080519060200190610910929190612703565b508360676000600184610923919061329a565b81526020019081526020016000206002019080519060200190610947929190612703565b505b5b5b8080610956906133fc565b91505061073b565b505050505050565b8173ffffffffffffffffffffffffffffffffffffffff166108fc829081150290604051600060405180830381858888f193505050501580156109ac573d6000803e3d6000fd5b505050565b6000606560009054906101000a900473ffffffffffffffffffffffffffffffffffffffff16905090565b60676020528060005260406000206000915090508060000180546109fe90613399565b80601f0160208091040260200160405190810160405280929190818152602001828054610a2a90613399565b8015610a775780601f10610a4c57610100808354040283529160200191610a77565b820191906000526020600020905b815481529060010190602001808311610a5a57829003601f168201915b505050505090806001018054610a8c90613399565b80601f0160208091040260200160405190810160405280929190818152602001828054610ab890613399565b8015610b055780601f10610ada57610100808354040283529160200191610b05565b820191906000526020600020905b815481529060010190602001808311610ae857829003601f168201915b505050505090806002018054610b1a90613399565b80601f0160208091040260200160405190810160405280929190818152602001828054610b4690613399565b8015610b935780601f10610b6857610100808354040283529160200191610b93565b820191906000526020600020905b815481529060010190602001808311610b7657829003601f168201915b5050505050908060030160009054906101000a900473ffffffffffffffffffffffffffffffffffffffff16908060030160149054906101000a900460ff16905085565b60606000610be460666125c3565b905060008167ffffffffffffffff811115610c28577f4e487b7100000000000000000000000000000000000000000000000000000000600052604160045260246000fd5b604051908082528060200260200182016040528015610c6157816020015b610c4e612789565b815260200190600190039081610c465790505b50905060005b82811015610f23576000600182610c7e919061329a565b90506000606760008381526020019081526020016000209050806040518060a0016040529081600082018054610cb390613399565b80601f0160208091040260200160405190810160405280929190818152602001828054610cdf90613399565b8015610d2c5780601f10610d0157610100808354040283529160200191610d2c565b820191906000526020600020905b815481529060010190602001808311610d0f57829003601f168201915b50505050508152602001600182018054610d4590613399565b80601f0160208091040260200160405190810160405280929190818152602001828054610d7190613399565b8015610dbe5780601f10610d9357610100808354040283529160200191610dbe565b820191906000526020600020905b815481529060010190602001808311610da157829003601f168201915b50505050508152602001600282018054610dd790613399565b80601f0160208091040260200160405190810160405280929190818152602001828054610e0390613399565b8015610e505780601f10610e2557610100808354040283529160200191610e50565b820191906000526020600020905b815481529060010190602001808311610e3357829003601f168201915b505050505081526020016003820160009054906101000a900473ffffffffffffffffffffffffffffffffffffffff1673ffffffffffffffffffffffffffffffffffffffff1673ffffffffffffffffffffffffffffffffffffffff1681526020016003820160149054906101000a900460ff161515151581525050848481518110610f03577f4e487b7100000000000000000000000000000000000000000000000000000000600052603260045260246000fd5b602002602001018190525050508080610f1b906133fc565b915050610c67565b50809250505090565b606560009054906101000a900473ffffffffffffffffffffffffffffffffffffffff1681565b60606000610f6060666125c3565b905060008060005b838110156110085785604051602001610f819190612f2f565b6040516020818303038152906040528051906020012060676000600184610fa8919061329a565b8152602001908152602001600020600101604051602001610fc99190612f46565b604051602081830303815290604052805190602001201415610ff557600183610ff2919061329a565b92505b8080611000906133fc565b915050610f68565b5060008267ffffffffffffffff81111561104b577f4e487b7100000000000000000000000000000000000000000000000000000000600052604160045260246000fd5b60405190808252806020026020018201604052801561108457816020015b611071612789565b8152602001906001900390816110695790505b50905060005b848110156113cb57866040516020016110a39190612f2f565b60405160208183030381529060405280519060200120606760006001846110ca919061329a565b81526020019081526020016000206001016040516020016110eb9190612f46565b6040516020818303038152906040528051906020012014156113b8576000600182611116919061329a565b90506000606760008381526020019081526020016000209050806040518060a001604052908160008201805461114b90613399565b80601f016020809104026020016040519081016040528092919081815260200182805461117790613399565b80156111c45780601f10611199576101008083540402835291602001916111c4565b820191906000526020600020905b8154815290600101906020018083116111a757829003601f168201915b505050505081526020016001820180546111dd90613399565b80601f016020809104026020016040519081016040528092919081815260200182805461120990613399565b80156112565780601f1061122b57610100808354040283529160200191611256565b820191906000526020600020905b81548152906001019060200180831161123957829003601f168201915b5050505050815260200160028201805461126f90613399565b80601f016020809104026020016040519081016040528092919081815260200182805461129b90613399565b80156112e85780601f106112bd576101008083540402835291602001916112e8565b820191906000526020600020905b8154815290600101906020018083116112cb57829003601f168201915b505050505081526020016003820160009054906101000a900473ffffffffffffffffffffffffffffffffffffffff1673ffffffffffffffffffffffffffffffffffffffff1673ffffffffffffffffffffffffffffffffffffffff1681526020016003820160149054906101000a900460ff16151515158152505084868151811061139b577f4e487b7100000000000000000000000000000000000000000000000000000000600052603260045260246000fd5b60200260200101819052506001856113b3919061329a565b945050505b80806113c3906133fc565b91505061108a565b5080945050505050919050565b6000603360008373ffffffffffffffffffffffffffffffffffffffff1673ffffffffffffffffffffffffffffffffffffffff168152602001908152602001600020549050919050565b600060019054906101000a900460ff166114495760008054906101000a900460ff1615611452565b6114516125d1565b5b611491576040517f08c379a0000000000000000000000000000000000000000000000000000000008152600401611488906130e8565b60405180910390fd5b60008060019054906101000a900460ff1615905080156114e1576001600060016101000a81548160ff02191690831515021790555060016000806101000a81548160ff0219169083151502179055505b61150960405180602001604052806000815250604051806020016040528060008152506125e2565b33606560006101000a81548173ffffffffffffffffffffffffffffffffffffffff021916908373ffffffffffffffffffffffffffffffffffffffff160217905550801561156b5760008060016101000a81548160ff0219169083151502179055505b50565b6060600061157c60666125c3565b905060008167ffffffffffffffff8111156115c0577f4e487b7100000000000000000000000000000000000000000000000000000000600052604160045260246000fd5b6040519080825280602002602001820160405280156115f957816020015b6115e6612789565b8152602001906001900390816115de5790505b50905060005b8281101561192c578473ffffffffffffffffffffffffffffffffffffffff166067600060018461162f919061329a565b815260200190815260200160002060030160009054906101000a900473ffffffffffffffffffffffffffffffffffffffff1673ffffffffffffffffffffffffffffffffffffffff16141561191957600060676000600184611690919061329a565b81526020019081526020016000209050806040518060a00160405290816000820180546116bc90613399565b80601f01602080910402602001604051908101604052809291908181526020018280546116e890613399565b80156117355780601f1061170a57610100808354040283529160200191611735565b820191906000526020600020905b81548152906001019060200180831161171857829003601f168201915b5050505050815260200160018201805461174e90613399565b80601f016020809104026020016040519081016040528092919081815260200182805461177a90613399565b80156117c75780601f1061179c576101008083540402835291602001916117c7565b820191906000526020600020905b8154815290600101906020018083116117aa57829003601f168201915b505050505081526020016002820180546117e090613399565b80601f016020809104026020016040519081016040528092919081815260200182805461180c90613399565b80156118595780601f1061182e57610100808354040283529160200191611859565b820191906000526020600020905b81548152906001019060200180831161183c57829003601f168201915b505050505081526020016003820160009054906101000a900473ffffffffffffffffffffffffffffffffffffffff1673ffffffffffffffffffffffffffffffffffffffff1673ffffffffffffffffffffffffffffffffffffffff1681526020016003820160149054906101000a900460ff16151515158152505083838151811061190c577f4e487b7100000000000000000000000000000000000000000000000000000000600052603260045260246000fd5b6020026020010181905250505b8080611924906133fc565b9150506115ff565b508092505050919050565b60606037805461194690613399565b80601f016020809104026020016040519081016040528092919081815260200182805461197290613399565b80156119bf5780601f10611994576101008083540402835291602001916119bf565b820191906000526020600020905b8154815290600101906020018083116119a257829003601f168201915b5050505050905090565b6000806119d46120e0565b90506000603460008373ffffffffffffffffffffffffffffffffffffffff1673ffffffffffffffffffffffffffffffffffffffff16815260200190815260200160002060008673ffffffffffffffffffffffffffffffffffffffff1673ffffffffffffffffffffffffffffffffffffffff16815260200190815260200160002054905083811015611a9a576040517f08c379a0000000000000000000000000000000000000000000000000000000008152600401611a9190613168565b60405180910390fd5b611aa782868684036120e8565b60019250505092915050565b600080611abe6120e0565b9050611acb81858561233f565b600191505092915050565b6000603460008473ffffffffffffffffffffffffffffffffffffffff1673ffffffffffffffffffffffffffffffffffffffff16815260200190815260200160002060008373ffffffffffffffffffffffffffffffffffffffff1673ffffffffffffffffffffffffffffffffffffffff16815260200190815260200160002054905092915050565b611b67606661263f565b6000611b7360666125c3565b9050600115158215151415611e7b576000611b8d85610f52565b905060005b8151811015611cc35760005b83811015611caf57828281518110611bdf577f4e487b7100000000000000000000000000000000000000000000000000000000600052603260045260246000fd5b60200260200101516060015173ffffffffffffffffffffffffffffffffffffffff1660676000600184611c12919061329a565b815260200190815260200160002060030160009054906101000a900473ffffffffffffffffffffffffffffffffffffffff1673ffffffffffffffffffffffffffffffffffffffff161415611c9c57600060676000600184611c73919061329a565b815260200190815260200160002060030160146101000a81548160ff0219169083151502179055505b8080611ca7906133fc565b915050611b9e565b508080611cbb906133fc565b915050611b92565b506000611ccf3361156e565b905060005b8151811015611e77576000611d2c838381518110611d1b577f4e487b7100000000000000000000000000000000000000000000000000000000600052603260045260246000fd5b602002602001015160200151610f52565b905060005b8151811015611e625760005b86811015611e4e57828281518110611d7e577f4e487b7100000000000000000000000000000000000000000000000000000000600052603260045260246000fd5b60200260200101516060015173ffffffffffffffffffffffffffffffffffffffff1660676000600184611db1919061329a565b815260200190815260200160002060030160009054906101000a900473ffffffffffffffffffffffffffffffffffffffff1673ffffffffffffffffffffffffffffffffffffffff161415611e3b57600060676000600184611e12919061329a565b815260200190815260200160002060030160146101000a81548160ff0219169083151502179055505b8080611e46906133fc565b915050611d3d565b508080611e5a906133fc565b915050611d31565b50508080611e6f906133fc565b915050611cd4565b5050505b6040518060a001604052808681526020018581526020018481526020013373ffffffffffffffffffffffffffffffffffffffff168152602001831515815250606760008381526020019081526020016000206000820151816000019080519060200190611ee9929190612703565b506020820151816001019080519060200190611f06929190612703565b506040820151816002019080519060200190611f23929190612703565b5060608201518160030160006101000a81548173ffffffffffffffffffffffffffffffffffffffff021916908373ffffffffffffffffffffffffffffffffffffffff16021790555060808201518160030160146101000a81548160ff02191690831515021790555090505060005b8181101561205d573373ffffffffffffffffffffffffffffffffffffffff1660676000600184611fc1919061329a565b815260200190815260200160002060030160009054906101000a900473ffffffffffffffffffffffffffffffffffffffff1673ffffffffffffffffffffffffffffffffffffffff16141561204a578260676000600184612021919061329a565b815260200190815260200160002060030160146101000a81548160ff0219169083151502179055505b8080612055906133fc565b915050611f91565b508260405161206c9190612f2f565b6040518091039020846040516120829190612f2f565b6040518091039020866040516120989190612f2f565b60405180910390207f2e3249f822bd56e4e9ae7d39402def6df4618c14f212fbe4c35e0c94eddef9fe33866040516120d1929190612f78565b60405180910390a45050505050565b600033905090565b600073ffffffffffffffffffffffffffffffffffffffff168373ffffffffffffffffffffffffffffffffffffffff161415612158576040517f08c379a000000000000000000000000000000000000000000000000000000000815260040161214f90613128565b60405180910390fd5b600073ffffffffffffffffffffffffffffffffffffffff168273ffffffffffffffffffffffffffffffffffffffff1614156121c8576040517f08c379a00000000000000000000000000000000000000000000000000000000081526004016121bf90613088565b60405180910390fd5b80603460008573ffffffffffffffffffffffffffffffffffffffff1673ffffffffffffffffffffffffffffffffffffffff16815260200190815260200160002060008473ffffffffffffffffffffffffffffffffffffffff1673ffffffffffffffffffffffffffffffffffffffff168152602001908152602001600020819055508173ffffffffffffffffffffffffffffffffffffffff168373ffffffffffffffffffffffffffffffffffffffff167f8c5be1e5ebec7d5bd14f71427d1e84f3dd0314c0f7b2291e5b200ac8c7c3b925836040516122a69190613188565b60405180910390a3505050565b60006122bf8484611ad6565b90507fffffffffffffffffffffffffffffffffffffffffffffffffffffffffffffffff8114612339578181101561232b576040517f08c379a0000000000000000000000000000000000000000000000000000000008152600401612322906130a8565b60405180910390fd5b61233884848484036120e8565b5b50505050565b600073ffffffffffffffffffffffffffffffffffffffff168373ffffffffffffffffffffffffffffffffffffffff1614156123af576040517f08c379a00000000000000000000000000000000000000000000000000000000081526004016123a690613108565b60405180910390fd5b600073ffffffffffffffffffffffffffffffffffffffff168273ffffffffffffffffffffffffffffffffffffffff16141561241f576040517f08c379a000000000000000000000000000000000000000000000000000000000815260040161241690613068565b60405180910390fd5b61242a838383612655565b6000603360008573ffffffffffffffffffffffffffffffffffffffff1673ffffffffffffffffffffffffffffffffffffffff168152602001908152602001600020549050818110156124b1576040517f08c379a00000000000000000000000000000000000000000000000000000000081526004016124a8906130c8565b60405180910390fd5b818103603360008673ffffffffffffffffffffffffffffffffffffffff1673ffffffffffffffffffffffffffffffffffffffff1681526020019081526020016000208190555081603360008573ffffffffffffffffffffffffffffffffffffffff1673ffffffffffffffffffffffffffffffffffffffff1681526020019081526020016000206000828254612546919061329a565b925050819055508273ffffffffffffffffffffffffffffffffffffffff168473ffffffffffffffffffffffffffffffffffffffff167fddf252ad1be2c89b69c2b068fc378daa952ba7f163c4a11628f55a4df523b3ef846040516125aa9190613188565b60405180910390a36125bd84848461265a565b50505050565b600081600001549050919050565b60006125dc3061265f565b15905090565b600060019054906101000a900460ff16612631576040517f08c379a000000000000000000000000000000000000000000000000000000000815260040161262890613148565b60405180910390fd5b61263b8282612682565b5050565b6001816000016000828254019250508190555050565b505050565b505050565b6000808273ffffffffffffffffffffffffffffffffffffffff163b119050919050565b600060019054906101000a900460ff166126d1576040517f08c379a00000000000000000000000000000000000000000000000000000000081526004016126c890613148565b60405180910390fd5b81603690805190602001906126e7929190612703565b5080603790805190602001906126fe929190612703565b505050565b82805461270f90613399565b90600052602060002090601f0160209004810192826127315760008555612778565b82601f1061274a57805160ff1916838001178555612778565b82800160010185558215612778579182015b8281111561277757825182559160200191906001019061275c565b5b50905061278591906127d0565b5090565b6040518060a00160405280606081526020016060815260200160608152602001600073ffffffffffffffffffffffffffffffffffffffff1681526020016000151581525090565b5b808211156127e95760008160009055506001016127d1565b5090565b60006128006127fb846131e3565b6131be565b90508281526020810184848401111561281857600080fd5b612823848285613357565b509392505050565b60008135905061283a81613784565b92915050565b60008135905061284f8161379b565b92915050565b600082601f83011261286657600080fd5b81356128768482602086016127ed565b91505092915050565b60008135905061288e816137b2565b92915050565b6000602082840312156128a657600080fd5b60006128b48482850161282b565b91505092915050565b600080604083850312156128d057600080fd5b60006128de8582860161282b565b92505060206128ef8582860161282b565b9150509250929050565b60008060006060848603121561290e57600080fd5b600061291c8682870161282b565b935050602061292d8682870161282b565b925050604061293e8682870161287f565b9150509250925092565b6000806040838503121561295b57600080fd5b60006129698582860161282b565b925050602061297a8582860161287f565b9150509250929050565b60006020828403121561299657600080fd5b600082013567ffffffffffffffff8111156129b057600080fd5b6129bc84828501612855565b91505092915050565b600080600080608085870312156129db57600080fd5b600085013567ffffffffffffffff8111156129f557600080fd5b612a0187828801612855565b945050602085013567ffffffffffffffff811115612a1e57600080fd5b612a2a87828801612855565b935050604085013567ffffffffffffffff811115612a4757600080fd5b612a5387828801612855565b9250506060612a6487828801612840565b91505092959194509250565b60008060008060808587031215612a8657600080fd5b600085013567ffffffffffffffff811115612aa057600080fd5b612aac87828801612855565b945050602085013567ffffffffffffffff811115612ac957600080fd5b612ad587828801612855565b935050604085013567ffffffffffffffff811115612af257600080fd5b612afe87828801612855565b925050606085013567ffffffffffffffff811115612b1b57600080fd5b612b2787828801612855565b91505092959194509250565b600060208284031215612b4557600080fd5b6000612b538482850161287f565b91505092915050565b6000612b688383612e8d565b905092915050565b612b7981613302565b82525050565b612b88816132f0565b82525050565b612b97816132f0565b82525050565b6000612ba882613239565b612bb2818561325c565b935083602082028501612bc485613214565b8060005b85811015612c005784840389528151612be18582612b5c565b9450612bec8361324f565b925060208a01995050600181019050612bc8565b50829750879550505050505092915050565b612c1b81613314565b82525050565b612c2a81613314565b82525050565b6000612c3b82613244565b612c45818561326d565b9350612c55818560208601613366565b612c5e816134d2565b840191505092915050565b6000612c7482613244565b612c7e818561327e565b9350612c8e818560208601613366565b612c97816134d2565b840191505092915050565b6000612cad82613244565b612cb7818561328f565b9350612cc7818560208601613366565b80840191505092915050565b60008154612ce081613399565b612cea818661328f565b94506001821660008114612d055760018114612d1657612d49565b60ff19831686528186019350612d49565b612d1f85613224565b60005b83811015612d4157815481890152600182019150602081019050612d22565b838801955050505b50505092915050565b6000612d5f60238361327e565b9150612d6a826134e3565b604082019050919050565b6000612d8260228361327e565b9150612d8d82613532565b604082019050919050565b6000612da5601d8361327e565b9150612db082613581565b602082019050919050565b6000612dc860268361327e565b9150612dd3826135aa565b604082019050919050565b6000612deb602e8361327e565b9150612df6826135f9565b604082019050919050565b6000612e0e60258361327e565b9150612e1982613648565b604082019050919050565b6000612e3160248361327e565b9150612e3c82613697565b604082019050919050565b6000612e54602b8361327e565b9150612e5f826136e6565b604082019050919050565b6000612e7760258361327e565b9150612e8282613735565b604082019050919050565b600060a0830160008301518482036000860152612eaa8282612c30565b91505060208301518482036020860152612ec48282612c30565b91505060408301518482036040860152612ede8282612c30565b9150506060830151612ef36060860182612b7f565b506080830151612f066080860182612c12565b508091505092915050565b612f1a81613340565b82525050565b612f298161334a565b82525050565b6000612f3b8284612ca2565b915081905092915050565b6000612f528284612cd3565b915081905092915050565b6000602082019050612f726000830184612b70565b92915050565b6000604082019050612f8d6000830185612b8e565b612f9a6020830184612c21565b9392505050565b60006020820190508181036000830152612fbb8184612b9d565b905092915050565b6000602082019050612fd86000830184612c21565b92915050565b60006020820190508181036000830152612ff88184612c69565b905092915050565b600060a082019050818103600083015261301a8188612c69565b9050818103602083015261302e8187612c69565b905081810360408301526130428186612c69565b90506130516060830185612b8e565b61305e6080830184612c21565b9695505050505050565b6000602082019050818103600083015261308181612d52565b9050919050565b600060208201905081810360008301526130a181612d75565b9050919050565b600060208201905081810360008301526130c181612d98565b9050919050565b600060208201905081810360008301526130e181612dbb565b9050919050565b6000602082019050818103600083015261310181612dde565b9050919050565b6000602082019050818103600083015261312181612e01565b9050919050565b6000602082019050818103600083015261314181612e24565b9050919050565b6000602082019050818103600083015261316181612e47565b9050919050565b6000602082019050818103600083015261318181612e6a565b9050919050565b600060208201905061319d6000830184612f11565b92915050565b60006020820190506131b86000830184612f20565b92915050565b60006131c86131d9565b90506131d482826133cb565b919050565b6000604051905090565b600067ffffffffffffffff8211156131fe576131fd6134a3565b5b613207826134d2565b9050602081019050919050565b6000819050602082019050919050565b60008190508160005260206000209050919050565b600081519050919050565b600081519050919050565b6000602082019050919050565b600082825260208201905092915050565b600082825260208201905092915050565b600082825260208201905092915050565b600081905092915050565b60006132a582613340565b91506132b083613340565b9250827fffffffffffffffffffffffffffffffffffffffffffffffffffffffffffffffff038211156132e5576132e4613445565b5b828201905092915050565b60006132fb82613320565b9050919050565b600061330d82613320565b9050919050565b60008115159050919050565b600073ffffffffffffffffffffffffffffffffffffffff82169050919050565b6000819050919050565b600060ff82169050919050565b82818337600083830152505050565b60005b83811015613384578082015181840152602081019050613369565b83811115613393576000848401525b50505050565b600060028204905060018216806133b157607f821691505b602082108114156133c5576133c4613474565b5b50919050565b6133d4826134d2565b810181811067ffffffffffffffff821117156133f3576133f26134a3565b5b80604052505050565b600061340782613340565b91507fffffffffffffffffffffffffffffffffffffffffffffffffffffffffffffffff82141561343a57613439613445565b5b600182019050919050565b7f4e487b7100000000000000000000000000000000000000000000000000000000600052601160045260246000fd5b7f4e487b7100000000000000000000000000000000000000000000000000000000600052602260045260246000fd5b7f4e487b7100000000000000000000000000000000000000000000000000000000600052604160045260246000fd5b6000601f19601f8301169050919050565b7f45524332303a207472616e7366657220746f20746865207a65726f206164647260008201527f6573730000000000000000000000000000000000000000000000000000000000602082015250565b7f45524332303a20617070726f766520746f20746865207a65726f20616464726560008201527f7373000000000000000000000000000000000000000000000000000000000000602082015250565b7f45524332303a20696e73756666696369656e7420616c6c6f77616e6365000000600082015250565b7f45524332303a207472616e7366657220616d6f756e742065786365656473206260008201527f616c616e63650000000000000000000000000000000000000000000000000000602082015250565b7f496e697469616c697a61626c653a20636f6e747261637420697320616c72656160008201527f647920696e697469616c697a6564000000000000000000000000000000000000602082015250565b7f45524332303a207472616e736665722066726f6d20746865207a65726f20616460008201527f6472657373000000000000000000000000000000000000000000000000000000602082015250565b7f45524332303a20617070726f76652066726f6d20746865207a65726f2061646460008201527f7265737300000000000000000000000000000000000000000000000000000000602082015250565b7f496e697469616c697a61626c653a20636f6e7472616374206973206e6f74206960008201527f6e697469616c697a696e67000000000000000000000000000000000000000000602082015250565b7f45524332303a2064656372656173656420616c6c6f77616e63652062656c6f7760008201527f207a65726f000000000000000000000000000000000000000000000000000000602082015250565b61378d816132f0565b811461379857600080fd5b50565b6137a481613314565b81146137af57600080fd5b50565b6137bb81613340565b81146137c657600080fd5b5056fea2646970667358221220563c1ef332d0ead33098600a68d6f4ad597f60a1c1e48241089a8616ac85a41e64736f6c63430008040033",
  "linkReferences": {},
  "deployedLinkReferences": {}
}