{
  "_format": "hh-sol-artifact-1",
  "contractName": "phoneLink",
  "sourceName": "contracts/phoneLink.sol",
  "abi": [
    {
      "anonymous": false,
      "inputs": [
        {
          "indexed": true,
          "internalType": "address",
          "name": "owner",
          "type": "address"
        },
        {
          "indexed": true,
          "internalType": "address",
          "name": "spender",
          "type": "address"
        },
        {
          "indexed": false,
          "internalType": "uint256",
          "name": "value",
          "type": "uint256"
        }
      ],
      "name": "Approval",
      "type": "event"
    },
    {
      "anonymous": false,
      "inputs": [
        {
          "indexed": true,
          "internalType": "string",
          "name": "name",
          "type": "string"
        },
        {
          "indexed": true,
          "internalType": "string",
          "name": "identifier",
          "type": "string"
        },
        {
          "indexed": true,
          "internalType": "string",
          "name": "typeOfIdentifier",
          "type": "string"
        },
        {
          "indexed": false,
          "internalType": "address",
          "name": "connectedWalletAddress",
          "type": "address"
        },
        {
          "indexed": false,
          "internalType": "bool",
          "name": "isPrimaryWallet",
          "type": "bool"
        }
      ],
      "name": "DetailsCreated",
      "type": "event"
    },
    {
      "anonymous": false,
      "inputs": [
        {
          "indexed": true,
          "internalType": "address",
          "name": "from",
          "type": "address"
        },
        {
          "indexed": true,
          "internalType": "address",
          "name": "to",
          "type": "address"
        },
        {
          "indexed": false,
          "internalType": "uint256",
          "name": "value",
          "type": "uint256"
        }
      ],
      "name": "Transfer",
      "type": "event"
    },
    {
      "inputs": [],
      "name": "_itemIds",
      "outputs": [
        {
          "internalType": "uint256",
          "name": "_value",
          "type": "uint256"
        }
      ],
      "stateMutability": "view",
      "type": "function"
    },
    {
      "inputs": [
        {
          "internalType": "address",
          "name": "owner",
          "type": "address"
        },
        {
          "internalType": "address",
          "name": "spender",
          "type": "address"
        }
      ],
      "name": "allowance",
      "outputs": [
        {
          "internalType": "uint256",
          "name": "",
          "type": "uint256"
        }
      ],
      "stateMutability": "view",
      "type": "function"
    },
    {
      "inputs": [
        {
          "internalType": "address",
          "name": "spender",
          "type": "address"
        },
        {
          "internalType": "uint256",
          "name": "amount",
          "type": "uint256"
        }
      ],
      "name": "approve",
      "outputs": [
        {
          "internalType": "bool",
          "name": "",
          "type": "bool"
        }
      ],
      "stateMutability": "nonpayable",
      "type": "function"
    },
    {
      "inputs": [
        {
          "internalType": "address",
          "name": "account",
          "type": "address"
        }
      ],
      "name": "balanceOf",
      "outputs": [
        {
          "internalType": "uint256",
          "name": "",
          "type": "uint256"
        }
      ],
      "stateMutability": "view",
      "type": "function"
    },
    {
      "inputs": [],
      "name": "decimals",
      "outputs": [
        {
          "internalType": "uint8",
          "name": "",
          "type": "uint8"
        }
      ],
      "stateMutability": "view",
      "type": "function"
    },
    {
      "inputs": [
        {
          "internalType": "address",
          "name": "spender",
          "type": "address"
        },
        {
          "internalType": "uint256",
          "name": "subtractedValue",
          "type": "uint256"
        }
      ],
      "name": "decreaseAllowance",
      "outputs": [
        {
          "internalType": "bool",
          "name": "",
          "type": "bool"
        }
      ],
      "stateMutability": "nonpayable",
      "type": "function"
    },
    {
      "inputs": [
        {
          "internalType": "string",
          "name": "name",
          "type": "string"
        },
        {
          "internalType": "string",
          "name": "identifier",
          "type": "string"
        },
        {
          "internalType": "string",
          "name": "typeOfIdentifier",
          "type": "string"
        },
        {
          "internalType": "string",
          "name": "oldIdentifier",
          "type": "string"
        }
      ],
      "name": "editProfile",
      "outputs": [],
      "stateMutability": "nonpayable",
      "type": "function"
    },
    {
      "inputs": [
        {
          "internalType": "string",
          "name": "name",
          "type": "string"
        },
        {
          "internalType": "string",
          "name": "identifier",
          "type": "string"
        },
        {
          "internalType": "string",
          "name": "typeOfIdentifier",
          "type": "string"
        },
        {
          "internalType": "bool",
          "name": "isPrimaryWallet",
          "type": "bool"
        }
      ],
      "name": "enterDetails",
      "outputs": [],
      "stateMutability": "nonpayable",
      "type": "function"
    },
    {
      "inputs": [
        {
          "internalType": "string",
          "name": "userIdentifier",
          "type": "string"
        }
      ],
      "name": "fetchAllWalletAddress",
      "outputs": [
        {
          "components": [
            {
              "internalType": "string",
              "name": "name",
              "type": "string"
            },
            {
              "internalType": "string",
              "name": "identifier",
              "type": "string"
            },
            {
              "internalType": "string",
              "name": "typeOfIdentifier",
              "type": "string"
            },
            {
              "internalType": "address",
              "name": "connectedWalletAddress",
              "type": "address"
            },
            {
              "internalType": "bool",
              "name": "isPrimaryWallet",
              "type": "bool"
            }
          ],
          "internalType": "struct phoneLink.Details[]",
          "name": "",
          "type": "tuple[]"
        }
      ],
      "stateMutability": "view",
      "type": "function"
    },
    {
      "inputs": [],
      "name": "getMarketOwner",
      "outputs": [
        {
          "internalType": "address payable",
          "name": "",
          "type": "address"
        }
      ],
      "stateMutability": "view",
      "type": "function"
    },
    {
      "inputs": [],
      "name": "getPhoneToDetails",
      "outputs": [
        {
          "components": [
            {
              "internalType": "string",
              "name": "name",
              "type": "string"
            },
            {
              "internalType": "string",
              "name": "identifier",
              "type": "string"
            },
            {
              "internalType": "string",
              "name": "typeOfIdentifier",
              "type": "string"
            },
            {
              "internalType": "address",
              "name": "connectedWalletAddress",
              "type": "address"
            },
            {
              "internalType": "bool",
              "name": "isPrimaryWallet",
              "type": "bool"
            }
          ],
          "internalType": "struct phoneLink.Details[]",
          "name": "",
          "type": "tuple[]"
        }
      ],
      "stateMutability": "view",
      "type": "function"
    },
    {
      "inputs": [
        {
          "internalType": "address",
          "name": "walletAddress",
          "type": "address"
        }
      ],
      "name": "getWalletDetails",
      "outputs": [
        {
          "components": [
            {
              "internalType": "string",
              "name": "name",
              "type": "string"
            },
            {
              "internalType": "string",
              "name": "identifier",
              "type": "string"
            },
            {
              "internalType": "string",
              "name": "typeOfIdentifier",
              "type": "string"
            },
            {
              "internalType": "address",
              "name": "connectedWalletAddress",
              "type": "address"
            },
            {
              "internalType": "bool",
              "name": "isPrimaryWallet",
              "type": "bool"
            }
          ],
          "internalType": "struct phoneLink.Details[]",
          "name": "",
          "type": "tuple[]"
        }
      ],
      "stateMutability": "view",
      "type": "function"
    },
    {
      "inputs": [
        {
          "internalType": "address",
          "name": "spender",
          "type": "address"
        },
        {
          "internalType": "uint256",
          "name": "addedValue",
          "type": "uint256"
        }
      ],
      "name": "increaseAllowance",
      "outputs": [
        {
          "internalType": "bool",
          "name": "",
          "type": "bool"
        }
      ],
      "stateMutability": "nonpayable",
      "type": "function"
    },
    {
      "inputs": [],
      "name": "initialize",
      "outputs": [],
      "stateMutability": "nonpayable",
      "type": "function"
    },
    {
      "inputs": [],
      "name": "marketowner",
      "outputs": [
        {
          "internalType": "address payable",
          "name": "",
          "type": "address"
        }
      ],
      "stateMutability": "view",
      "type": "function"
    },
    {
      "inputs": [],
      "name": "name",
      "outputs": [
        {
          "internalType": "string",
          "name": "",
          "type": "string"
        }
      ],
      "stateMutability": "view",
      "type": "function"
    },
    {
      "inputs": [
        {
          "internalType": "uint256",
          "name": "",
          "type": "uint256"
        }
      ],
      "name": "phoneToDetails",
      "outputs": [
        {
          "internalType": "string",
          "name": "name",
          "type": "string"
        },
        {
          "internalType": "string",
          "name": "identifier",
          "type": "string"
        },
        {
          "internalType": "string",
          "name": "typeOfIdentifier",
          "type": "string"
        },
        {
          "internalType": "address",
          "name": "connectedWalletAddress",
          "type": "address"
        },
        {
          "internalType": "bool",
          "name": "isPrimaryWallet",
          "type": "bool"
        }
      ],
      "stateMutability": "view",
      "type": "function"
    },
    {
      "inputs": [
        {
          "internalType": "address",
          "name": "destination",
          "type": "address"
        },
        {
          "internalType": "uint256",
          "name": "amount",
          "type": "uint256"
        }
      ],
      "name": "sendToken",
      "outputs": [],
      "stateMutability": "payable",
      "type": "function"
    },
    {
      "inputs": [],
      "name": "symbol",
      "outputs": [
        {
          "internalType": "string",
          "name": "",
          "type": "string"
        }
      ],
      "stateMutability": "view",
      "type": "function"
    },
    {
      "inputs": [],
      "name": "totalSupply",
      "outputs": [
        {
          "internalType": "uint256",
          "name": "",
          "type": "uint256"
        }
      ],
      "stateMutability": "view",
      "type": "function"
    },
    {
      "inputs": [
        {
          "internalType": "address",
          "name": "to",
          "type": "address"
        },
        {
          "internalType": "uint256",
          "name": "amount",
          "type": "uint256"
        }
      ],
      "name": "transfer",
      "outputs": [
        {
          "internalType": "bool",
          "name": "",
          "type": "bool"
        }
      ],
      "stateMutability": "nonpayable",
      "type": "function"
    },
    {
      "inputs": [
        {
          "internalType": "address",
          "name": "from",
          "type": "address"
        },
        {
          "internalType": "address",
          "name": "to",
          "type": "address"
        },
        {
          "internalType": "uint256",
          "name": "amount",
          "type": "uint256"
        }
      ],
      "name": "transferFrom",
      "outputs": [
        {
          "internalType": "bool",
          "name": "",
          "type": "bool"
        }
      ],
      "stateMutability": "nonpayable",
      "type": "function"
    }
  ],
  "bytecode": "0x608060405234801561001057600080fd5b50613804806100206000396000f3fe6080604052600436106101355760003560e01c80635a12d0f8116100ab5780638cae45d21161006f5780638cae45d21461043557806395d89b4114610472578063a457c2d71461049d578063a9059cbb146104da578063dd62ed3e14610517578063fcb02e731461055457610135565b80635a12d0f81461034e5780635e385b92146103795780636e997665146103a457806370a08231146103e15780638129fc1c1461041e57610135565b806334a7f193116100fd57806334a7f1931461023557806339509351146102605780633e3a648d1461029d578063412664ae146102c6578063451e9cf0146102e257806352d954911461030d57610135565b806306fdde031461013a578063095ea7b31461016557806318160ddd146101a257806323b872dd146101cd578063313ce5671461020a575b600080fd5b34801561014657600080fd5b5061014f61057d565b60405161015c9190612fe3565b60405180910390f35b34801561017157600080fd5b5061018c6004803603810190610187919061294d565b61060f565b6040516101999190612fc8565b60405180910390f35b3480156101ae57600080fd5b506101b7610632565b6040516101c4919061318d565b60405180910390f35b3480156101d957600080fd5b506101f460048036038101906101ef91906128fe565b61063c565b6040516102019190612fc8565b60405180910390f35b34801561021657600080fd5b5061021f61066b565b60405161022c91906131a8565b60405180910390f35b34801561024157600080fd5b5061024a610674565b604051610257919061318d565b60405180910390f35b34801561026c57600080fd5b506102876004803603810190610282919061294d565b610680565b6040516102949190612fc8565b60405180910390f35b3480156102a957600080fd5b506102c460048036038101906102bf9190612a75565b61072a565b005b6102e060048036038101906102db919061294d565b610966565b005b3480156102ee57600080fd5b506102f76109b1565b6040516103049190612f62565b60405180910390f35b34801561031957600080fd5b50610334600480360381019061032f9190612b38565b6109db565b604051610345959493929190613005565b60405180910390f35b34801561035a57600080fd5b50610363610bd6565b6040516103709190612fa6565b60405180910390f35b34801561038557600080fd5b5061038e610f2c565b60405161039b9190612f62565b60405180910390f35b3480156103b057600080fd5b506103cb60048036038101906103c69190612989565b610f52565b6040516103d89190612fa6565b60405180910390f35b3480156103ed57600080fd5b5061040860048036038101906104039190612899565b6113d8565b604051610415919061318d565b60405180910390f35b34801561042a57600080fd5b50610433611421565b005b34801561044157600080fd5b5061045c60048036038101906104579190612899565b61156e565b6040516104699190612fa6565b60405180910390f35b34801561047e57600080fd5b5061048761193c565b6040516104949190612fe3565b60405180910390f35b3480156104a957600080fd5b506104c460048036038101906104bf919061294d565b6119ce565b6040516104d19190612fc8565b60405180910390f35b3480156104e657600080fd5b5061050160048036038101906104fc919061294d565b611ab8565b60405161050e9190612fc8565b60405180910390f35b34801561052357600080fd5b5061053e600480360381019061053991906128c2565b611adb565b60405161054b919061318d565b60405180910390f35b34801561056057600080fd5b5061057b600480360381019061057691906129ca565b611b62565b005b60606036805461058c9061339e565b80601f01602080910402602001604051908101604052809291908181526020018280546105b89061339e565b80156106055780601f106105da57610100808354040283529160200191610605565b820191906000526020600020905b8154815290600101906020018083116105e857829003601f168201915b5050505050905090565b60008061061a6120e5565b90506106278185856120ed565b600191505092915050565b6000603554905090565b6000806106476120e5565b90506106548582856122b8565b61065f858585612344565b60019150509392505050565b60006012905090565b60668060000154905081565b60008061068b6120e5565b905061071f818585603460008673ffffffffffffffffffffffffffffffffffffffff1673ffffffffffffffffffffffffffffffffffffffff16815260200190815260200160002060008973ffffffffffffffffffffffffffffffffffffffff1673ffffffffffffffffffffffffffffffffffffffff1681526020019081526020016000205461071a919061329f565b6120ed565b600191505092915050565b600061073660666125c8565b905060005b8181101561095e573373ffffffffffffffffffffffffffffffffffffffff166067600060018461076b919061329f565b815260200190815260200160002060030160009054906101000a900473ffffffffffffffffffffffffffffffffffffffff1673ffffffffffffffffffffffffffffffffffffffff16141561094b57836040516020016107ca9190612f34565b60405160208183030381529060405280519060200120606760006001846107f1919061329f565b81526020019081526020016000206002016040516020016108129190612f4b565b60405160208183030381529060405280519060200120141561094a578260405160200161083f9190612f34565b6040516020818303038152906040528051906020012060676000600184610866919061329f565b81526020019081526020016000206001016040516020016108879190612f4b565b6040516020818303038152906040528051906020012014156109495785606760006001846108b5919061329f565b815260200190815260200160002060000190805190602001906108d9929190612708565b5084606760006001846108ec919061329f565b81526020019081526020016000206001019080519060200190610910929190612708565b508360676000600184610923919061329f565b81526020019081526020016000206002019080519060200190610947929190612708565b505b5b5b808061095690613401565b91505061073b565b505050505050565b8173ffffffffffffffffffffffffffffffffffffffff166108fc829081150290604051600060405180830381858888f193505050501580156109ac573d6000803e3d6000fd5b505050565b6000606560009054906101000a900473ffffffffffffffffffffffffffffffffffffffff16905090565b60676020528060005260406000206000915090508060000180546109fe9061339e565b80601f0160208091040260200160405190810160405280929190818152602001828054610a2a9061339e565b8015610a775780601f10610a4c57610100808354040283529160200191610a77565b820191906000526020600020905b815481529060010190602001808311610a5a57829003601f168201915b505050505090806001018054610a8c9061339e565b80601f0160208091040260200160405190810160405280929190818152602001828054610ab89061339e565b8015610b055780601f10610ada57610100808354040283529160200191610b05565b820191906000526020600020905b815481529060010190602001808311610ae857829003601f168201915b505050505090806002018054610b1a9061339e565b80601f0160208091040260200160405190810160405280929190818152602001828054610b469061339e565b8015610b935780601f10610b6857610100808354040283529160200191610b93565b820191906000526020600020905b815481529060010190602001808311610b7657829003601f168201915b5050505050908060030160009054906101000a900473ffffffffffffffffffffffffffffffffffffffff16908060030160149054906101000a900460ff16905085565b60606000610be460666125c8565b905060008167ffffffffffffffff811115610c28577f4e487b7100000000000000000000000000000000000000000000000000000000600052604160045260246000fd5b604051908082528060200260200182016040528015610c6157816020015b610c4e61278e565b815260200190600190039081610c465790505b50905060005b82811015610f23576000600182610c7e919061329f565b90506000606760008381526020019081526020016000209050806040518060a0016040529081600082018054610cb39061339e565b80601f0160208091040260200160405190810160405280929190818152602001828054610cdf9061339e565b8015610d2c5780601f10610d0157610100808354040283529160200191610d2c565b820191906000526020600020905b815481529060010190602001808311610d0f57829003601f168201915b50505050508152602001600182018054610d459061339e565b80601f0160208091040260200160405190810160405280929190818152602001828054610d719061339e565b8015610dbe5780601f10610d9357610100808354040283529160200191610dbe565b820191906000526020600020905b815481529060010190602001808311610da157829003601f168201915b50505050508152602001600282018054610dd79061339e565b80601f0160208091040260200160405190810160405280929190818152602001828054610e039061339e565b8015610e505780601f10610e2557610100808354040283529160200191610e50565b820191906000526020600020905b815481529060010190602001808311610e3357829003601f168201915b505050505081526020016003820160009054906101000a900473ffffffffffffffffffffffffffffffffffffffff1673ffffffffffffffffffffffffffffffffffffffff1673ffffffffffffffffffffffffffffffffffffffff1681526020016003820160149054906101000a900460ff161515151581525050848481518110610f03577f4e487b7100000000000000000000000000000000000000000000000000000000600052603260045260246000fd5b602002602001018190525050508080610f1b90613401565b915050610c67565b50809250505090565b606560009054906101000a900473ffffffffffffffffffffffffffffffffffffffff1681565b60606000610f6060666125c8565b905060008060005b838110156110085785604051602001610f819190612f34565b6040516020818303038152906040528051906020012060676000600184610fa8919061329f565b8152602001908152602001600020600101604051602001610fc99190612f4b565b604051602081830303815290604052805190602001201415610ff557600183610ff2919061329f565b92505b808061100090613401565b915050610f68565b5060008267ffffffffffffffff81111561104b577f4e487b7100000000000000000000000000000000000000000000000000000000600052604160045260246000fd5b60405190808252806020026020018201604052801561108457816020015b61107161278e565b8152602001906001900390816110695790505b50905060005b848110156113cb57866040516020016110a39190612f34565b60405160208183030381529060405280519060200120606760006001846110ca919061329f565b81526020019081526020016000206001016040516020016110eb9190612f4b565b6040516020818303038152906040528051906020012014156113b8576000600182611116919061329f565b90506000606760008381526020019081526020016000209050806040518060a001604052908160008201805461114b9061339e565b80601f01602080910402602001604051908101604052809291908181526020018280546111779061339e565b80156111c45780601f10611199576101008083540402835291602001916111c4565b820191906000526020600020905b8154815290600101906020018083116111a757829003601f168201915b505050505081526020016001820180546111dd9061339e565b80601f01602080910402602001604051908101604052809291908181526020018280546112099061339e565b80156112565780601f1061122b57610100808354040283529160200191611256565b820191906000526020600020905b81548152906001019060200180831161123957829003601f168201915b5050505050815260200160028201805461126f9061339e565b80601f016020809104026020016040519081016040528092919081815260200182805461129b9061339e565b80156112e85780601f106112bd576101008083540402835291602001916112e8565b820191906000526020600020905b8154815290600101906020018083116112cb57829003601f168201915b505050505081526020016003820160009054906101000a900473ffffffffffffffffffffffffffffffffffffffff1673ffffffffffffffffffffffffffffffffffffffff1673ffffffffffffffffffffffffffffffffffffffff1681526020016003820160149054906101000a900460ff16151515158152505084868151811061139b577f4e487b7100000000000000000000000000000000000000000000000000000000600052603260045260246000fd5b60200260200101819052506001856113b3919061329f565b945050505b80806113c390613401565b91505061108a565b5080945050505050919050565b6000603360008373ffffffffffffffffffffffffffffffffffffffff1673ffffffffffffffffffffffffffffffffffffffff168152602001908152602001600020549050919050565b600060019054906101000a900460ff166114495760008054906101000a900460ff1615611452565b6114516125d6565b5b611491576040517f08c379a0000000000000000000000000000000000000000000000000000000008152600401611488906130ed565b60405180910390fd5b60008060019054906101000a900460ff1615905080156114e1576001600060016101000a81548160ff02191690831515021790555060016000806101000a81548160ff0219169083151502179055505b61150960405180602001604052806000815250604051806020016040528060008152506125e7565b33606560006101000a81548173ffffffffffffffffffffffffffffffffffffffff021916908373ffffffffffffffffffffffffffffffffffffffff160217905550801561156b5760008060016101000a81548160ff0219169083151502179055505b50565b6060600061157c60666125c8565b90506000600167ffffffffffffffff8111156115c1577f4e487b7100000000000000000000000000000000000000000000000000000000600052604160045260246000fd5b6040519080825280602002602001820160405280156115fa57816020015b6115e761278e565b8152602001906001900390816115df5790505b50905060005b82811015611931578473ffffffffffffffffffffffffffffffffffffffff1660676000600184611630919061329f565b815260200190815260200160002060030160009054906101000a900473ffffffffffffffffffffffffffffffffffffffff1673ffffffffffffffffffffffffffffffffffffffff16141561191e57600060676000600184611691919061329f565b81526020019081526020016000209050806040518060a00160405290816000820180546116bd9061339e565b80601f01602080910402602001604051908101604052809291908181526020018280546116e99061339e565b80156117365780601f1061170b57610100808354040283529160200191611736565b820191906000526020600020905b81548152906001019060200180831161171957829003601f168201915b5050505050815260200160018201805461174f9061339e565b80601f016020809104026020016040519081016040528092919081815260200182805461177b9061339e565b80156117c85780601f1061179d576101008083540402835291602001916117c8565b820191906000526020600020905b8154815290600101906020018083116117ab57829003601f168201915b505050505081526020016002820180546117e19061339e565b80601f016020809104026020016040519081016040528092919081815260200182805461180d9061339e565b801561185a5780601f1061182f5761010080835404028352916020019161185a565b820191906000526020600020905b81548152906001019060200180831161183d57829003601f168201915b505050505081526020016003820160009054906101000a900473ffffffffffffffffffffffffffffffffffffffff1673ffffffffffffffffffffffffffffffffffffffff1673ffffffffffffffffffffffffffffffffffffffff1681526020016003820160149054906101000a900460ff16151515158152505083838151811061190d577f4e487b7100000000000000000000000000000000000000000000000000000000600052603260045260246000fd5b602002602001018190525050611931565b808061192990613401565b915050611600565b508092505050919050565b60606037805461194b9061339e565b80601f01602080910402602001604051908101604052809291908181526020018280546119779061339e565b80156119c45780601f10611999576101008083540402835291602001916119c4565b820191906000526020600020905b8154815290600101906020018083116119a757829003601f168201915b5050505050905090565b6000806119d96120e5565b90506000603460008373ffffffffffffffffffffffffffffffffffffffff1673ffffffffffffffffffffffffffffffffffffffff16815260200190815260200160002060008673ffffffffffffffffffffffffffffffffffffffff1673ffffffffffffffffffffffffffffffffffffffff16815260200190815260200160002054905083811015611a9f576040517f08c379a0000000000000000000000000000000000000000000000000000000008152600401611a969061316d565b60405180910390fd5b611aac82868684036120ed565b60019250505092915050565b600080611ac36120e5565b9050611ad0818585612344565b600191505092915050565b6000603460008473ffffffffffffffffffffffffffffffffffffffff1673ffffffffffffffffffffffffffffffffffffffff16815260200190815260200160002060008373ffffffffffffffffffffffffffffffffffffffff1673ffffffffffffffffffffffffffffffffffffffff16815260200190815260200160002054905092915050565b611b6c6066612644565b6000611b7860666125c8565b9050600115158215151415611e80576000611b9285610f52565b905060005b8151811015611cc85760005b83811015611cb457828281518110611be4577f4e487b7100000000000000000000000000000000000000000000000000000000600052603260045260246000fd5b60200260200101516060015173ffffffffffffffffffffffffffffffffffffffff1660676000600184611c17919061329f565b815260200190815260200160002060030160009054906101000a900473ffffffffffffffffffffffffffffffffffffffff1673ffffffffffffffffffffffffffffffffffffffff161415611ca157600060676000600184611c78919061329f565b815260200190815260200160002060030160146101000a81548160ff0219169083151502179055505b8080611cac90613401565b915050611ba3565b508080611cc090613401565b915050611b97565b506000611cd43361156e565b905060005b8151811015611e7c576000611d31838381518110611d20577f4e487b7100000000000000000000000000000000000000000000000000000000600052603260045260246000fd5b602002602001015160200151610f52565b905060005b8151811015611e675760005b86811015611e5357828281518110611d83577f4e487b7100000000000000000000000000000000000000000000000000000000600052603260045260246000fd5b60200260200101516060015173ffffffffffffffffffffffffffffffffffffffff1660676000600184611db6919061329f565b815260200190815260200160002060030160009054906101000a900473ffffffffffffffffffffffffffffffffffffffff1673ffffffffffffffffffffffffffffffffffffffff161415611e4057600060676000600184611e17919061329f565b815260200190815260200160002060030160146101000a81548160ff0219169083151502179055505b8080611e4b90613401565b915050611d42565b508080611e5f90613401565b915050611d36565b50508080611e7490613401565b915050611cd9565b5050505b6040518060a001604052808681526020018581526020018481526020013373ffffffffffffffffffffffffffffffffffffffff168152602001831515815250606760008381526020019081526020016000206000820151816000019080519060200190611eee929190612708565b506020820151816001019080519060200190611f0b929190612708565b506040820151816002019080519060200190611f28929190612708565b5060608201518160030160006101000a81548173ffffffffffffffffffffffffffffffffffffffff021916908373ffffffffffffffffffffffffffffffffffffffff16021790555060808201518160030160146101000a81548160ff02191690831515021790555090505060005b81811015612062573373ffffffffffffffffffffffffffffffffffffffff1660676000600184611fc6919061329f565b815260200190815260200160002060030160009054906101000a900473ffffffffffffffffffffffffffffffffffffffff1673ffffffffffffffffffffffffffffffffffffffff16141561204f578260676000600184612026919061329f565b815260200190815260200160002060030160146101000a81548160ff0219169083151502179055505b808061205a90613401565b915050611f96565b50826040516120719190612f34565b6040518091039020846040516120879190612f34565b60405180910390208660405161209d9190612f34565b60405180910390207f2e3249f822bd56e4e9ae7d39402def6df4618c14f212fbe4c35e0c94eddef9fe33866040516120d6929190612f7d565b60405180910390a45050505050565b600033905090565b600073ffffffffffffffffffffffffffffffffffffffff168373ffffffffffffffffffffffffffffffffffffffff16141561215d576040517f08c379a00000000000000000000000000000000000000000000000000000000081526004016121549061312d565b60405180910390fd5b600073ffffffffffffffffffffffffffffffffffffffff168273ffffffffffffffffffffffffffffffffffffffff1614156121cd576040517f08c379a00000000000000000000000000000000000000000000000000000000081526004016121c49061308d565b60405180910390fd5b80603460008573ffffffffffffffffffffffffffffffffffffffff1673ffffffffffffffffffffffffffffffffffffffff16815260200190815260200160002060008473ffffffffffffffffffffffffffffffffffffffff1673ffffffffffffffffffffffffffffffffffffffff168152602001908152602001600020819055508173ffffffffffffffffffffffffffffffffffffffff168373ffffffffffffffffffffffffffffffffffffffff167f8c5be1e5ebec7d5bd14f71427d1e84f3dd0314c0f7b2291e5b200ac8c7c3b925836040516122ab919061318d565b60405180910390a3505050565b60006122c48484611adb565b90507fffffffffffffffffffffffffffffffffffffffffffffffffffffffffffffffff811461233e5781811015612330576040517f08c379a0000000000000000000000000000000000000000000000000000000008152600401612327906130ad565b60405180910390fd5b61233d84848484036120ed565b5b50505050565b600073ffffffffffffffffffffffffffffffffffffffff168373ffffffffffffffffffffffffffffffffffffffff1614156123b4576040517f08c379a00000000000000000000000000000000000000000000000000000000081526004016123ab9061310d565b60405180910390fd5b600073ffffffffffffffffffffffffffffffffffffffff168273ffffffffffffffffffffffffffffffffffffffff161415612424576040517f08c379a000000000000000000000000000000000000000000000000000000000815260040161241b9061306d565b60405180910390fd5b61242f83838361265a565b6000603360008573ffffffffffffffffffffffffffffffffffffffff1673ffffffffffffffffffffffffffffffffffffffff168152602001908152602001600020549050818110156124b6576040517f08c379a00000000000000000000000000000000000000000000000000000000081526004016124ad906130cd565b60405180910390fd5b818103603360008673ffffffffffffffffffffffffffffffffffffffff1673ffffffffffffffffffffffffffffffffffffffff1681526020019081526020016000208190555081603360008573ffffffffffffffffffffffffffffffffffffffff1673ffffffffffffffffffffffffffffffffffffffff168152602001908152602001600020600082825461254b919061329f565b925050819055508273ffffffffffffffffffffffffffffffffffffffff168473ffffffffffffffffffffffffffffffffffffffff167fddf252ad1be2c89b69c2b068fc378daa952ba7f163c4a11628f55a4df523b3ef846040516125af919061318d565b60405180910390a36125c284848461265f565b50505050565b600081600001549050919050565b60006125e130612664565b15905090565b600060019054906101000a900460ff16612636576040517f08c379a000000000000000000000000000000000000000000000000000000000815260040161262d9061314d565b60405180910390fd5b6126408282612687565b5050565b6001816000016000828254019250508190555050565b505050565b505050565b6000808273ffffffffffffffffffffffffffffffffffffffff163b119050919050565b600060019054906101000a900460ff166126d6576040517f08c379a00000000000000000000000000000000000000000000000000000000081526004016126cd9061314d565b60405180910390fd5b81603690805190602001906126ec929190612708565b508060379080519060200190612703929190612708565b505050565b8280546127149061339e565b90600052602060002090601f016020900481019282612736576000855561277d565b82601f1061274f57805160ff191683800117855561277d565b8280016001018555821561277d579182015b8281111561277c578251825591602001919060010190612761565b5b50905061278a91906127d5565b5090565b6040518060a00160405280606081526020016060815260200160608152602001600073ffffffffffffffffffffffffffffffffffffffff1681526020016000151581525090565b5b808211156127ee5760008160009055506001016127d6565b5090565b6000612805612800846131e8565b6131c3565b90508281526020810184848401111561281d57600080fd5b61282884828561335c565b509392505050565b60008135905061283f81613789565b92915050565b600081359050612854816137a0565b92915050565b600082601f83011261286b57600080fd5b813561287b8482602086016127f2565b91505092915050565b600081359050612893816137b7565b92915050565b6000602082840312156128ab57600080fd5b60006128b984828501612830565b91505092915050565b600080604083850312156128d557600080fd5b60006128e385828601612830565b92505060206128f485828601612830565b9150509250929050565b60008060006060848603121561291357600080fd5b600061292186828701612830565b935050602061293286828701612830565b925050604061294386828701612884565b9150509250925092565b6000806040838503121561296057600080fd5b600061296e85828601612830565b925050602061297f85828601612884565b9150509250929050565b60006020828403121561299b57600080fd5b600082013567ffffffffffffffff8111156129b557600080fd5b6129c18482850161285a565b91505092915050565b600080600080608085870312156129e057600080fd5b600085013567ffffffffffffffff8111156129fa57600080fd5b612a068782880161285a565b945050602085013567ffffffffffffffff811115612a2357600080fd5b612a2f8782880161285a565b935050604085013567ffffffffffffffff811115612a4c57600080fd5b612a588782880161285a565b9250506060612a6987828801612845565b91505092959194509250565b60008060008060808587031215612a8b57600080fd5b600085013567ffffffffffffffff811115612aa557600080fd5b612ab18782880161285a565b945050602085013567ffffffffffffffff811115612ace57600080fd5b612ada8782880161285a565b935050604085013567ffffffffffffffff811115612af757600080fd5b612b038782880161285a565b925050606085013567ffffffffffffffff811115612b2057600080fd5b612b2c8782880161285a565b91505092959194509250565b600060208284031215612b4a57600080fd5b6000612b5884828501612884565b91505092915050565b6000612b6d8383612e92565b905092915050565b612b7e81613307565b82525050565b612b8d816132f5565b82525050565b612b9c816132f5565b82525050565b6000612bad8261323e565b612bb78185613261565b935083602082028501612bc985613219565b8060005b85811015612c055784840389528151612be68582612b61565b9450612bf183613254565b925060208a01995050600181019050612bcd565b50829750879550505050505092915050565b612c2081613319565b82525050565b612c2f81613319565b82525050565b6000612c4082613249565b612c4a8185613272565b9350612c5a81856020860161336b565b612c63816134d7565b840191505092915050565b6000612c7982613249565b612c838185613283565b9350612c9381856020860161336b565b612c9c816134d7565b840191505092915050565b6000612cb282613249565b612cbc8185613294565b9350612ccc81856020860161336b565b80840191505092915050565b60008154612ce58161339e565b612cef8186613294565b94506001821660008114612d0a5760018114612d1b57612d4e565b60ff19831686528186019350612d4e565b612d2485613229565b60005b83811015612d4657815481890152600182019150602081019050612d27565b838801955050505b50505092915050565b6000612d64602383613283565b9150612d6f826134e8565b604082019050919050565b6000612d87602283613283565b9150612d9282613537565b604082019050919050565b6000612daa601d83613283565b9150612db582613586565b602082019050919050565b6000612dcd602683613283565b9150612dd8826135af565b604082019050919050565b6000612df0602e83613283565b9150612dfb826135fe565b604082019050919050565b6000612e13602583613283565b9150612e1e8261364d565b604082019050919050565b6000612e36602483613283565b9150612e418261369c565b604082019050919050565b6000612e59602b83613283565b9150612e64826136eb565b604082019050919050565b6000612e7c602583613283565b9150612e878261373a565b604082019050919050565b600060a0830160008301518482036000860152612eaf8282612c35565b91505060208301518482036020860152612ec98282612c35565b91505060408301518482036040860152612ee38282612c35565b9150506060830151612ef86060860182612b84565b506080830151612f0b6080860182612c17565b508091505092915050565b612f1f81613345565b82525050565b612f2e8161334f565b82525050565b6000612f408284612ca7565b915081905092915050565b6000612f578284612cd8565b915081905092915050565b6000602082019050612f776000830184612b75565b92915050565b6000604082019050612f926000830185612b93565b612f9f6020830184612c26565b9392505050565b60006020820190508181036000830152612fc08184612ba2565b905092915050565b6000602082019050612fdd6000830184612c26565b92915050565b60006020820190508181036000830152612ffd8184612c6e565b905092915050565b600060a082019050818103600083015261301f8188612c6e565b905081810360208301526130338187612c6e565b905081810360408301526130478186612c6e565b90506130566060830185612b93565b6130636080830184612c26565b9695505050505050565b6000602082019050818103600083015261308681612d57565b9050919050565b600060208201905081810360008301526130a681612d7a565b9050919050565b600060208201905081810360008301526130c681612d9d565b9050919050565b600060208201905081810360008301526130e681612dc0565b9050919050565b6000602082019050818103600083015261310681612de3565b9050919050565b6000602082019050818103600083015261312681612e06565b9050919050565b6000602082019050818103600083015261314681612e29565b9050919050565b6000602082019050818103600083015261316681612e4c565b9050919050565b6000602082019050818103600083015261318681612e6f565b9050919050565b60006020820190506131a26000830184612f16565b92915050565b60006020820190506131bd6000830184612f25565b92915050565b60006131cd6131de565b90506131d982826133d0565b919050565b6000604051905090565b600067ffffffffffffffff821115613203576132026134a8565b5b61320c826134d7565b9050602081019050919050565b6000819050602082019050919050565b60008190508160005260206000209050919050565b600081519050919050565b600081519050919050565b6000602082019050919050565b600082825260208201905092915050565b600082825260208201905092915050565b600082825260208201905092915050565b600081905092915050565b60006132aa82613345565b91506132b583613345565b9250827fffffffffffffffffffffffffffffffffffffffffffffffffffffffffffffffff038211156132ea576132e961344a565b5b828201905092915050565b600061330082613325565b9050919050565b600061331282613325565b9050919050565b60008115159050919050565b600073ffffffffffffffffffffffffffffffffffffffff82169050919050565b6000819050919050565b600060ff82169050919050565b82818337600083830152505050565b60005b8381101561338957808201518184015260208101905061336e565b83811115613398576000848401525b50505050565b600060028204905060018216806133b657607f821691505b602082108114156133ca576133c9613479565b5b50919050565b6133d9826134d7565b810181811067ffffffffffffffff821117156133f8576133f76134a8565b5b80604052505050565b600061340c82613345565b91507fffffffffffffffffffffffffffffffffffffffffffffffffffffffffffffffff82141561343f5761343e61344a565b5b600182019050919050565b7f4e487b7100000000000000000000000000000000000000000000000000000000600052601160045260246000fd5b7f4e487b7100000000000000000000000000000000000000000000000000000000600052602260045260246000fd5b7f4e487b7100000000000000000000000000000000000000000000000000000000600052604160045260246000fd5b6000601f19601f8301169050919050565b7f45524332303a207472616e7366657220746f20746865207a65726f206164647260008201527f6573730000000000000000000000000000000000000000000000000000000000602082015250565b7f45524332303a20617070726f766520746f20746865207a65726f20616464726560008201527f7373000000000000000000000000000000000000000000000000000000000000602082015250565b7f45524332303a20696e73756666696369656e7420616c6c6f77616e6365000000600082015250565b7f45524332303a207472616e7366657220616d6f756e742065786365656473206260008201527f616c616e63650000000000000000000000000000000000000000000000000000602082015250565b7f496e697469616c697a61626c653a20636f6e747261637420697320616c72656160008201527f647920696e697469616c697a6564000000000000000000000000000000000000602082015250565b7f45524332303a207472616e736665722066726f6d20746865207a65726f20616460008201527f6472657373000000000000000000000000000000000000000000000000000000602082015250565b7f45524332303a20617070726f76652066726f6d20746865207a65726f2061646460008201527f7265737300000000000000000000000000000000000000000000000000000000602082015250565b7f496e697469616c697a61626c653a20636f6e7472616374206973206e6f74206960008201527f6e697469616c697a696e67000000000000000000000000000000000000000000602082015250565b7f45524332303a2064656372656173656420616c6c6f77616e63652062656c6f7760008201527f207a65726f000000000000000000000000000000000000000000000000000000602082015250565b613792816132f5565b811461379d57600080fd5b50565b6137a981613319565b81146137b457600080fd5b50565b6137c081613345565b81146137cb57600080fd5b5056fea26469706673582212204cd6071eb0190484f6872b6635638079e7b8b155f2270649f0e914cda5beda3264736f6c63430008040033",
  "linkReferences": {},
  "deployedLinkReferences": {}
}