{
  "_format": "hh-sol-artifact-1",
  "contractName": "phoneLink",
  "sourceName": "contracts/phoneLink.sol",
  "abi": [
    {
      "anonymous": false,
      "inputs": [
        {
          "indexed": true,
          "internalType": "address",
          "name": "owner",
          "type": "address"
        },
        {
          "indexed": true,
          "internalType": "address",
          "name": "spender",
          "type": "address"
        },
        {
          "indexed": false,
          "internalType": "uint256",
          "name": "value",
          "type": "uint256"
        }
      ],
      "name": "Approval",
      "type": "event"
    },
    {
      "anonymous": false,
      "inputs": [
        {
          "indexed": true,
          "internalType": "string",
          "name": "name",
          "type": "string"
        },
        {
          "indexed": true,
          "internalType": "string",
          "name": "identifier",
          "type": "string"
        },
        {
          "indexed": true,
          "internalType": "string",
          "name": "typeOfIdentifier",
          "type": "string"
        },
        {
          "indexed": false,
          "internalType": "address",
          "name": "connectedWalletAddress",
          "type": "address"
        },
        {
          "indexed": false,
          "internalType": "bool",
          "name": "isPrimaryWallet",
          "type": "bool"
        }
      ],
      "name": "DetailsCreated",
      "type": "event"
    },
    {
      "anonymous": false,
      "inputs": [
        {
          "indexed": true,
          "internalType": "address",
          "name": "from",
          "type": "address"
        },
        {
          "indexed": true,
          "internalType": "address",
          "name": "to",
          "type": "address"
        },
        {
          "indexed": false,
          "internalType": "uint256",
          "name": "value",
          "type": "uint256"
        }
      ],
      "name": "Transfer",
      "type": "event"
    },
    {
      "inputs": [],
      "name": "_itemIds",
      "outputs": [
        {
          "internalType": "uint256",
          "name": "_value",
          "type": "uint256"
        }
      ],
      "stateMutability": "view",
      "type": "function"
    },
    {
      "inputs": [
        {
          "internalType": "address",
          "name": "owner",
          "type": "address"
        },
        {
          "internalType": "address",
          "name": "spender",
          "type": "address"
        }
      ],
      "name": "allowance",
      "outputs": [
        {
          "internalType": "uint256",
          "name": "",
          "type": "uint256"
        }
      ],
      "stateMutability": "view",
      "type": "function"
    },
    {
      "inputs": [
        {
          "internalType": "address",
          "name": "spender",
          "type": "address"
        },
        {
          "internalType": "uint256",
          "name": "amount",
          "type": "uint256"
        }
      ],
      "name": "approve",
      "outputs": [
        {
          "internalType": "bool",
          "name": "",
          "type": "bool"
        }
      ],
      "stateMutability": "nonpayable",
      "type": "function"
    },
    {
      "inputs": [
        {
          "internalType": "address",
          "name": "account",
          "type": "address"
        }
      ],
      "name": "balanceOf",
      "outputs": [
        {
          "internalType": "uint256",
          "name": "",
          "type": "uint256"
        }
      ],
      "stateMutability": "view",
      "type": "function"
    },
    {
      "inputs": [],
      "name": "decimals",
      "outputs": [
        {
          "internalType": "uint8",
          "name": "",
          "type": "uint8"
        }
      ],
      "stateMutability": "view",
      "type": "function"
    },
    {
      "inputs": [
        {
          "internalType": "address",
          "name": "spender",
          "type": "address"
        },
        {
          "internalType": "uint256",
          "name": "subtractedValue",
          "type": "uint256"
        }
      ],
      "name": "decreaseAllowance",
      "outputs": [
        {
          "internalType": "bool",
          "name": "",
          "type": "bool"
        }
      ],
      "stateMutability": "nonpayable",
      "type": "function"
    },
    {
      "inputs": [
        {
          "internalType": "string",
          "name": "name",
          "type": "string"
        },
        {
          "internalType": "string",
          "name": "identifier",
          "type": "string"
        },
        {
          "internalType": "string",
          "name": "typeOfIdentifier",
          "type": "string"
        },
        {
          "internalType": "string",
          "name": "oldIdentifier",
          "type": "string"
        }
      ],
      "name": "editProfile",
      "outputs": [],
      "stateMutability": "nonpayable",
      "type": "function"
    },
    {
      "inputs": [
        {
          "internalType": "string",
          "name": "name",
          "type": "string"
        },
        {
          "internalType": "string",
          "name": "identifier",
          "type": "string"
        },
        {
          "internalType": "string",
          "name": "typeOfIdentifier",
          "type": "string"
        },
        {
          "internalType": "bool",
          "name": "isPrimaryWallet",
          "type": "bool"
        }
      ],
      "name": "enterDetails",
      "outputs": [],
      "stateMutability": "nonpayable",
      "type": "function"
    },
    {
      "inputs": [
        {
          "internalType": "string",
          "name": "userIdentifier",
          "type": "string"
        }
      ],
      "name": "fetchAllWalletAddress",
      "outputs": [
        {
          "components": [
            {
              "internalType": "string",
              "name": "name",
              "type": "string"
            },
            {
              "internalType": "string",
              "name": "identifier",
              "type": "string"
            },
            {
              "internalType": "string",
              "name": "typeOfIdentifier",
              "type": "string"
            },
            {
              "internalType": "address",
              "name": "connectedWalletAddress",
              "type": "address"
            },
            {
              "internalType": "bool",
              "name": "isPrimaryWallet",
              "type": "bool"
            }
          ],
          "internalType": "struct phoneLink.Details[]",
          "name": "",
          "type": "tuple[]"
        }
      ],
      "stateMutability": "view",
      "type": "function"
    },
    {
      "inputs": [
        {
          "internalType": "string",
          "name": "userIdentifier",
          "type": "string"
        }
      ],
      "name": "fetchPrimaryWalletAddress",
      "outputs": [
        {
          "internalType": "address",
          "name": "",
          "type": "address"
        }
      ],
      "stateMutability": "view",
      "type": "function"
    },
    {
      "inputs": [],
      "name": "getMarketOwner",
      "outputs": [
        {
          "internalType": "address payable",
          "name": "",
          "type": "address"
        }
      ],
      "stateMutability": "view",
      "type": "function"
    },
    {
      "inputs": [],
      "name": "getPhoneToDetails",
      "outputs": [
        {
          "components": [
            {
              "internalType": "string",
              "name": "name",
              "type": "string"
            },
            {
              "internalType": "string",
              "name": "identifier",
              "type": "string"
            },
            {
              "internalType": "string",
              "name": "typeOfIdentifier",
              "type": "string"
            },
            {
              "internalType": "address",
              "name": "connectedWalletAddress",
              "type": "address"
            },
            {
              "internalType": "bool",
              "name": "isPrimaryWallet",
              "type": "bool"
            }
          ],
          "internalType": "struct phoneLink.Details[]",
          "name": "",
          "type": "tuple[]"
        }
      ],
      "stateMutability": "view",
      "type": "function"
    },
    {
      "inputs": [
        {
          "internalType": "address",
          "name": "walletAddress",
          "type": "address"
        }
      ],
      "name": "getWalletDetails",
      "outputs": [
        {
          "components": [
            {
              "internalType": "string",
              "name": "name",
              "type": "string"
            },
            {
              "internalType": "string",
              "name": "identifier",
              "type": "string"
            },
            {
              "internalType": "string",
              "name": "typeOfIdentifier",
              "type": "string"
            },
            {
              "internalType": "address",
              "name": "connectedWalletAddress",
              "type": "address"
            },
            {
              "internalType": "bool",
              "name": "isPrimaryWallet",
              "type": "bool"
            }
          ],
          "internalType": "struct phoneLink.Details[]",
          "name": "",
          "type": "tuple[]"
        }
      ],
      "stateMutability": "view",
      "type": "function"
    },
    {
      "inputs": [
        {
          "internalType": "address",
          "name": "spender",
          "type": "address"
        },
        {
          "internalType": "uint256",
          "name": "addedValue",
          "type": "uint256"
        }
      ],
      "name": "increaseAllowance",
      "outputs": [
        {
          "internalType": "bool",
          "name": "",
          "type": "bool"
        }
      ],
      "stateMutability": "nonpayable",
      "type": "function"
    },
    {
      "inputs": [],
      "name": "initialize",
      "outputs": [],
      "stateMutability": "nonpayable",
      "type": "function"
    },
    {
      "inputs": [],
      "name": "marketowner",
      "outputs": [
        {
          "internalType": "address payable",
          "name": "",
          "type": "address"
        }
      ],
      "stateMutability": "view",
      "type": "function"
    },
    {
      "inputs": [],
      "name": "name",
      "outputs": [
        {
          "internalType": "string",
          "name": "",
          "type": "string"
        }
      ],
      "stateMutability": "view",
      "type": "function"
    },
    {
      "inputs": [
        {
          "internalType": "uint256",
          "name": "",
          "type": "uint256"
        }
      ],
      "name": "phoneToDetails",
      "outputs": [
        {
          "internalType": "string",
          "name": "name",
          "type": "string"
        },
        {
          "internalType": "string",
          "name": "identifier",
          "type": "string"
        },
        {
          "internalType": "string",
          "name": "typeOfIdentifier",
          "type": "string"
        },
        {
          "internalType": "address",
          "name": "connectedWalletAddress",
          "type": "address"
        },
        {
          "internalType": "bool",
          "name": "isPrimaryWallet",
          "type": "bool"
        }
      ],
      "stateMutability": "view",
      "type": "function"
    },
    {
      "inputs": [
        {
          "internalType": "address",
          "name": "destination",
          "type": "address"
        },
        {
          "internalType": "uint256",
          "name": "amount",
          "type": "uint256"
        }
      ],
      "name": "sendToken",
      "outputs": [],
      "stateMutability": "payable",
      "type": "function"
    },
    {
      "inputs": [],
      "name": "symbol",
      "outputs": [
        {
          "internalType": "string",
          "name": "",
          "type": "string"
        }
      ],
      "stateMutability": "view",
      "type": "function"
    },
    {
      "inputs": [],
      "name": "totalSupply",
      "outputs": [
        {
          "internalType": "uint256",
          "name": "",
          "type": "uint256"
        }
      ],
      "stateMutability": "view",
      "type": "function"
    },
    {
      "inputs": [
        {
          "internalType": "address",
          "name": "to",
          "type": "address"
        },
        {
          "internalType": "uint256",
          "name": "amount",
          "type": "uint256"
        }
      ],
      "name": "transfer",
      "outputs": [
        {
          "internalType": "bool",
          "name": "",
          "type": "bool"
        }
      ],
      "stateMutability": "nonpayable",
      "type": "function"
    },
    {
      "inputs": [
        {
          "internalType": "address",
          "name": "from",
          "type": "address"
        },
        {
          "internalType": "address",
          "name": "to",
          "type": "address"
        },
        {
          "internalType": "uint256",
          "name": "amount",
          "type": "uint256"
        }
      ],
      "name": "transferFrom",
      "outputs": [
        {
          "internalType": "bool",
          "name": "",
          "type": "bool"
        }
      ],
      "stateMutability": "nonpayable",
      "type": "function"
    }
  ],
  "bytecode": "0x608060405234801561001057600080fd5b5061399d806100206000396000f3fe6080604052600436106101405760003560e01c80635a12d0f8116100b657806395d89b411161006f57806395d89b411461047d578063a457c2d7146104a8578063a9059cbb146104e5578063db461e1a14610522578063dd62ed3e1461055f578063fcb02e731461059c57610140565b80635a12d0f8146103595780635e385b92146103845780636e997665146103af57806370a08231146103ec5780638129fc1c146104295780638cae45d21461044057610140565b806334a7f1931161010857806334a7f19314610240578063395093511461026b5780633e3a648d146102a8578063412664ae146102d1578063451e9cf0146102ed57806352d954911461031857610140565b806306fdde0314610145578063095ea7b31461017057806318160ddd146101ad57806323b872dd146101d8578063313ce56714610215575b600080fd5b34801561015157600080fd5b5061015a6105c5565b604051610167919061317c565b60405180910390f35b34801561017c57600080fd5b5061019760048036038101906101929190612acb565b610657565b6040516101a49190613161565b60405180910390f35b3480156101b957600080fd5b506101c261067a565b6040516101cf9190613326565b60405180910390f35b3480156101e457600080fd5b506101ff60048036038101906101fa9190612a7c565b610684565b60405161020c9190613161565b60405180910390f35b34801561022157600080fd5b5061022a6106b3565b6040516102379190613341565b60405180910390f35b34801561024c57600080fd5b506102556106bc565b6040516102629190613326565b60405180910390f35b34801561027757600080fd5b50610292600480360381019061028d9190612acb565b6106c8565b60405161029f9190613161565b60405180910390f35b3480156102b457600080fd5b506102cf60048036038101906102ca9190612bf3565b610772565b005b6102eb60048036038101906102e69190612acb565b6109ae565b005b3480156102f957600080fd5b506103026109f9565b60405161030f91906130fb565b60405180910390f35b34801561032457600080fd5b5061033f600480360381019061033a9190612cb6565b610a23565b60405161035095949392919061319e565b60405180910390f35b34801561036557600080fd5b5061036e610c1e565b60405161037b919061313f565b60405180910390f35b34801561039057600080fd5b50610399610f74565b6040516103a691906130fb565b60405180910390f35b3480156103bb57600080fd5b506103d660048036038101906103d19190612b07565b610f9a565b6040516103e3919061313f565b60405180910390f35b3480156103f857600080fd5b50610413600480360381019061040e9190612a17565b611420565b6040516104209190613326565b60405180910390f35b34801561043557600080fd5b5061043e611469565b005b34801561044c57600080fd5b5061046760048036038101906104629190612a17565b6115b6565b604051610474919061313f565b60405180910390f35b34801561048957600080fd5b5061049261197f565b60405161049f919061317c565b60405180910390f35b3480156104b457600080fd5b506104cf60048036038101906104ca9190612acb565b611a11565b6040516104dc9190613161565b60405180910390f35b3480156104f157600080fd5b5061050c60048036038101906105079190612acb565b611afb565b6040516105199190613161565b60405180910390f35b34801561052e57600080fd5b5061054960048036038101906105449190612b07565b611b1e565b60405161055691906130e0565b60405180910390f35b34801561056b57600080fd5b5061058660048036038101906105819190612a40565b611c59565b6040516105939190613326565b60405180910390f35b3480156105a857600080fd5b506105c360048036038101906105be9190612b48565b611ce0565b005b6060603680546105d490613537565b80601f016020809104026020016040519081016040528092919081815260200182805461060090613537565b801561064d5780601f106106225761010080835404028352916020019161064d565b820191906000526020600020905b81548152906001019060200180831161063057829003601f168201915b5050505050905090565b600080610662612263565b905061066f81858561226b565b600191505092915050565b6000603554905090565b60008061068f612263565b905061069c858285612436565b6106a78585856124c2565b60019150509392505050565b60006012905090565b60668060000154905081565b6000806106d3612263565b9050610767818585603460008673ffffffffffffffffffffffffffffffffffffffff1673ffffffffffffffffffffffffffffffffffffffff16815260200190815260200160002060008973ffffffffffffffffffffffffffffffffffffffff1673ffffffffffffffffffffffffffffffffffffffff168152602001908152602001600020546107629190613438565b61226b565b600191505092915050565b600061077e6066612746565b905060005b818110156109a6573373ffffffffffffffffffffffffffffffffffffffff16606760006001846107b39190613438565b815260200190815260200160002060030160009054906101000a900473ffffffffffffffffffffffffffffffffffffffff1673ffffffffffffffffffffffffffffffffffffffff161415610993578360405160200161081291906130b2565b60405160208183030381529060405280519060200120606760006001846108399190613438565b815260200190815260200160002060020160405160200161085a91906130c9565b604051602081830303815290604052805190602001201415610992578260405160200161088791906130b2565b60405160208183030381529060405280519060200120606760006001846108ae9190613438565b81526020019081526020016000206001016040516020016108cf91906130c9565b6040516020818303038152906040528051906020012014156109915785606760006001846108fd9190613438565b81526020019081526020016000206000019080519060200190610921929190612886565b5084606760006001846109349190613438565b81526020019081526020016000206001019080519060200190610958929190612886565b50836067600060018461096b9190613438565b8152602001908152602001600020600201908051906020019061098f929190612886565b505b5b5b808061099e9061359a565b915050610783565b505050505050565b8173ffffffffffffffffffffffffffffffffffffffff166108fc829081150290604051600060405180830381858888f193505050501580156109f4573d6000803e3d6000fd5b505050565b6000606560009054906101000a900473ffffffffffffffffffffffffffffffffffffffff16905090565b6067602052806000526040600020600091509050806000018054610a4690613537565b80601f0160208091040260200160405190810160405280929190818152602001828054610a7290613537565b8015610abf5780601f10610a9457610100808354040283529160200191610abf565b820191906000526020600020905b815481529060010190602001808311610aa257829003601f168201915b505050505090806001018054610ad490613537565b80601f0160208091040260200160405190810160405280929190818152602001828054610b0090613537565b8015610b4d5780601f10610b2257610100808354040283529160200191610b4d565b820191906000526020600020905b815481529060010190602001808311610b3057829003601f168201915b505050505090806002018054610b6290613537565b80601f0160208091040260200160405190810160405280929190818152602001828054610b8e90613537565b8015610bdb5780601f10610bb057610100808354040283529160200191610bdb565b820191906000526020600020905b815481529060010190602001808311610bbe57829003601f168201915b5050505050908060030160009054906101000a900473ffffffffffffffffffffffffffffffffffffffff16908060030160149054906101000a900460ff16905085565b60606000610c2c6066612746565b905060008167ffffffffffffffff811115610c70577f4e487b7100000000000000000000000000000000000000000000000000000000600052604160045260246000fd5b604051908082528060200260200182016040528015610ca957816020015b610c9661290c565b815260200190600190039081610c8e5790505b50905060005b82811015610f6b576000600182610cc69190613438565b90506000606760008381526020019081526020016000209050806040518060a0016040529081600082018054610cfb90613537565b80601f0160208091040260200160405190810160405280929190818152602001828054610d2790613537565b8015610d745780601f10610d4957610100808354040283529160200191610d74565b820191906000526020600020905b815481529060010190602001808311610d5757829003601f168201915b50505050508152602001600182018054610d8d90613537565b80601f0160208091040260200160405190810160405280929190818152602001828054610db990613537565b8015610e065780601f10610ddb57610100808354040283529160200191610e06565b820191906000526020600020905b815481529060010190602001808311610de957829003601f168201915b50505050508152602001600282018054610e1f90613537565b80601f0160208091040260200160405190810160405280929190818152602001828054610e4b90613537565b8015610e985780601f10610e6d57610100808354040283529160200191610e98565b820191906000526020600020905b815481529060010190602001808311610e7b57829003601f168201915b505050505081526020016003820160009054906101000a900473ffffffffffffffffffffffffffffffffffffffff1673ffffffffffffffffffffffffffffffffffffffff1673ffffffffffffffffffffffffffffffffffffffff1681526020016003820160149054906101000a900460ff161515151581525050848481518110610f4b577f4e487b7100000000000000000000000000000000000000000000000000000000600052603260045260246000fd5b602002602001018190525050508080610f639061359a565b915050610caf565b50809250505090565b606560009054906101000a900473ffffffffffffffffffffffffffffffffffffffff1681565b60606000610fa86066612746565b905060008060005b838110156110505785604051602001610fc991906130b2565b6040516020818303038152906040528051906020012060676000600184610ff09190613438565b815260200190815260200160002060010160405160200161101191906130c9565b60405160208183030381529060405280519060200120141561103d5760018361103a9190613438565b92505b80806110489061359a565b915050610fb0565b5060008267ffffffffffffffff811115611093577f4e487b7100000000000000000000000000000000000000000000000000000000600052604160045260246000fd5b6040519080825280602002602001820160405280156110cc57816020015b6110b961290c565b8152602001906001900390816110b15790505b50905060005b8481101561141357866040516020016110eb91906130b2565b60405160208183030381529060405280519060200120606760006001846111129190613438565b815260200190815260200160002060010160405160200161113391906130c9565b60405160208183030381529060405280519060200120141561140057600060018261115e9190613438565b90506000606760008381526020019081526020016000209050806040518060a001604052908160008201805461119390613537565b80601f01602080910402602001604051908101604052809291908181526020018280546111bf90613537565b801561120c5780601f106111e15761010080835404028352916020019161120c565b820191906000526020600020905b8154815290600101906020018083116111ef57829003601f168201915b5050505050815260200160018201805461122590613537565b80601f016020809104026020016040519081016040528092919081815260200182805461125190613537565b801561129e5780601f106112735761010080835404028352916020019161129e565b820191906000526020600020905b81548152906001019060200180831161128157829003601f168201915b505050505081526020016002820180546112b790613537565b80601f01602080910402602001604051908101604052809291908181526020018280546112e390613537565b80156113305780601f1061130557610100808354040283529160200191611330565b820191906000526020600020905b81548152906001019060200180831161131357829003601f168201915b505050505081526020016003820160009054906101000a900473ffffffffffffffffffffffffffffffffffffffff1673ffffffffffffffffffffffffffffffffffffffff1673ffffffffffffffffffffffffffffffffffffffff1681526020016003820160149054906101000a900460ff1615151515815250508486815181106113e3577f4e487b7100000000000000000000000000000000000000000000000000000000600052603260045260246000fd5b60200260200101819052506001856113fb9190613438565b945050505b808061140b9061359a565b9150506110d2565b5080945050505050919050565b6000603360008373ffffffffffffffffffffffffffffffffffffffff1673ffffffffffffffffffffffffffffffffffffffff168152602001908152602001600020549050919050565b600060019054906101000a900460ff166114915760008054906101000a900460ff161561149a565b611499612754565b5b6114d9576040517f08c379a00000000000000000000000000000000000000000000000000000000081526004016114d090613286565b60405180910390fd5b60008060019054906101000a900460ff161590508015611529576001600060016101000a81548160ff02191690831515021790555060016000806101000a81548160ff0219169083151502179055505b6115516040518060200160405280600081525060405180602001604052806000815250612765565b33606560006101000a81548173ffffffffffffffffffffffffffffffffffffffff021916908373ffffffffffffffffffffffffffffffffffffffff16021790555080156115b35760008060016101000a81548160ff0219169083151502179055505b50565b606060006115c46066612746565b905060008167ffffffffffffffff811115611608577f4e487b7100000000000000000000000000000000000000000000000000000000600052604160045260246000fd5b60405190808252806020026020018201604052801561164157816020015b61162e61290c565b8152602001906001900390816116265790505b50905060005b82811015611974578473ffffffffffffffffffffffffffffffffffffffff16606760006001846116779190613438565b815260200190815260200160002060030160009054906101000a900473ffffffffffffffffffffffffffffffffffffffff1673ffffffffffffffffffffffffffffffffffffffff161415611961576000606760006001846116d89190613438565b81526020019081526020016000209050806040518060a001604052908160008201805461170490613537565b80601f016020809104026020016040519081016040528092919081815260200182805461173090613537565b801561177d5780601f106117525761010080835404028352916020019161177d565b820191906000526020600020905b81548152906001019060200180831161176057829003601f168201915b5050505050815260200160018201805461179690613537565b80601f01602080910402602001604051908101604052809291908181526020018280546117c290613537565b801561180f5780601f106117e45761010080835404028352916020019161180f565b820191906000526020600020905b8154815290600101906020018083116117f257829003601f168201915b5050505050815260200160028201805461182890613537565b80601f016020809104026020016040519081016040528092919081815260200182805461185490613537565b80156118a15780601f10611876576101008083540402835291602001916118a1565b820191906000526020600020905b81548152906001019060200180831161188457829003601f168201915b505050505081526020016003820160009054906101000a900473ffffffffffffffffffffffffffffffffffffffff1673ffffffffffffffffffffffffffffffffffffffff1673ffffffffffffffffffffffffffffffffffffffff1681526020016003820160149054906101000a900460ff161515151581525050838381518110611954577f4e487b7100000000000000000000000000000000000000000000000000000000600052603260045260246000fd5b6020026020010181905250505b808061196c9061359a565b915050611647565b508092505050919050565b60606037805461198e90613537565b80601f01602080910402602001604051908101604052809291908181526020018280546119ba90613537565b8015611a075780601f106119dc57610100808354040283529160200191611a07565b820191906000526020600020905b8154815290600101906020018083116119ea57829003601f168201915b5050505050905090565b600080611a1c612263565b90506000603460008373ffffffffffffffffffffffffffffffffffffffff1673ffffffffffffffffffffffffffffffffffffffff16815260200190815260200160002060008673ffffffffffffffffffffffffffffffffffffffff1673ffffffffffffffffffffffffffffffffffffffff16815260200190815260200160002054905083811015611ae2576040517f08c379a0000000000000000000000000000000000000000000000000000000008152600401611ad990613306565b60405180910390fd5b611aef828686840361226b565b60019250505092915050565b600080611b06612263565b9050611b138185856124c2565b600191505092915050565b600080611b2b6066612746565b9050600080600090505b82811015611c4e5784604051602001611b4e91906130b2565b6040516020818303038152906040528051906020012060676000600184611b759190613438565b8152602001908152602001600020600101604051602001611b9691906130c9565b60405160208183030381529060405280519060200120148015611bec57506001151560676000600184611bc99190613438565b815260200190815260200160002060030160149054906101000a900460ff161515145b15611c3b5760676000600183611c029190613438565b815260200190815260200160002060030160009054906101000a900473ffffffffffffffffffffffffffffffffffffffff169150611c4e565b8080611c469061359a565b915050611b35565b508092505050919050565b6000603460008473ffffffffffffffffffffffffffffffffffffffff1673ffffffffffffffffffffffffffffffffffffffff16815260200190815260200160002060008373ffffffffffffffffffffffffffffffffffffffff1673ffffffffffffffffffffffffffffffffffffffff16815260200190815260200160002054905092915050565b611cea60666127c2565b6000611cf66066612746565b9050600115158215151415611ffe576000611d1085610f9a565b905060005b8151811015611e465760005b83811015611e3257828281518110611d62577f4e487b7100000000000000000000000000000000000000000000000000000000600052603260045260246000fd5b60200260200101516060015173ffffffffffffffffffffffffffffffffffffffff1660676000600184611d959190613438565b815260200190815260200160002060030160009054906101000a900473ffffffffffffffffffffffffffffffffffffffff1673ffffffffffffffffffffffffffffffffffffffff161415611e1f57600060676000600184611df69190613438565b815260200190815260200160002060030160146101000a81548160ff0219169083151502179055505b8080611e2a9061359a565b915050611d21565b508080611e3e9061359a565b915050611d15565b506000611e52336115b6565b905060005b8151811015611ffa576000611eaf838381518110611e9e577f4e487b7100000000000000000000000000000000000000000000000000000000600052603260045260246000fd5b602002602001015160200151610f9a565b905060005b8151811015611fe55760005b86811015611fd157828281518110611f01577f4e487b7100000000000000000000000000000000000000000000000000000000600052603260045260246000fd5b60200260200101516060015173ffffffffffffffffffffffffffffffffffffffff1660676000600184611f349190613438565b815260200190815260200160002060030160009054906101000a900473ffffffffffffffffffffffffffffffffffffffff1673ffffffffffffffffffffffffffffffffffffffff161415611fbe57600060676000600184611f959190613438565b815260200190815260200160002060030160146101000a81548160ff0219169083151502179055505b8080611fc99061359a565b915050611ec0565b508080611fdd9061359a565b915050611eb4565b50508080611ff29061359a565b915050611e57565b5050505b6040518060a001604052808681526020018581526020018481526020013373ffffffffffffffffffffffffffffffffffffffff16815260200183151581525060676000838152602001908152602001600020600082015181600001908051906020019061206c929190612886565b506020820151816001019080519060200190612089929190612886565b5060408201518160020190805190602001906120a6929190612886565b5060608201518160030160006101000a81548173ffffffffffffffffffffffffffffffffffffffff021916908373ffffffffffffffffffffffffffffffffffffffff16021790555060808201518160030160146101000a81548160ff02191690831515021790555090505060005b818110156121e0573373ffffffffffffffffffffffffffffffffffffffff16606760006001846121449190613438565b815260200190815260200160002060030160009054906101000a900473ffffffffffffffffffffffffffffffffffffffff1673ffffffffffffffffffffffffffffffffffffffff1614156121cd5782606760006001846121a49190613438565b815260200190815260200160002060030160146101000a81548160ff0219169083151502179055505b80806121d89061359a565b915050612114565b50826040516121ef91906130b2565b60405180910390208460405161220591906130b2565b60405180910390208660405161221b91906130b2565b60405180910390207f2e3249f822bd56e4e9ae7d39402def6df4618c14f212fbe4c35e0c94eddef9fe3386604051612254929190613116565b60405180910390a45050505050565b600033905090565b600073ffffffffffffffffffffffffffffffffffffffff168373ffffffffffffffffffffffffffffffffffffffff1614156122db576040517f08c379a00000000000000000000000000000000000000000000000000000000081526004016122d2906132c6565b60405180910390fd5b600073ffffffffffffffffffffffffffffffffffffffff168273ffffffffffffffffffffffffffffffffffffffff16141561234b576040517f08c379a000000000000000000000000000000000000000000000000000000000815260040161234290613226565b60405180910390fd5b80603460008573ffffffffffffffffffffffffffffffffffffffff1673ffffffffffffffffffffffffffffffffffffffff16815260200190815260200160002060008473ffffffffffffffffffffffffffffffffffffffff1673ffffffffffffffffffffffffffffffffffffffff168152602001908152602001600020819055508173ffffffffffffffffffffffffffffffffffffffff168373ffffffffffffffffffffffffffffffffffffffff167f8c5be1e5ebec7d5bd14f71427d1e84f3dd0314c0f7b2291e5b200ac8c7c3b925836040516124299190613326565b60405180910390a3505050565b60006124428484611c59565b90507fffffffffffffffffffffffffffffffffffffffffffffffffffffffffffffffff81146124bc57818110156124ae576040517f08c379a00000000000000000000000000000000000000000000000000000000081526004016124a590613246565b60405180910390fd5b6124bb848484840361226b565b5b50505050565b600073ffffffffffffffffffffffffffffffffffffffff168373ffffffffffffffffffffffffffffffffffffffff161415612532576040517f08c379a0000000000000000000000000000000000000000000000000000000008152600401612529906132a6565b60405180910390fd5b600073ffffffffffffffffffffffffffffffffffffffff168273ffffffffffffffffffffffffffffffffffffffff1614156125a2576040517f08c379a000000000000000000000000000000000000000000000000000000000815260040161259990613206565b60405180910390fd5b6125ad8383836127d8565b6000603360008573ffffffffffffffffffffffffffffffffffffffff1673ffffffffffffffffffffffffffffffffffffffff16815260200190815260200160002054905081811015612634576040517f08c379a000000000000000000000000000000000000000000000000000000000815260040161262b90613266565b60405180910390fd5b818103603360008673ffffffffffffffffffffffffffffffffffffffff1673ffffffffffffffffffffffffffffffffffffffff1681526020019081526020016000208190555081603360008573ffffffffffffffffffffffffffffffffffffffff1673ffffffffffffffffffffffffffffffffffffffff16815260200190815260200160002060008282546126c99190613438565b925050819055508273ffffffffffffffffffffffffffffffffffffffff168473ffffffffffffffffffffffffffffffffffffffff167fddf252ad1be2c89b69c2b068fc378daa952ba7f163c4a11628f55a4df523b3ef8460405161272d9190613326565b60405180910390a36127408484846127dd565b50505050565b600081600001549050919050565b600061275f306127e2565b15905090565b600060019054906101000a900460ff166127b4576040517f08c379a00000000000000000000000000000000000000000000000000000000081526004016127ab906132e6565b60405180910390fd5b6127be8282612805565b5050565b6001816000016000828254019250508190555050565b505050565b505050565b6000808273ffffffffffffffffffffffffffffffffffffffff163b119050919050565b600060019054906101000a900460ff16612854576040517f08c379a000000000000000000000000000000000000000000000000000000000815260040161284b906132e6565b60405180910390fd5b816036908051906020019061286a929190612886565b508060379080519060200190612881929190612886565b505050565b82805461289290613537565b90600052602060002090601f0160209004810192826128b457600085556128fb565b82601f106128cd57805160ff19168380011785556128fb565b828001600101855582156128fb579182015b828111156128fa5782518255916020019190600101906128df565b5b5090506129089190612953565b5090565b6040518060a00160405280606081526020016060815260200160608152602001600073ffffffffffffffffffffffffffffffffffffffff1681526020016000151581525090565b5b8082111561296c576000816000905550600101612954565b5090565b600061298361297e84613381565b61335c565b90508281526020810184848401111561299b57600080fd5b6129a68482856134f5565b509392505050565b6000813590506129bd81613922565b92915050565b6000813590506129d281613939565b92915050565b600082601f8301126129e957600080fd5b81356129f9848260208601612970565b91505092915050565b600081359050612a1181613950565b92915050565b600060208284031215612a2957600080fd5b6000612a37848285016129ae565b91505092915050565b60008060408385031215612a5357600080fd5b6000612a61858286016129ae565b9250506020612a72858286016129ae565b9150509250929050565b600080600060608486031215612a9157600080fd5b6000612a9f868287016129ae565b9350506020612ab0868287016129ae565b9250506040612ac186828701612a02565b9150509250925092565b60008060408385031215612ade57600080fd5b6000612aec858286016129ae565b9250506020612afd85828601612a02565b9150509250929050565b600060208284031215612b1957600080fd5b600082013567ffffffffffffffff811115612b3357600080fd5b612b3f848285016129d8565b91505092915050565b60008060008060808587031215612b5e57600080fd5b600085013567ffffffffffffffff811115612b7857600080fd5b612b84878288016129d8565b945050602085013567ffffffffffffffff811115612ba157600080fd5b612bad878288016129d8565b935050604085013567ffffffffffffffff811115612bca57600080fd5b612bd6878288016129d8565b9250506060612be7878288016129c3565b91505092959194509250565b60008060008060808587031215612c0957600080fd5b600085013567ffffffffffffffff811115612c2357600080fd5b612c2f878288016129d8565b945050602085013567ffffffffffffffff811115612c4c57600080fd5b612c58878288016129d8565b935050604085013567ffffffffffffffff811115612c7557600080fd5b612c81878288016129d8565b925050606085013567ffffffffffffffff811115612c9e57600080fd5b612caa878288016129d8565b91505092959194509250565b600060208284031215612cc857600080fd5b6000612cd684828501612a02565b91505092915050565b6000612ceb8383613010565b905092915050565b612cfc816134a0565b82525050565b612d0b8161348e565b82525050565b612d1a8161348e565b82525050565b6000612d2b826133d7565b612d3581856133fa565b935083602082028501612d47856133b2565b8060005b85811015612d835784840389528151612d648582612cdf565b9450612d6f836133ed565b925060208a01995050600181019050612d4b565b50829750879550505050505092915050565b612d9e816134b2565b82525050565b612dad816134b2565b82525050565b6000612dbe826133e2565b612dc8818561340b565b9350612dd8818560208601613504565b612de181613670565b840191505092915050565b6000612df7826133e2565b612e01818561341c565b9350612e11818560208601613504565b612e1a81613670565b840191505092915050565b6000612e30826133e2565b612e3a818561342d565b9350612e4a818560208601613504565b80840191505092915050565b60008154612e6381613537565b612e6d818661342d565b94506001821660008114612e885760018114612e9957612ecc565b60ff19831686528186019350612ecc565b612ea2856133c2565b60005b83811015612ec457815481890152600182019150602081019050612ea5565b838801955050505b50505092915050565b6000612ee260238361341c565b9150612eed82613681565b604082019050919050565b6000612f0560228361341c565b9150612f10826136d0565b604082019050919050565b6000612f28601d8361341c565b9150612f338261371f565b602082019050919050565b6000612f4b60268361341c565b9150612f5682613748565b604082019050919050565b6000612f6e602e8361341c565b9150612f7982613797565b604082019050919050565b6000612f9160258361341c565b9150612f9c826137e6565b604082019050919050565b6000612fb460248361341c565b9150612fbf82613835565b604082019050919050565b6000612fd7602b8361341c565b9150612fe282613884565b604082019050919050565b6000612ffa60258361341c565b9150613005826138d3565b604082019050919050565b600060a083016000830151848203600086015261302d8282612db3565b915050602083015184820360208601526130478282612db3565b915050604083015184820360408601526130618282612db3565b91505060608301516130766060860182612d02565b5060808301516130896080860182612d95565b508091505092915050565b61309d816134de565b82525050565b6130ac816134e8565b82525050565b60006130be8284612e25565b915081905092915050565b60006130d58284612e56565b915081905092915050565b60006020820190506130f56000830184612d11565b92915050565b60006020820190506131106000830184612cf3565b92915050565b600060408201905061312b6000830185612d11565b6131386020830184612da4565b9392505050565b600060208201905081810360008301526131598184612d20565b905092915050565b60006020820190506131766000830184612da4565b92915050565b600060208201905081810360008301526131968184612dec565b905092915050565b600060a08201905081810360008301526131b88188612dec565b905081810360208301526131cc8187612dec565b905081810360408301526131e08186612dec565b90506131ef6060830185612d11565b6131fc6080830184612da4565b9695505050505050565b6000602082019050818103600083015261321f81612ed5565b9050919050565b6000602082019050818103600083015261323f81612ef8565b9050919050565b6000602082019050818103600083015261325f81612f1b565b9050919050565b6000602082019050818103600083015261327f81612f3e565b9050919050565b6000602082019050818103600083015261329f81612f61565b9050919050565b600060208201905081810360008301526132bf81612f84565b9050919050565b600060208201905081810360008301526132df81612fa7565b9050919050565b600060208201905081810360008301526132ff81612fca565b9050919050565b6000602082019050818103600083015261331f81612fed565b9050919050565b600060208201905061333b6000830184613094565b92915050565b600060208201905061335660008301846130a3565b92915050565b6000613366613377565b90506133728282613569565b919050565b6000604051905090565b600067ffffffffffffffff82111561339c5761339b613641565b5b6133a582613670565b9050602081019050919050565b6000819050602082019050919050565b60008190508160005260206000209050919050565b600081519050919050565b600081519050919050565b6000602082019050919050565b600082825260208201905092915050565b600082825260208201905092915050565b600082825260208201905092915050565b600081905092915050565b6000613443826134de565b915061344e836134de565b9250827fffffffffffffffffffffffffffffffffffffffffffffffffffffffffffffffff03821115613483576134826135e3565b5b828201905092915050565b6000613499826134be565b9050919050565b60006134ab826134be565b9050919050565b60008115159050919050565b600073ffffffffffffffffffffffffffffffffffffffff82169050919050565b6000819050919050565b600060ff82169050919050565b82818337600083830152505050565b60005b83811015613522578082015181840152602081019050613507565b83811115613531576000848401525b50505050565b6000600282049050600182168061354f57607f821691505b6020821081141561356357613562613612565b5b50919050565b61357282613670565b810181811067ffffffffffffffff8211171561359157613590613641565b5b80604052505050565b60006135a5826134de565b91507fffffffffffffffffffffffffffffffffffffffffffffffffffffffffffffffff8214156135d8576135d76135e3565b5b600182019050919050565b7f4e487b7100000000000000000000000000000000000000000000000000000000600052601160045260246000fd5b7f4e487b7100000000000000000000000000000000000000000000000000000000600052602260045260246000fd5b7f4e487b7100000000000000000000000000000000000000000000000000000000600052604160045260246000fd5b6000601f19601f8301169050919050565b7f45524332303a207472616e7366657220746f20746865207a65726f206164647260008201527f6573730000000000000000000000000000000000000000000000000000000000602082015250565b7f45524332303a20617070726f766520746f20746865207a65726f20616464726560008201527f7373000000000000000000000000000000000000000000000000000000000000602082015250565b7f45524332303a20696e73756666696369656e7420616c6c6f77616e6365000000600082015250565b7f45524332303a207472616e7366657220616d6f756e742065786365656473206260008201527f616c616e63650000000000000000000000000000000000000000000000000000602082015250565b7f496e697469616c697a61626c653a20636f6e747261637420697320616c72656160008201527f647920696e697469616c697a6564000000000000000000000000000000000000602082015250565b7f45524332303a207472616e736665722066726f6d20746865207a65726f20616460008201527f6472657373000000000000000000000000000000000000000000000000000000602082015250565b7f45524332303a20617070726f76652066726f6d20746865207a65726f2061646460008201527f7265737300000000000000000000000000000000000000000000000000000000602082015250565b7f496e697469616c697a61626c653a20636f6e7472616374206973206e6f74206960008201527f6e697469616c697a696e67000000000000000000000000000000000000000000602082015250565b7f45524332303a2064656372656173656420616c6c6f77616e63652062656c6f7760008201527f207a65726f000000000000000000000000000000000000000000000000000000602082015250565b61392b8161348e565b811461393657600080fd5b50565b613942816134b2565b811461394d57600080fd5b50565b613959816134de565b811461396457600080fd5b5056fea2646970667358221220975ffab151e995f357e45fc0b61cf9af56c6fa9a5db6c9b92a475737c7373d9f64736f6c63430008040033",
  "linkReferences": {},
  "deployedLinkReferences": {}
}