{
  "_format": "hh-sol-artifact-1",
  "contractName": "phoneLink",
  "sourceName": "contracts/phoneLink.sol",
  "abi": [
    {
      "anonymous": false,
      "inputs": [
        {
          "indexed": true,
          "internalType": "address",
          "name": "owner",
          "type": "address"
        },
        {
          "indexed": true,
          "internalType": "address",
          "name": "spender",
          "type": "address"
        },
        {
          "indexed": false,
          "internalType": "uint256",
          "name": "value",
          "type": "uint256"
        }
      ],
      "name": "Approval",
      "type": "event"
    },
    {
      "anonymous": false,
      "inputs": [
        {
          "indexed": true,
          "internalType": "string",
          "name": "name",
          "type": "string"
        },
        {
          "indexed": true,
          "internalType": "string",
          "name": "identifier",
          "type": "string"
        },
        {
          "indexed": true,
          "internalType": "string",
          "name": "typeOfIdentifier",
          "type": "string"
        },
        {
          "indexed": false,
          "internalType": "address",
          "name": "connectedWalletAddress",
          "type": "address"
        },
        {
          "indexed": false,
          "internalType": "bool",
          "name": "isPrimaryWallet",
          "type": "bool"
        }
      ],
      "name": "DetailsCreated",
      "type": "event"
    },
    {
      "anonymous": false,
      "inputs": [
        {
          "indexed": true,
          "internalType": "address",
          "name": "from",
          "type": "address"
        },
        {
          "indexed": true,
          "internalType": "address",
          "name": "to",
          "type": "address"
        },
        {
          "indexed": false,
          "internalType": "uint256",
          "name": "value",
          "type": "uint256"
        }
      ],
      "name": "Transfer",
      "type": "event"
    },
    {
      "inputs": [],
      "name": "_itemIds",
      "outputs": [
        {
          "internalType": "uint256",
          "name": "_value",
          "type": "uint256"
        }
      ],
      "stateMutability": "view",
      "type": "function"
    },
    {
      "inputs": [
        {
          "internalType": "address",
          "name": "owner",
          "type": "address"
        },
        {
          "internalType": "address",
          "name": "spender",
          "type": "address"
        }
      ],
      "name": "allowance",
      "outputs": [
        {
          "internalType": "uint256",
          "name": "",
          "type": "uint256"
        }
      ],
      "stateMutability": "view",
      "type": "function"
    },
    {
      "inputs": [
        {
          "internalType": "address",
          "name": "spender",
          "type": "address"
        },
        {
          "internalType": "uint256",
          "name": "amount",
          "type": "uint256"
        }
      ],
      "name": "approve",
      "outputs": [
        {
          "internalType": "bool",
          "name": "",
          "type": "bool"
        }
      ],
      "stateMutability": "nonpayable",
      "type": "function"
    },
    {
      "inputs": [
        {
          "internalType": "address",
          "name": "account",
          "type": "address"
        }
      ],
      "name": "balanceOf",
      "outputs": [
        {
          "internalType": "uint256",
          "name": "",
          "type": "uint256"
        }
      ],
      "stateMutability": "view",
      "type": "function"
    },
    {
      "inputs": [],
      "name": "decimals",
      "outputs": [
        {
          "internalType": "uint8",
          "name": "",
          "type": "uint8"
        }
      ],
      "stateMutability": "view",
      "type": "function"
    },
    {
      "inputs": [
        {
          "internalType": "address",
          "name": "spender",
          "type": "address"
        },
        {
          "internalType": "uint256",
          "name": "subtractedValue",
          "type": "uint256"
        }
      ],
      "name": "decreaseAllowance",
      "outputs": [
        {
          "internalType": "bool",
          "name": "",
          "type": "bool"
        }
      ],
      "stateMutability": "nonpayable",
      "type": "function"
    },
    {
      "inputs": [
        {
          "internalType": "string",
          "name": "name",
          "type": "string"
        },
        {
          "internalType": "string",
          "name": "identifier",
          "type": "string"
        },
        {
          "internalType": "string",
          "name": "typeOfIdentifier",
          "type": "string"
        },
        {
          "internalType": "string",
          "name": "oldIdentifier",
          "type": "string"
        }
      ],
      "name": "editProfile",
      "outputs": [],
      "stateMutability": "nonpayable",
      "type": "function"
    },
    {
      "inputs": [
        {
          "internalType": "string",
          "name": "name",
          "type": "string"
        },
        {
          "internalType": "string",
          "name": "identifier",
          "type": "string"
        },
        {
          "internalType": "string",
          "name": "typeOfIdentifier",
          "type": "string"
        },
        {
          "internalType": "bool",
          "name": "isPrimaryWallet",
          "type": "bool"
        }
      ],
      "name": "enterDetails",
      "outputs": [],
      "stateMutability": "nonpayable",
      "type": "function"
    },
    {
      "inputs": [
        {
          "internalType": "string",
          "name": "userIdentifier",
          "type": "string"
        }
      ],
      "name": "fetchAllWalletAddress",
      "outputs": [
        {
          "components": [
            {
              "internalType": "string",
              "name": "name",
              "type": "string"
            },
            {
              "internalType": "string",
              "name": "identifier",
              "type": "string"
            },
            {
              "internalType": "string",
              "name": "typeOfIdentifier",
              "type": "string"
            },
            {
              "internalType": "address",
              "name": "connectedWalletAddress",
              "type": "address"
            },
            {
              "internalType": "bool",
              "name": "isPrimaryWallet",
              "type": "bool"
            }
          ],
          "internalType": "struct phoneLink.Details[]",
          "name": "",
          "type": "tuple[]"
        }
      ],
      "stateMutability": "view",
      "type": "function"
    },
    {
      "inputs": [
        {
          "internalType": "string",
          "name": "userIdentifier",
          "type": "string"
        }
      ],
      "name": "fetchPrimaryWalletAddress",
      "outputs": [
        {
          "internalType": "address",
          "name": "",
          "type": "address"
        }
      ],
      "stateMutability": "view",
      "type": "function"
    },
    {
      "inputs": [],
      "name": "getMarketOwner",
      "outputs": [
        {
          "internalType": "address payable",
          "name": "",
          "type": "address"
        }
      ],
      "stateMutability": "view",
      "type": "function"
    },
    {
      "inputs": [],
      "name": "getPhoneToDetails",
      "outputs": [
        {
          "components": [
            {
              "internalType": "string",
              "name": "name",
              "type": "string"
            },
            {
              "internalType": "string",
              "name": "identifier",
              "type": "string"
            },
            {
              "internalType": "string",
              "name": "typeOfIdentifier",
              "type": "string"
            },
            {
              "internalType": "address",
              "name": "connectedWalletAddress",
              "type": "address"
            },
            {
              "internalType": "bool",
              "name": "isPrimaryWallet",
              "type": "bool"
            }
          ],
          "internalType": "struct phoneLink.Details[]",
          "name": "",
          "type": "tuple[]"
        }
      ],
      "stateMutability": "view",
      "type": "function"
    },
    {
      "inputs": [
        {
          "internalType": "address",
          "name": "walletAddress",
          "type": "address"
        }
      ],
      "name": "getWalletDetails",
      "outputs": [
        {
          "components": [
            {
              "internalType": "string",
              "name": "name",
              "type": "string"
            },
            {
              "internalType": "string",
              "name": "identifier",
              "type": "string"
            },
            {
              "internalType": "string",
              "name": "typeOfIdentifier",
              "type": "string"
            },
            {
              "internalType": "address",
              "name": "connectedWalletAddress",
              "type": "address"
            },
            {
              "internalType": "bool",
              "name": "isPrimaryWallet",
              "type": "bool"
            }
          ],
          "internalType": "struct phoneLink.Details[]",
          "name": "",
          "type": "tuple[]"
        }
      ],
      "stateMutability": "view",
      "type": "function"
    },
    {
      "inputs": [
        {
          "internalType": "address",
          "name": "spender",
          "type": "address"
        },
        {
          "internalType": "uint256",
          "name": "addedValue",
          "type": "uint256"
        }
      ],
      "name": "increaseAllowance",
      "outputs": [
        {
          "internalType": "bool",
          "name": "",
          "type": "bool"
        }
      ],
      "stateMutability": "nonpayable",
      "type": "function"
    },
    {
      "inputs": [],
      "name": "initialize",
      "outputs": [],
      "stateMutability": "nonpayable",
      "type": "function"
    },
    {
      "inputs": [],
      "name": "marketowner",
      "outputs": [
        {
          "internalType": "address payable",
          "name": "",
          "type": "address"
        }
      ],
      "stateMutability": "view",
      "type": "function"
    },
    {
      "inputs": [],
      "name": "myWallets",
      "outputs": [
        {
          "components": [
            {
              "internalType": "string",
              "name": "name",
              "type": "string"
            },
            {
              "internalType": "string",
              "name": "identifier",
              "type": "string"
            },
            {
              "internalType": "string",
              "name": "typeOfIdentifier",
              "type": "string"
            },
            {
              "internalType": "address",
              "name": "connectedWalletAddress",
              "type": "address"
            },
            {
              "internalType": "bool",
              "name": "isPrimaryWallet",
              "type": "bool"
            }
          ],
          "internalType": "struct phoneLink.Details[]",
          "name": "",
          "type": "tuple[]"
        }
      ],
      "stateMutability": "view",
      "type": "function"
    },
    {
      "inputs": [],
      "name": "name",
      "outputs": [
        {
          "internalType": "string",
          "name": "",
          "type": "string"
        }
      ],
      "stateMutability": "view",
      "type": "function"
    },
    {
      "inputs": [
        {
          "internalType": "uint256",
          "name": "",
          "type": "uint256"
        }
      ],
      "name": "phoneToDetails",
      "outputs": [
        {
          "internalType": "string",
          "name": "name",
          "type": "string"
        },
        {
          "internalType": "string",
          "name": "identifier",
          "type": "string"
        },
        {
          "internalType": "string",
          "name": "typeOfIdentifier",
          "type": "string"
        },
        {
          "internalType": "address",
          "name": "connectedWalletAddress",
          "type": "address"
        },
        {
          "internalType": "bool",
          "name": "isPrimaryWallet",
          "type": "bool"
        }
      ],
      "stateMutability": "view",
      "type": "function"
    },
    {
      "inputs": [
        {
          "internalType": "address",
          "name": "destination",
          "type": "address"
        },
        {
          "internalType": "uint256",
          "name": "amount",
          "type": "uint256"
        }
      ],
      "name": "sendToken",
      "outputs": [],
      "stateMutability": "payable",
      "type": "function"
    },
    {
      "inputs": [],
      "name": "symbol",
      "outputs": [
        {
          "internalType": "string",
          "name": "",
          "type": "string"
        }
      ],
      "stateMutability": "view",
      "type": "function"
    },
    {
      "inputs": [],
      "name": "totalSupply",
      "outputs": [
        {
          "internalType": "uint256",
          "name": "",
          "type": "uint256"
        }
      ],
      "stateMutability": "view",
      "type": "function"
    },
    {
      "inputs": [
        {
          "internalType": "address",
          "name": "to",
          "type": "address"
        },
        {
          "internalType": "uint256",
          "name": "amount",
          "type": "uint256"
        }
      ],
      "name": "transfer",
      "outputs": [
        {
          "internalType": "bool",
          "name": "",
          "type": "bool"
        }
      ],
      "stateMutability": "nonpayable",
      "type": "function"
    },
    {
      "inputs": [
        {
          "internalType": "address",
          "name": "from",
          "type": "address"
        },
        {
          "internalType": "address",
          "name": "to",
          "type": "address"
        },
        {
          "internalType": "uint256",
          "name": "amount",
          "type": "uint256"
        }
      ],
      "name": "transferFrom",
      "outputs": [
        {
          "internalType": "bool",
          "name": "",
          "type": "bool"
        }
      ],
      "stateMutability": "nonpayable",
      "type": "function"
    }
  ],
  "bytecode": "0x608060405234801561001057600080fd5b50613e83806100206000396000f3fe60806040526004361061014b5760003560e01c80635e385b92116100b6578063a457c2d71161006f578063a457c2d7146104b3578063a9059cbb146104f0578063d263be481461052d578063db461e1a14610558578063dd62ed3e14610595578063fcb02e73146105d25761014b565b80635e385b921461038f5780636e997665146103ba57806370a08231146103f75780638129fc1c146104345780638cae45d21461044b57806395d89b41146104885761014b565b8063395093511161010857806339509351146102765780633e3a648d146102b3578063412664ae146102dc578063451e9cf0146102f857806352d95491146103235780635a12d0f8146103645761014b565b806306fdde0314610150578063095ea7b31461017b57806318160ddd146101b857806323b872dd146101e3578063313ce5671461022057806334a7f1931461024b575b600080fd5b34801561015c57600080fd5b506101656105fb565b6040516101729190613662565b60405180910390f35b34801561018757600080fd5b506101a2600480360381019061019d9190612fb1565b61068d565b6040516101af9190613647565b60405180910390f35b3480156101c457600080fd5b506101cd6106b0565b6040516101da919061380c565b60405180910390f35b3480156101ef57600080fd5b5061020a60048036038101906102059190612f62565b6106ba565b6040516102179190613647565b60405180910390f35b34801561022c57600080fd5b506102356106e9565b6040516102429190613827565b60405180910390f35b34801561025757600080fd5b506102606106f2565b60405161026d919061380c565b60405180910390f35b34801561028257600080fd5b5061029d60048036038101906102989190612fb1565b6106fe565b6040516102aa9190613647565b60405180910390f35b3480156102bf57600080fd5b506102da60048036038101906102d591906130d9565b6107a8565b005b6102f660048036038101906102f19190612fb1565b6109e4565b005b34801561030457600080fd5b5061030d610a2f565b60405161031a91906135e1565b60405180910390f35b34801561032f57600080fd5b5061034a6004803603810190610345919061319c565b610a59565b60405161035b959493929190613684565b60405180910390f35b34801561037057600080fd5b50610379610c54565b6040516103869190613625565b60405180910390f35b34801561039b57600080fd5b506103a4610fbb565b6040516103b191906135e1565b60405180910390f35b3480156103c657600080fd5b506103e160048036038101906103dc9190612fed565b610fe1565b6040516103ee9190613625565b60405180910390f35b34801561040357600080fd5b5061041e60048036038101906104199190612efd565b611467565b60405161042b919061380c565b60405180910390f35b34801561044057600080fd5b506104496114b0565b005b34801561045757600080fd5b50610472600480360381019061046d9190612efd565b6115fd565b60405161047f9190613625565b60405180910390f35b34801561049457600080fd5b5061049d6119d7565b6040516104aa9190613662565b60405180910390f35b3480156104bf57600080fd5b506104da60048036038101906104d59190612fb1565b611a69565b6040516104e79190613647565b60405180910390f35b3480156104fc57600080fd5b5061051760048036038101906105129190612fb1565b611b53565b6040516105249190613647565b60405180910390f35b34801561053957600080fd5b50610542611b76565b60405161054f9190613625565b60405180910390f35b34801561056457600080fd5b5061057f600480360381019061057a9190612fed565b612004565b60405161058c91906135c6565b60405180910390f35b3480156105a157600080fd5b506105bc60048036038101906105b79190612f26565b61213f565b6040516105c9919061380c565b60405180910390f35b3480156105de57600080fd5b506105f960048036038101906105f4919061302e565b6121c6565b005b60606036805461060a90613a1d565b80601f016020809104026020016040519081016040528092919081815260200182805461063690613a1d565b80156106835780601f1061065857610100808354040283529160200191610683565b820191906000526020600020905b81548152906001019060200180831161066657829003601f168201915b5050505050905090565b600080610698612749565b90506106a5818585612751565b600191505092915050565b6000603554905090565b6000806106c5612749565b90506106d285828561291c565b6106dd8585856129a8565b60019150509392505050565b60006012905090565b60668060000154905081565b600080610709612749565b905061079d818585603460008673ffffffffffffffffffffffffffffffffffffffff1673ffffffffffffffffffffffffffffffffffffffff16815260200190815260200160002060008973ffffffffffffffffffffffffffffffffffffffff1673ffffffffffffffffffffffffffffffffffffffff16815260200190815260200160002054610798919061391e565b612751565b600191505092915050565b60006107b46066612c2c565b905060005b818110156109dc573373ffffffffffffffffffffffffffffffffffffffff16606760006001846107e9919061391e565b815260200190815260200160002060030160009054906101000a900473ffffffffffffffffffffffffffffffffffffffff1673ffffffffffffffffffffffffffffffffffffffff1614156109c957836040516020016108489190613598565b604051602081830303815290604052805190602001206067600060018461086f919061391e565b815260200190815260200160002060020160405160200161089091906135af565b6040516020818303038152906040528051906020012014156109c857826040516020016108bd9190613598565b60405160208183030381529060405280519060200120606760006001846108e4919061391e565b815260200190815260200160002060010160405160200161090591906135af565b6040516020818303038152906040528051906020012014156109c7578560676000600184610933919061391e565b81526020019081526020016000206000019080519060200190610957929190612d6c565b50846067600060018461096a919061391e565b8152602001908152602001600020600101908051906020019061098e929190612d6c565b5083606760006001846109a1919061391e565b815260200190815260200160002060020190805190602001906109c5929190612d6c565b505b5b5b80806109d490613a80565b9150506107b9565b505050505050565b8173ffffffffffffffffffffffffffffffffffffffff166108fc829081150290604051600060405180830381858888f19350505050158015610a2a573d6000803e3d6000fd5b505050565b6000606560009054906101000a900473ffffffffffffffffffffffffffffffffffffffff16905090565b6067602052806000526040600020600091509050806000018054610a7c90613a1d565b80601f0160208091040260200160405190810160405280929190818152602001828054610aa890613a1d565b8015610af55780601f10610aca57610100808354040283529160200191610af5565b820191906000526020600020905b815481529060010190602001808311610ad857829003601f168201915b505050505090806001018054610b0a90613a1d565b80601f0160208091040260200160405190810160405280929190818152602001828054610b3690613a1d565b8015610b835780601f10610b5857610100808354040283529160200191610b83565b820191906000526020600020905b815481529060010190602001808311610b6657829003601f168201915b505050505090806002018054610b9890613a1d565b80601f0160208091040260200160405190810160405280929190818152602001828054610bc490613a1d565b8015610c115780601f10610be657610100808354040283529160200191610c11565b820191906000526020600020905b815481529060010190602001808311610bf457829003601f168201915b5050505050908060030160009054906101000a900473ffffffffffffffffffffffffffffffffffffffff16908060030160149054906101000a900460ff16905085565b60606000610c626066612c2c565b90506000808267ffffffffffffffff811115610ca7577f4e487b7100000000000000000000000000000000000000000000000000000000600052604160045260246000fd5b604051908082528060200260200182016040528015610ce057816020015b610ccd612df2565b815260200190600190039081610cc55790505b50905060005b83811015610fb1576000600182610cfd919061391e565b90506000606760008381526020019081526020016000209050806040518060a0016040529081600082018054610d3290613a1d565b80601f0160208091040260200160405190810160405280929190818152602001828054610d5e90613a1d565b8015610dab5780601f10610d8057610100808354040283529160200191610dab565b820191906000526020600020905b815481529060010190602001808311610d8e57829003601f168201915b50505050508152602001600182018054610dc490613a1d565b80601f0160208091040260200160405190810160405280929190818152602001828054610df090613a1d565b8015610e3d5780601f10610e1257610100808354040283529160200191610e3d565b820191906000526020600020905b815481529060010190602001808311610e2057829003601f168201915b50505050508152602001600282018054610e5690613a1d565b80601f0160208091040260200160405190810160405280929190818152602001828054610e8290613a1d565b8015610ecf5780601f10610ea457610100808354040283529160200191610ecf565b820191906000526020600020905b815481529060010190602001808311610eb257829003601f168201915b505050505081526020016003820160009054906101000a900473ffffffffffffffffffffffffffffffffffffffff1673ffffffffffffffffffffffffffffffffffffffff1673ffffffffffffffffffffffffffffffffffffffff1681526020016003820160149054906101000a900460ff161515151581525050848681518110610f82577f4e487b7100000000000000000000000000000000000000000000000000000000600052603260045260246000fd5b6020026020010181905250600185610f9a919061391e565b945050508080610fa990613a80565b915050610ce6565b5080935050505090565b606560009054906101000a900473ffffffffffffffffffffffffffffffffffffffff1681565b60606000610fef6066612c2c565b905060008060005b8381101561109757856040516020016110109190613598565b6040516020818303038152906040528051906020012060676000600184611037919061391e565b815260200190815260200160002060010160405160200161105891906135af565b60405160208183030381529060405280519060200120141561108457600183611081919061391e565b92505b808061108f90613a80565b915050610ff7565b5060008267ffffffffffffffff8111156110da577f4e487b7100000000000000000000000000000000000000000000000000000000600052604160045260246000fd5b60405190808252806020026020018201604052801561111357816020015b611100612df2565b8152602001906001900390816110f85790505b50905060005b8481101561145a57866040516020016111329190613598565b6040516020818303038152906040528051906020012060676000600184611159919061391e565b815260200190815260200160002060010160405160200161117a91906135af565b6040516020818303038152906040528051906020012014156114475760006001826111a5919061391e565b90506000606760008381526020019081526020016000209050806040518060a00160405290816000820180546111da90613a1d565b80601f016020809104026020016040519081016040528092919081815260200182805461120690613a1d565b80156112535780601f1061122857610100808354040283529160200191611253565b820191906000526020600020905b81548152906001019060200180831161123657829003601f168201915b5050505050815260200160018201805461126c90613a1d565b80601f016020809104026020016040519081016040528092919081815260200182805461129890613a1d565b80156112e55780601f106112ba576101008083540402835291602001916112e5565b820191906000526020600020905b8154815290600101906020018083116112c857829003601f168201915b505050505081526020016002820180546112fe90613a1d565b80601f016020809104026020016040519081016040528092919081815260200182805461132a90613a1d565b80156113775780601f1061134c57610100808354040283529160200191611377565b820191906000526020600020905b81548152906001019060200180831161135a57829003601f168201915b505050505081526020016003820160009054906101000a900473ffffffffffffffffffffffffffffffffffffffff1673ffffffffffffffffffffffffffffffffffffffff1673ffffffffffffffffffffffffffffffffffffffff1681526020016003820160149054906101000a900460ff16151515158152505084868151811061142a577f4e487b7100000000000000000000000000000000000000000000000000000000600052603260045260246000fd5b6020026020010181905250600185611442919061391e565b945050505b808061145290613a80565b915050611119565b5080945050505050919050565b6000603360008373ffffffffffffffffffffffffffffffffffffffff1673ffffffffffffffffffffffffffffffffffffffff168152602001908152602001600020549050919050565b600060019054906101000a900460ff166114d85760008054906101000a900460ff16156114e1565b6114e0612c3a565b5b611520576040517f08c379a00000000000000000000000000000000000000000000000000000000081526004016115179061376c565b60405180910390fd5b60008060019054906101000a900460ff161590508015611570576001600060016101000a81548160ff02191690831515021790555060016000806101000a81548160ff0219169083151502179055505b6115986040518060200160405280600081525060405180602001604052806000815250612c4b565b33606560006101000a81548173ffffffffffffffffffffffffffffffffffffffff021916908373ffffffffffffffffffffffffffffffffffffffff16021790555080156115fa5760008060016101000a81548160ff0219169083151502179055505b50565b6060600061160b6066612c2c565b90506000808267ffffffffffffffff811115611650577f4e487b7100000000000000000000000000000000000000000000000000000000600052604160045260246000fd5b60405190808252806020026020018201604052801561168957816020015b611676612df2565b81526020019060019003908161166e5790505b50905060005b838110156119cb578573ffffffffffffffffffffffffffffffffffffffff16606760006001846116bf919061391e565b815260200190815260200160002060030160009054906101000a900473ffffffffffffffffffffffffffffffffffffffff1673ffffffffffffffffffffffffffffffffffffffff1614156119b857600060676000600184611720919061391e565b81526020019081526020016000209050806040518060a001604052908160008201805461174c90613a1d565b80601f016020809104026020016040519081016040528092919081815260200182805461177890613a1d565b80156117c55780601f1061179a576101008083540402835291602001916117c5565b820191906000526020600020905b8154815290600101906020018083116117a857829003601f168201915b505050505081526020016001820180546117de90613a1d565b80601f016020809104026020016040519081016040528092919081815260200182805461180a90613a1d565b80156118575780601f1061182c57610100808354040283529160200191611857565b820191906000526020600020905b81548152906001019060200180831161183a57829003601f168201915b5050505050815260200160028201805461187090613a1d565b80601f016020809104026020016040519081016040528092919081815260200182805461189c90613a1d565b80156118e95780601f106118be576101008083540402835291602001916118e9565b820191906000526020600020905b8154815290600101906020018083116118cc57829003601f168201915b505050505081526020016003820160009054906101000a900473ffffffffffffffffffffffffffffffffffffffff1673ffffffffffffffffffffffffffffffffffffffff1673ffffffffffffffffffffffffffffffffffffffff1681526020016003820160149054906101000a900460ff16151515158152505083858151811061199c577f4e487b7100000000000000000000000000000000000000000000000000000000600052603260045260246000fd5b60200260200101819052506001846119b4919061391e565b9350505b80806119c390613a80565b91505061168f565b50809350505050919050565b6060603780546119e690613a1d565b80601f0160208091040260200160405190810160405280929190818152602001828054611a1290613a1d565b8015611a5f5780601f10611a3457610100808354040283529160200191611a5f565b820191906000526020600020905b815481529060010190602001808311611a4257829003601f168201915b5050505050905090565b600080611a74612749565b90506000603460008373ffffffffffffffffffffffffffffffffffffffff1673ffffffffffffffffffffffffffffffffffffffff16815260200190815260200160002060008673ffffffffffffffffffffffffffffffffffffffff1673ffffffffffffffffffffffffffffffffffffffff16815260200190815260200160002054905083811015611b3a576040517f08c379a0000000000000000000000000000000000000000000000000000000008152600401611b31906137ec565b60405180910390fd5b611b478286868403612751565b60019250505092915050565b600080611b5e612749565b9050611b6b8185856129a8565b600191505092915050565b60606000611b846066612c2c565b90506000808267ffffffffffffffff811115611bc9577f4e487b7100000000000000000000000000000000000000000000000000000000600052604160045260246000fd5b604051908082528060200260200182016040528015611c0257816020015b611bef612df2565b815260200190600190039081611be75790505b50905060005b83811015611ffa573373ffffffffffffffffffffffffffffffffffffffff1660676000600184611c38919061391e565b815260200190815260200160002060030160009054906101000a900473ffffffffffffffffffffffffffffffffffffffff1673ffffffffffffffffffffffffffffffffffffffff161415611fe75760005b84811015611fe55760676000600184611ca2919061391e565b8152602001908152602001600020600101604051602001611cc391906135af565b6040516020818303038152906040528051906020012060676000600184611cea919061391e565b8152602001908152602001600020600101604051602001611d0b91906135af565b604051602081830303815290604052805190602001201415611fd257600060676000600184611d3a919061391e565b81526020019081526020016000209050806040518060a0016040529081600082018054611d6690613a1d565b80601f0160208091040260200160405190810160405280929190818152602001828054611d9290613a1d565b8015611ddf5780601f10611db457610100808354040283529160200191611ddf565b820191906000526020600020905b815481529060010190602001808311611dc257829003601f168201915b50505050508152602001600182018054611df890613a1d565b80601f0160208091040260200160405190810160405280929190818152602001828054611e2490613a1d565b8015611e715780601f10611e4657610100808354040283529160200191611e71565b820191906000526020600020905b815481529060010190602001808311611e5457829003601f168201915b50505050508152602001600282018054611e8a90613a1d565b80601f0160208091040260200160405190810160405280929190818152602001828054611eb690613a1d565b8015611f035780601f10611ed857610100808354040283529160200191611f03565b820191906000526020600020905b815481529060010190602001808311611ee657829003601f168201915b505050505081526020016003820160009054906101000a900473ffffffffffffffffffffffffffffffffffffffff1673ffffffffffffffffffffffffffffffffffffffff1673ffffffffffffffffffffffffffffffffffffffff1681526020016003820160149054906101000a900460ff161515151581525050848681518110611fb6577f4e487b7100000000000000000000000000000000000000000000000000000000600052603260045260246000fd5b6020026020010181905250600185611fce919061391e565b9450505b8080611fdd90613a80565b915050611c89565b505b8080611ff290613a80565b915050611c08565b5080935050505090565b6000806120116066612c2c565b9050600080600090505b8281101561213457846040516020016120349190613598565b604051602081830303815290604052805190602001206067600060018461205b919061391e565b815260200190815260200160002060010160405160200161207c91906135af565b604051602081830303815290604052805190602001201480156120d2575060011515606760006001846120af919061391e565b815260200190815260200160002060030160149054906101000a900460ff161515145b1561212157606760006001836120e8919061391e565b815260200190815260200160002060030160009054906101000a900473ffffffffffffffffffffffffffffffffffffffff169150612134565b808061212c90613a80565b91505061201b565b508092505050919050565b6000603460008473ffffffffffffffffffffffffffffffffffffffff1673ffffffffffffffffffffffffffffffffffffffff16815260200190815260200160002060008373ffffffffffffffffffffffffffffffffffffffff1673ffffffffffffffffffffffffffffffffffffffff16815260200190815260200160002054905092915050565b6121d06066612ca8565b60006121dc6066612c2c565b90506001151582151514156124e45760006121f685610fe1565b905060005b815181101561232c5760005b8381101561231857828281518110612248577f4e487b7100000000000000000000000000000000000000000000000000000000600052603260045260246000fd5b60200260200101516060015173ffffffffffffffffffffffffffffffffffffffff166067600060018461227b919061391e565b815260200190815260200160002060030160009054906101000a900473ffffffffffffffffffffffffffffffffffffffff1673ffffffffffffffffffffffffffffffffffffffff161415612305576000606760006001846122dc919061391e565b815260200190815260200160002060030160146101000a81548160ff0219169083151502179055505b808061231090613a80565b915050612207565b50808061232490613a80565b9150506121fb565b506000612338336115fd565b905060005b81518110156124e0576000612395838381518110612384577f4e487b7100000000000000000000000000000000000000000000000000000000600052603260045260246000fd5b602002602001015160200151610fe1565b905060005b81518110156124cb5760005b868110156124b7578282815181106123e7577f4e487b7100000000000000000000000000000000000000000000000000000000600052603260045260246000fd5b60200260200101516060015173ffffffffffffffffffffffffffffffffffffffff166067600060018461241a919061391e565b815260200190815260200160002060030160009054906101000a900473ffffffffffffffffffffffffffffffffffffffff1673ffffffffffffffffffffffffffffffffffffffff1614156124a45760006067600060018461247b919061391e565b815260200190815260200160002060030160146101000a81548160ff0219169083151502179055505b80806124af90613a80565b9150506123a6565b5080806124c390613a80565b91505061239a565b505080806124d890613a80565b91505061233d565b5050505b6040518060a001604052808681526020018581526020018481526020013373ffffffffffffffffffffffffffffffffffffffff168152602001831515815250606760008381526020019081526020016000206000820151816000019080519060200190612552929190612d6c565b50602082015181600101908051906020019061256f929190612d6c565b50604082015181600201908051906020019061258c929190612d6c565b5060608201518160030160006101000a81548173ffffffffffffffffffffffffffffffffffffffff021916908373ffffffffffffffffffffffffffffffffffffffff16021790555060808201518160030160146101000a81548160ff02191690831515021790555090505060005b818110156126c6573373ffffffffffffffffffffffffffffffffffffffff166067600060018461262a919061391e565b815260200190815260200160002060030160009054906101000a900473ffffffffffffffffffffffffffffffffffffffff1673ffffffffffffffffffffffffffffffffffffffff1614156126b357826067600060018461268a919061391e565b815260200190815260200160002060030160146101000a81548160ff0219169083151502179055505b80806126be90613a80565b9150506125fa565b50826040516126d59190613598565b6040518091039020846040516126eb9190613598565b6040518091039020866040516127019190613598565b60405180910390207f2e3249f822bd56e4e9ae7d39402def6df4618c14f212fbe4c35e0c94eddef9fe338660405161273a9291906135fc565b60405180910390a45050505050565b600033905090565b600073ffffffffffffffffffffffffffffffffffffffff168373ffffffffffffffffffffffffffffffffffffffff1614156127c1576040517f08c379a00000000000000000000000000000000000000000000000000000000081526004016127b8906137ac565b60405180910390fd5b600073ffffffffffffffffffffffffffffffffffffffff168273ffffffffffffffffffffffffffffffffffffffff161415612831576040517f08c379a00000000000000000000000000000000000000000000000000000000081526004016128289061370c565b60405180910390fd5b80603460008573ffffffffffffffffffffffffffffffffffffffff1673ffffffffffffffffffffffffffffffffffffffff16815260200190815260200160002060008473ffffffffffffffffffffffffffffffffffffffff1673ffffffffffffffffffffffffffffffffffffffff168152602001908152602001600020819055508173ffffffffffffffffffffffffffffffffffffffff168373ffffffffffffffffffffffffffffffffffffffff167f8c5be1e5ebec7d5bd14f71427d1e84f3dd0314c0f7b2291e5b200ac8c7c3b9258360405161290f919061380c565b60405180910390a3505050565b6000612928848461213f565b90507fffffffffffffffffffffffffffffffffffffffffffffffffffffffffffffffff81146129a25781811015612994576040517f08c379a000000000000000000000000000000000000000000000000000000000815260040161298b9061372c565b60405180910390fd5b6129a18484848403612751565b5b50505050565b600073ffffffffffffffffffffffffffffffffffffffff168373ffffffffffffffffffffffffffffffffffffffff161415612a18576040517f08c379a0000000000000000000000000000000000000000000000000000000008152600401612a0f9061378c565b60405180910390fd5b600073ffffffffffffffffffffffffffffffffffffffff168273ffffffffffffffffffffffffffffffffffffffff161415612a88576040517f08c379a0000000000000000000000000000000000000000000000000000000008152600401612a7f906136ec565b60405180910390fd5b612a93838383612cbe565b6000603360008573ffffffffffffffffffffffffffffffffffffffff1673ffffffffffffffffffffffffffffffffffffffff16815260200190815260200160002054905081811015612b1a576040517f08c379a0000000000000000000000000000000000000000000000000000000008152600401612b119061374c565b60405180910390fd5b818103603360008673ffffffffffffffffffffffffffffffffffffffff1673ffffffffffffffffffffffffffffffffffffffff1681526020019081526020016000208190555081603360008573ffffffffffffffffffffffffffffffffffffffff1673ffffffffffffffffffffffffffffffffffffffff1681526020019081526020016000206000828254612baf919061391e565b925050819055508273ffffffffffffffffffffffffffffffffffffffff168473ffffffffffffffffffffffffffffffffffffffff167fddf252ad1be2c89b69c2b068fc378daa952ba7f163c4a11628f55a4df523b3ef84604051612c13919061380c565b60405180910390a3612c26848484612cc3565b50505050565b600081600001549050919050565b6000612c4530612cc8565b15905090565b600060019054906101000a900460ff16612c9a576040517f08c379a0000000000000000000000000000000000000000000000000000000008152600401612c91906137cc565b60405180910390fd5b612ca48282612ceb565b5050565b6001816000016000828254019250508190555050565b505050565b505050565b6000808273ffffffffffffffffffffffffffffffffffffffff163b119050919050565b600060019054906101000a900460ff16612d3a576040517f08c379a0000000000000000000000000000000000000000000000000000000008152600401612d31906137cc565b60405180910390fd5b8160369080519060200190612d50929190612d6c565b508060379080519060200190612d67929190612d6c565b505050565b828054612d7890613a1d565b90600052602060002090601f016020900481019282612d9a5760008555612de1565b82601f10612db357805160ff1916838001178555612de1565b82800160010185558215612de1579182015b82811115612de0578251825591602001919060010190612dc5565b5b509050612dee9190612e39565b5090565b6040518060a00160405280606081526020016060815260200160608152602001600073ffffffffffffffffffffffffffffffffffffffff1681526020016000151581525090565b5b80821115612e52576000816000905550600101612e3a565b5090565b6000612e69612e6484613867565b613842565b905082815260208101848484011115612e8157600080fd5b612e8c8482856139db565b509392505050565b600081359050612ea381613e08565b92915050565b600081359050612eb881613e1f565b92915050565b600082601f830112612ecf57600080fd5b8135612edf848260208601612e56565b91505092915050565b600081359050612ef781613e36565b92915050565b600060208284031215612f0f57600080fd5b6000612f1d84828501612e94565b91505092915050565b60008060408385031215612f3957600080fd5b6000612f4785828601612e94565b9250506020612f5885828601612e94565b9150509250929050565b600080600060608486031215612f7757600080fd5b6000612f8586828701612e94565b9350506020612f9686828701612e94565b9250506040612fa786828701612ee8565b9150509250925092565b60008060408385031215612fc457600080fd5b6000612fd285828601612e94565b9250506020612fe385828601612ee8565b9150509250929050565b600060208284031215612fff57600080fd5b600082013567ffffffffffffffff81111561301957600080fd5b61302584828501612ebe565b91505092915050565b6000806000806080858703121561304457600080fd5b600085013567ffffffffffffffff81111561305e57600080fd5b61306a87828801612ebe565b945050602085013567ffffffffffffffff81111561308757600080fd5b61309387828801612ebe565b935050604085013567ffffffffffffffff8111156130b057600080fd5b6130bc87828801612ebe565b92505060606130cd87828801612ea9565b91505092959194509250565b600080600080608085870312156130ef57600080fd5b600085013567ffffffffffffffff81111561310957600080fd5b61311587828801612ebe565b945050602085013567ffffffffffffffff81111561313257600080fd5b61313e87828801612ebe565b935050604085013567ffffffffffffffff81111561315b57600080fd5b61316787828801612ebe565b925050606085013567ffffffffffffffff81111561318457600080fd5b61319087828801612ebe565b91505092959194509250565b6000602082840312156131ae57600080fd5b60006131bc84828501612ee8565b91505092915050565b60006131d183836134f6565b905092915050565b6131e281613986565b82525050565b6131f181613974565b82525050565b61320081613974565b82525050565b6000613211826138bd565b61321b81856138e0565b93508360208202850161322d85613898565b8060005b85811015613269578484038952815161324a85826131c5565b9450613255836138d3565b925060208a01995050600181019050613231565b50829750879550505050505092915050565b61328481613998565b82525050565b61329381613998565b82525050565b60006132a4826138c8565b6132ae81856138f1565b93506132be8185602086016139ea565b6132c781613b56565b840191505092915050565b60006132dd826138c8565b6132e78185613902565b93506132f78185602086016139ea565b61330081613b56565b840191505092915050565b6000613316826138c8565b6133208185613913565b93506133308185602086016139ea565b80840191505092915050565b6000815461334981613a1d565b6133538186613913565b9450600182166000811461336e576001811461337f576133b2565b60ff198316865281860193506133b2565b613388856138a8565b60005b838110156133aa5781548189015260018201915060208101905061338b565b838801955050505b50505092915050565b60006133c8602383613902565b91506133d382613b67565b604082019050919050565b60006133eb602283613902565b91506133f682613bb6565b604082019050919050565b600061340e601d83613902565b915061341982613c05565b602082019050919050565b6000613431602683613902565b915061343c82613c2e565b604082019050919050565b6000613454602e83613902565b915061345f82613c7d565b604082019050919050565b6000613477602583613902565b915061348282613ccc565b604082019050919050565b600061349a602483613902565b91506134a582613d1b565b604082019050919050565b60006134bd602b83613902565b91506134c882613d6a565b604082019050919050565b60006134e0602583613902565b91506134eb82613db9565b604082019050919050565b600060a08301600083015184820360008601526135138282613299565b9150506020830151848203602086015261352d8282613299565b915050604083015184820360408601526135478282613299565b915050606083015161355c60608601826131e8565b50608083015161356f608086018261327b565b508091505092915050565b613583816139c4565b82525050565b613592816139ce565b82525050565b60006135a4828461330b565b915081905092915050565b60006135bb828461333c565b915081905092915050565b60006020820190506135db60008301846131f7565b92915050565b60006020820190506135f660008301846131d9565b92915050565b600060408201905061361160008301856131f7565b61361e602083018461328a565b9392505050565b6000602082019050818103600083015261363f8184613206565b905092915050565b600060208201905061365c600083018461328a565b92915050565b6000602082019050818103600083015261367c81846132d2565b905092915050565b600060a082019050818103600083015261369e81886132d2565b905081810360208301526136b281876132d2565b905081810360408301526136c681866132d2565b90506136d560608301856131f7565b6136e2608083018461328a565b9695505050505050565b60006020820190508181036000830152613705816133bb565b9050919050565b60006020820190508181036000830152613725816133de565b9050919050565b6000602082019050818103600083015261374581613401565b9050919050565b6000602082019050818103600083015261376581613424565b9050919050565b6000602082019050818103600083015261378581613447565b9050919050565b600060208201905081810360008301526137a58161346a565b9050919050565b600060208201905081810360008301526137c58161348d565b9050919050565b600060208201905081810360008301526137e5816134b0565b9050919050565b60006020820190508181036000830152613805816134d3565b9050919050565b6000602082019050613821600083018461357a565b92915050565b600060208201905061383c6000830184613589565b92915050565b600061384c61385d565b90506138588282613a4f565b919050565b6000604051905090565b600067ffffffffffffffff82111561388257613881613b27565b5b61388b82613b56565b9050602081019050919050565b6000819050602082019050919050565b60008190508160005260206000209050919050565b600081519050919050565b600081519050919050565b6000602082019050919050565b600082825260208201905092915050565b600082825260208201905092915050565b600082825260208201905092915050565b600081905092915050565b6000613929826139c4565b9150613934836139c4565b9250827fffffffffffffffffffffffffffffffffffffffffffffffffffffffffffffffff0382111561396957613968613ac9565b5b828201905092915050565b600061397f826139a4565b9050919050565b6000613991826139a4565b9050919050565b60008115159050919050565b600073ffffffffffffffffffffffffffffffffffffffff82169050919050565b6000819050919050565b600060ff82169050919050565b82818337600083830152505050565b60005b83811015613a085780820151818401526020810190506139ed565b83811115613a17576000848401525b50505050565b60006002820490506001821680613a3557607f821691505b60208210811415613a4957613a48613af8565b5b50919050565b613a5882613b56565b810181811067ffffffffffffffff82111715613a7757613a76613b27565b5b80604052505050565b6000613a8b826139c4565b91507fffffffffffffffffffffffffffffffffffffffffffffffffffffffffffffffff821415613abe57613abd613ac9565b5b600182019050919050565b7f4e487b7100000000000000000000000000000000000000000000000000000000600052601160045260246000fd5b7f4e487b7100000000000000000000000000000000000000000000000000000000600052602260045260246000fd5b7f4e487b7100000000000000000000000000000000000000000000000000000000600052604160045260246000fd5b6000601f19601f8301169050919050565b7f45524332303a207472616e7366657220746f20746865207a65726f206164647260008201527f6573730000000000000000000000000000000000000000000000000000000000602082015250565b7f45524332303a20617070726f766520746f20746865207a65726f20616464726560008201527f7373000000000000000000000000000000000000000000000000000000000000602082015250565b7f45524332303a20696e73756666696369656e7420616c6c6f77616e6365000000600082015250565b7f45524332303a207472616e7366657220616d6f756e742065786365656473206260008201527f616c616e63650000000000000000000000000000000000000000000000000000602082015250565b7f496e697469616c697a61626c653a20636f6e747261637420697320616c72656160008201527f647920696e697469616c697a6564000000000000000000000000000000000000602082015250565b7f45524332303a207472616e736665722066726f6d20746865207a65726f20616460008201527f6472657373000000000000000000000000000000000000000000000000000000602082015250565b7f45524332303a20617070726f76652066726f6d20746865207a65726f2061646460008201527f7265737300000000000000000000000000000000000000000000000000000000602082015250565b7f496e697469616c697a61626c653a20636f6e7472616374206973206e6f74206960008201527f6e697469616c697a696e67000000000000000000000000000000000000000000602082015250565b7f45524332303a2064656372656173656420616c6c6f77616e63652062656c6f7760008201527f207a65726f000000000000000000000000000000000000000000000000000000602082015250565b613e1181613974565b8114613e1c57600080fd5b50565b613e2881613998565b8114613e3357600080fd5b50565b613e3f816139c4565b8114613e4a57600080fd5b5056fea2646970667358221220cc31560b98194f81bff75b864c78b176292f6523cf8a78791cd9dad6d30a3e0964736f6c63430008040033",
  "linkReferences": {},
  "deployedLinkReferences": {}
}