{
  "_format": "hh-sol-artifact-1",
  "contractName": "phoneLink",
  "sourceName": "contracts/phoneLink.sol",
  "abi": [
    {
      "anonymous": false,
      "inputs": [
        {
          "indexed": true,
          "internalType": "address",
          "name": "owner",
          "type": "address"
        },
        {
          "indexed": true,
          "internalType": "address",
          "name": "spender",
          "type": "address"
        },
        {
          "indexed": false,
          "internalType": "uint256",
          "name": "value",
          "type": "uint256"
        }
      ],
      "name": "Approval",
      "type": "event"
    },
    {
      "anonymous": false,
      "inputs": [
        {
          "indexed": true,
          "internalType": "string",
          "name": "name",
          "type": "string"
        },
        {
          "indexed": true,
          "internalType": "string",
          "name": "identifier",
          "type": "string"
        },
        {
          "indexed": true,
          "internalType": "string",
          "name": "typeOfIdentifier",
          "type": "string"
        },
        {
          "indexed": false,
          "internalType": "address",
          "name": "connectedWalletAddress",
          "type": "address"
        },
        {
          "indexed": false,
          "internalType": "bool",
          "name": "isPrimaryWallet",
          "type": "bool"
        }
      ],
      "name": "DetailsCreated",
      "type": "event"
    },
    {
      "anonymous": false,
      "inputs": [
        {
          "indexed": true,
          "internalType": "address",
          "name": "from",
          "type": "address"
        },
        {
          "indexed": true,
          "internalType": "address",
          "name": "to",
          "type": "address"
        },
        {
          "indexed": false,
          "internalType": "uint256",
          "name": "value",
          "type": "uint256"
        }
      ],
      "name": "Transfer",
      "type": "event"
    },
    {
      "inputs": [],
      "name": "_itemIds",
      "outputs": [
        {
          "internalType": "uint256",
          "name": "_value",
          "type": "uint256"
        }
      ],
      "stateMutability": "view",
      "type": "function"
    },
    {
      "inputs": [
        {
          "internalType": "address",
          "name": "owner",
          "type": "address"
        },
        {
          "internalType": "address",
          "name": "spender",
          "type": "address"
        }
      ],
      "name": "allowance",
      "outputs": [
        {
          "internalType": "uint256",
          "name": "",
          "type": "uint256"
        }
      ],
      "stateMutability": "view",
      "type": "function"
    },
    {
      "inputs": [
        {
          "internalType": "address",
          "name": "spender",
          "type": "address"
        },
        {
          "internalType": "uint256",
          "name": "amount",
          "type": "uint256"
        }
      ],
      "name": "approve",
      "outputs": [
        {
          "internalType": "bool",
          "name": "",
          "type": "bool"
        }
      ],
      "stateMutability": "nonpayable",
      "type": "function"
    },
    {
      "inputs": [
        {
          "internalType": "address",
          "name": "account",
          "type": "address"
        }
      ],
      "name": "balanceOf",
      "outputs": [
        {
          "internalType": "uint256",
          "name": "",
          "type": "uint256"
        }
      ],
      "stateMutability": "view",
      "type": "function"
    },
    {
      "inputs": [],
      "name": "decimals",
      "outputs": [
        {
          "internalType": "uint8",
          "name": "",
          "type": "uint8"
        }
      ],
      "stateMutability": "view",
      "type": "function"
    },
    {
      "inputs": [
        {
          "internalType": "address",
          "name": "spender",
          "type": "address"
        },
        {
          "internalType": "uint256",
          "name": "subtractedValue",
          "type": "uint256"
        }
      ],
      "name": "decreaseAllowance",
      "outputs": [
        {
          "internalType": "bool",
          "name": "",
          "type": "bool"
        }
      ],
      "stateMutability": "nonpayable",
      "type": "function"
    },
    {
      "inputs": [
        {
          "internalType": "string",
          "name": "name",
          "type": "string"
        },
        {
          "internalType": "string",
          "name": "identifier",
          "type": "string"
        },
        {
          "internalType": "string",
          "name": "typeOfIdentifier",
          "type": "string"
        },
        {
          "internalType": "string",
          "name": "oldIdentifier",
          "type": "string"
        }
      ],
      "name": "editProfile",
      "outputs": [],
      "stateMutability": "nonpayable",
      "type": "function"
    },
    {
      "inputs": [
        {
          "internalType": "string",
          "name": "name",
          "type": "string"
        },
        {
          "internalType": "string",
          "name": "identifier",
          "type": "string"
        },
        {
          "internalType": "string",
          "name": "typeOfIdentifier",
          "type": "string"
        },
        {
          "internalType": "bool",
          "name": "isPrimaryWallet",
          "type": "bool"
        }
      ],
      "name": "enterDetails",
      "outputs": [],
      "stateMutability": "nonpayable",
      "type": "function"
    },
    {
      "inputs": [
        {
          "internalType": "string",
          "name": "userIdentifier",
          "type": "string"
        }
      ],
      "name": "fetchAllWalletAddress",
      "outputs": [
        {
          "components": [
            {
              "internalType": "string",
              "name": "name",
              "type": "string"
            },
            {
              "internalType": "string",
              "name": "identifier",
              "type": "string"
            },
            {
              "internalType": "string",
              "name": "typeOfIdentifier",
              "type": "string"
            },
            {
              "internalType": "address",
              "name": "connectedWalletAddress",
              "type": "address"
            },
            {
              "internalType": "bool",
              "name": "isPrimaryWallet",
              "type": "bool"
            }
          ],
          "internalType": "struct phoneLink.Details[]",
          "name": "",
          "type": "tuple[]"
        }
      ],
      "stateMutability": "view",
      "type": "function"
    },
    {
      "inputs": [
        {
          "internalType": "string",
          "name": "userIdentifier",
          "type": "string"
        }
      ],
      "name": "fetchPrimaryWalletAddress",
      "outputs": [
        {
          "internalType": "address",
          "name": "",
          "type": "address"
        }
      ],
      "stateMutability": "view",
      "type": "function"
    },
    {
      "inputs": [],
      "name": "getMarketOwner",
      "outputs": [
        {
          "internalType": "address payable",
          "name": "",
          "type": "address"
        }
      ],
      "stateMutability": "view",
      "type": "function"
    },
    {
      "inputs": [],
      "name": "getPhoneToDetails",
      "outputs": [
        {
          "components": [
            {
              "internalType": "string",
              "name": "name",
              "type": "string"
            },
            {
              "internalType": "string",
              "name": "identifier",
              "type": "string"
            },
            {
              "internalType": "string",
              "name": "typeOfIdentifier",
              "type": "string"
            },
            {
              "internalType": "address",
              "name": "connectedWalletAddress",
              "type": "address"
            },
            {
              "internalType": "bool",
              "name": "isPrimaryWallet",
              "type": "bool"
            }
          ],
          "internalType": "struct phoneLink.Details[]",
          "name": "",
          "type": "tuple[]"
        }
      ],
      "stateMutability": "view",
      "type": "function"
    },
    {
      "inputs": [
        {
          "internalType": "address",
          "name": "walletAddress",
          "type": "address"
        }
      ],
      "name": "getWalletDetails",
      "outputs": [
        {
          "components": [
            {
              "internalType": "string",
              "name": "name",
              "type": "string"
            },
            {
              "internalType": "string",
              "name": "identifier",
              "type": "string"
            },
            {
              "internalType": "string",
              "name": "typeOfIdentifier",
              "type": "string"
            },
            {
              "internalType": "address",
              "name": "connectedWalletAddress",
              "type": "address"
            },
            {
              "internalType": "bool",
              "name": "isPrimaryWallet",
              "type": "bool"
            }
          ],
          "internalType": "struct phoneLink.Details[]",
          "name": "",
          "type": "tuple[]"
        }
      ],
      "stateMutability": "view",
      "type": "function"
    },
    {
      "inputs": [
        {
          "internalType": "address",
          "name": "spender",
          "type": "address"
        },
        {
          "internalType": "uint256",
          "name": "addedValue",
          "type": "uint256"
        }
      ],
      "name": "increaseAllowance",
      "outputs": [
        {
          "internalType": "bool",
          "name": "",
          "type": "bool"
        }
      ],
      "stateMutability": "nonpayable",
      "type": "function"
    },
    {
      "inputs": [],
      "name": "initialize",
      "outputs": [],
      "stateMutability": "nonpayable",
      "type": "function"
    },
    {
      "inputs": [
        {
          "internalType": "address",
          "name": "wallet",
          "type": "address"
        }
      ],
      "name": "makePrimary",
      "outputs": [],
      "stateMutability": "nonpayable",
      "type": "function"
    },
    {
      "inputs": [],
      "name": "marketowner",
      "outputs": [
        {
          "internalType": "address payable",
          "name": "",
          "type": "address"
        }
      ],
      "stateMutability": "view",
      "type": "function"
    },
    {
      "inputs": [],
      "name": "myWallets",
      "outputs": [
        {
          "components": [
            {
              "internalType": "string",
              "name": "name",
              "type": "string"
            },
            {
              "internalType": "string",
              "name": "identifier",
              "type": "string"
            },
            {
              "internalType": "string",
              "name": "typeOfIdentifier",
              "type": "string"
            },
            {
              "internalType": "address",
              "name": "connectedWalletAddress",
              "type": "address"
            },
            {
              "internalType": "bool",
              "name": "isPrimaryWallet",
              "type": "bool"
            }
          ],
          "internalType": "struct phoneLink.Details[]",
          "name": "",
          "type": "tuple[]"
        }
      ],
      "stateMutability": "view",
      "type": "function"
    },
    {
      "inputs": [],
      "name": "name",
      "outputs": [
        {
          "internalType": "string",
          "name": "",
          "type": "string"
        }
      ],
      "stateMutability": "view",
      "type": "function"
    },
    {
      "inputs": [
        {
          "internalType": "uint256",
          "name": "",
          "type": "uint256"
        }
      ],
      "name": "phoneToDetails",
      "outputs": [
        {
          "internalType": "string",
          "name": "name",
          "type": "string"
        },
        {
          "internalType": "string",
          "name": "identifier",
          "type": "string"
        },
        {
          "internalType": "string",
          "name": "typeOfIdentifier",
          "type": "string"
        },
        {
          "internalType": "address",
          "name": "connectedWalletAddress",
          "type": "address"
        },
        {
          "internalType": "bool",
          "name": "isPrimaryWallet",
          "type": "bool"
        }
      ],
      "stateMutability": "view",
      "type": "function"
    },
    {
      "inputs": [
        {
          "internalType": "address",
          "name": "destination",
          "type": "address"
        },
        {
          "internalType": "uint256",
          "name": "amount",
          "type": "uint256"
        }
      ],
      "name": "sendToken",
      "outputs": [],
      "stateMutability": "payable",
      "type": "function"
    },
    {
      "inputs": [],
      "name": "symbol",
      "outputs": [
        {
          "internalType": "string",
          "name": "",
          "type": "string"
        }
      ],
      "stateMutability": "view",
      "type": "function"
    },
    {
      "inputs": [],
      "name": "totalSupply",
      "outputs": [
        {
          "internalType": "uint256",
          "name": "",
          "type": "uint256"
        }
      ],
      "stateMutability": "view",
      "type": "function"
    },
    {
      "inputs": [
        {
          "internalType": "address",
          "name": "to",
          "type": "address"
        },
        {
          "internalType": "uint256",
          "name": "amount",
          "type": "uint256"
        }
      ],
      "name": "transfer",
      "outputs": [
        {
          "internalType": "bool",
          "name": "",
          "type": "bool"
        }
      ],
      "stateMutability": "nonpayable",
      "type": "function"
    },
    {
      "inputs": [
        {
          "internalType": "address",
          "name": "from",
          "type": "address"
        },
        {
          "internalType": "address",
          "name": "to",
          "type": "address"
        },
        {
          "internalType": "uint256",
          "name": "amount",
          "type": "uint256"
        }
      ],
      "name": "transferFrom",
      "outputs": [
        {
          "internalType": "bool",
          "name": "",
          "type": "bool"
        }
      ],
      "stateMutability": "nonpayable",
      "type": "function"
    }
  ],
  "bytecode": "0x608060405234801561001057600080fd5b50614398806100206000396000f3fe6080604052600436106101665760003560e01c80635e385b92116100d157806395d89b411161008a578063d263be4811610064578063d263be4814610571578063db461e1a1461059c578063dd62ed3e146105d9578063fcb02e731461061657610166565b806395d89b41146104cc578063a457c2d7146104f7578063a9059cbb1461053457610166565b80635e385b92146103aa5780636e997665146103d557806370a08231146104125780637136fc411461044f5780638129fc1c146104785780638cae45d21461048f57610166565b8063395093511161012357806339509351146102915780633e3a648d146102ce578063412664ae146102f7578063451e9cf01461031357806352d954911461033e5780635a12d0f81461037f57610166565b806306fdde031461016b578063095ea7b31461019657806318160ddd146101d357806323b872dd146101fe578063313ce5671461023b57806334a7f19314610266575b600080fd5b34801561017757600080fd5b5061018061063f565b60405161018d9190613b77565b60405180910390f35b3480156101a257600080fd5b506101bd60048036038101906101b891906134c6565b6106d1565b6040516101ca9190613b5c565b60405180910390f35b3480156101df57600080fd5b506101e86106f4565b6040516101f59190613d21565b60405180910390f35b34801561020a57600080fd5b5061022560048036038101906102209190613477565b6106fe565b6040516102329190613b5c565b60405180910390f35b34801561024757600080fd5b5061025061072d565b60405161025d9190613d3c565b60405180910390f35b34801561027257600080fd5b5061027b610736565b6040516102889190613d21565b60405180910390f35b34801561029d57600080fd5b506102b860048036038101906102b391906134c6565b610742565b6040516102c59190613b5c565b60405180910390f35b3480156102da57600080fd5b506102f560048036038101906102f091906135ee565b6107ec565b005b610311600480360381019061030c91906134c6565b610a28565b005b34801561031f57600080fd5b50610328610a73565b6040516103359190613af6565b60405180910390f35b34801561034a57600080fd5b50610365600480360381019061036091906136b1565b610a9d565b604051610376959493929190613b99565b60405180910390f35b34801561038b57600080fd5b50610394610c98565b6040516103a19190613b3a565b60405180910390f35b3480156103b657600080fd5b506103bf610fff565b6040516103cc9190613af6565b60405180910390f35b3480156103e157600080fd5b506103fc60048036038101906103f79190613502565b611025565b6040516104099190613b3a565b60405180910390f35b34801561041e57600080fd5b5061043960048036038101906104349190613412565b6114ab565b6040516104469190613d21565b60405180910390f35b34801561045b57600080fd5b5061047660048036038101906104719190613412565b6114f4565b005b34801561048457600080fd5b5061048d6119c5565b005b34801561049b57600080fd5b506104b660048036038101906104b19190613412565b611b12565b6040516104c39190613b3a565b60405180910390f35b3480156104d857600080fd5b506104e1611eec565b6040516104ee9190613b77565b60405180910390f35b34801561050357600080fd5b5061051e600480360381019061051991906134c6565b611f7e565b60405161052b9190613b5c565b60405180910390f35b34801561054057600080fd5b5061055b600480360381019061055691906134c6565b612068565b6040516105689190613b5c565b60405180910390f35b34801561057d57600080fd5b5061058661208b565b6040516105939190613b3a565b60405180910390f35b3480156105a857600080fd5b506105c360048036038101906105be9190613502565b612519565b6040516105d09190613adb565b60405180910390f35b3480156105e557600080fd5b5061060060048036038101906105fb919061343b565b612654565b60405161060d9190613d21565b60405180910390f35b34801561062257600080fd5b5061063d60048036038101906106389190613543565b6126db565b005b60606036805461064e90613f32565b80601f016020809104026020016040519081016040528092919081815260200182805461067a90613f32565b80156106c75780601f1061069c576101008083540402835291602001916106c7565b820191906000526020600020905b8154815290600101906020018083116106aa57829003601f168201915b5050505050905090565b6000806106dc612c5e565b90506106e9818585612c66565b600191505092915050565b6000603554905090565b600080610709612c5e565b9050610716858285612e31565b610721858585612ebd565b60019150509392505050565b60006012905090565b60668060000154905081565b60008061074d612c5e565b90506107e1818585603460008673ffffffffffffffffffffffffffffffffffffffff1673ffffffffffffffffffffffffffffffffffffffff16815260200190815260200160002060008973ffffffffffffffffffffffffffffffffffffffff1673ffffffffffffffffffffffffffffffffffffffff168152602001908152602001600020546107dc9190613e33565b612c66565b600191505092915050565b60006107f86066613141565b905060005b81811015610a20573373ffffffffffffffffffffffffffffffffffffffff166067600060018461082d9190613e33565b815260200190815260200160002060030160009054906101000a900473ffffffffffffffffffffffffffffffffffffffff1673ffffffffffffffffffffffffffffffffffffffff161415610a0d578360405160200161088c9190613aad565b60405160208183030381529060405280519060200120606760006001846108b39190613e33565b81526020019081526020016000206002016040516020016108d49190613ac4565b604051602081830303815290604052805190602001201415610a0c57826040516020016109019190613aad565b60405160208183030381529060405280519060200120606760006001846109289190613e33565b81526020019081526020016000206001016040516020016109499190613ac4565b604051602081830303815290604052805190602001201415610a0b5785606760006001846109779190613e33565b8152602001908152602001600020600001908051906020019061099b929190613281565b5084606760006001846109ae9190613e33565b815260200190815260200160002060010190805190602001906109d2929190613281565b5083606760006001846109e59190613e33565b81526020019081526020016000206002019080519060200190610a09929190613281565b505b5b5b8080610a1890613f95565b9150506107fd565b505050505050565b8173ffffffffffffffffffffffffffffffffffffffff166108fc829081150290604051600060405180830381858888f19350505050158015610a6e573d6000803e3d6000fd5b505050565b6000606560009054906101000a900473ffffffffffffffffffffffffffffffffffffffff16905090565b6067602052806000526040600020600091509050806000018054610ac090613f32565b80601f0160208091040260200160405190810160405280929190818152602001828054610aec90613f32565b8015610b395780601f10610b0e57610100808354040283529160200191610b39565b820191906000526020600020905b815481529060010190602001808311610b1c57829003601f168201915b505050505090806001018054610b4e90613f32565b80601f0160208091040260200160405190810160405280929190818152602001828054610b7a90613f32565b8015610bc75780601f10610b9c57610100808354040283529160200191610bc7565b820191906000526020600020905b815481529060010190602001808311610baa57829003601f168201915b505050505090806002018054610bdc90613f32565b80601f0160208091040260200160405190810160405280929190818152602001828054610c0890613f32565b8015610c555780601f10610c2a57610100808354040283529160200191610c55565b820191906000526020600020905b815481529060010190602001808311610c3857829003601f168201915b5050505050908060030160009054906101000a900473ffffffffffffffffffffffffffffffffffffffff16908060030160149054906101000a900460ff16905085565b60606000610ca66066613141565b90506000808267ffffffffffffffff811115610ceb577f4e487b7100000000000000000000000000000000000000000000000000000000600052604160045260246000fd5b604051908082528060200260200182016040528015610d2457816020015b610d11613307565b815260200190600190039081610d095790505b50905060005b83811015610ff5576000600182610d419190613e33565b90506000606760008381526020019081526020016000209050806040518060a0016040529081600082018054610d7690613f32565b80601f0160208091040260200160405190810160405280929190818152602001828054610da290613f32565b8015610def5780601f10610dc457610100808354040283529160200191610def565b820191906000526020600020905b815481529060010190602001808311610dd257829003601f168201915b50505050508152602001600182018054610e0890613f32565b80601f0160208091040260200160405190810160405280929190818152602001828054610e3490613f32565b8015610e815780601f10610e5657610100808354040283529160200191610e81565b820191906000526020600020905b815481529060010190602001808311610e6457829003601f168201915b50505050508152602001600282018054610e9a90613f32565b80601f0160208091040260200160405190810160405280929190818152602001828054610ec690613f32565b8015610f135780601f10610ee857610100808354040283529160200191610f13565b820191906000526020600020905b815481529060010190602001808311610ef657829003601f168201915b505050505081526020016003820160009054906101000a900473ffffffffffffffffffffffffffffffffffffffff1673ffffffffffffffffffffffffffffffffffffffff1673ffffffffffffffffffffffffffffffffffffffff1681526020016003820160149054906101000a900460ff161515151581525050848681518110610fc6577f4e487b7100000000000000000000000000000000000000000000000000000000600052603260045260246000fd5b6020026020010181905250600185610fde9190613e33565b945050508080610fed90613f95565b915050610d2a565b5080935050505090565b606560009054906101000a900473ffffffffffffffffffffffffffffffffffffffff1681565b606060006110336066613141565b905060008060005b838110156110db57856040516020016110549190613aad565b604051602081830303815290604052805190602001206067600060018461107b9190613e33565b815260200190815260200160002060010160405160200161109c9190613ac4565b6040516020818303038152906040528051906020012014156110c8576001836110c59190613e33565b92505b80806110d390613f95565b91505061103b565b5060008267ffffffffffffffff81111561111e577f4e487b7100000000000000000000000000000000000000000000000000000000600052604160045260246000fd5b60405190808252806020026020018201604052801561115757816020015b611144613307565b81526020019060019003908161113c5790505b50905060005b8481101561149e57866040516020016111769190613aad565b604051602081830303815290604052805190602001206067600060018461119d9190613e33565b81526020019081526020016000206001016040516020016111be9190613ac4565b60405160208183030381529060405280519060200120141561148b5760006001826111e99190613e33565b90506000606760008381526020019081526020016000209050806040518060a001604052908160008201805461121e90613f32565b80601f016020809104026020016040519081016040528092919081815260200182805461124a90613f32565b80156112975780601f1061126c57610100808354040283529160200191611297565b820191906000526020600020905b81548152906001019060200180831161127a57829003601f168201915b505050505081526020016001820180546112b090613f32565b80601f01602080910402602001604051908101604052809291908181526020018280546112dc90613f32565b80156113295780601f106112fe57610100808354040283529160200191611329565b820191906000526020600020905b81548152906001019060200180831161130c57829003601f168201915b5050505050815260200160028201805461134290613f32565b80601f016020809104026020016040519081016040528092919081815260200182805461136e90613f32565b80156113bb5780601f10611390576101008083540402835291602001916113bb565b820191906000526020600020905b81548152906001019060200180831161139e57829003601f168201915b505050505081526020016003820160009054906101000a900473ffffffffffffffffffffffffffffffffffffffff1673ffffffffffffffffffffffffffffffffffffffff1673ffffffffffffffffffffffffffffffffffffffff1681526020016003820160149054906101000a900460ff16151515158152505084868151811061146e577f4e487b7100000000000000000000000000000000000000000000000000000000600052603260045260246000fd5b60200260200101819052506001856114869190613e33565b945050505b808061149690613f95565b91505061115d565b5080945050505050919050565b6000603360008373ffffffffffffffffffffffffffffffffffffffff1673ffffffffffffffffffffffffffffffffffffffff168152602001908152602001600020549050919050565b60006115006066613141565b905060005b818110156115d2578273ffffffffffffffffffffffffffffffffffffffff16606760006001846115359190613e33565b815260200190815260200160002060030160009054906101000a900473ffffffffffffffffffffffffffffffffffffffff1673ffffffffffffffffffffffffffffffffffffffff1614156115bf576001606760006001846115969190613e33565b815260200190815260200160002060030160146101000a81548160ff0219169083151502179055505b80806115ca90613f95565b915050611505565b5060006115dd61208b565b905060005b81518110156119bf578373ffffffffffffffffffffffffffffffffffffffff1682828151811061163b577f4e487b7100000000000000000000000000000000000000000000000000000000600052603260045260246000fd5b60200260200101516060015173ffffffffffffffffffffffffffffffffffffffff16146119ac5760005b838110156119aa578282815181106116a6577f4e487b7100000000000000000000000000000000000000000000000000000000600052603260045260246000fd5b6020026020010151600001516040516020016116c29190613aad565b60405160208183030381529060405280519060200120606760006001846116e99190613e33565b815260200190815260200160002060000160405160200161170a9190613ac4565b604051602081830303815290604052805190602001201480156117dd5750828281518110611761577f4e487b7100000000000000000000000000000000000000000000000000000000600052603260045260246000fd5b60200260200101516040015160405160200161177d9190613aad565b60405160208183030381529060405280519060200120606760006001846117a49190613e33565b81526020019081526020016000206002016040516020016117c59190613ac4565b60405160208183030381529060405280519060200120145b8015611899575082828151811061181d577f4e487b7100000000000000000000000000000000000000000000000000000000600052603260045260246000fd5b6020026020010151602001516040516020016118399190613aad565b60405160208183030381529060405280519060200120606760006001846118609190613e33565b81526020019081526020016000206001016040516020016118819190613ac4565b60405160208183030381529060405280519060200120145b801561195657508282815181106118d9577f4e487b7100000000000000000000000000000000000000000000000000000000600052603260045260246000fd5b60200260200101516060015173ffffffffffffffffffffffffffffffffffffffff166067600060018461190c9190613e33565b815260200190815260200160002060030160009054906101000a900473ffffffffffffffffffffffffffffffffffffffff1673ffffffffffffffffffffffffffffffffffffffff16145b156119975760006067600060018461196e9190613e33565b815260200190815260200160002060030160146101000a81548160ff0219169083151502179055505b80806119a290613f95565b915050611665565b505b80806119b790613f95565b9150506115e2565b50505050565b600060019054906101000a900460ff166119ed5760008054906101000a900460ff16156119f6565b6119f561314f565b5b611a35576040517f08c379a0000000000000000000000000000000000000000000000000000000008152600401611a2c90613c81565b60405180910390fd5b60008060019054906101000a900460ff161590508015611a85576001600060016101000a81548160ff02191690831515021790555060016000806101000a81548160ff0219169083151502179055505b611aad6040518060200160405280600081525060405180602001604052806000815250613160565b33606560006101000a81548173ffffffffffffffffffffffffffffffffffffffff021916908373ffffffffffffffffffffffffffffffffffffffff1602179055508015611b0f5760008060016101000a81548160ff0219169083151502179055505b50565b60606000611b206066613141565b90506000808267ffffffffffffffff811115611b65577f4e487b7100000000000000000000000000000000000000000000000000000000600052604160045260246000fd5b604051908082528060200260200182016040528015611b9e57816020015b611b8b613307565b815260200190600190039081611b835790505b50905060005b83811015611ee0578573ffffffffffffffffffffffffffffffffffffffff1660676000600184611bd49190613e33565b815260200190815260200160002060030160009054906101000a900473ffffffffffffffffffffffffffffffffffffffff1673ffffffffffffffffffffffffffffffffffffffff161415611ecd57600060676000600184611c359190613e33565b81526020019081526020016000209050806040518060a0016040529081600082018054611c6190613f32565b80601f0160208091040260200160405190810160405280929190818152602001828054611c8d90613f32565b8015611cda5780601f10611caf57610100808354040283529160200191611cda565b820191906000526020600020905b815481529060010190602001808311611cbd57829003601f168201915b50505050508152602001600182018054611cf390613f32565b80601f0160208091040260200160405190810160405280929190818152602001828054611d1f90613f32565b8015611d6c5780601f10611d4157610100808354040283529160200191611d6c565b820191906000526020600020905b815481529060010190602001808311611d4f57829003601f168201915b50505050508152602001600282018054611d8590613f32565b80601f0160208091040260200160405190810160405280929190818152602001828054611db190613f32565b8015611dfe5780601f10611dd357610100808354040283529160200191611dfe565b820191906000526020600020905b815481529060010190602001808311611de157829003601f168201915b505050505081526020016003820160009054906101000a900473ffffffffffffffffffffffffffffffffffffffff1673ffffffffffffffffffffffffffffffffffffffff1673ffffffffffffffffffffffffffffffffffffffff1681526020016003820160149054906101000a900460ff161515151581525050838581518110611eb1577f4e487b7100000000000000000000000000000000000000000000000000000000600052603260045260246000fd5b6020026020010181905250600184611ec99190613e33565b9350505b8080611ed890613f95565b915050611ba4565b50809350505050919050565b606060378054611efb90613f32565b80601f0160208091040260200160405190810160405280929190818152602001828054611f2790613f32565b8015611f745780601f10611f4957610100808354040283529160200191611f74565b820191906000526020600020905b815481529060010190602001808311611f5757829003601f168201915b5050505050905090565b600080611f89612c5e565b90506000603460008373ffffffffffffffffffffffffffffffffffffffff1673ffffffffffffffffffffffffffffffffffffffff16815260200190815260200160002060008673ffffffffffffffffffffffffffffffffffffffff1673ffffffffffffffffffffffffffffffffffffffff1681526020019081526020016000205490508381101561204f576040517f08c379a000000000000000000000000000000000000000000000000000000000815260040161204690613d01565b60405180910390fd5b61205c8286868403612c66565b60019250505092915050565b600080612073612c5e565b9050612080818585612ebd565b600191505092915050565b606060006120996066613141565b90506000808267ffffffffffffffff8111156120de577f4e487b7100000000000000000000000000000000000000000000000000000000600052604160045260246000fd5b60405190808252806020026020018201604052801561211757816020015b612104613307565b8152602001906001900390816120fc5790505b50905060005b8381101561250f573373ffffffffffffffffffffffffffffffffffffffff166067600060018461214d9190613e33565b815260200190815260200160002060030160009054906101000a900473ffffffffffffffffffffffffffffffffffffffff1673ffffffffffffffffffffffffffffffffffffffff1614156124fc5760005b848110156124fa57606760006001846121b79190613e33565b81526020019081526020016000206001016040516020016121d89190613ac4565b60405160208183030381529060405280519060200120606760006001846121ff9190613e33565b81526020019081526020016000206001016040516020016122209190613ac4565b6040516020818303038152906040528051906020012014156124e75760006067600060018461224f9190613e33565b81526020019081526020016000209050806040518060a001604052908160008201805461227b90613f32565b80601f01602080910402602001604051908101604052809291908181526020018280546122a790613f32565b80156122f45780601f106122c9576101008083540402835291602001916122f4565b820191906000526020600020905b8154815290600101906020018083116122d757829003601f168201915b5050505050815260200160018201805461230d90613f32565b80601f016020809104026020016040519081016040528092919081815260200182805461233990613f32565b80156123865780601f1061235b57610100808354040283529160200191612386565b820191906000526020600020905b81548152906001019060200180831161236957829003601f168201915b5050505050815260200160028201805461239f90613f32565b80601f01602080910402602001604051908101604052809291908181526020018280546123cb90613f32565b80156124185780601f106123ed57610100808354040283529160200191612418565b820191906000526020600020905b8154815290600101906020018083116123fb57829003601f168201915b505050505081526020016003820160009054906101000a900473ffffffffffffffffffffffffffffffffffffffff1673ffffffffffffffffffffffffffffffffffffffff1673ffffffffffffffffffffffffffffffffffffffff1681526020016003820160149054906101000a900460ff1615151515815250508486815181106124cb577f4e487b7100000000000000000000000000000000000000000000000000000000600052603260045260246000fd5b60200260200101819052506001856124e39190613e33565b9450505b80806124f290613f95565b91505061219e565b505b808061250790613f95565b91505061211d565b5080935050505090565b6000806125266066613141565b9050600080600090505b8281101561264957846040516020016125499190613aad565b60405160208183030381529060405280519060200120606760006001846125709190613e33565b81526020019081526020016000206001016040516020016125919190613ac4565b604051602081830303815290604052805190602001201480156125e7575060011515606760006001846125c49190613e33565b815260200190815260200160002060030160149054906101000a900460ff161515145b1561263657606760006001836125fd9190613e33565b815260200190815260200160002060030160009054906101000a900473ffffffffffffffffffffffffffffffffffffffff169150612649565b808061264190613f95565b915050612530565b508092505050919050565b6000603460008473ffffffffffffffffffffffffffffffffffffffff1673ffffffffffffffffffffffffffffffffffffffff16815260200190815260200160002060008373ffffffffffffffffffffffffffffffffffffffff1673ffffffffffffffffffffffffffffffffffffffff16815260200190815260200160002054905092915050565b6126e560666131bd565b60006126f16066613141565b90506001151582151514156129f957600061270b85611025565b905060005b81518110156128415760005b8381101561282d5782828151811061275d577f4e487b7100000000000000000000000000000000000000000000000000000000600052603260045260246000fd5b60200260200101516060015173ffffffffffffffffffffffffffffffffffffffff16606760006001846127909190613e33565b815260200190815260200160002060030160009054906101000a900473ffffffffffffffffffffffffffffffffffffffff1673ffffffffffffffffffffffffffffffffffffffff16141561281a576000606760006001846127f19190613e33565b815260200190815260200160002060030160146101000a81548160ff0219169083151502179055505b808061282590613f95565b91505061271c565b50808061283990613f95565b915050612710565b50600061284d33611b12565b905060005b81518110156129f55760006128aa838381518110612899577f4e487b7100000000000000000000000000000000000000000000000000000000600052603260045260246000fd5b602002602001015160200151611025565b905060005b81518110156129e05760005b868110156129cc578282815181106128fc577f4e487b7100000000000000000000000000000000000000000000000000000000600052603260045260246000fd5b60200260200101516060015173ffffffffffffffffffffffffffffffffffffffff166067600060018461292f9190613e33565b815260200190815260200160002060030160009054906101000a900473ffffffffffffffffffffffffffffffffffffffff1673ffffffffffffffffffffffffffffffffffffffff1614156129b9576000606760006001846129909190613e33565b815260200190815260200160002060030160146101000a81548160ff0219169083151502179055505b80806129c490613f95565b9150506128bb565b5080806129d890613f95565b9150506128af565b505080806129ed90613f95565b915050612852565b5050505b6040518060a001604052808681526020018581526020018481526020013373ffffffffffffffffffffffffffffffffffffffff168152602001831515815250606760008381526020019081526020016000206000820151816000019080519060200190612a67929190613281565b506020820151816001019080519060200190612a84929190613281565b506040820151816002019080519060200190612aa1929190613281565b5060608201518160030160006101000a81548173ffffffffffffffffffffffffffffffffffffffff021916908373ffffffffffffffffffffffffffffffffffffffff16021790555060808201518160030160146101000a81548160ff02191690831515021790555090505060005b81811015612bdb573373ffffffffffffffffffffffffffffffffffffffff1660676000600184612b3f9190613e33565b815260200190815260200160002060030160009054906101000a900473ffffffffffffffffffffffffffffffffffffffff1673ffffffffffffffffffffffffffffffffffffffff161415612bc8578260676000600184612b9f9190613e33565b815260200190815260200160002060030160146101000a81548160ff0219169083151502179055505b8080612bd390613f95565b915050612b0f565b5082604051612bea9190613aad565b604051809103902084604051612c009190613aad565b604051809103902086604051612c169190613aad565b60405180910390207f2e3249f822bd56e4e9ae7d39402def6df4618c14f212fbe4c35e0c94eddef9fe3386604051612c4f929190613b11565b60405180910390a45050505050565b600033905090565b600073ffffffffffffffffffffffffffffffffffffffff168373ffffffffffffffffffffffffffffffffffffffff161415612cd6576040517f08c379a0000000000000000000000000000000000000000000000000000000008152600401612ccd90613cc1565b60405180910390fd5b600073ffffffffffffffffffffffffffffffffffffffff168273ffffffffffffffffffffffffffffffffffffffff161415612d46576040517f08c379a0000000000000000000000000000000000000000000000000000000008152600401612d3d90613c21565b60405180910390fd5b80603460008573ffffffffffffffffffffffffffffffffffffffff1673ffffffffffffffffffffffffffffffffffffffff16815260200190815260200160002060008473ffffffffffffffffffffffffffffffffffffffff1673ffffffffffffffffffffffffffffffffffffffff168152602001908152602001600020819055508173ffffffffffffffffffffffffffffffffffffffff168373ffffffffffffffffffffffffffffffffffffffff167f8c5be1e5ebec7d5bd14f71427d1e84f3dd0314c0f7b2291e5b200ac8c7c3b92583604051612e249190613d21565b60405180910390a3505050565b6000612e3d8484612654565b90507fffffffffffffffffffffffffffffffffffffffffffffffffffffffffffffffff8114612eb75781811015612ea9576040517f08c379a0000000000000000000000000000000000000000000000000000000008152600401612ea090613c41565b60405180910390fd5b612eb68484848403612c66565b5b50505050565b600073ffffffffffffffffffffffffffffffffffffffff168373ffffffffffffffffffffffffffffffffffffffff161415612f2d576040517f08c379a0000000000000000000000000000000000000000000000000000000008152600401612f2490613ca1565b60405180910390fd5b600073ffffffffffffffffffffffffffffffffffffffff168273ffffffffffffffffffffffffffffffffffffffff161415612f9d576040517f08c379a0000000000000000000000000000000000000000000000000000000008152600401612f9490613c01565b60405180910390fd5b612fa88383836131d3565b6000603360008573ffffffffffffffffffffffffffffffffffffffff1673ffffffffffffffffffffffffffffffffffffffff1681526020019081526020016000205490508181101561302f576040517f08c379a000000000000000000000000000000000000000000000000000000000815260040161302690613c61565b60405180910390fd5b818103603360008673ffffffffffffffffffffffffffffffffffffffff1673ffffffffffffffffffffffffffffffffffffffff1681526020019081526020016000208190555081603360008573ffffffffffffffffffffffffffffffffffffffff1673ffffffffffffffffffffffffffffffffffffffff16815260200190815260200160002060008282546130c49190613e33565b925050819055508273ffffffffffffffffffffffffffffffffffffffff168473ffffffffffffffffffffffffffffffffffffffff167fddf252ad1be2c89b69c2b068fc378daa952ba7f163c4a11628f55a4df523b3ef846040516131289190613d21565b60405180910390a361313b8484846131d8565b50505050565b600081600001549050919050565b600061315a306131dd565b15905090565b600060019054906101000a900460ff166131af576040517f08c379a00000000000000000000000000000000000000000000000000000000081526004016131a690613ce1565b60405180910390fd5b6131b98282613200565b5050565b6001816000016000828254019250508190555050565b505050565b505050565b6000808273ffffffffffffffffffffffffffffffffffffffff163b119050919050565b600060019054906101000a900460ff1661324f576040517f08c379a000000000000000000000000000000000000000000000000000000000815260040161324690613ce1565b60405180910390fd5b8160369080519060200190613265929190613281565b50806037908051906020019061327c929190613281565b505050565b82805461328d90613f32565b90600052602060002090601f0160209004810192826132af57600085556132f6565b82601f106132c857805160ff19168380011785556132f6565b828001600101855582156132f6579182015b828111156132f55782518255916020019190600101906132da565b5b509050613303919061334e565b5090565b6040518060a00160405280606081526020016060815260200160608152602001600073ffffffffffffffffffffffffffffffffffffffff1681526020016000151581525090565b5b8082111561336757600081600090555060010161334f565b5090565b600061337e61337984613d7c565b613d57565b90508281526020810184848401111561339657600080fd5b6133a1848285613ef0565b509392505050565b6000813590506133b88161431d565b92915050565b6000813590506133cd81614334565b92915050565b600082601f8301126133e457600080fd5b81356133f484826020860161336b565b91505092915050565b60008135905061340c8161434b565b92915050565b60006020828403121561342457600080fd5b6000613432848285016133a9565b91505092915050565b6000806040838503121561344e57600080fd5b600061345c858286016133a9565b925050602061346d858286016133a9565b9150509250929050565b60008060006060848603121561348c57600080fd5b600061349a868287016133a9565b93505060206134ab868287016133a9565b92505060406134bc868287016133fd565b9150509250925092565b600080604083850312156134d957600080fd5b60006134e7858286016133a9565b92505060206134f8858286016133fd565b9150509250929050565b60006020828403121561351457600080fd5b600082013567ffffffffffffffff81111561352e57600080fd5b61353a848285016133d3565b91505092915050565b6000806000806080858703121561355957600080fd5b600085013567ffffffffffffffff81111561357357600080fd5b61357f878288016133d3565b945050602085013567ffffffffffffffff81111561359c57600080fd5b6135a8878288016133d3565b935050604085013567ffffffffffffffff8111156135c557600080fd5b6135d1878288016133d3565b92505060606135e2878288016133be565b91505092959194509250565b6000806000806080858703121561360457600080fd5b600085013567ffffffffffffffff81111561361e57600080fd5b61362a878288016133d3565b945050602085013567ffffffffffffffff81111561364757600080fd5b613653878288016133d3565b935050604085013567ffffffffffffffff81111561367057600080fd5b61367c878288016133d3565b925050606085013567ffffffffffffffff81111561369957600080fd5b6136a5878288016133d3565b91505092959194509250565b6000602082840312156136c357600080fd5b60006136d1848285016133fd565b91505092915050565b60006136e68383613a0b565b905092915050565b6136f781613e9b565b82525050565b61370681613e89565b82525050565b61371581613e89565b82525050565b600061372682613dd2565b6137308185613df5565b93508360208202850161374285613dad565b8060005b8581101561377e578484038952815161375f85826136da565b945061376a83613de8565b925060208a01995050600181019050613746565b50829750879550505050505092915050565b61379981613ead565b82525050565b6137a881613ead565b82525050565b60006137b982613ddd565b6137c38185613e06565b93506137d3818560208601613eff565b6137dc8161406b565b840191505092915050565b60006137f282613ddd565b6137fc8185613e17565b935061380c818560208601613eff565b6138158161406b565b840191505092915050565b600061382b82613ddd565b6138358185613e28565b9350613845818560208601613eff565b80840191505092915050565b6000815461385e81613f32565b6138688186613e28565b945060018216600081146138835760018114613894576138c7565b60ff198316865281860193506138c7565b61389d85613dbd565b60005b838110156138bf578154818901526001820191506020810190506138a0565b838801955050505b50505092915050565b60006138dd602383613e17565b91506138e88261407c565b604082019050919050565b6000613900602283613e17565b915061390b826140cb565b604082019050919050565b6000613923601d83613e17565b915061392e8261411a565b602082019050919050565b6000613946602683613e17565b915061395182614143565b604082019050919050565b6000613969602e83613e17565b915061397482614192565b604082019050919050565b600061398c602583613e17565b9150613997826141e1565b604082019050919050565b60006139af602483613e17565b91506139ba82614230565b604082019050919050565b60006139d2602b83613e17565b91506139dd8261427f565b604082019050919050565b60006139f5602583613e17565b9150613a00826142ce565b604082019050919050565b600060a0830160008301518482036000860152613a2882826137ae565b91505060208301518482036020860152613a4282826137ae565b91505060408301518482036040860152613a5c82826137ae565b9150506060830151613a7160608601826136fd565b506080830151613a846080860182613790565b508091505092915050565b613a9881613ed9565b82525050565b613aa781613ee3565b82525050565b6000613ab98284613820565b915081905092915050565b6000613ad08284613851565b915081905092915050565b6000602082019050613af0600083018461370c565b92915050565b6000602082019050613b0b60008301846136ee565b92915050565b6000604082019050613b26600083018561370c565b613b33602083018461379f565b9392505050565b60006020820190508181036000830152613b54818461371b565b905092915050565b6000602082019050613b71600083018461379f565b92915050565b60006020820190508181036000830152613b9181846137e7565b905092915050565b600060a0820190508181036000830152613bb381886137e7565b90508181036020830152613bc781876137e7565b90508181036040830152613bdb81866137e7565b9050613bea606083018561370c565b613bf7608083018461379f565b9695505050505050565b60006020820190508181036000830152613c1a816138d0565b9050919050565b60006020820190508181036000830152613c3a816138f3565b9050919050565b60006020820190508181036000830152613c5a81613916565b9050919050565b60006020820190508181036000830152613c7a81613939565b9050919050565b60006020820190508181036000830152613c9a8161395c565b9050919050565b60006020820190508181036000830152613cba8161397f565b9050919050565b60006020820190508181036000830152613cda816139a2565b9050919050565b60006020820190508181036000830152613cfa816139c5565b9050919050565b60006020820190508181036000830152613d1a816139e8565b9050919050565b6000602082019050613d366000830184613a8f565b92915050565b6000602082019050613d516000830184613a9e565b92915050565b6000613d61613d72565b9050613d6d8282613f64565b919050565b6000604051905090565b600067ffffffffffffffff821115613d9757613d9661403c565b5b613da08261406b565b9050602081019050919050565b6000819050602082019050919050565b60008190508160005260206000209050919050565b600081519050919050565b600081519050919050565b6000602082019050919050565b600082825260208201905092915050565b600082825260208201905092915050565b600082825260208201905092915050565b600081905092915050565b6000613e3e82613ed9565b9150613e4983613ed9565b9250827fffffffffffffffffffffffffffffffffffffffffffffffffffffffffffffffff03821115613e7e57613e7d613fde565b5b828201905092915050565b6000613e9482613eb9565b9050919050565b6000613ea682613eb9565b9050919050565b60008115159050919050565b600073ffffffffffffffffffffffffffffffffffffffff82169050919050565b6000819050919050565b600060ff82169050919050565b82818337600083830152505050565b60005b83811015613f1d578082015181840152602081019050613f02565b83811115613f2c576000848401525b50505050565b60006002820490506001821680613f4a57607f821691505b60208210811415613f5e57613f5d61400d565b5b50919050565b613f6d8261406b565b810181811067ffffffffffffffff82111715613f8c57613f8b61403c565b5b80604052505050565b6000613fa082613ed9565b91507fffffffffffffffffffffffffffffffffffffffffffffffffffffffffffffffff821415613fd357613fd2613fde565b5b600182019050919050565b7f4e487b7100000000000000000000000000000000000000000000000000000000600052601160045260246000fd5b7f4e487b7100000000000000000000000000000000000000000000000000000000600052602260045260246000fd5b7f4e487b7100000000000000000000000000000000000000000000000000000000600052604160045260246000fd5b6000601f19601f8301169050919050565b7f45524332303a207472616e7366657220746f20746865207a65726f206164647260008201527f6573730000000000000000000000000000000000000000000000000000000000602082015250565b7f45524332303a20617070726f766520746f20746865207a65726f20616464726560008201527f7373000000000000000000000000000000000000000000000000000000000000602082015250565b7f45524332303a20696e73756666696369656e7420616c6c6f77616e6365000000600082015250565b7f45524332303a207472616e7366657220616d6f756e742065786365656473206260008201527f616c616e63650000000000000000000000000000000000000000000000000000602082015250565b7f496e697469616c697a61626c653a20636f6e747261637420697320616c72656160008201527f647920696e697469616c697a6564000000000000000000000000000000000000602082015250565b7f45524332303a207472616e736665722066726f6d20746865207a65726f20616460008201527f6472657373000000000000000000000000000000000000000000000000000000602082015250565b7f45524332303a20617070726f76652066726f6d20746865207a65726f2061646460008201527f7265737300000000000000000000000000000000000000000000000000000000602082015250565b7f496e697469616c697a61626c653a20636f6e7472616374206973206e6f74206960008201527f6e697469616c697a696e67000000000000000000000000000000000000000000602082015250565b7f45524332303a2064656372656173656420616c6c6f77616e63652062656c6f7760008201527f207a65726f000000000000000000000000000000000000000000000000000000602082015250565b61432681613e89565b811461433157600080fd5b50565b61433d81613ead565b811461434857600080fd5b50565b61435481613ed9565b811461435f57600080fd5b5056fea26469706673582212208adf922c52693bc5da2abba8084dc72e5df4bd782ac46442725e0b3dc2653f2f64736f6c63430008040033",
  "linkReferences": {},
  "deployedLinkReferences": {}
}