{
  "_format": "hh-sol-artifact-1",
  "contractName": "phoneLink",
  "sourceName": "contracts/phoneLink.sol",
  "abi": [
    {
      "anonymous": false,
      "inputs": [
        {
          "indexed": true,
          "internalType": "address",
          "name": "owner",
          "type": "address"
        },
        {
          "indexed": true,
          "internalType": "address",
          "name": "spender",
          "type": "address"
        },
        {
          "indexed": false,
          "internalType": "uint256",
          "name": "value",
          "type": "uint256"
        }
      ],
      "name": "Approval",
      "type": "event"
    },
    {
      "anonymous": false,
      "inputs": [
        {
          "indexed": true,
          "internalType": "string",
          "name": "name",
          "type": "string"
        },
        {
          "indexed": true,
          "internalType": "string",
          "name": "identifier",
          "type": "string"
        },
        {
          "indexed": true,
          "internalType": "string",
          "name": "typeOfIdentifier",
          "type": "string"
        },
        {
          "indexed": false,
          "internalType": "address",
          "name": "connectedWalletAddress",
          "type": "address"
        },
        {
          "indexed": false,
          "internalType": "bool",
          "name": "isPrimaryWallet",
          "type": "bool"
        }
      ],
      "name": "DetailsCreated",
      "type": "event"
    },
    {
      "anonymous": false,
      "inputs": [
        {
          "indexed": false,
          "internalType": "uint8",
          "name": "version",
          "type": "uint8"
        }
      ],
      "name": "Initialized",
      "type": "event"
    },
    {
      "anonymous": false,
      "inputs": [
        {
          "indexed": true,
          "internalType": "address",
          "name": "from",
          "type": "address"
        },
        {
          "indexed": true,
          "internalType": "address",
          "name": "to",
          "type": "address"
        },
        {
          "indexed": false,
          "internalType": "uint256",
          "name": "value",
          "type": "uint256"
        }
      ],
      "name": "Transfer",
      "type": "event"
    },
    {
      "inputs": [],
      "name": "_itemIds",
      "outputs": [
        {
          "internalType": "uint256",
          "name": "_value",
          "type": "uint256"
        }
      ],
      "stateMutability": "view",
      "type": "function"
    },
    {
      "inputs": [
        {
          "internalType": "address",
          "name": "owner",
          "type": "address"
        },
        {
          "internalType": "address",
          "name": "spender",
          "type": "address"
        }
      ],
      "name": "allowance",
      "outputs": [
        {
          "internalType": "uint256",
          "name": "",
          "type": "uint256"
        }
      ],
      "stateMutability": "view",
      "type": "function"
    },
    {
      "inputs": [
        {
          "internalType": "address",
          "name": "spender",
          "type": "address"
        },
        {
          "internalType": "uint256",
          "name": "amount",
          "type": "uint256"
        }
      ],
      "name": "approve",
      "outputs": [
        {
          "internalType": "bool",
          "name": "",
          "type": "bool"
        }
      ],
      "stateMutability": "nonpayable",
      "type": "function"
    },
    {
      "inputs": [
        {
          "internalType": "address",
          "name": "account",
          "type": "address"
        }
      ],
      "name": "balanceOf",
      "outputs": [
        {
          "internalType": "uint256",
          "name": "",
          "type": "uint256"
        }
      ],
      "stateMutability": "view",
      "type": "function"
    },
    {
      "inputs": [],
      "name": "decimals",
      "outputs": [
        {
          "internalType": "uint8",
          "name": "",
          "type": "uint8"
        }
      ],
      "stateMutability": "view",
      "type": "function"
    },
    {
      "inputs": [
        {
          "internalType": "address",
          "name": "spender",
          "type": "address"
        },
        {
          "internalType": "uint256",
          "name": "subtractedValue",
          "type": "uint256"
        }
      ],
      "name": "decreaseAllowance",
      "outputs": [
        {
          "internalType": "bool",
          "name": "",
          "type": "bool"
        }
      ],
      "stateMutability": "nonpayable",
      "type": "function"
    },
    {
      "inputs": [],
      "name": "deleteAll",
      "outputs": [],
      "stateMutability": "nonpayable",
      "type": "function"
    },
    {
      "inputs": [
        {
          "internalType": "string",
          "name": "name",
          "type": "string"
        },
        {
          "internalType": "string",
          "name": "identifier",
          "type": "string"
        },
        {
          "internalType": "string",
          "name": "typeOfIdentifier",
          "type": "string"
        },
        {
          "internalType": "string",
          "name": "oldIdentifier",
          "type": "string"
        }
      ],
      "name": "editProfile",
      "outputs": [],
      "stateMutability": "nonpayable",
      "type": "function"
    },
    {
      "inputs": [
        {
          "internalType": "string",
          "name": "name",
          "type": "string"
        },
        {
          "internalType": "string",
          "name": "identifier",
          "type": "string"
        },
        {
          "internalType": "string",
          "name": "typeOfIdentifier",
          "type": "string"
        }
      ],
      "name": "enterDetails",
      "outputs": [],
      "stateMutability": "nonpayable",
      "type": "function"
    },
    {
      "inputs": [
        {
          "internalType": "string",
          "name": "userIdentifier",
          "type": "string"
        }
      ],
      "name": "fetchAllWalletAddress",
      "outputs": [
        {
          "components": [
            {
              "internalType": "string",
              "name": "name",
              "type": "string"
            },
            {
              "internalType": "string",
              "name": "identifier",
              "type": "string"
            },
            {
              "internalType": "string",
              "name": "typeOfIdentifier",
              "type": "string"
            },
            {
              "internalType": "address",
              "name": "connectedWalletAddress",
              "type": "address"
            },
            {
              "internalType": "bool",
              "name": "isPrimaryWallet",
              "type": "bool"
            }
          ],
          "internalType": "struct phoneLink.Details[]",
          "name": "",
          "type": "tuple[]"
        }
      ],
      "stateMutability": "view",
      "type": "function"
    },
    {
      "inputs": [
        {
          "internalType": "string",
          "name": "userIdentifier",
          "type": "string"
        }
      ],
      "name": "fetchPrimaryWalletAddress",
      "outputs": [
        {
          "internalType": "address",
          "name": "",
          "type": "address"
        }
      ],
      "stateMutability": "view",
      "type": "function"
    },
    {
      "inputs": [],
      "name": "getMarketOwner",
      "outputs": [
        {
          "internalType": "address payable",
          "name": "",
          "type": "address"
        }
      ],
      "stateMutability": "view",
      "type": "function"
    },
    {
      "inputs": [],
      "name": "getPhoneToDetails",
      "outputs": [
        {
          "components": [
            {
              "internalType": "string",
              "name": "name",
              "type": "string"
            },
            {
              "internalType": "string",
              "name": "identifier",
              "type": "string"
            },
            {
              "internalType": "string",
              "name": "typeOfIdentifier",
              "type": "string"
            },
            {
              "internalType": "address",
              "name": "connectedWalletAddress",
              "type": "address"
            },
            {
              "internalType": "bool",
              "name": "isPrimaryWallet",
              "type": "bool"
            }
          ],
          "internalType": "struct phoneLink.Details[]",
          "name": "",
          "type": "tuple[]"
        }
      ],
      "stateMutability": "view",
      "type": "function"
    },
    {
      "inputs": [
        {
          "internalType": "address",
          "name": "walletAddress",
          "type": "address"
        }
      ],
      "name": "getWalletDetails",
      "outputs": [
        {
          "components": [
            {
              "internalType": "string",
              "name": "name",
              "type": "string"
            },
            {
              "internalType": "string",
              "name": "identifier",
              "type": "string"
            },
            {
              "internalType": "string",
              "name": "typeOfIdentifier",
              "type": "string"
            },
            {
              "internalType": "address",
              "name": "connectedWalletAddress",
              "type": "address"
            },
            {
              "internalType": "bool",
              "name": "isPrimaryWallet",
              "type": "bool"
            }
          ],
          "internalType": "struct phoneLink.Details[]",
          "name": "",
          "type": "tuple[]"
        }
      ],
      "stateMutability": "view",
      "type": "function"
    },
    {
      "inputs": [
        {
          "internalType": "address",
          "name": "spender",
          "type": "address"
        },
        {
          "internalType": "uint256",
          "name": "addedValue",
          "type": "uint256"
        }
      ],
      "name": "increaseAllowance",
      "outputs": [
        {
          "internalType": "bool",
          "name": "",
          "type": "bool"
        }
      ],
      "stateMutability": "nonpayable",
      "type": "function"
    },
    {
      "inputs": [],
      "name": "initialize",
      "outputs": [],
      "stateMutability": "nonpayable",
      "type": "function"
    },
    {
      "inputs": [
        {
          "internalType": "address",
          "name": "wallet",
          "type": "address"
        },
        {
          "internalType": "string",
          "name": "identifier",
          "type": "string"
        }
      ],
      "name": "makePrimary",
      "outputs": [],
      "stateMutability": "nonpayable",
      "type": "function"
    },
    {
      "inputs": [],
      "name": "marketowner",
      "outputs": [
        {
          "internalType": "address payable",
          "name": "",
          "type": "address"
        }
      ],
      "stateMutability": "view",
      "type": "function"
    },
    {
      "inputs": [],
      "name": "myWallets",
      "outputs": [
        {
          "components": [
            {
              "internalType": "string",
              "name": "name",
              "type": "string"
            },
            {
              "internalType": "string",
              "name": "identifier",
              "type": "string"
            },
            {
              "internalType": "string",
              "name": "typeOfIdentifier",
              "type": "string"
            },
            {
              "internalType": "address",
              "name": "connectedWalletAddress",
              "type": "address"
            },
            {
              "internalType": "bool",
              "name": "isPrimaryWallet",
              "type": "bool"
            }
          ],
          "internalType": "struct phoneLink.Details[]",
          "name": "",
          "type": "tuple[]"
        }
      ],
      "stateMutability": "view",
      "type": "function"
    },
    {
      "inputs": [],
      "name": "name",
      "outputs": [
        {
          "internalType": "string",
          "name": "",
          "type": "string"
        }
      ],
      "stateMutability": "view",
      "type": "function"
    },
    {
      "inputs": [
        {
          "internalType": "uint256",
          "name": "",
          "type": "uint256"
        }
      ],
      "name": "phoneToDetails",
      "outputs": [
        {
          "internalType": "string",
          "name": "name",
          "type": "string"
        },
        {
          "internalType": "string",
          "name": "identifier",
          "type": "string"
        },
        {
          "internalType": "string",
          "name": "typeOfIdentifier",
          "type": "string"
        },
        {
          "internalType": "address",
          "name": "connectedWalletAddress",
          "type": "address"
        },
        {
          "internalType": "bool",
          "name": "isPrimaryWallet",
          "type": "bool"
        }
      ],
      "stateMutability": "view",
      "type": "function"
    },
    {
      "inputs": [
        {
          "internalType": "address",
          "name": "destination",
          "type": "address"
        },
        {
          "internalType": "uint256",
          "name": "amount",
          "type": "uint256"
        }
      ],
      "name": "sendToken",
      "outputs": [],
      "stateMutability": "payable",
      "type": "function"
    },
    {
      "inputs": [],
      "name": "symbol",
      "outputs": [
        {
          "internalType": "string",
          "name": "",
          "type": "string"
        }
      ],
      "stateMutability": "view",
      "type": "function"
    },
    {
      "inputs": [],
      "name": "totalSupply",
      "outputs": [
        {
          "internalType": "uint256",
          "name": "",
          "type": "uint256"
        }
      ],
      "stateMutability": "view",
      "type": "function"
    },
    {
      "inputs": [
        {
          "internalType": "address",
          "name": "to",
          "type": "address"
        },
        {
          "internalType": "uint256",
          "name": "amount",
          "type": "uint256"
        }
      ],
      "name": "transfer",
      "outputs": [
        {
          "internalType": "bool",
          "name": "",
          "type": "bool"
        }
      ],
      "stateMutability": "nonpayable",
      "type": "function"
    },
    {
      "inputs": [
        {
          "internalType": "address",
          "name": "from",
          "type": "address"
        },
        {
          "internalType": "address",
          "name": "to",
          "type": "address"
        },
        {
          "internalType": "uint256",
          "name": "amount",
          "type": "uint256"
        }
      ],
      "name": "transferFrom",
      "outputs": [
        {
          "internalType": "bool",
          "name": "",
          "type": "bool"
        }
      ],
      "stateMutability": "nonpayable",
      "type": "function"
    },
    {
      "inputs": [
        {
          "internalType": "string",
          "name": "identifier",
          "type": "string"
        }
      ],
      "name": "uniqueEntry",
      "outputs": [
        {
          "internalType": "bool",
          "name": "",
          "type": "bool"
        }
      ],
      "stateMutability": "view",
      "type": "function"
    }
  ],
  "bytecode": "0x608060405234801561001057600080fd5b50614330806100206000396000f3fe60806040526004361061019c5760003560e01c806352d95491116100ec57806395d89b411161008a578063d137bc6c11610064578063d137bc6c146105fb578063d263be4814610624578063db461e1a1461064f578063dd62ed3e1461068c5761019c565b806395d89b4114610556578063a457c2d714610581578063a9059cbb146105be5761019c565b80636e997665116100c65780636e9976651461048857806370a08231146104c55780638129fc1c146105025780638cae45d2146105195761019c565b806352d95491146103f15780635a12d0f8146104325780635e385b921461045d5761019c565b8063313ce567116101595780633e3a648d116101335780633e3a648d1461036a578063412664ae14610393578063451e9cf0146103af5780634c164407146103da5761019c565b8063313ce567146102d757806334a7f19314610302578063395093511461032d5761019c565b806306fdde03146101a1578063095ea7b3146101cc5780630c60b3721461020957806315ccb6801461023257806318160ddd1461026f57806323b872dd1461029a575b600080fd5b3480156101ad57600080fd5b506101b66106c9565b6040516101c39190613acb565b60405180910390f35b3480156101d857600080fd5b506101f360048036038101906101ee91906133e1565b61075b565b6040516102009190613a95565b60405180910390f35b34801561021557600080fd5b50610230600480360381019061022b919061338d565b61077e565b005b34801561023e57600080fd5b506102596004803603810190610254919061341d565b610a00565b6040516102669190613a95565b60405180910390f35b34801561027b57600080fd5b50610284610b35565b6040516102919190613c95565b60405180910390f35b3480156102a657600080fd5b506102c160048036038101906102bc919061333e565b610b3f565b6040516102ce9190613a95565b60405180910390f35b3480156102e357600080fd5b506102ec610b6e565b6040516102f99190613cb0565b60405180910390f35b34801561030e57600080fd5b50610317610b77565b6040516103249190613c95565b60405180910390f35b34801561033957600080fd5b50610354600480360381019061034f91906133e1565b610b83565b6040516103619190613a95565b60405180910390f35b34801561037657600080fd5b50610391600480360381019061038c91906134f5565b610bba565b005b6103ad60048036038101906103a891906133e1565b610e4c565b005b3480156103bb57600080fd5b506103c4610eed565b6040516103d19190613a2f565b60405180910390f35b3480156103e657600080fd5b506103ef610f17565b005b3480156103fd57600080fd5b50610418600480360381019061041391906135b8565b610fde565b604051610429959493929190613aed565b60405180910390f35b34801561043e57600080fd5b506104476111d9565b6040516104549190613a73565b60405180910390f35b34801561046957600080fd5b50610472611540565b60405161047f9190613a2f565b60405180910390f35b34801561049457600080fd5b506104af60048036038101906104aa919061341d565b611566565b6040516104bc9190613a73565b60405180910390f35b3480156104d157600080fd5b506104ec60048036038101906104e791906132d9565b6119ec565b6040516104f99190613c95565b60405180910390f35b34801561050e57600080fd5b50610517611a35565b005b34801561052557600080fd5b50610540600480360381019061053b91906132d9565b611b32565b60405161054d9190613a73565b60405180910390f35b34801561056257600080fd5b5061056b611f0c565b6040516105789190613acb565b60405180910390f35b34801561058d57600080fd5b506105a860048036038101906105a391906133e1565b611f9e565b6040516105b59190613a95565b60405180910390f35b3480156105ca57600080fd5b506105e560048036038101906105e091906133e1565b612015565b6040516105f29190613a95565b60405180910390f35b34801561060757600080fd5b50610622600480360381019061061d919061345e565b612038565b005b34801561063057600080fd5b5061063961230c565b6040516106469190613a73565b60405180910390f35b34801561065b57600080fd5b506106766004803603810190610671919061341d565b61279a565b6040516106839190613a14565b60405180910390f35b34801561069857600080fd5b506106b360048036038101906106ae9190613302565b6128d5565b6040516106c09190613c95565b60405180910390f35b6060603680546106d890613eb8565b80601f016020809104026020016040519081016040528092919081815260200182805461070490613eb8565b80156107515780601f1061072657610100808354040283529160200191610751565b820191906000526020600020905b81548152906001019060200180831161073457829003601f168201915b5050505050905090565b60008061076661295c565b9050610773818585612964565b600191505092915050565b600260655414156107c4576040517f08c379a00000000000000000000000000000000000000000000000000000000081526004016107bb90613c55565b60405180910390fd5b600260658190555060006107d86098612b2f565b905060005b818110156108a957826040516020016107f691906139e6565b604051602081830303815290604052805190602001206099600060018461081d9190613da7565b815260200190815260200160002060010160405160200161083e91906139fd565b6040516020818303038152906040528051906020012014156108965760006099600060018461086d9190613da7565b815260200190815260200160002060030160146101000a81548160ff0219169083151502179055505b80806108a190613f1b565b9150506107dd565b5060005b818110156109f2578373ffffffffffffffffffffffffffffffffffffffff16609960006001846108dd9190613da7565b815260200190815260200160002060030160009054906101000a900473ffffffffffffffffffffffffffffffffffffffff1673ffffffffffffffffffffffffffffffffffffffff1614801561099e57508260405160200161093e91906139e6565b60405160208183030381529060405280519060200120609960006001846109659190613da7565b815260200190815260200160002060010160405160200161098691906139fd565b60405160208183030381529060405280519060200120145b156109df576001609960006001846109b69190613da7565b815260200190815260200160002060030160146101000a81548160ff0219169083151502179055505b80806109ea90613f1b565b9150506108ad565b505060016065819055505050565b600080600190506000610a136098612b2f565b905060005b81811015610b2a573373ffffffffffffffffffffffffffffffffffffffff1660996000600184610a489190613da7565b815260200190815260200160002060030160009054906101000a900473ffffffffffffffffffffffffffffffffffffffff1673ffffffffffffffffffffffffffffffffffffffff16148015610b09575084604051602001610aa991906139e6565b6040516020818303038152906040528051906020012060996000600184610ad09190613da7565b8152602001908152602001600020600101604051602001610af191906139fd565b60405160208183030381529060405280519060200120145b15610b175760009250610b2a565b8080610b2290613f1b565b915050610a18565b508192505050919050565b6000603554905090565b600080610b4a61295c565b9050610b57858285612b3d565b610b62858585612bc9565b60019150509392505050565b60006012905090565b60988060000154905081565b600080610b8e61295c565b9050610baf818585610ba085896128d5565b610baa9190613da7565b612964565b600191505092915050565b60026065541415610c00576040517f08c379a0000000000000000000000000000000000000000000000000000000008152600401610bf790613c55565b60405180910390fd5b60026065819055506000610c146098612b2f565b905060005b81811015610e3c573373ffffffffffffffffffffffffffffffffffffffff1660996000600184610c499190613da7565b815260200190815260200160002060030160009054906101000a900473ffffffffffffffffffffffffffffffffffffffff1673ffffffffffffffffffffffffffffffffffffffff161415610e295783604051602001610ca891906139e6565b6040516020818303038152906040528051906020012060996000600184610ccf9190613da7565b8152602001908152602001600020600201604051602001610cf091906139fd565b604051602081830303815290604052805190602001201415610e285782604051602001610d1d91906139e6565b6040516020818303038152906040528051906020012060996000600184610d449190613da7565b8152602001908152602001600020600101604051602001610d6591906139fd565b604051602081830303815290604052805190602001201415610e27578560996000600184610d939190613da7565b81526020019081526020016000206000019080519060200190610db792919061311d565b508460996000600184610dca9190613da7565b81526020019081526020016000206001019080519060200190610dee92919061311d565b508360996000600184610e019190613da7565b81526020019081526020016000206002019080519060200190610e2592919061311d565b505b5b5b8080610e3490613f1b565b915050610c19565b5050600160658190555050505050565b60026065541415610e92576040517f08c379a0000000000000000000000000000000000000000000000000000000008152600401610e8990613c55565b60405180910390fd5b60026065819055508173ffffffffffffffffffffffffffffffffffffffff166108fc829081150290604051600060405180830381858888f19350505050158015610ee0573d6000803e3d6000fd5b5060016065819055505050565b6000609760009054906101000a900473ffffffffffffffffffffffffffffffffffffffff16905090565b6000610f236098612b2f565b905060005b81811015610fd05760996000600183610f419190613da7565b815260200190815260200160002060008082016000610f6091906131a3565b600182016000610f7091906131a3565b600282016000610f8091906131a3565b6003820160006101000a81549073ffffffffffffffffffffffffffffffffffffffff02191690556003820160146101000a81549060ff021916905550508080610fc890613f1b565b915050610f28565b50610fdb6098612e4d565b50565b609960205280600052604060002060009150905080600001805461100190613eb8565b80601f016020809104026020016040519081016040528092919081815260200182805461102d90613eb8565b801561107a5780601f1061104f5761010080835404028352916020019161107a565b820191906000526020600020905b81548152906001019060200180831161105d57829003601f168201915b50505050509080600101805461108f90613eb8565b80601f01602080910402602001604051908101604052809291908181526020018280546110bb90613eb8565b80156111085780601f106110dd57610100808354040283529160200191611108565b820191906000526020600020905b8154815290600101906020018083116110eb57829003601f168201915b50505050509080600201805461111d90613eb8565b80601f016020809104026020016040519081016040528092919081815260200182805461114990613eb8565b80156111965780601f1061116b57610100808354040283529160200191611196565b820191906000526020600020905b81548152906001019060200180831161117957829003601f168201915b5050505050908060030160009054906101000a900473ffffffffffffffffffffffffffffffffffffffff16908060030160149054906101000a900460ff16905085565b606060006111e76098612b2f565b90506000808267ffffffffffffffff81111561122c577f4e487b7100000000000000000000000000000000000000000000000000000000600052604160045260246000fd5b60405190808252806020026020018201604052801561126557816020015b6112526131e3565b81526020019060019003908161124a5790505b50905060005b838110156115365760006001826112829190613da7565b90506000609960008381526020019081526020016000209050806040518060a00160405290816000820180546112b790613eb8565b80601f01602080910402602001604051908101604052809291908181526020018280546112e390613eb8565b80156113305780601f1061130557610100808354040283529160200191611330565b820191906000526020600020905b81548152906001019060200180831161131357829003601f168201915b5050505050815260200160018201805461134990613eb8565b80601f016020809104026020016040519081016040528092919081815260200182805461137590613eb8565b80156113c25780601f10611397576101008083540402835291602001916113c2565b820191906000526020600020905b8154815290600101906020018083116113a557829003601f168201915b505050505081526020016002820180546113db90613eb8565b80601f016020809104026020016040519081016040528092919081815260200182805461140790613eb8565b80156114545780601f1061142957610100808354040283529160200191611454565b820191906000526020600020905b81548152906001019060200180831161143757829003601f168201915b505050505081526020016003820160009054906101000a900473ffffffffffffffffffffffffffffffffffffffff1673ffffffffffffffffffffffffffffffffffffffff1673ffffffffffffffffffffffffffffffffffffffff1681526020016003820160149054906101000a900460ff161515151581525050848681518110611507577f4e487b7100000000000000000000000000000000000000000000000000000000600052603260045260246000fd5b602002602001018190525060018561151f9190613da7565b94505050808061152e90613f1b565b91505061126b565b5080935050505090565b609760009054906101000a900473ffffffffffffffffffffffffffffffffffffffff1681565b606060006115746098612b2f565b905060008060005b8381101561161c578560405160200161159591906139e6565b60405160208183030381529060405280519060200120609960006001846115bc9190613da7565b81526020019081526020016000206001016040516020016115dd91906139fd565b604051602081830303815290604052805190602001201415611609576001836116069190613da7565b92505b808061161490613f1b565b91505061157c565b5060008267ffffffffffffffff81111561165f577f4e487b7100000000000000000000000000000000000000000000000000000000600052604160045260246000fd5b60405190808252806020026020018201604052801561169857816020015b6116856131e3565b81526020019060019003908161167d5790505b50905060005b848110156119df57866040516020016116b791906139e6565b60405160208183030381529060405280519060200120609960006001846116de9190613da7565b81526020019081526020016000206001016040516020016116ff91906139fd565b6040516020818303038152906040528051906020012014156119cc57600060018261172a9190613da7565b90506000609960008381526020019081526020016000209050806040518060a001604052908160008201805461175f90613eb8565b80601f016020809104026020016040519081016040528092919081815260200182805461178b90613eb8565b80156117d85780601f106117ad576101008083540402835291602001916117d8565b820191906000526020600020905b8154815290600101906020018083116117bb57829003601f168201915b505050505081526020016001820180546117f190613eb8565b80601f016020809104026020016040519081016040528092919081815260200182805461181d90613eb8565b801561186a5780601f1061183f5761010080835404028352916020019161186a565b820191906000526020600020905b81548152906001019060200180831161184d57829003601f168201915b5050505050815260200160028201805461188390613eb8565b80601f01602080910402602001604051908101604052809291908181526020018280546118af90613eb8565b80156118fc5780601f106118d1576101008083540402835291602001916118fc565b820191906000526020600020905b8154815290600101906020018083116118df57829003601f168201915b505050505081526020016003820160009054906101000a900473ffffffffffffffffffffffffffffffffffffffff1673ffffffffffffffffffffffffffffffffffffffff1673ffffffffffffffffffffffffffffffffffffffff1681526020016003820160149054906101000a900460ff1615151515815250508486815181106119af577f4e487b7100000000000000000000000000000000000000000000000000000000600052603260045260246000fd5b60200260200101819052506001856119c79190613da7565b945050505b80806119d790613f1b565b91505061169e565b5080945050505050919050565b6000603360008373ffffffffffffffffffffffffffffffffffffffff1673ffffffffffffffffffffffffffffffffffffffff168152602001908152602001600020549050919050565b6000611a416001612e5a565b90508015611a65576001600060016101000a81548160ff0219169083151502179055505b611a8d6040518060200160405280600081525060405180602001604052806000815250612f4a565b611a95612fa7565b33609760006101000a81548173ffffffffffffffffffffffffffffffffffffffff021916908373ffffffffffffffffffffffffffffffffffffffff1602179055508015611b2f5760008060016101000a81548160ff0219169083151502179055507f7f26b83ff96e1f2b6a682f133852f6798a09c465da95921460cefb38474024986001604051611b269190613ab0565b60405180910390a15b50565b60606000611b406098612b2f565b90506000808267ffffffffffffffff811115611b85577f4e487b7100000000000000000000000000000000000000000000000000000000600052604160045260246000fd5b604051908082528060200260200182016040528015611bbe57816020015b611bab6131e3565b815260200190600190039081611ba35790505b50905060005b83811015611f00578573ffffffffffffffffffffffffffffffffffffffff1660996000600184611bf49190613da7565b815260200190815260200160002060030160009054906101000a900473ffffffffffffffffffffffffffffffffffffffff1673ffffffffffffffffffffffffffffffffffffffff161415611eed57600060996000600184611c559190613da7565b81526020019081526020016000209050806040518060a0016040529081600082018054611c8190613eb8565b80601f0160208091040260200160405190810160405280929190818152602001828054611cad90613eb8565b8015611cfa5780601f10611ccf57610100808354040283529160200191611cfa565b820191906000526020600020905b815481529060010190602001808311611cdd57829003601f168201915b50505050508152602001600182018054611d1390613eb8565b80601f0160208091040260200160405190810160405280929190818152602001828054611d3f90613eb8565b8015611d8c5780601f10611d6157610100808354040283529160200191611d8c565b820191906000526020600020905b815481529060010190602001808311611d6f57829003601f168201915b50505050508152602001600282018054611da590613eb8565b80601f0160208091040260200160405190810160405280929190818152602001828054611dd190613eb8565b8015611e1e5780601f10611df357610100808354040283529160200191611e1e565b820191906000526020600020905b815481529060010190602001808311611e0157829003601f168201915b505050505081526020016003820160009054906101000a900473ffffffffffffffffffffffffffffffffffffffff1673ffffffffffffffffffffffffffffffffffffffff1673ffffffffffffffffffffffffffffffffffffffff1681526020016003820160149054906101000a900460ff161515151581525050838581518110611ed1577f4e487b7100000000000000000000000000000000000000000000000000000000600052603260045260246000fd5b6020026020010181905250600184611ee99190613da7565b9350505b8080611ef890613f1b565b915050611bc4565b50809350505050919050565b606060378054611f1b90613eb8565b80601f0160208091040260200160405190810160405280929190818152602001828054611f4790613eb8565b8015611f945780601f10611f6957610100808354040283529160200191611f94565b820191906000526020600020905b815481529060010190602001808311611f7757829003601f168201915b5050505050905090565b600080611fa961295c565b90506000611fb782866128d5565b905083811015611ffc576040517f08c379a0000000000000000000000000000000000000000000000000000000008152600401611ff390613c75565b60405180910390fd5b6120098286868403612964565b60019250505092915050565b60008061202061295c565b905061202d818585612bc9565b600191505092915050565b6002606554141561207e576040517f08c379a000000000000000000000000000000000000000000000000000000000815260040161207590613c55565b60405180910390fd5b60026065819055506120906098613000565b600061209c6098612b2f565b905060005b8181101561216d57836040516020016120ba91906139e6565b60405160208183030381529060405280519060200120609960006001846120e19190613da7565b815260200190815260200160002060010160405160200161210291906139fd565b60405160208183030381529060405280519060200120141561215a576000609960006001846121319190613da7565b815260200190815260200160002060030160146101000a81548160ff0219169083151502179055505b808061216590613f1b565b9150506120a1565b506040518060a001604052808581526020018481526020018381526020013373ffffffffffffffffffffffffffffffffffffffff168152602001600115158152506099600083815260200190815260200160002060008201518160000190805190602001906121dd92919061311d565b5060208201518160010190805190602001906121fa92919061311d565b50604082015181600201908051906020019061221792919061311d565b5060608201518160030160006101000a81548173ffffffffffffffffffffffffffffffffffffffff021916908373ffffffffffffffffffffffffffffffffffffffff16021790555060808201518160030160146101000a81548160ff0219169083151502179055509050508160405161229091906139e6565b6040518091039020836040516122a691906139e6565b6040518091039020856040516122bc91906139e6565b60405180910390207f2e3249f822bd56e4e9ae7d39402def6df4618c14f212fbe4c35e0c94eddef9fe3360016040516122f6929190613a4a565b60405180910390a4506001606581905550505050565b6060600061231a6098612b2f565b90506000808267ffffffffffffffff81111561235f577f4e487b7100000000000000000000000000000000000000000000000000000000600052604160045260246000fd5b60405190808252806020026020018201604052801561239857816020015b6123856131e3565b81526020019060019003908161237d5790505b50905060005b83811015612790573373ffffffffffffffffffffffffffffffffffffffff16609960006001846123ce9190613da7565b815260200190815260200160002060030160009054906101000a900473ffffffffffffffffffffffffffffffffffffffff1673ffffffffffffffffffffffffffffffffffffffff16141561277d5760005b8481101561277b57609960006001846124389190613da7565b815260200190815260200160002060010160405160200161245991906139fd565b60405160208183030381529060405280519060200120609960006001846124809190613da7565b81526020019081526020016000206001016040516020016124a191906139fd565b604051602081830303815290604052805190602001201415612768576000609960006001846124d09190613da7565b81526020019081526020016000209050806040518060a00160405290816000820180546124fc90613eb8565b80601f016020809104026020016040519081016040528092919081815260200182805461252890613eb8565b80156125755780601f1061254a57610100808354040283529160200191612575565b820191906000526020600020905b81548152906001019060200180831161255857829003601f168201915b5050505050815260200160018201805461258e90613eb8565b80601f01602080910402602001604051908101604052809291908181526020018280546125ba90613eb8565b80156126075780601f106125dc57610100808354040283529160200191612607565b820191906000526020600020905b8154815290600101906020018083116125ea57829003601f168201915b5050505050815260200160028201805461262090613eb8565b80601f016020809104026020016040519081016040528092919081815260200182805461264c90613eb8565b80156126995780601f1061266e57610100808354040283529160200191612699565b820191906000526020600020905b81548152906001019060200180831161267c57829003601f168201915b505050505081526020016003820160009054906101000a900473ffffffffffffffffffffffffffffffffffffffff1673ffffffffffffffffffffffffffffffffffffffff1673ffffffffffffffffffffffffffffffffffffffff1681526020016003820160149054906101000a900460ff16151515158152505084868151811061274c577f4e487b7100000000000000000000000000000000000000000000000000000000600052603260045260246000fd5b60200260200101819052506001856127649190613da7565b9450505b808061277390613f1b565b91505061241f565b505b808061278890613f1b565b91505061239e565b5080935050505090565b6000806127a76098612b2f565b9050600080600090505b828110156128ca57846040516020016127ca91906139e6565b60405160208183030381529060405280519060200120609960006001846127f19190613da7565b815260200190815260200160002060010160405160200161281291906139fd565b60405160208183030381529060405280519060200120148015612868575060011515609960006001846128459190613da7565b815260200190815260200160002060030160149054906101000a900460ff161515145b156128b7576099600060018361287e9190613da7565b815260200190815260200160002060030160009054906101000a900473ffffffffffffffffffffffffffffffffffffffff1691506128ca565b80806128c290613f1b565b9150506127b1565b508092505050919050565b6000603460008473ffffffffffffffffffffffffffffffffffffffff1673ffffffffffffffffffffffffffffffffffffffff16815260200190815260200160002060008373ffffffffffffffffffffffffffffffffffffffff1673ffffffffffffffffffffffffffffffffffffffff16815260200190815260200160002054905092915050565b600033905090565b600073ffffffffffffffffffffffffffffffffffffffff168373ffffffffffffffffffffffffffffffffffffffff1614156129d4576040517f08c379a00000000000000000000000000000000000000000000000000000000081526004016129cb90613c15565b60405180910390fd5b600073ffffffffffffffffffffffffffffffffffffffff168273ffffffffffffffffffffffffffffffffffffffff161415612a44576040517f08c379a0000000000000000000000000000000000000000000000000000000008152600401612a3b90613b75565b60405180910390fd5b80603460008573ffffffffffffffffffffffffffffffffffffffff1673ffffffffffffffffffffffffffffffffffffffff16815260200190815260200160002060008473ffffffffffffffffffffffffffffffffffffffff1673ffffffffffffffffffffffffffffffffffffffff168152602001908152602001600020819055508173ffffffffffffffffffffffffffffffffffffffff168373ffffffffffffffffffffffffffffffffffffffff167f8c5be1e5ebec7d5bd14f71427d1e84f3dd0314c0f7b2291e5b200ac8c7c3b92583604051612b229190613c95565b60405180910390a3505050565b600081600001549050919050565b6000612b4984846128d5565b90507fffffffffffffffffffffffffffffffffffffffffffffffffffffffffffffffff8114612bc35781811015612bb5576040517f08c379a0000000000000000000000000000000000000000000000000000000008152600401612bac90613b95565b60405180910390fd5b612bc28484848403612964565b5b50505050565b600073ffffffffffffffffffffffffffffffffffffffff168373ffffffffffffffffffffffffffffffffffffffff161415612c39576040517f08c379a0000000000000000000000000000000000000000000000000000000008152600401612c3090613bf5565b60405180910390fd5b600073ffffffffffffffffffffffffffffffffffffffff168273ffffffffffffffffffffffffffffffffffffffff161415612ca9576040517f08c379a0000000000000000000000000000000000000000000000000000000008152600401612ca090613b55565b60405180910390fd5b612cb4838383613016565b6000603360008573ffffffffffffffffffffffffffffffffffffffff1673ffffffffffffffffffffffffffffffffffffffff16815260200190815260200160002054905081811015612d3b576040517f08c379a0000000000000000000000000000000000000000000000000000000008152600401612d3290613bb5565b60405180910390fd5b818103603360008673ffffffffffffffffffffffffffffffffffffffff1673ffffffffffffffffffffffffffffffffffffffff1681526020019081526020016000208190555081603360008573ffffffffffffffffffffffffffffffffffffffff1673ffffffffffffffffffffffffffffffffffffffff1681526020019081526020016000206000828254612dd09190613da7565b925050819055508273ffffffffffffffffffffffffffffffffffffffff168473ffffffffffffffffffffffffffffffffffffffff167fddf252ad1be2c89b69c2b068fc378daa952ba7f163c4a11628f55a4df523b3ef84604051612e349190613c95565b60405180910390a3612e4784848461301b565b50505050565b6000816000018190555050565b60008060019054906101000a900460ff1615612ed15760018260ff16148015612e895750612e8730613020565b155b612ec8576040517f08c379a0000000000000000000000000000000000000000000000000000000008152600401612ebf90613bd5565b60405180910390fd5b60009050612f45565b8160ff1660008054906101000a900460ff1660ff1610612f26576040517f08c379a0000000000000000000000000000000000000000000000000000000008152600401612f1d90613bd5565b60405180910390fd5b816000806101000a81548160ff021916908360ff160217905550600190505b919050565b600060019054906101000a900460ff16612f99576040517f08c379a0000000000000000000000000000000000000000000000000000000008152600401612f9090613c35565b60405180910390fd5b612fa38282613043565b5050565b600060019054906101000a900460ff16612ff6576040517f08c379a0000000000000000000000000000000000000000000000000000000008152600401612fed90613c35565b60405180910390fd5b612ffe6130c4565b565b6001816000016000828254019250508190555050565b505050565b505050565b6000808273ffffffffffffffffffffffffffffffffffffffff163b119050919050565b600060019054906101000a900460ff16613092576040517f08c379a000000000000000000000000000000000000000000000000000000000815260040161308990613c35565b60405180910390fd5b81603690805190602001906130a892919061311d565b5080603790805190602001906130bf92919061311d565b505050565b600060019054906101000a900460ff16613113576040517f08c379a000000000000000000000000000000000000000000000000000000000815260040161310a90613c35565b60405180910390fd5b6001606581905550565b82805461312990613eb8565b90600052602060002090601f01602090048101928261314b5760008555613192565b82601f1061316457805160ff1916838001178555613192565b82800160010185558215613192579182015b82811115613191578251825591602001919060010190613176565b5b50905061319f919061322a565b5090565b5080546131af90613eb8565b6000825580601f106131c157506131e0565b601f0160209004906000526020600020908101906131df919061322a565b5b50565b6040518060a00160405280606081526020016060815260200160608152602001600073ffffffffffffffffffffffffffffffffffffffff1681526020016000151581525090565b5b8082111561324357600081600090555060010161322b565b5090565b600061325a61325584613cf0565b613ccb565b90508281526020810184848401111561327257600080fd5b61327d848285613e76565b509392505050565b600081359050613294816142cc565b92915050565b600082601f8301126132ab57600080fd5b81356132bb848260208601613247565b91505092915050565b6000813590506132d3816142e3565b92915050565b6000602082840312156132eb57600080fd5b60006132f984828501613285565b91505092915050565b6000806040838503121561331557600080fd5b600061332385828601613285565b925050602061333485828601613285565b9150509250929050565b60008060006060848603121561335357600080fd5b600061336186828701613285565b935050602061337286828701613285565b9250506040613383868287016132c4565b9150509250925092565b600080604083850312156133a057600080fd5b60006133ae85828601613285565b925050602083013567ffffffffffffffff8111156133cb57600080fd5b6133d78582860161329a565b9150509250929050565b600080604083850312156133f457600080fd5b600061340285828601613285565b9250506020613413858286016132c4565b9150509250929050565b60006020828403121561342f57600080fd5b600082013567ffffffffffffffff81111561344957600080fd5b6134558482850161329a565b91505092915050565b60008060006060848603121561347357600080fd5b600084013567ffffffffffffffff81111561348d57600080fd5b6134998682870161329a565b935050602084013567ffffffffffffffff8111156134b657600080fd5b6134c28682870161329a565b925050604084013567ffffffffffffffff8111156134df57600080fd5b6134eb8682870161329a565b9150509250925092565b6000806000806080858703121561350b57600080fd5b600085013567ffffffffffffffff81111561352557600080fd5b6135318782880161329a565b945050602085013567ffffffffffffffff81111561354e57600080fd5b61355a8782880161329a565b935050604085013567ffffffffffffffff81111561357757600080fd5b6135838782880161329a565b925050606085013567ffffffffffffffff8111156135a057600080fd5b6135ac8782880161329a565b91505092959194509250565b6000602082840312156135ca57600080fd5b60006135d8848285016132c4565b91505092915050565b60006135ed8383613944565b905092915050565b6135fe81613e0f565b82525050565b61360d81613dfd565b82525050565b61361c81613dfd565b82525050565b600061362d82613d46565b6136378185613d69565b93508360208202850161364985613d21565b8060005b85811015613685578484038952815161366685826135e1565b945061367183613d5c565b925060208a0199505060018101905061364d565b50829750879550505050505092915050565b6136a081613e21565b82525050565b6136af81613e21565b82525050565b6136be81613e64565b82525050565b60006136cf82613d51565b6136d98185613d7a565b93506136e9818560208601613e85565b6136f281613ff1565b840191505092915050565b600061370882613d51565b6137128185613d8b565b9350613722818560208601613e85565b61372b81613ff1565b840191505092915050565b600061374182613d51565b61374b8185613d9c565b935061375b818560208601613e85565b80840191505092915050565b6000815461377481613eb8565b61377e8186613d9c565b9450600182166000811461379957600181146137aa576137dd565b60ff198316865281860193506137dd565b6137b385613d31565b60005b838110156137d5578154818901526001820191506020810190506137b6565b838801955050505b50505092915050565b60006137f3602383613d8b565b91506137fe82614002565b604082019050919050565b6000613816602283613d8b565b915061382182614051565b604082019050919050565b6000613839601d83613d8b565b9150613844826140a0565b602082019050919050565b600061385c602683613d8b565b9150613867826140c9565b604082019050919050565b600061387f602e83613d8b565b915061388a82614118565b604082019050919050565b60006138a2602583613d8b565b91506138ad82614167565b604082019050919050565b60006138c5602483613d8b565b91506138d0826141b6565b604082019050919050565b60006138e8602b83613d8b565b91506138f382614205565b604082019050919050565b600061390b601f83613d8b565b915061391682614254565b602082019050919050565b600061392e602583613d8b565b91506139398261427d565b604082019050919050565b600060a083016000830151848203600086015261396182826136c4565b9150506020830151848203602086015261397b82826136c4565b9150506040830151848203604086015261399582826136c4565b91505060608301516139aa6060860182613604565b5060808301516139bd6080860182613697565b508091505092915050565b6139d181613e4d565b82525050565b6139e081613e57565b82525050565b60006139f28284613736565b915081905092915050565b6000613a098284613767565b915081905092915050565b6000602082019050613a296000830184613613565b92915050565b6000602082019050613a4460008301846135f5565b92915050565b6000604082019050613a5f6000830185613613565b613a6c60208301846136a6565b9392505050565b60006020820190508181036000830152613a8d8184613622565b905092915050565b6000602082019050613aaa60008301846136a6565b92915050565b6000602082019050613ac560008301846136b5565b92915050565b60006020820190508181036000830152613ae581846136fd565b905092915050565b600060a0820190508181036000830152613b0781886136fd565b90508181036020830152613b1b81876136fd565b90508181036040830152613b2f81866136fd565b9050613b3e6060830185613613565b613b4b60808301846136a6565b9695505050505050565b60006020820190508181036000830152613b6e816137e6565b9050919050565b60006020820190508181036000830152613b8e81613809565b9050919050565b60006020820190508181036000830152613bae8161382c565b9050919050565b60006020820190508181036000830152613bce8161384f565b9050919050565b60006020820190508181036000830152613bee81613872565b9050919050565b60006020820190508181036000830152613c0e81613895565b9050919050565b60006020820190508181036000830152613c2e816138b8565b9050919050565b60006020820190508181036000830152613c4e816138db565b9050919050565b60006020820190508181036000830152613c6e816138fe565b9050919050565b60006020820190508181036000830152613c8e81613921565b9050919050565b6000602082019050613caa60008301846139c8565b92915050565b6000602082019050613cc560008301846139d7565b92915050565b6000613cd5613ce6565b9050613ce18282613eea565b919050565b6000604051905090565b600067ffffffffffffffff821115613d0b57613d0a613fc2565b5b613d1482613ff1565b9050602081019050919050565b6000819050602082019050919050565b60008190508160005260206000209050919050565b600081519050919050565b600081519050919050565b6000602082019050919050565b600082825260208201905092915050565b600082825260208201905092915050565b600082825260208201905092915050565b600081905092915050565b6000613db282613e4d565b9150613dbd83613e4d565b9250827fffffffffffffffffffffffffffffffffffffffffffffffffffffffffffffffff03821115613df257613df1613f64565b5b828201905092915050565b6000613e0882613e2d565b9050919050565b6000613e1a82613e2d565b9050919050565b60008115159050919050565b600073ffffffffffffffffffffffffffffffffffffffff82169050919050565b6000819050919050565b600060ff82169050919050565b6000613e6f82613e57565b9050919050565b82818337600083830152505050565b60005b83811015613ea3578082015181840152602081019050613e88565b83811115613eb2576000848401525b50505050565b60006002820490506001821680613ed057607f821691505b60208210811415613ee457613ee3613f93565b5b50919050565b613ef382613ff1565b810181811067ffffffffffffffff82111715613f1257613f11613fc2565b5b80604052505050565b6000613f2682613e4d565b91507fffffffffffffffffffffffffffffffffffffffffffffffffffffffffffffffff821415613f5957613f58613f64565b5b600182019050919050565b7f4e487b7100000000000000000000000000000000000000000000000000000000600052601160045260246000fd5b7f4e487b7100000000000000000000000000000000000000000000000000000000600052602260045260246000fd5b7f4e487b7100000000000000000000000000000000000000000000000000000000600052604160045260246000fd5b6000601f19601f8301169050919050565b7f45524332303a207472616e7366657220746f20746865207a65726f206164647260008201527f6573730000000000000000000000000000000000000000000000000000000000602082015250565b7f45524332303a20617070726f766520746f20746865207a65726f20616464726560008201527f7373000000000000000000000000000000000000000000000000000000000000602082015250565b7f45524332303a20696e73756666696369656e7420616c6c6f77616e6365000000600082015250565b7f45524332303a207472616e7366657220616d6f756e742065786365656473206260008201527f616c616e63650000000000000000000000000000000000000000000000000000602082015250565b7f496e697469616c697a61626c653a20636f6e747261637420697320616c72656160008201527f647920696e697469616c697a6564000000000000000000000000000000000000602082015250565b7f45524332303a207472616e736665722066726f6d20746865207a65726f20616460008201527f6472657373000000000000000000000000000000000000000000000000000000602082015250565b7f45524332303a20617070726f76652066726f6d20746865207a65726f2061646460008201527f7265737300000000000000000000000000000000000000000000000000000000602082015250565b7f496e697469616c697a61626c653a20636f6e7472616374206973206e6f74206960008201527f6e697469616c697a696e67000000000000000000000000000000000000000000602082015250565b7f5265656e7472616e637947756172643a207265656e7472616e742063616c6c00600082015250565b7f45524332303a2064656372656173656420616c6c6f77616e63652062656c6f7760008201527f207a65726f000000000000000000000000000000000000000000000000000000602082015250565b6142d581613dfd565b81146142e057600080fd5b50565b6142ec81613e4d565b81146142f757600080fd5b5056fea2646970667358221220753856d1001c7fad357aaf04c4131ce7ac3ac0248a89995b61749efa0b73f09c64736f6c63430008040033",
  "linkReferences": {},
  "deployedLinkReferences": {}
}