{
  "_format": "hh-sol-artifact-1",
  "contractName": "phoneLink",
  "sourceName": "contracts/phoneLink.sol",
  "abi": [
    {
      "anonymous": false,
      "inputs": [
        {
          "indexed": true,
          "internalType": "address",
          "name": "owner",
          "type": "address"
        },
        {
          "indexed": true,
          "internalType": "address",
          "name": "spender",
          "type": "address"
        },
        {
          "indexed": false,
          "internalType": "uint256",
          "name": "value",
          "type": "uint256"
        }
      ],
      "name": "Approval",
      "type": "event"
    },
    {
      "anonymous": false,
      "inputs": [
        {
          "indexed": true,
          "internalType": "string",
          "name": "name",
          "type": "string"
        },
        {
          "indexed": true,
          "internalType": "string",
          "name": "identifier",
          "type": "string"
        },
        {
          "indexed": true,
          "internalType": "string",
          "name": "typeOfIdentifier",
          "type": "string"
        },
        {
          "indexed": false,
          "internalType": "address",
          "name": "connectedWalletAddress",
          "type": "address"
        },
        {
          "indexed": false,
          "internalType": "bool",
          "name": "isPrimaryWallet",
          "type": "bool"
        }
      ],
      "name": "DetailsCreated",
      "type": "event"
    },
    {
      "anonymous": false,
      "inputs": [
        {
          "indexed": false,
          "internalType": "uint8",
          "name": "version",
          "type": "uint8"
        }
      ],
      "name": "Initialized",
      "type": "event"
    },
    {
      "anonymous": false,
      "inputs": [
        {
          "indexed": true,
          "internalType": "address",
          "name": "previousOwner",
          "type": "address"
        },
        {
          "indexed": true,
          "internalType": "address",
          "name": "newOwner",
          "type": "address"
        }
      ],
      "name": "OwnershipTransferred",
      "type": "event"
    },
    {
      "anonymous": false,
      "inputs": [
        {
          "indexed": true,
          "internalType": "address",
          "name": "from",
          "type": "address"
        },
        {
          "indexed": true,
          "internalType": "address",
          "name": "to",
          "type": "address"
        },
        {
          "indexed": false,
          "internalType": "uint256",
          "name": "value",
          "type": "uint256"
        }
      ],
      "name": "Transfer",
      "type": "event"
    },
    {
      "inputs": [],
      "name": "_itemIds",
      "outputs": [
        {
          "internalType": "uint256",
          "name": "_value",
          "type": "uint256"
        }
      ],
      "stateMutability": "view",
      "type": "function"
    },
    {
      "inputs": [
        {
          "internalType": "address",
          "name": "owner",
          "type": "address"
        },
        {
          "internalType": "address",
          "name": "spender",
          "type": "address"
        }
      ],
      "name": "allowance",
      "outputs": [
        {
          "internalType": "uint256",
          "name": "",
          "type": "uint256"
        }
      ],
      "stateMutability": "view",
      "type": "function"
    },
    {
      "inputs": [
        {
          "internalType": "address",
          "name": "spender",
          "type": "address"
        },
        {
          "internalType": "uint256",
          "name": "amount",
          "type": "uint256"
        }
      ],
      "name": "approve",
      "outputs": [
        {
          "internalType": "bool",
          "name": "",
          "type": "bool"
        }
      ],
      "stateMutability": "nonpayable",
      "type": "function"
    },
    {
      "inputs": [
        {
          "internalType": "address",
          "name": "account",
          "type": "address"
        }
      ],
      "name": "balanceOf",
      "outputs": [
        {
          "internalType": "uint256",
          "name": "",
          "type": "uint256"
        }
      ],
      "stateMutability": "view",
      "type": "function"
    },
    {
      "inputs": [],
      "name": "decimals",
      "outputs": [
        {
          "internalType": "uint8",
          "name": "",
          "type": "uint8"
        }
      ],
      "stateMutability": "view",
      "type": "function"
    },
    {
      "inputs": [
        {
          "internalType": "address",
          "name": "spender",
          "type": "address"
        },
        {
          "internalType": "uint256",
          "name": "subtractedValue",
          "type": "uint256"
        }
      ],
      "name": "decreaseAllowance",
      "outputs": [
        {
          "internalType": "bool",
          "name": "",
          "type": "bool"
        }
      ],
      "stateMutability": "nonpayable",
      "type": "function"
    },
    {
      "inputs": [
        {
          "internalType": "string",
          "name": "name",
          "type": "string"
        },
        {
          "internalType": "string",
          "name": "identifier",
          "type": "string"
        },
        {
          "internalType": "string",
          "name": "typeOfIdentifier",
          "type": "string"
        },
        {
          "internalType": "string",
          "name": "oldIdentifier",
          "type": "string"
        }
      ],
      "name": "editProfile",
      "outputs": [],
      "stateMutability": "nonpayable",
      "type": "function"
    },
    {
      "inputs": [
        {
          "internalType": "string",
          "name": "name",
          "type": "string"
        },
        {
          "internalType": "string",
          "name": "identifier",
          "type": "string"
        },
        {
          "internalType": "string",
          "name": "typeOfIdentifier",
          "type": "string"
        }
      ],
      "name": "enterDetails",
      "outputs": [],
      "stateMutability": "nonpayable",
      "type": "function"
    },
    {
      "inputs": [
        {
          "internalType": "string",
          "name": "userIdentifier",
          "type": "string"
        }
      ],
      "name": "fetchAllWalletAddress",
      "outputs": [
        {
          "components": [
            {
              "internalType": "string",
              "name": "name",
              "type": "string"
            },
            {
              "internalType": "string",
              "name": "identifier",
              "type": "string"
            },
            {
              "internalType": "string",
              "name": "typeOfIdentifier",
              "type": "string"
            },
            {
              "internalType": "address",
              "name": "connectedWalletAddress",
              "type": "address"
            },
            {
              "internalType": "bool",
              "name": "isPrimaryWallet",
              "type": "bool"
            }
          ],
          "internalType": "struct phoneLink.Details[]",
          "name": "",
          "type": "tuple[]"
        }
      ],
      "stateMutability": "view",
      "type": "function"
    },
    {
      "inputs": [
        {
          "internalType": "string",
          "name": "userIdentifier",
          "type": "string"
        }
      ],
      "name": "fetchPrimaryWalletAddress",
      "outputs": [
        {
          "internalType": "address",
          "name": "",
          "type": "address"
        }
      ],
      "stateMutability": "view",
      "type": "function"
    },
    {
      "inputs": [],
      "name": "getMarketOwner",
      "outputs": [
        {
          "internalType": "address payable",
          "name": "",
          "type": "address"
        }
      ],
      "stateMutability": "view",
      "type": "function"
    },
    {
      "inputs": [],
      "name": "getPhoneToDetails",
      "outputs": [
        {
          "components": [
            {
              "internalType": "string",
              "name": "name",
              "type": "string"
            },
            {
              "internalType": "string",
              "name": "identifier",
              "type": "string"
            },
            {
              "internalType": "string",
              "name": "typeOfIdentifier",
              "type": "string"
            },
            {
              "internalType": "address",
              "name": "connectedWalletAddress",
              "type": "address"
            },
            {
              "internalType": "bool",
              "name": "isPrimaryWallet",
              "type": "bool"
            }
          ],
          "internalType": "struct phoneLink.Details[]",
          "name": "",
          "type": "tuple[]"
        }
      ],
      "stateMutability": "view",
      "type": "function"
    },
    {
      "inputs": [
        {
          "internalType": "address",
          "name": "walletAddress",
          "type": "address"
        }
      ],
      "name": "getWalletDetails",
      "outputs": [
        {
          "components": [
            {
              "internalType": "string",
              "name": "name",
              "type": "string"
            },
            {
              "internalType": "string",
              "name": "identifier",
              "type": "string"
            },
            {
              "internalType": "string",
              "name": "typeOfIdentifier",
              "type": "string"
            },
            {
              "internalType": "address",
              "name": "connectedWalletAddress",
              "type": "address"
            },
            {
              "internalType": "bool",
              "name": "isPrimaryWallet",
              "type": "bool"
            }
          ],
          "internalType": "struct phoneLink.Details[]",
          "name": "",
          "type": "tuple[]"
        }
      ],
      "stateMutability": "view",
      "type": "function"
    },
    {
      "inputs": [
        {
          "internalType": "address",
          "name": "spender",
          "type": "address"
        },
        {
          "internalType": "uint256",
          "name": "addedValue",
          "type": "uint256"
        }
      ],
      "name": "increaseAllowance",
      "outputs": [
        {
          "internalType": "bool",
          "name": "",
          "type": "bool"
        }
      ],
      "stateMutability": "nonpayable",
      "type": "function"
    },
    {
      "inputs": [],
      "name": "initialize",
      "outputs": [],
      "stateMutability": "nonpayable",
      "type": "function"
    },
    {
      "inputs": [
        {
          "internalType": "address",
          "name": "wallet",
          "type": "address"
        },
        {
          "internalType": "string",
          "name": "identifier",
          "type": "string"
        }
      ],
      "name": "makePrimary",
      "outputs": [],
      "stateMutability": "nonpayable",
      "type": "function"
    },
    {
      "inputs": [],
      "name": "marketowner",
      "outputs": [
        {
          "internalType": "address payable",
          "name": "",
          "type": "address"
        }
      ],
      "stateMutability": "view",
      "type": "function"
    },
    {
      "inputs": [],
      "name": "myWallets",
      "outputs": [
        {
          "components": [
            {
              "internalType": "string",
              "name": "name",
              "type": "string"
            },
            {
              "internalType": "string",
              "name": "identifier",
              "type": "string"
            },
            {
              "internalType": "string",
              "name": "typeOfIdentifier",
              "type": "string"
            },
            {
              "internalType": "address",
              "name": "connectedWalletAddress",
              "type": "address"
            },
            {
              "internalType": "bool",
              "name": "isPrimaryWallet",
              "type": "bool"
            }
          ],
          "internalType": "struct phoneLink.Details[]",
          "name": "",
          "type": "tuple[]"
        }
      ],
      "stateMutability": "view",
      "type": "function"
    },
    {
      "inputs": [],
      "name": "name",
      "outputs": [
        {
          "internalType": "string",
          "name": "",
          "type": "string"
        }
      ],
      "stateMutability": "view",
      "type": "function"
    },
    {
      "inputs": [],
      "name": "owner",
      "outputs": [
        {
          "internalType": "address",
          "name": "",
          "type": "address"
        }
      ],
      "stateMutability": "view",
      "type": "function"
    },
    {
      "inputs": [
        {
          "internalType": "uint256",
          "name": "",
          "type": "uint256"
        }
      ],
      "name": "phoneToDetails",
      "outputs": [
        {
          "internalType": "string",
          "name": "name",
          "type": "string"
        },
        {
          "internalType": "string",
          "name": "identifier",
          "type": "string"
        },
        {
          "internalType": "string",
          "name": "typeOfIdentifier",
          "type": "string"
        },
        {
          "internalType": "address",
          "name": "connectedWalletAddress",
          "type": "address"
        },
        {
          "internalType": "bool",
          "name": "isPrimaryWallet",
          "type": "bool"
        }
      ],
      "stateMutability": "view",
      "type": "function"
    },
    {
      "inputs": [],
      "name": "renounceOwnership",
      "outputs": [],
      "stateMutability": "nonpayable",
      "type": "function"
    },
    {
      "inputs": [
        {
          "internalType": "address",
          "name": "destination",
          "type": "address"
        },
        {
          "internalType": "uint256",
          "name": "amount",
          "type": "uint256"
        }
      ],
      "name": "sendToken",
      "outputs": [],
      "stateMutability": "payable",
      "type": "function"
    },
    {
      "inputs": [],
      "name": "symbol",
      "outputs": [
        {
          "internalType": "string",
          "name": "",
          "type": "string"
        }
      ],
      "stateMutability": "view",
      "type": "function"
    },
    {
      "inputs": [],
      "name": "totalSupply",
      "outputs": [
        {
          "internalType": "uint256",
          "name": "",
          "type": "uint256"
        }
      ],
      "stateMutability": "view",
      "type": "function"
    },
    {
      "inputs": [
        {
          "internalType": "address",
          "name": "to",
          "type": "address"
        },
        {
          "internalType": "uint256",
          "name": "amount",
          "type": "uint256"
        }
      ],
      "name": "transfer",
      "outputs": [
        {
          "internalType": "bool",
          "name": "",
          "type": "bool"
        }
      ],
      "stateMutability": "nonpayable",
      "type": "function"
    },
    {
      "inputs": [
        {
          "internalType": "address",
          "name": "from",
          "type": "address"
        },
        {
          "internalType": "address",
          "name": "to",
          "type": "address"
        },
        {
          "internalType": "uint256",
          "name": "amount",
          "type": "uint256"
        }
      ],
      "name": "transferFrom",
      "outputs": [
        {
          "internalType": "bool",
          "name": "",
          "type": "bool"
        }
      ],
      "stateMutability": "nonpayable",
      "type": "function"
    },
    {
      "inputs": [
        {
          "internalType": "address",
          "name": "newOwner",
          "type": "address"
        }
      ],
      "name": "transferOwnership",
      "outputs": [],
      "stateMutability": "nonpayable",
      "type": "function"
    },
    {
      "inputs": [
        {
          "internalType": "string",
          "name": "identifier",
          "type": "string"
        }
      ],
      "name": "uniqueEntry",
      "outputs": [
        {
          "internalType": "bool",
          "name": "",
          "type": "bool"
        }
      ],
      "stateMutability": "view",
      "type": "function"
    }
  ],
  "bytecode": "0x608060405234801561001057600080fd5b50614742806100206000396000f3fe6080604052600436106101c25760003560e01c80635e385b92116100f757806395d89b4111610095578063d263be4811610064578063d263be4814610675578063db461e1a146106a0578063dd62ed3e146106dd578063f2fde38b1461071a576101c2565b806395d89b41146105a7578063a457c2d7146105d2578063a9059cbb1461060f578063d137bc6c1461064c576101c2565b8063715018a6116100d1578063715018a6146105115780638129fc1c146105285780638cae45d21461053f5780638da5cb5b1461057c576101c2565b80635e385b921461046c5780636e9976651461049757806370a08231146104d4576101c2565b806334a7f19311610164578063412664ae1161013e578063412664ae146103b9578063451e9cf0146103d557806352d95491146104005780635a12d0f814610441576101c2565b806334a7f1931461032857806339509351146103535780633e3a648d14610390576101c2565b806315ccb680116101a057806315ccb6801461025857806318160ddd1461029557806323b872dd146102c0578063313ce567146102fd576101c2565b806306fdde03146101c7578063095ea7b3146101f25780630c60b3721461022f575b600080fd5b3480156101d357600080fd5b506101dc610743565b6040516101e99190613e25565b60405180910390f35b3480156101fe57600080fd5b50610219600480360381019061021491906136f5565b6107d5565b6040516102269190613def565b60405180910390f35b34801561023b57600080fd5b50610256600480360381019061025191906136a1565b6107f8565b005b34801561026457600080fd5b5061027f600480360381019061027a9190613731565b610a7a565b60405161028c9190613def565b60405180910390f35b3480156102a157600080fd5b506102aa610baf565b6040516102b7919061402f565b60405180910390f35b3480156102cc57600080fd5b506102e760048036038101906102e29190613652565b610bb9565b6040516102f49190613def565b60405180910390f35b34801561030957600080fd5b50610312610be8565b60405161031f919061404a565b60405180910390f35b34801561033457600080fd5b5061033d610bf1565b60405161034a919061402f565b60405180910390f35b34801561035f57600080fd5b5061037a600480360381019061037591906136f5565b610bfd565b6040516103879190613def565b60405180910390f35b34801561039c57600080fd5b506103b760048036038101906103b29190613809565b610c34565b005b6103d360048036038101906103ce91906136f5565b610ec6565b005b3480156103e157600080fd5b506103ea610f67565b6040516103f79190613d89565b60405180910390f35b34801561040c57600080fd5b50610427600480360381019061042291906138cc565b610f91565b604051610438959493929190613e47565b60405180910390f35b34801561044d57600080fd5b5061045661118c565b6040516104639190613dcd565b60405180910390f35b34801561047857600080fd5b5061048161156f565b60405161048e9190613d89565b60405180910390f35b3480156104a357600080fd5b506104be60048036038101906104b99190613731565b611595565b6040516104cb9190613dcd565b60405180910390f35b3480156104e057600080fd5b506104fb60048036038101906104f691906135ed565b611a1b565b604051610508919061402f565b60405180910390f35b34801561051d57600080fd5b50610526611a64565b005b34801561053457600080fd5b5061053d611aec565b005b34801561054b57600080fd5b50610566600480360381019061056191906135ed565b611bf1565b6040516105739190613dcd565b60405180910390f35b34801561058857600080fd5b50610591611fcb565b60405161059e9190613d6e565b60405180910390f35b3480156105b357600080fd5b506105bc611ff5565b6040516105c99190613e25565b60405180910390f35b3480156105de57600080fd5b506105f960048036038101906105f491906136f5565b612087565b6040516106069190613def565b60405180910390f35b34801561061b57600080fd5b50610636600480360381019061063191906136f5565b6120fe565b6040516106439190613def565b60405180910390f35b34801561065857600080fd5b50610673600480360381019061066e9190613772565b612121565b005b34801561068157600080fd5b5061068a6123f5565b6040516106979190613dcd565b60405180910390f35b3480156106ac57600080fd5b506106c760048036038101906106c29190613731565b612883565b6040516106d49190613d6e565b60405180910390f35b3480156106e957600080fd5b5061070460048036038101906106ff9190613616565b6129be565b604051610711919061402f565b60405180910390f35b34801561072657600080fd5b50610741600480360381019061073c91906135ed565b612a45565b005b60606036805461075290614252565b80601f016020809104026020016040519081016040528092919081815260200182805461077e90614252565b80156107cb5780601f106107a0576101008083540402835291602001916107cb565b820191906000526020600020905b8154815290600101906020018083116107ae57829003601f168201915b5050505050905090565b6000806107e0612b3d565b90506107ed818585612b45565b600191505092915050565b6002606554141561083e576040517f08c379a000000000000000000000000000000000000000000000000000000000815260040161083590613fef565b60405180910390fd5b6002606581905550600061085260ca612d10565b905060005b8181101561092357826040516020016108709190613d40565b6040516020818303038152906040528051906020012060cb60006001846108979190614141565b81526020019081526020016000206001016040516020016108b89190613d57565b60405160208183030381529060405280519060200120141561091057600060cb60006001846108e79190614141565b815260200190815260200160002060030160146101000a81548160ff0219169083151502179055505b808061091b906142b5565b915050610857565b5060005b81811015610a6c578373ffffffffffffffffffffffffffffffffffffffff1660cb60006001846109579190614141565b815260200190815260200160002060030160009054906101000a900473ffffffffffffffffffffffffffffffffffffffff1673ffffffffffffffffffffffffffffffffffffffff16148015610a185750826040516020016109b89190613d40565b6040516020818303038152906040528051906020012060cb60006001846109df9190614141565b8152602001908152602001600020600101604051602001610a009190613d57565b60405160208183030381529060405280519060200120145b15610a5957600160cb6000600184610a309190614141565b815260200190815260200160002060030160146101000a81548160ff0219169083151502179055505b8080610a64906142b5565b915050610927565b505060016065819055505050565b600080600190506000610a8d60ca612d10565b905060005b81811015610ba4573373ffffffffffffffffffffffffffffffffffffffff1660cb6000600184610ac29190614141565b815260200190815260200160002060030160009054906101000a900473ffffffffffffffffffffffffffffffffffffffff1673ffffffffffffffffffffffffffffffffffffffff16148015610b83575084604051602001610b239190613d40565b6040516020818303038152906040528051906020012060cb6000600184610b4a9190614141565b8152602001908152602001600020600101604051602001610b6b9190613d57565b60405160208183030381529060405280519060200120145b15610b915760009250610ba4565b8080610b9c906142b5565b915050610a92565b508192505050919050565b6000603554905090565b600080610bc4612b3d565b9050610bd1858285612d1e565b610bdc858585612daa565b60019150509392505050565b60006012905090565b60ca8060000154905081565b600080610c08612b3d565b9050610c29818585610c1a85896129be565b610c249190614141565b612b45565b600191505092915050565b60026065541415610c7a576040517f08c379a0000000000000000000000000000000000000000000000000000000008152600401610c7190613fef565b60405180910390fd5b60026065819055506000610c8e60ca612d10565b905060005b81811015610eb6573373ffffffffffffffffffffffffffffffffffffffff1660cb6000600184610cc39190614141565b815260200190815260200160002060030160009054906101000a900473ffffffffffffffffffffffffffffffffffffffff1673ffffffffffffffffffffffffffffffffffffffff161415610ea35783604051602001610d229190613d40565b6040516020818303038152906040528051906020012060cb6000600184610d499190614141565b8152602001908152602001600020600201604051602001610d6a9190613d57565b604051602081830303815290604052805190602001201415610ea25782604051602001610d979190613d40565b6040516020818303038152906040528051906020012060cb6000600184610dbe9190614141565b8152602001908152602001600020600101604051602001610ddf9190613d57565b604051602081830303815290604052805190602001201415610ea1578560cb6000600184610e0d9190614141565b81526020019081526020016000206000019080519060200190610e31929190613471565b508460cb6000600184610e449190614141565b81526020019081526020016000206001019080519060200190610e68929190613471565b508360cb6000600184610e7b9190614141565b81526020019081526020016000206002019080519060200190610e9f929190613471565b505b5b5b8080610eae906142b5565b915050610c93565b5050600160658190555050505050565b60026065541415610f0c576040517f08c379a0000000000000000000000000000000000000000000000000000000008152600401610f0390613fef565b60405180910390fd5b60026065819055508173ffffffffffffffffffffffffffffffffffffffff166108fc829081150290604051600060405180830381858888f19350505050158015610f5a573d6000803e3d6000fd5b5060016065819055505050565b600060c960009054906101000a900473ffffffffffffffffffffffffffffffffffffffff16905090565b60cb602052806000526040600020600091509050806000018054610fb490614252565b80601f0160208091040260200160405190810160405280929190818152602001828054610fe090614252565b801561102d5780601f106110025761010080835404028352916020019161102d565b820191906000526020600020905b81548152906001019060200180831161101057829003601f168201915b50505050509080600101805461104290614252565b80601f016020809104026020016040519081016040528092919081815260200182805461106e90614252565b80156110bb5780601f10611090576101008083540402835291602001916110bb565b820191906000526020600020905b81548152906001019060200180831161109e57829003601f168201915b5050505050908060020180546110d090614252565b80601f01602080910402602001604051908101604052809291908181526020018280546110fc90614252565b80156111495780601f1061111e57610100808354040283529160200191611149565b820191906000526020600020905b81548152906001019060200180831161112c57829003601f168201915b5050505050908060030160009054906101000a900473ffffffffffffffffffffffffffffffffffffffff16908060030160149054906101000a900460ff16905085565b6060611196612b3d565b73ffffffffffffffffffffffffffffffffffffffff166111b4611fcb565b73ffffffffffffffffffffffffffffffffffffffff161461120a576040517f08c379a000000000000000000000000000000000000000000000000000000000815260040161120190613f6f565b60405180910390fd5b600061121660ca612d10565b90506000808267ffffffffffffffff81111561125b577f4e487b7100000000000000000000000000000000000000000000000000000000600052604160045260246000fd5b60405190808252806020026020018201604052801561129457816020015b6112816134f7565b8152602001906001900390816112795790505b50905060005b838110156115655760006001826112b19190614141565b9050600060cb60008381526020019081526020016000209050806040518060a00160405290816000820180546112e690614252565b80601f016020809104026020016040519081016040528092919081815260200182805461131290614252565b801561135f5780601f106113345761010080835404028352916020019161135f565b820191906000526020600020905b81548152906001019060200180831161134257829003601f168201915b5050505050815260200160018201805461137890614252565b80601f01602080910402602001604051908101604052809291908181526020018280546113a490614252565b80156113f15780601f106113c6576101008083540402835291602001916113f1565b820191906000526020600020905b8154815290600101906020018083116113d457829003601f168201915b5050505050815260200160028201805461140a90614252565b80601f016020809104026020016040519081016040528092919081815260200182805461143690614252565b80156114835780601f1061145857610100808354040283529160200191611483565b820191906000526020600020905b81548152906001019060200180831161146657829003601f168201915b505050505081526020016003820160009054906101000a900473ffffffffffffffffffffffffffffffffffffffff1673ffffffffffffffffffffffffffffffffffffffff1673ffffffffffffffffffffffffffffffffffffffff1681526020016003820160149054906101000a900460ff161515151581525050848681518110611536577f4e487b7100000000000000000000000000000000000000000000000000000000600052603260045260246000fd5b602002602001018190525060018561154e9190614141565b94505050808061155d906142b5565b91505061129a565b5080935050505090565b60c960009054906101000a900473ffffffffffffffffffffffffffffffffffffffff1681565b606060006115a360ca612d10565b905060008060005b8381101561164b57856040516020016115c49190613d40565b6040516020818303038152906040528051906020012060cb60006001846115eb9190614141565b815260200190815260200160002060010160405160200161160c9190613d57565b604051602081830303815290604052805190602001201415611638576001836116359190614141565b92505b8080611643906142b5565b9150506115ab565b5060008267ffffffffffffffff81111561168e577f4e487b7100000000000000000000000000000000000000000000000000000000600052604160045260246000fd5b6040519080825280602002602001820160405280156116c757816020015b6116b46134f7565b8152602001906001900390816116ac5790505b50905060005b84811015611a0e57866040516020016116e69190613d40565b6040516020818303038152906040528051906020012060cb600060018461170d9190614141565b815260200190815260200160002060010160405160200161172e9190613d57565b6040516020818303038152906040528051906020012014156119fb5760006001826117599190614141565b9050600060cb60008381526020019081526020016000209050806040518060a001604052908160008201805461178e90614252565b80601f01602080910402602001604051908101604052809291908181526020018280546117ba90614252565b80156118075780601f106117dc57610100808354040283529160200191611807565b820191906000526020600020905b8154815290600101906020018083116117ea57829003601f168201915b5050505050815260200160018201805461182090614252565b80601f016020809104026020016040519081016040528092919081815260200182805461184c90614252565b80156118995780601f1061186e57610100808354040283529160200191611899565b820191906000526020600020905b81548152906001019060200180831161187c57829003601f168201915b505050505081526020016002820180546118b290614252565b80601f01602080910402602001604051908101604052809291908181526020018280546118de90614252565b801561192b5780601f106119005761010080835404028352916020019161192b565b820191906000526020600020905b81548152906001019060200180831161190e57829003601f168201915b505050505081526020016003820160009054906101000a900473ffffffffffffffffffffffffffffffffffffffff1673ffffffffffffffffffffffffffffffffffffffff1673ffffffffffffffffffffffffffffffffffffffff1681526020016003820160149054906101000a900460ff1615151515815250508486815181106119de577f4e487b7100000000000000000000000000000000000000000000000000000000600052603260045260246000fd5b60200260200101819052506001856119f69190614141565b945050505b8080611a06906142b5565b9150506116cd565b5080945050505050919050565b6000603360008373ffffffffffffffffffffffffffffffffffffffff1673ffffffffffffffffffffffffffffffffffffffff168152602001908152602001600020549050919050565b611a6c612b3d565b73ffffffffffffffffffffffffffffffffffffffff16611a8a611fcb565b73ffffffffffffffffffffffffffffffffffffffff1614611ae0576040517f08c379a0000000000000000000000000000000000000000000000000000000008152600401611ad790613f6f565b60405180910390fd5b611aea600061302e565b565b6000611af860016130f4565b90508015611b1c576001600060016101000a81548160ff0219169083151502179055505b611b4460405180602001604052806000815250604051806020016040528060008152506131e4565b611b4c613241565b611b5461329a565b3360c960006101000a81548173ffffffffffffffffffffffffffffffffffffffff021916908373ffffffffffffffffffffffffffffffffffffffff1602179055508015611bee5760008060016101000a81548160ff0219169083151502179055507f7f26b83ff96e1f2b6a682f133852f6798a09c465da95921460cefb38474024986001604051611be59190613e0a565b60405180910390a15b50565b60606000611bff60ca612d10565b90506000808267ffffffffffffffff811115611c44577f4e487b7100000000000000000000000000000000000000000000000000000000600052604160045260246000fd5b604051908082528060200260200182016040528015611c7d57816020015b611c6a6134f7565b815260200190600190039081611c625790505b50905060005b83811015611fbf578573ffffffffffffffffffffffffffffffffffffffff1660cb6000600184611cb39190614141565b815260200190815260200160002060030160009054906101000a900473ffffffffffffffffffffffffffffffffffffffff1673ffffffffffffffffffffffffffffffffffffffff161415611fac57600060cb6000600184611d149190614141565b81526020019081526020016000209050806040518060a0016040529081600082018054611d4090614252565b80601f0160208091040260200160405190810160405280929190818152602001828054611d6c90614252565b8015611db95780601f10611d8e57610100808354040283529160200191611db9565b820191906000526020600020905b815481529060010190602001808311611d9c57829003601f168201915b50505050508152602001600182018054611dd290614252565b80601f0160208091040260200160405190810160405280929190818152602001828054611dfe90614252565b8015611e4b5780601f10611e2057610100808354040283529160200191611e4b565b820191906000526020600020905b815481529060010190602001808311611e2e57829003601f168201915b50505050508152602001600282018054611e6490614252565b80601f0160208091040260200160405190810160405280929190818152602001828054611e9090614252565b8015611edd5780601f10611eb257610100808354040283529160200191611edd565b820191906000526020600020905b815481529060010190602001808311611ec057829003601f168201915b505050505081526020016003820160009054906101000a900473ffffffffffffffffffffffffffffffffffffffff1673ffffffffffffffffffffffffffffffffffffffff1673ffffffffffffffffffffffffffffffffffffffff1681526020016003820160149054906101000a900460ff161515151581525050838581518110611f90577f4e487b7100000000000000000000000000000000000000000000000000000000600052603260045260246000fd5b6020026020010181905250600184611fa89190614141565b9350505b8080611fb7906142b5565b915050611c83565b50809350505050919050565b6000609760009054906101000a900473ffffffffffffffffffffffffffffffffffffffff16905090565b60606037805461200490614252565b80601f016020809104026020016040519081016040528092919081815260200182805461203090614252565b801561207d5780601f106120525761010080835404028352916020019161207d565b820191906000526020600020905b81548152906001019060200180831161206057829003601f168201915b5050505050905090565b600080612092612b3d565b905060006120a082866129be565b9050838110156120e5576040517f08c379a00000000000000000000000000000000000000000000000000000000081526004016120dc9061400f565b60405180910390fd5b6120f28286868403612b45565b60019250505092915050565b600080612109612b3d565b9050612116818585612daa565b600191505092915050565b60026065541415612167576040517f08c379a000000000000000000000000000000000000000000000000000000000815260040161215e90613fef565b60405180910390fd5b600260658190555061217960ca6132f3565b600061218560ca612d10565b905060005b8181101561225657836040516020016121a39190613d40565b6040516020818303038152906040528051906020012060cb60006001846121ca9190614141565b81526020019081526020016000206001016040516020016121eb9190613d57565b60405160208183030381529060405280519060200120141561224357600060cb600060018461221a9190614141565b815260200190815260200160002060030160146101000a81548160ff0219169083151502179055505b808061224e906142b5565b91505061218a565b506040518060a001604052808581526020018481526020018381526020013373ffffffffffffffffffffffffffffffffffffffff1681526020016001151581525060cb600083815260200190815260200160002060008201518160000190805190602001906122c6929190613471565b5060208201518160010190805190602001906122e3929190613471565b506040820151816002019080519060200190612300929190613471565b5060608201518160030160006101000a81548173ffffffffffffffffffffffffffffffffffffffff021916908373ffffffffffffffffffffffffffffffffffffffff16021790555060808201518160030160146101000a81548160ff021916908315150217905550905050816040516123799190613d40565b60405180910390208360405161238f9190613d40565b6040518091039020856040516123a59190613d40565b60405180910390207f2e3249f822bd56e4e9ae7d39402def6df4618c14f212fbe4c35e0c94eddef9fe3360016040516123df929190613da4565b60405180910390a4506001606581905550505050565b6060600061240360ca612d10565b90506000808267ffffffffffffffff811115612448577f4e487b7100000000000000000000000000000000000000000000000000000000600052604160045260246000fd5b60405190808252806020026020018201604052801561248157816020015b61246e6134f7565b8152602001906001900390816124665790505b50905060005b83811015612879573373ffffffffffffffffffffffffffffffffffffffff1660cb60006001846124b79190614141565b815260200190815260200160002060030160009054906101000a900473ffffffffffffffffffffffffffffffffffffffff1673ffffffffffffffffffffffffffffffffffffffff1614156128665760005b848110156128645760cb60006001846125219190614141565b81526020019081526020016000206001016040516020016125429190613d57565b6040516020818303038152906040528051906020012060cb60006001846125699190614141565b815260200190815260200160002060010160405160200161258a9190613d57565b60405160208183030381529060405280519060200120141561285157600060cb60006001846125b99190614141565b81526020019081526020016000209050806040518060a00160405290816000820180546125e590614252565b80601f016020809104026020016040519081016040528092919081815260200182805461261190614252565b801561265e5780601f106126335761010080835404028352916020019161265e565b820191906000526020600020905b81548152906001019060200180831161264157829003601f168201915b5050505050815260200160018201805461267790614252565b80601f01602080910402602001604051908101604052809291908181526020018280546126a390614252565b80156126f05780601f106126c5576101008083540402835291602001916126f0565b820191906000526020600020905b8154815290600101906020018083116126d357829003601f168201915b5050505050815260200160028201805461270990614252565b80601f016020809104026020016040519081016040528092919081815260200182805461273590614252565b80156127825780601f1061275757610100808354040283529160200191612782565b820191906000526020600020905b81548152906001019060200180831161276557829003601f168201915b505050505081526020016003820160009054906101000a900473ffffffffffffffffffffffffffffffffffffffff1673ffffffffffffffffffffffffffffffffffffffff1673ffffffffffffffffffffffffffffffffffffffff1681526020016003820160149054906101000a900460ff161515151581525050848681518110612835577f4e487b7100000000000000000000000000000000000000000000000000000000600052603260045260246000fd5b602002602001018190525060018561284d9190614141565b9450505b808061285c906142b5565b915050612508565b505b8080612871906142b5565b915050612487565b5080935050505090565b60008061289060ca612d10565b9050600080600090505b828110156129b357846040516020016128b39190613d40565b6040516020818303038152906040528051906020012060cb60006001846128da9190614141565b81526020019081526020016000206001016040516020016128fb9190613d57565b6040516020818303038152906040528051906020012014801561295157506001151560cb600060018461292e9190614141565b815260200190815260200160002060030160149054906101000a900460ff161515145b156129a05760cb60006001836129679190614141565b815260200190815260200160002060030160009054906101000a900473ffffffffffffffffffffffffffffffffffffffff1691506129b3565b80806129ab906142b5565b91505061289a565b508092505050919050565b6000603460008473ffffffffffffffffffffffffffffffffffffffff1673ffffffffffffffffffffffffffffffffffffffff16815260200190815260200160002060008373ffffffffffffffffffffffffffffffffffffffff1673ffffffffffffffffffffffffffffffffffffffff16815260200190815260200160002054905092915050565b612a4d612b3d565b73ffffffffffffffffffffffffffffffffffffffff16612a6b611fcb565b73ffffffffffffffffffffffffffffffffffffffff1614612ac1576040517f08c379a0000000000000000000000000000000000000000000000000000000008152600401612ab890613f6f565b60405180910390fd5b600073ffffffffffffffffffffffffffffffffffffffff168173ffffffffffffffffffffffffffffffffffffffff161415612b31576040517f08c379a0000000000000000000000000000000000000000000000000000000008152600401612b2890613ecf565b60405180910390fd5b612b3a8161302e565b50565b600033905090565b600073ffffffffffffffffffffffffffffffffffffffff168373ffffffffffffffffffffffffffffffffffffffff161415612bb5576040517f08c379a0000000000000000000000000000000000000000000000000000000008152600401612bac90613faf565b60405180910390fd5b600073ffffffffffffffffffffffffffffffffffffffff168273ffffffffffffffffffffffffffffffffffffffff161415612c25576040517f08c379a0000000000000000000000000000000000000000000000000000000008152600401612c1c90613eef565b60405180910390fd5b80603460008573ffffffffffffffffffffffffffffffffffffffff1673ffffffffffffffffffffffffffffffffffffffff16815260200190815260200160002060008473ffffffffffffffffffffffffffffffffffffffff1673ffffffffffffffffffffffffffffffffffffffff168152602001908152602001600020819055508173ffffffffffffffffffffffffffffffffffffffff168373ffffffffffffffffffffffffffffffffffffffff167f8c5be1e5ebec7d5bd14f71427d1e84f3dd0314c0f7b2291e5b200ac8c7c3b92583604051612d03919061402f565b60405180910390a3505050565b600081600001549050919050565b6000612d2a84846129be565b90507fffffffffffffffffffffffffffffffffffffffffffffffffffffffffffffffff8114612da45781811015612d96576040517f08c379a0000000000000000000000000000000000000000000000000000000008152600401612d8d90613f0f565b60405180910390fd5b612da38484848403612b45565b5b50505050565b600073ffffffffffffffffffffffffffffffffffffffff168373ffffffffffffffffffffffffffffffffffffffff161415612e1a576040517f08c379a0000000000000000000000000000000000000000000000000000000008152600401612e1190613f8f565b60405180910390fd5b600073ffffffffffffffffffffffffffffffffffffffff168273ffffffffffffffffffffffffffffffffffffffff161415612e8a576040517f08c379a0000000000000000000000000000000000000000000000000000000008152600401612e8190613eaf565b60405180910390fd5b612e95838383613309565b6000603360008573ffffffffffffffffffffffffffffffffffffffff1673ffffffffffffffffffffffffffffffffffffffff16815260200190815260200160002054905081811015612f1c576040517f08c379a0000000000000000000000000000000000000000000000000000000008152600401612f1390613f2f565b60405180910390fd5b818103603360008673ffffffffffffffffffffffffffffffffffffffff1673ffffffffffffffffffffffffffffffffffffffff1681526020019081526020016000208190555081603360008573ffffffffffffffffffffffffffffffffffffffff1673ffffffffffffffffffffffffffffffffffffffff1681526020019081526020016000206000828254612fb19190614141565b925050819055508273ffffffffffffffffffffffffffffffffffffffff168473ffffffffffffffffffffffffffffffffffffffff167fddf252ad1be2c89b69c2b068fc378daa952ba7f163c4a11628f55a4df523b3ef84604051613015919061402f565b60405180910390a361302884848461330e565b50505050565b6000609760009054906101000a900473ffffffffffffffffffffffffffffffffffffffff16905081609760006101000a81548173ffffffffffffffffffffffffffffffffffffffff021916908373ffffffffffffffffffffffffffffffffffffffff1602179055508173ffffffffffffffffffffffffffffffffffffffff168173ffffffffffffffffffffffffffffffffffffffff167f8be0079c531659141344cd1fd0a4f28419497f9722a3daafe3b4186f6b6457e060405160405180910390a35050565b60008060019054906101000a900460ff161561316b5760018260ff16148015613123575061312130613313565b155b613162576040517f08c379a000000000000000000000000000000000000000000000000000000000815260040161315990613f4f565b60405180910390fd5b600090506131df565b8160ff1660008054906101000a900460ff1660ff16106131c0576040517f08c379a00000000000000000000000000000000000000000000000000000000081526004016131b790613f4f565b60405180910390fd5b816000806101000a81548160ff021916908360ff160217905550600190505b919050565b600060019054906101000a900460ff16613233576040517f08c379a000000000000000000000000000000000000000000000000000000000815260040161322a90613fcf565b60405180910390fd5b61323d8282613336565b5050565b600060019054906101000a900460ff16613290576040517f08c379a000000000000000000000000000000000000000000000000000000000815260040161328790613fcf565b60405180910390fd5b6132986133b7565b565b600060019054906101000a900460ff166132e9576040517f08c379a00000000000000000000000000000000000000000000000000000000081526004016132e090613fcf565b60405180910390fd5b6132f1613410565b565b6001816000016000828254019250508190555050565b505050565b505050565b6000808273ffffffffffffffffffffffffffffffffffffffff163b119050919050565b600060019054906101000a900460ff16613385576040517f08c379a000000000000000000000000000000000000000000000000000000000815260040161337c90613fcf565b60405180910390fd5b816036908051906020019061339b929190613471565b5080603790805190602001906133b2929190613471565b505050565b600060019054906101000a900460ff16613406576040517f08c379a00000000000000000000000000000000000000000000000000000000081526004016133fd90613fcf565b60405180910390fd5b6001606581905550565b600060019054906101000a900460ff1661345f576040517f08c379a000000000000000000000000000000000000000000000000000000000815260040161345690613fcf565b60405180910390fd5b61346f61346a612b3d565b61302e565b565b82805461347d90614252565b90600052602060002090601f01602090048101928261349f57600085556134e6565b82601f106134b857805160ff19168380011785556134e6565b828001600101855582156134e6579182015b828111156134e55782518255916020019190600101906134ca565b5b5090506134f3919061353e565b5090565b6040518060a00160405280606081526020016060815260200160608152602001600073ffffffffffffffffffffffffffffffffffffffff1681526020016000151581525090565b5b8082111561355757600081600090555060010161353f565b5090565b600061356e6135698461408a565b614065565b90508281526020810184848401111561358657600080fd5b613591848285614210565b509392505050565b6000813590506135a8816146de565b92915050565b600082601f8301126135bf57600080fd5b81356135cf84826020860161355b565b91505092915050565b6000813590506135e7816146f5565b92915050565b6000602082840312156135ff57600080fd5b600061360d84828501613599565b91505092915050565b6000806040838503121561362957600080fd5b600061363785828601613599565b925050602061364885828601613599565b9150509250929050565b60008060006060848603121561366757600080fd5b600061367586828701613599565b935050602061368686828701613599565b9250506040613697868287016135d8565b9150509250925092565b600080604083850312156136b457600080fd5b60006136c285828601613599565b925050602083013567ffffffffffffffff8111156136df57600080fd5b6136eb858286016135ae565b9150509250929050565b6000806040838503121561370857600080fd5b600061371685828601613599565b9250506020613727858286016135d8565b9150509250929050565b60006020828403121561374357600080fd5b600082013567ffffffffffffffff81111561375d57600080fd5b613769848285016135ae565b91505092915050565b60008060006060848603121561378757600080fd5b600084013567ffffffffffffffff8111156137a157600080fd5b6137ad868287016135ae565b935050602084013567ffffffffffffffff8111156137ca57600080fd5b6137d6868287016135ae565b925050604084013567ffffffffffffffff8111156137f357600080fd5b6137ff868287016135ae565b9150509250925092565b6000806000806080858703121561381f57600080fd5b600085013567ffffffffffffffff81111561383957600080fd5b613845878288016135ae565b945050602085013567ffffffffffffffff81111561386257600080fd5b61386e878288016135ae565b935050604085013567ffffffffffffffff81111561388b57600080fd5b613897878288016135ae565b925050606085013567ffffffffffffffff8111156138b457600080fd5b6138c0878288016135ae565b91505092959194509250565b6000602082840312156138de57600080fd5b60006138ec848285016135d8565b91505092915050565b60006139018383613c9e565b905092915050565b613912816141a9565b82525050565b61392181614197565b82525050565b61393081614197565b82525050565b6000613941826140e0565b61394b8185614103565b93508360208202850161395d856140bb565b8060005b85811015613999578484038952815161397a85826138f5565b9450613985836140f6565b925060208a01995050600181019050613961565b50829750879550505050505092915050565b6139b4816141bb565b82525050565b6139c3816141bb565b82525050565b6139d2816141fe565b82525050565b60006139e3826140eb565b6139ed8185614114565b93506139fd81856020860161421f565b613a068161438b565b840191505092915050565b6000613a1c826140eb565b613a268185614125565b9350613a3681856020860161421f565b613a3f8161438b565b840191505092915050565b6000613a55826140eb565b613a5f8185614136565b9350613a6f81856020860161421f565b80840191505092915050565b60008154613a8881614252565b613a928186614136565b94506001821660008114613aad5760018114613abe57613af1565b60ff19831686528186019350613af1565b613ac7856140cb565b60005b83811015613ae957815481890152600182019150602081019050613aca565b838801955050505b50505092915050565b6000613b07602383614125565b9150613b128261439c565b604082019050919050565b6000613b2a602683614125565b9150613b35826143eb565b604082019050919050565b6000613b4d602283614125565b9150613b588261443a565b604082019050919050565b6000613b70601d83614125565b9150613b7b82614489565b602082019050919050565b6000613b93602683614125565b9150613b9e826144b2565b604082019050919050565b6000613bb6602e83614125565b9150613bc182614501565b604082019050919050565b6000613bd9602083614125565b9150613be482614550565b602082019050919050565b6000613bfc602583614125565b9150613c0782614579565b604082019050919050565b6000613c1f602483614125565b9150613c2a826145c8565b604082019050919050565b6000613c42602b83614125565b9150613c4d82614617565b604082019050919050565b6000613c65601f83614125565b9150613c7082614666565b602082019050919050565b6000613c88602583614125565b9150613c938261468f565b604082019050919050565b600060a0830160008301518482036000860152613cbb82826139d8565b91505060208301518482036020860152613cd582826139d8565b91505060408301518482036040860152613cef82826139d8565b9150506060830151613d046060860182613918565b506080830151613d1760808601826139ab565b508091505092915050565b613d2b816141e7565b82525050565b613d3a816141f1565b82525050565b6000613d4c8284613a4a565b915081905092915050565b6000613d638284613a7b565b915081905092915050565b6000602082019050613d836000830184613927565b92915050565b6000602082019050613d9e6000830184613909565b92915050565b6000604082019050613db96000830185613927565b613dc660208301846139ba565b9392505050565b60006020820190508181036000830152613de78184613936565b905092915050565b6000602082019050613e0460008301846139ba565b92915050565b6000602082019050613e1f60008301846139c9565b92915050565b60006020820190508181036000830152613e3f8184613a11565b905092915050565b600060a0820190508181036000830152613e618188613a11565b90508181036020830152613e758187613a11565b90508181036040830152613e898186613a11565b9050613e986060830185613927565b613ea560808301846139ba565b9695505050505050565b60006020820190508181036000830152613ec881613afa565b9050919050565b60006020820190508181036000830152613ee881613b1d565b9050919050565b60006020820190508181036000830152613f0881613b40565b9050919050565b60006020820190508181036000830152613f2881613b63565b9050919050565b60006020820190508181036000830152613f4881613b86565b9050919050565b60006020820190508181036000830152613f6881613ba9565b9050919050565b60006020820190508181036000830152613f8881613bcc565b9050919050565b60006020820190508181036000830152613fa881613bef565b9050919050565b60006020820190508181036000830152613fc881613c12565b9050919050565b60006020820190508181036000830152613fe881613c35565b9050919050565b6000602082019050818103600083015261400881613c58565b9050919050565b6000602082019050818103600083015261402881613c7b565b9050919050565b60006020820190506140446000830184613d22565b92915050565b600060208201905061405f6000830184613d31565b92915050565b600061406f614080565b905061407b8282614284565b919050565b6000604051905090565b600067ffffffffffffffff8211156140a5576140a461435c565b5b6140ae8261438b565b9050602081019050919050565b6000819050602082019050919050565b60008190508160005260206000209050919050565b600081519050919050565b600081519050919050565b6000602082019050919050565b600082825260208201905092915050565b600082825260208201905092915050565b600082825260208201905092915050565b600081905092915050565b600061414c826141e7565b9150614157836141e7565b9250827fffffffffffffffffffffffffffffffffffffffffffffffffffffffffffffffff0382111561418c5761418b6142fe565b5b828201905092915050565b60006141a2826141c7565b9050919050565b60006141b4826141c7565b9050919050565b60008115159050919050565b600073ffffffffffffffffffffffffffffffffffffffff82169050919050565b6000819050919050565b600060ff82169050919050565b6000614209826141f1565b9050919050565b82818337600083830152505050565b60005b8381101561423d578082015181840152602081019050614222565b8381111561424c576000848401525b50505050565b6000600282049050600182168061426a57607f821691505b6020821081141561427e5761427d61432d565b5b50919050565b61428d8261438b565b810181811067ffffffffffffffff821117156142ac576142ab61435c565b5b80604052505050565b60006142c0826141e7565b91507fffffffffffffffffffffffffffffffffffffffffffffffffffffffffffffffff8214156142f3576142f26142fe565b5b600182019050919050565b7f4e487b7100000000000000000000000000000000000000000000000000000000600052601160045260246000fd5b7f4e487b7100000000000000000000000000000000000000000000000000000000600052602260045260246000fd5b7f4e487b7100000000000000000000000000000000000000000000000000000000600052604160045260246000fd5b6000601f19601f8301169050919050565b7f45524332303a207472616e7366657220746f20746865207a65726f206164647260008201527f6573730000000000000000000000000000000000000000000000000000000000602082015250565b7f4f776e61626c653a206e6577206f776e657220697320746865207a65726f206160008201527f6464726573730000000000000000000000000000000000000000000000000000602082015250565b7f45524332303a20617070726f766520746f20746865207a65726f20616464726560008201527f7373000000000000000000000000000000000000000000000000000000000000602082015250565b7f45524332303a20696e73756666696369656e7420616c6c6f77616e6365000000600082015250565b7f45524332303a207472616e7366657220616d6f756e742065786365656473206260008201527f616c616e63650000000000000000000000000000000000000000000000000000602082015250565b7f496e697469616c697a61626c653a20636f6e747261637420697320616c72656160008201527f647920696e697469616c697a6564000000000000000000000000000000000000602082015250565b7f4f776e61626c653a2063616c6c6572206973206e6f7420746865206f776e6572600082015250565b7f45524332303a207472616e736665722066726f6d20746865207a65726f20616460008201527f6472657373000000000000000000000000000000000000000000000000000000602082015250565b7f45524332303a20617070726f76652066726f6d20746865207a65726f2061646460008201527f7265737300000000000000000000000000000000000000000000000000000000602082015250565b7f496e697469616c697a61626c653a20636f6e7472616374206973206e6f74206960008201527f6e697469616c697a696e67000000000000000000000000000000000000000000602082015250565b7f5265656e7472616e637947756172643a207265656e7472616e742063616c6c00600082015250565b7f45524332303a2064656372656173656420616c6c6f77616e63652062656c6f7760008201527f207a65726f000000000000000000000000000000000000000000000000000000602082015250565b6146e781614197565b81146146f257600080fd5b50565b6146fe816141e7565b811461470957600080fd5b5056fea26469706673582212201ce3a650d5f5fb369f5d76b6b6967212bc94f5235221934b6c96697b85629adb64736f6c63430008040033",
  "linkReferences": {},
  "deployedLinkReferences": {}
}