{
  "_format": "hh-sol-artifact-1",
  "contractName": "phoneLink",
  "sourceName": "contracts/phoneLink.sol",
  "abi": [
    {
      "anonymous": false,
      "inputs": [
        {
          "indexed": true,
          "internalType": "address",
          "name": "owner",
          "type": "address"
        },
        {
          "indexed": true,
          "internalType": "address",
          "name": "spender",
          "type": "address"
        },
        {
          "indexed": false,
          "internalType": "uint256",
          "name": "value",
          "type": "uint256"
        }
      ],
      "name": "Approval",
      "type": "event"
    },
    {
      "anonymous": false,
      "inputs": [
        {
          "indexed": true,
          "internalType": "string",
          "name": "name",
          "type": "string"
        },
        {
          "indexed": true,
          "internalType": "string",
          "name": "identifier",
          "type": "string"
        },
        {
          "indexed": true,
          "internalType": "string",
          "name": "typeOfIdentifier",
          "type": "string"
        },
        {
          "indexed": false,
          "internalType": "address",
          "name": "connectedWalletAddress",
          "type": "address"
        },
        {
          "indexed": false,
          "internalType": "bool",
          "name": "isPrimaryWallet",
          "type": "bool"
        }
      ],
      "name": "DetailsCreated",
      "type": "event"
    },
    {
      "anonymous": false,
      "inputs": [
        {
          "indexed": true,
          "internalType": "address",
          "name": "from",
          "type": "address"
        },
        {
          "indexed": true,
          "internalType": "address",
          "name": "to",
          "type": "address"
        },
        {
          "indexed": false,
          "internalType": "uint256",
          "name": "value",
          "type": "uint256"
        }
      ],
      "name": "Transfer",
      "type": "event"
    },
    {
      "inputs": [],
      "name": "_itemIds",
      "outputs": [
        {
          "internalType": "uint256",
          "name": "_value",
          "type": "uint256"
        }
      ],
      "stateMutability": "view",
      "type": "function"
    },
    {
      "inputs": [
        {
          "internalType": "address",
          "name": "owner",
          "type": "address"
        },
        {
          "internalType": "address",
          "name": "spender",
          "type": "address"
        }
      ],
      "name": "allowance",
      "outputs": [
        {
          "internalType": "uint256",
          "name": "",
          "type": "uint256"
        }
      ],
      "stateMutability": "view",
      "type": "function"
    },
    {
      "inputs": [
        {
          "internalType": "address",
          "name": "spender",
          "type": "address"
        },
        {
          "internalType": "uint256",
          "name": "amount",
          "type": "uint256"
        }
      ],
      "name": "approve",
      "outputs": [
        {
          "internalType": "bool",
          "name": "",
          "type": "bool"
        }
      ],
      "stateMutability": "nonpayable",
      "type": "function"
    },
    {
      "inputs": [
        {
          "internalType": "address",
          "name": "account",
          "type": "address"
        }
      ],
      "name": "balanceOf",
      "outputs": [
        {
          "internalType": "uint256",
          "name": "",
          "type": "uint256"
        }
      ],
      "stateMutability": "view",
      "type": "function"
    },
    {
      "inputs": [],
      "name": "decimals",
      "outputs": [
        {
          "internalType": "uint8",
          "name": "",
          "type": "uint8"
        }
      ],
      "stateMutability": "view",
      "type": "function"
    },
    {
      "inputs": [
        {
          "internalType": "address",
          "name": "spender",
          "type": "address"
        },
        {
          "internalType": "uint256",
          "name": "subtractedValue",
          "type": "uint256"
        }
      ],
      "name": "decreaseAllowance",
      "outputs": [
        {
          "internalType": "bool",
          "name": "",
          "type": "bool"
        }
      ],
      "stateMutability": "nonpayable",
      "type": "function"
    },
    {
      "inputs": [
        {
          "internalType": "string",
          "name": "name",
          "type": "string"
        },
        {
          "internalType": "string",
          "name": "identifier",
          "type": "string"
        },
        {
          "internalType": "string",
          "name": "typeOfIdentifier",
          "type": "string"
        },
        {
          "internalType": "string",
          "name": "oldIdentifier",
          "type": "string"
        }
      ],
      "name": "editProfile",
      "outputs": [],
      "stateMutability": "nonpayable",
      "type": "function"
    },
    {
      "inputs": [
        {
          "internalType": "string",
          "name": "name",
          "type": "string"
        },
        {
          "internalType": "string",
          "name": "identifier",
          "type": "string"
        },
        {
          "internalType": "string",
          "name": "typeOfIdentifier",
          "type": "string"
        }
      ],
      "name": "enterDetails",
      "outputs": [],
      "stateMutability": "nonpayable",
      "type": "function"
    },
    {
      "inputs": [
        {
          "internalType": "string",
          "name": "userIdentifier",
          "type": "string"
        }
      ],
      "name": "fetchAllWalletAddress",
      "outputs": [
        {
          "components": [
            {
              "internalType": "string",
              "name": "name",
              "type": "string"
            },
            {
              "internalType": "string",
              "name": "identifier",
              "type": "string"
            },
            {
              "internalType": "string",
              "name": "typeOfIdentifier",
              "type": "string"
            },
            {
              "internalType": "address",
              "name": "connectedWalletAddress",
              "type": "address"
            },
            {
              "internalType": "bool",
              "name": "isPrimaryWallet",
              "type": "bool"
            }
          ],
          "internalType": "struct phoneLink.Details[]",
          "name": "",
          "type": "tuple[]"
        }
      ],
      "stateMutability": "view",
      "type": "function"
    },
    {
      "inputs": [
        {
          "internalType": "string",
          "name": "userIdentifier",
          "type": "string"
        }
      ],
      "name": "fetchPrimaryWalletAddress",
      "outputs": [
        {
          "internalType": "address",
          "name": "",
          "type": "address"
        }
      ],
      "stateMutability": "view",
      "type": "function"
    },
    {
      "inputs": [],
      "name": "getMarketOwner",
      "outputs": [
        {
          "internalType": "address payable",
          "name": "",
          "type": "address"
        }
      ],
      "stateMutability": "view",
      "type": "function"
    },
    {
      "inputs": [],
      "name": "getPhoneToDetails",
      "outputs": [
        {
          "components": [
            {
              "internalType": "string",
              "name": "name",
              "type": "string"
            },
            {
              "internalType": "string",
              "name": "identifier",
              "type": "string"
            },
            {
              "internalType": "string",
              "name": "typeOfIdentifier",
              "type": "string"
            },
            {
              "internalType": "address",
              "name": "connectedWalletAddress",
              "type": "address"
            },
            {
              "internalType": "bool",
              "name": "isPrimaryWallet",
              "type": "bool"
            }
          ],
          "internalType": "struct phoneLink.Details[]",
          "name": "",
          "type": "tuple[]"
        }
      ],
      "stateMutability": "view",
      "type": "function"
    },
    {
      "inputs": [
        {
          "internalType": "address",
          "name": "walletAddress",
          "type": "address"
        }
      ],
      "name": "getWalletDetails",
      "outputs": [
        {
          "components": [
            {
              "internalType": "string",
              "name": "name",
              "type": "string"
            },
            {
              "internalType": "string",
              "name": "identifier",
              "type": "string"
            },
            {
              "internalType": "string",
              "name": "typeOfIdentifier",
              "type": "string"
            },
            {
              "internalType": "address",
              "name": "connectedWalletAddress",
              "type": "address"
            },
            {
              "internalType": "bool",
              "name": "isPrimaryWallet",
              "type": "bool"
            }
          ],
          "internalType": "struct phoneLink.Details[]",
          "name": "",
          "type": "tuple[]"
        }
      ],
      "stateMutability": "view",
      "type": "function"
    },
    {
      "inputs": [
        {
          "internalType": "address",
          "name": "spender",
          "type": "address"
        },
        {
          "internalType": "uint256",
          "name": "addedValue",
          "type": "uint256"
        }
      ],
      "name": "increaseAllowance",
      "outputs": [
        {
          "internalType": "bool",
          "name": "",
          "type": "bool"
        }
      ],
      "stateMutability": "nonpayable",
      "type": "function"
    },
    {
      "inputs": [],
      "name": "initialize",
      "outputs": [],
      "stateMutability": "nonpayable",
      "type": "function"
    },
    {
      "inputs": [
        {
          "internalType": "address",
          "name": "wallet",
          "type": "address"
        },
        {
          "internalType": "string",
          "name": "identifier",
          "type": "string"
        }
      ],
      "name": "makePrimary",
      "outputs": [],
      "stateMutability": "nonpayable",
      "type": "function"
    },
    {
      "inputs": [],
      "name": "marketowner",
      "outputs": [
        {
          "internalType": "address payable",
          "name": "",
          "type": "address"
        }
      ],
      "stateMutability": "view",
      "type": "function"
    },
    {
      "inputs": [],
      "name": "myWallets",
      "outputs": [
        {
          "components": [
            {
              "internalType": "string",
              "name": "name",
              "type": "string"
            },
            {
              "internalType": "string",
              "name": "identifier",
              "type": "string"
            },
            {
              "internalType": "string",
              "name": "typeOfIdentifier",
              "type": "string"
            },
            {
              "internalType": "address",
              "name": "connectedWalletAddress",
              "type": "address"
            },
            {
              "internalType": "bool",
              "name": "isPrimaryWallet",
              "type": "bool"
            }
          ],
          "internalType": "struct phoneLink.Details[]",
          "name": "",
          "type": "tuple[]"
        }
      ],
      "stateMutability": "view",
      "type": "function"
    },
    {
      "inputs": [],
      "name": "name",
      "outputs": [
        {
          "internalType": "string",
          "name": "",
          "type": "string"
        }
      ],
      "stateMutability": "view",
      "type": "function"
    },
    {
      "inputs": [
        {
          "internalType": "uint256",
          "name": "",
          "type": "uint256"
        }
      ],
      "name": "phoneToDetails",
      "outputs": [
        {
          "internalType": "string",
          "name": "name",
          "type": "string"
        },
        {
          "internalType": "string",
          "name": "identifier",
          "type": "string"
        },
        {
          "internalType": "string",
          "name": "typeOfIdentifier",
          "type": "string"
        },
        {
          "internalType": "address",
          "name": "connectedWalletAddress",
          "type": "address"
        },
        {
          "internalType": "bool",
          "name": "isPrimaryWallet",
          "type": "bool"
        }
      ],
      "stateMutability": "view",
      "type": "function"
    },
    {
      "inputs": [
        {
          "internalType": "address",
          "name": "destination",
          "type": "address"
        },
        {
          "internalType": "uint256",
          "name": "amount",
          "type": "uint256"
        }
      ],
      "name": "sendToken",
      "outputs": [],
      "stateMutability": "payable",
      "type": "function"
    },
    {
      "inputs": [],
      "name": "symbol",
      "outputs": [
        {
          "internalType": "string",
          "name": "",
          "type": "string"
        }
      ],
      "stateMutability": "view",
      "type": "function"
    },
    {
      "inputs": [],
      "name": "totalSupply",
      "outputs": [
        {
          "internalType": "uint256",
          "name": "",
          "type": "uint256"
        }
      ],
      "stateMutability": "view",
      "type": "function"
    },
    {
      "inputs": [
        {
          "internalType": "address",
          "name": "to",
          "type": "address"
        },
        {
          "internalType": "uint256",
          "name": "amount",
          "type": "uint256"
        }
      ],
      "name": "transfer",
      "outputs": [
        {
          "internalType": "bool",
          "name": "",
          "type": "bool"
        }
      ],
      "stateMutability": "nonpayable",
      "type": "function"
    },
    {
      "inputs": [
        {
          "internalType": "address",
          "name": "from",
          "type": "address"
        },
        {
          "internalType": "address",
          "name": "to",
          "type": "address"
        },
        {
          "internalType": "uint256",
          "name": "amount",
          "type": "uint256"
        }
      ],
      "name": "transferFrom",
      "outputs": [
        {
          "internalType": "bool",
          "name": "",
          "type": "bool"
        }
      ],
      "stateMutability": "nonpayable",
      "type": "function"
    }
  ],
  "bytecode": "0x608060405234801561001057600080fd5b50613e02806100206000396000f3fe6080604052600436106101665760003560e01c80635a12d0f8116100d157806395d89b411161008a578063d137bc6c11610064578063d137bc6c14610571578063d263be481461059a578063db461e1a146105c5578063dd62ed3e1461060257610166565b806395d89b41146104cc578063a457c2d7146104f7578063a9059cbb1461053457610166565b80635a12d0f8146103a85780635e385b92146103d35780636e997665146103fe57806370a082311461043b5780638129fc1c146104785780638cae45d21461048f57610166565b806334a7f1931161012357806334a7f1931461028f57806339509351146102ba5780633e3a648d146102f7578063412664ae14610320578063451e9cf01461033c57806352d954911461036757610166565b806306fdde031461016b578063095ea7b3146101965780630c60b372146101d357806318160ddd146101fc57806323b872dd14610227578063313ce56714610264575b600080fd5b34801561017757600080fd5b5061018061063f565b60405161018d91906135f8565b60405180910390f35b3480156101a257600080fd5b506101bd60048036038101906101b89190612f5b565b6106d1565b6040516101ca91906135dd565b60405180910390f35b3480156101df57600080fd5b506101fa60048036038101906101f59190612f07565b6106f4565b005b34801561020857600080fd5b50610211610920565b60405161021e91906137a2565b60405180910390f35b34801561023357600080fd5b5061024e60048036038101906102499190612eb8565b61092a565b60405161025b91906135dd565b60405180910390f35b34801561027057600080fd5b50610279610959565b60405161028691906137bd565b60405180910390f35b34801561029b57600080fd5b506102a4610962565b6040516102b191906137a2565b60405180910390f35b3480156102c657600080fd5b506102e160048036038101906102dc9190612f5b565b61096e565b6040516102ee91906135dd565b60405180910390f35b34801561030357600080fd5b5061031e6004803603810190610319919061306f565b610a18565b005b61033a60048036038101906103359190612f5b565b610c54565b005b34801561034857600080fd5b50610351610c9f565b60405161035e9190613577565b60405180910390f35b34801561037357600080fd5b5061038e60048036038101906103899190613132565b610cc9565b60405161039f95949392919061361a565b60405180910390f35b3480156103b457600080fd5b506103bd610ec4565b6040516103ca91906135bb565b60405180910390f35b3480156103df57600080fd5b506103e861122b565b6040516103f59190613577565b60405180910390f35b34801561040a57600080fd5b5061042560048036038101906104209190612f97565b611251565b60405161043291906135bb565b60405180910390f35b34801561044757600080fd5b50610462600480360381019061045d9190612e53565b6116d7565b60405161046f91906137a2565b60405180910390f35b34801561048457600080fd5b5061048d611720565b005b34801561049b57600080fd5b506104b660048036038101906104b19190612e53565b61186d565b6040516104c391906135bb565b60405180910390f35b3480156104d857600080fd5b506104e1611c47565b6040516104ee91906135f8565b60405180910390f35b34801561050357600080fd5b5061051e60048036038101906105199190612f5b565b611cd9565b60405161052b91906135dd565b60405180910390f35b34801561054057600080fd5b5061055b60048036038101906105569190612f5b565b611dc3565b60405161056891906135dd565b60405180910390f35b34801561057d57600080fd5b5061059860048036038101906105939190612fd8565b611de6565b005b3480156105a657600080fd5b506105af612064565b6040516105bc91906135bb565b60405180910390f35b3480156105d157600080fd5b506105ec60048036038101906105e79190612f97565b6124f2565b6040516105f9919061355c565b60405180910390f35b34801561060e57600080fd5b5061062960048036038101906106249190612e7c565b61262d565b60405161063691906137a2565b60405180910390f35b60606036805461064e906139b3565b80601f016020809104026020016040519081016040528092919081815260200182805461067a906139b3565b80156106c75780601f1061069c576101008083540402835291602001916106c7565b820191906000526020600020905b8154815290600101906020018083116106aa57829003601f168201915b5050505050905090565b6000806106dc6126b4565b90506106e98185856126bc565b600191505092915050565b60006107006066612887565b905060005b818110156107d1578260405160200161071e919061352e565b604051602081830303815290604052805190602001206067600060018461074591906138b4565b81526020019081526020016000206001016040516020016107669190613545565b6040516020818303038152906040528051906020012014156107be5760006067600060018461079591906138b4565b815260200190815260200160002060030160146101000a81548160ff0219169083151502179055505b80806107c990613a16565b915050610705565b5060005b8181101561091a578373ffffffffffffffffffffffffffffffffffffffff166067600060018461080591906138b4565b815260200190815260200160002060030160009054906101000a900473ffffffffffffffffffffffffffffffffffffffff1673ffffffffffffffffffffffffffffffffffffffff161480156108c6575082604051602001610866919061352e565b604051602081830303815290604052805190602001206067600060018461088d91906138b4565b81526020019081526020016000206001016040516020016108ae9190613545565b60405160208183030381529060405280519060200120145b15610907576001606760006001846108de91906138b4565b815260200190815260200160002060030160146101000a81548160ff0219169083151502179055505b808061091290613a16565b9150506107d5565b50505050565b6000603554905090565b6000806109356126b4565b9050610942858285612895565b61094d858585612921565b60019150509392505050565b60006012905090565b60668060000154905081565b6000806109796126b4565b9050610a0d818585603460008673ffffffffffffffffffffffffffffffffffffffff1673ffffffffffffffffffffffffffffffffffffffff16815260200190815260200160002060008973ffffffffffffffffffffffffffffffffffffffff1673ffffffffffffffffffffffffffffffffffffffff16815260200190815260200160002054610a0891906138b4565b6126bc565b600191505092915050565b6000610a246066612887565b905060005b81811015610c4c573373ffffffffffffffffffffffffffffffffffffffff1660676000600184610a5991906138b4565b815260200190815260200160002060030160009054906101000a900473ffffffffffffffffffffffffffffffffffffffff1673ffffffffffffffffffffffffffffffffffffffff161415610c395783604051602001610ab8919061352e565b6040516020818303038152906040528051906020012060676000600184610adf91906138b4565b8152602001908152602001600020600201604051602001610b009190613545565b604051602081830303815290604052805190602001201415610c385782604051602001610b2d919061352e565b6040516020818303038152906040528051906020012060676000600184610b5491906138b4565b8152602001908152602001600020600101604051602001610b759190613545565b604051602081830303815290604052805190602001201415610c37578560676000600184610ba391906138b4565b81526020019081526020016000206000019080519060200190610bc7929190612cd7565b508460676000600184610bda91906138b4565b81526020019081526020016000206001019080519060200190610bfe929190612cd7565b508360676000600184610c1191906138b4565b81526020019081526020016000206002019080519060200190610c35929190612cd7565b505b5b5b8080610c4490613a16565b915050610a29565b505050505050565b8173ffffffffffffffffffffffffffffffffffffffff166108fc829081150290604051600060405180830381858888f19350505050158015610c9a573d6000803e3d6000fd5b505050565b6000606560009054906101000a900473ffffffffffffffffffffffffffffffffffffffff16905090565b6067602052806000526040600020600091509050806000018054610cec906139b3565b80601f0160208091040260200160405190810160405280929190818152602001828054610d18906139b3565b8015610d655780601f10610d3a57610100808354040283529160200191610d65565b820191906000526020600020905b815481529060010190602001808311610d4857829003601f168201915b505050505090806001018054610d7a906139b3565b80601f0160208091040260200160405190810160405280929190818152602001828054610da6906139b3565b8015610df35780601f10610dc857610100808354040283529160200191610df3565b820191906000526020600020905b815481529060010190602001808311610dd657829003601f168201915b505050505090806002018054610e08906139b3565b80601f0160208091040260200160405190810160405280929190818152602001828054610e34906139b3565b8015610e815780601f10610e5657610100808354040283529160200191610e81565b820191906000526020600020905b815481529060010190602001808311610e6457829003601f168201915b5050505050908060030160009054906101000a900473ffffffffffffffffffffffffffffffffffffffff16908060030160149054906101000a900460ff16905085565b60606000610ed26066612887565b90506000808267ffffffffffffffff811115610f17577f4e487b7100000000000000000000000000000000000000000000000000000000600052604160045260246000fd5b604051908082528060200260200182016040528015610f5057816020015b610f3d612d5d565b815260200190600190039081610f355790505b50905060005b83811015611221576000600182610f6d91906138b4565b90506000606760008381526020019081526020016000209050806040518060a0016040529081600082018054610fa2906139b3565b80601f0160208091040260200160405190810160405280929190818152602001828054610fce906139b3565b801561101b5780601f10610ff05761010080835404028352916020019161101b565b820191906000526020600020905b815481529060010190602001808311610ffe57829003601f168201915b50505050508152602001600182018054611034906139b3565b80601f0160208091040260200160405190810160405280929190818152602001828054611060906139b3565b80156110ad5780601f10611082576101008083540402835291602001916110ad565b820191906000526020600020905b81548152906001019060200180831161109057829003601f168201915b505050505081526020016002820180546110c6906139b3565b80601f01602080910402602001604051908101604052809291908181526020018280546110f2906139b3565b801561113f5780601f106111145761010080835404028352916020019161113f565b820191906000526020600020905b81548152906001019060200180831161112257829003601f168201915b505050505081526020016003820160009054906101000a900473ffffffffffffffffffffffffffffffffffffffff1673ffffffffffffffffffffffffffffffffffffffff1673ffffffffffffffffffffffffffffffffffffffff1681526020016003820160149054906101000a900460ff1615151515815250508486815181106111f2577f4e487b7100000000000000000000000000000000000000000000000000000000600052603260045260246000fd5b602002602001018190525060018561120a91906138b4565b94505050808061121990613a16565b915050610f56565b5080935050505090565b606560009054906101000a900473ffffffffffffffffffffffffffffffffffffffff1681565b6060600061125f6066612887565b905060008060005b838110156113075785604051602001611280919061352e565b60405160208183030381529060405280519060200120606760006001846112a791906138b4565b81526020019081526020016000206001016040516020016112c89190613545565b6040516020818303038152906040528051906020012014156112f4576001836112f191906138b4565b92505b80806112ff90613a16565b915050611267565b5060008267ffffffffffffffff81111561134a577f4e487b7100000000000000000000000000000000000000000000000000000000600052604160045260246000fd5b60405190808252806020026020018201604052801561138357816020015b611370612d5d565b8152602001906001900390816113685790505b50905060005b848110156116ca57866040516020016113a2919061352e565b60405160208183030381529060405280519060200120606760006001846113c991906138b4565b81526020019081526020016000206001016040516020016113ea9190613545565b6040516020818303038152906040528051906020012014156116b757600060018261141591906138b4565b90506000606760008381526020019081526020016000209050806040518060a001604052908160008201805461144a906139b3565b80601f0160208091040260200160405190810160405280929190818152602001828054611476906139b3565b80156114c35780601f10611498576101008083540402835291602001916114c3565b820191906000526020600020905b8154815290600101906020018083116114a657829003601f168201915b505050505081526020016001820180546114dc906139b3565b80601f0160208091040260200160405190810160405280929190818152602001828054611508906139b3565b80156115555780601f1061152a57610100808354040283529160200191611555565b820191906000526020600020905b81548152906001019060200180831161153857829003601f168201915b5050505050815260200160028201805461156e906139b3565b80601f016020809104026020016040519081016040528092919081815260200182805461159a906139b3565b80156115e75780601f106115bc576101008083540402835291602001916115e7565b820191906000526020600020905b8154815290600101906020018083116115ca57829003601f168201915b505050505081526020016003820160009054906101000a900473ffffffffffffffffffffffffffffffffffffffff1673ffffffffffffffffffffffffffffffffffffffff1673ffffffffffffffffffffffffffffffffffffffff1681526020016003820160149054906101000a900460ff16151515158152505084868151811061169a577f4e487b7100000000000000000000000000000000000000000000000000000000600052603260045260246000fd5b60200260200101819052506001856116b291906138b4565b945050505b80806116c290613a16565b915050611389565b5080945050505050919050565b6000603360008373ffffffffffffffffffffffffffffffffffffffff1673ffffffffffffffffffffffffffffffffffffffff168152602001908152602001600020549050919050565b600060019054906101000a900460ff166117485760008054906101000a900460ff1615611751565b611750612ba5565b5b611790576040517f08c379a000000000000000000000000000000000000000000000000000000000815260040161178790613702565b60405180910390fd5b60008060019054906101000a900460ff1615905080156117e0576001600060016101000a81548160ff02191690831515021790555060016000806101000a81548160ff0219169083151502179055505b6118086040518060200160405280600081525060405180602001604052806000815250612bb6565b33606560006101000a81548173ffffffffffffffffffffffffffffffffffffffff021916908373ffffffffffffffffffffffffffffffffffffffff160217905550801561186a5760008060016101000a81548160ff0219169083151502179055505b50565b6060600061187b6066612887565b90506000808267ffffffffffffffff8111156118c0577f4e487b7100000000000000000000000000000000000000000000000000000000600052604160045260246000fd5b6040519080825280602002602001820160405280156118f957816020015b6118e6612d5d565b8152602001906001900390816118de5790505b50905060005b83811015611c3b578573ffffffffffffffffffffffffffffffffffffffff166067600060018461192f91906138b4565b815260200190815260200160002060030160009054906101000a900473ffffffffffffffffffffffffffffffffffffffff1673ffffffffffffffffffffffffffffffffffffffff161415611c285760006067600060018461199091906138b4565b81526020019081526020016000209050806040518060a00160405290816000820180546119bc906139b3565b80601f01602080910402602001604051908101604052809291908181526020018280546119e8906139b3565b8015611a355780601f10611a0a57610100808354040283529160200191611a35565b820191906000526020600020905b815481529060010190602001808311611a1857829003601f168201915b50505050508152602001600182018054611a4e906139b3565b80601f0160208091040260200160405190810160405280929190818152602001828054611a7a906139b3565b8015611ac75780601f10611a9c57610100808354040283529160200191611ac7565b820191906000526020600020905b815481529060010190602001808311611aaa57829003601f168201915b50505050508152602001600282018054611ae0906139b3565b80601f0160208091040260200160405190810160405280929190818152602001828054611b0c906139b3565b8015611b595780601f10611b2e57610100808354040283529160200191611b59565b820191906000526020600020905b815481529060010190602001808311611b3c57829003601f168201915b505050505081526020016003820160009054906101000a900473ffffffffffffffffffffffffffffffffffffffff1673ffffffffffffffffffffffffffffffffffffffff1673ffffffffffffffffffffffffffffffffffffffff1681526020016003820160149054906101000a900460ff161515151581525050838581518110611c0c577f4e487b7100000000000000000000000000000000000000000000000000000000600052603260045260246000fd5b6020026020010181905250600184611c2491906138b4565b9350505b8080611c3390613a16565b9150506118ff565b50809350505050919050565b606060378054611c56906139b3565b80601f0160208091040260200160405190810160405280929190818152602001828054611c82906139b3565b8015611ccf5780601f10611ca457610100808354040283529160200191611ccf565b820191906000526020600020905b815481529060010190602001808311611cb257829003601f168201915b5050505050905090565b600080611ce46126b4565b90506000603460008373ffffffffffffffffffffffffffffffffffffffff1673ffffffffffffffffffffffffffffffffffffffff16815260200190815260200160002060008673ffffffffffffffffffffffffffffffffffffffff1673ffffffffffffffffffffffffffffffffffffffff16815260200190815260200160002054905083811015611daa576040517f08c379a0000000000000000000000000000000000000000000000000000000008152600401611da190613782565b60405180910390fd5b611db782868684036126bc565b60019250505092915050565b600080611dce6126b4565b9050611ddb818585612921565b600191505092915050565b611df06066612c13565b6000611dfc6066612887565b905060005b81811015611ecd5783604051602001611e1a919061352e565b6040516020818303038152906040528051906020012060676000600184611e4191906138b4565b8152602001908152602001600020600101604051602001611e629190613545565b604051602081830303815290604052805190602001201415611eba57600060676000600184611e9191906138b4565b815260200190815260200160002060030160146101000a81548160ff0219169083151502179055505b8080611ec590613a16565b915050611e01565b506040518060a001604052808581526020018481526020018381526020013373ffffffffffffffffffffffffffffffffffffffff16815260200160011515815250606760008381526020019081526020016000206000820151816000019080519060200190611f3d929190612cd7565b506020820151816001019080519060200190611f5a929190612cd7565b506040820151816002019080519060200190611f77929190612cd7565b5060608201518160030160006101000a81548173ffffffffffffffffffffffffffffffffffffffff021916908373ffffffffffffffffffffffffffffffffffffffff16021790555060808201518160030160146101000a81548160ff02191690831515021790555090505081604051611ff0919061352e565b604051809103902083604051612006919061352e565b60405180910390208560405161201c919061352e565b60405180910390207f2e3249f822bd56e4e9ae7d39402def6df4618c14f212fbe4c35e0c94eddef9fe336001604051612056929190613592565b60405180910390a450505050565b606060006120726066612887565b90506000808267ffffffffffffffff8111156120b7577f4e487b7100000000000000000000000000000000000000000000000000000000600052604160045260246000fd5b6040519080825280602002602001820160405280156120f057816020015b6120dd612d5d565b8152602001906001900390816120d55790505b50905060005b838110156124e8573373ffffffffffffffffffffffffffffffffffffffff166067600060018461212691906138b4565b815260200190815260200160002060030160009054906101000a900473ffffffffffffffffffffffffffffffffffffffff1673ffffffffffffffffffffffffffffffffffffffff1614156124d55760005b848110156124d3576067600060018461219091906138b4565b81526020019081526020016000206001016040516020016121b19190613545565b60405160208183030381529060405280519060200120606760006001846121d891906138b4565b81526020019081526020016000206001016040516020016121f99190613545565b6040516020818303038152906040528051906020012014156124c05760006067600060018461222891906138b4565b81526020019081526020016000209050806040518060a0016040529081600082018054612254906139b3565b80601f0160208091040260200160405190810160405280929190818152602001828054612280906139b3565b80156122cd5780601f106122a2576101008083540402835291602001916122cd565b820191906000526020600020905b8154815290600101906020018083116122b057829003601f168201915b505050505081526020016001820180546122e6906139b3565b80601f0160208091040260200160405190810160405280929190818152602001828054612312906139b3565b801561235f5780601f106123345761010080835404028352916020019161235f565b820191906000526020600020905b81548152906001019060200180831161234257829003601f168201915b50505050508152602001600282018054612378906139b3565b80601f01602080910402602001604051908101604052809291908181526020018280546123a4906139b3565b80156123f15780601f106123c6576101008083540402835291602001916123f1565b820191906000526020600020905b8154815290600101906020018083116123d457829003601f168201915b505050505081526020016003820160009054906101000a900473ffffffffffffffffffffffffffffffffffffffff1673ffffffffffffffffffffffffffffffffffffffff1673ffffffffffffffffffffffffffffffffffffffff1681526020016003820160149054906101000a900460ff1615151515815250508486815181106124a4577f4e487b7100000000000000000000000000000000000000000000000000000000600052603260045260246000fd5b60200260200101819052506001856124bc91906138b4565b9450505b80806124cb90613a16565b915050612177565b505b80806124e090613a16565b9150506120f6565b5080935050505090565b6000806124ff6066612887565b9050600080600090505b828110156126225784604051602001612522919061352e565b604051602081830303815290604052805190602001206067600060018461254991906138b4565b815260200190815260200160002060010160405160200161256a9190613545565b604051602081830303815290604052805190602001201480156125c05750600115156067600060018461259d91906138b4565b815260200190815260200160002060030160149054906101000a900460ff161515145b1561260f57606760006001836125d691906138b4565b815260200190815260200160002060030160009054906101000a900473ffffffffffffffffffffffffffffffffffffffff169150612622565b808061261a90613a16565b915050612509565b508092505050919050565b6000603460008473ffffffffffffffffffffffffffffffffffffffff1673ffffffffffffffffffffffffffffffffffffffff16815260200190815260200160002060008373ffffffffffffffffffffffffffffffffffffffff1673ffffffffffffffffffffffffffffffffffffffff16815260200190815260200160002054905092915050565b600033905090565b600073ffffffffffffffffffffffffffffffffffffffff168373ffffffffffffffffffffffffffffffffffffffff16141561272c576040517f08c379a000000000000000000000000000000000000000000000000000000000815260040161272390613742565b60405180910390fd5b600073ffffffffffffffffffffffffffffffffffffffff168273ffffffffffffffffffffffffffffffffffffffff16141561279c576040517f08c379a0000000000000000000000000000000000000000000000000000000008152600401612793906136a2565b60405180910390fd5b80603460008573ffffffffffffffffffffffffffffffffffffffff1673ffffffffffffffffffffffffffffffffffffffff16815260200190815260200160002060008473ffffffffffffffffffffffffffffffffffffffff1673ffffffffffffffffffffffffffffffffffffffff168152602001908152602001600020819055508173ffffffffffffffffffffffffffffffffffffffff168373ffffffffffffffffffffffffffffffffffffffff167f8c5be1e5ebec7d5bd14f71427d1e84f3dd0314c0f7b2291e5b200ac8c7c3b9258360405161287a91906137a2565b60405180910390a3505050565b600081600001549050919050565b60006128a1848461262d565b90507fffffffffffffffffffffffffffffffffffffffffffffffffffffffffffffffff811461291b578181101561290d576040517f08c379a0000000000000000000000000000000000000000000000000000000008152600401612904906136c2565b60405180910390fd5b61291a84848484036126bc565b5b50505050565b600073ffffffffffffffffffffffffffffffffffffffff168373ffffffffffffffffffffffffffffffffffffffff161415612991576040517f08c379a000000000000000000000000000000000000000000000000000000000815260040161298890613722565b60405180910390fd5b600073ffffffffffffffffffffffffffffffffffffffff168273ffffffffffffffffffffffffffffffffffffffff161415612a01576040517f08c379a00000000000000000000000000000000000000000000000000000000081526004016129f890613682565b60405180910390fd5b612a0c838383612c29565b6000603360008573ffffffffffffffffffffffffffffffffffffffff1673ffffffffffffffffffffffffffffffffffffffff16815260200190815260200160002054905081811015612a93576040517f08c379a0000000000000000000000000000000000000000000000000000000008152600401612a8a906136e2565b60405180910390fd5b818103603360008673ffffffffffffffffffffffffffffffffffffffff1673ffffffffffffffffffffffffffffffffffffffff1681526020019081526020016000208190555081603360008573ffffffffffffffffffffffffffffffffffffffff1673ffffffffffffffffffffffffffffffffffffffff1681526020019081526020016000206000828254612b2891906138b4565b925050819055508273ffffffffffffffffffffffffffffffffffffffff168473ffffffffffffffffffffffffffffffffffffffff167fddf252ad1be2c89b69c2b068fc378daa952ba7f163c4a11628f55a4df523b3ef84604051612b8c91906137a2565b60405180910390a3612b9f848484612c2e565b50505050565b6000612bb030612c33565b15905090565b600060019054906101000a900460ff16612c05576040517f08c379a0000000000000000000000000000000000000000000000000000000008152600401612bfc90613762565b60405180910390fd5b612c0f8282612c56565b5050565b6001816000016000828254019250508190555050565b505050565b505050565b6000808273ffffffffffffffffffffffffffffffffffffffff163b119050919050565b600060019054906101000a900460ff16612ca5576040517f08c379a0000000000000000000000000000000000000000000000000000000008152600401612c9c90613762565b60405180910390fd5b8160369080519060200190612cbb929190612cd7565b508060379080519060200190612cd2929190612cd7565b505050565b828054612ce3906139b3565b90600052602060002090601f016020900481019282612d055760008555612d4c565b82601f10612d1e57805160ff1916838001178555612d4c565b82800160010185558215612d4c579182015b82811115612d4b578251825591602001919060010190612d30565b5b509050612d599190612da4565b5090565b6040518060a00160405280606081526020016060815260200160608152602001600073ffffffffffffffffffffffffffffffffffffffff1681526020016000151581525090565b5b80821115612dbd576000816000905550600101612da5565b5090565b6000612dd4612dcf846137fd565b6137d8565b905082815260208101848484011115612dec57600080fd5b612df7848285613971565b509392505050565b600081359050612e0e81613d9e565b92915050565b600082601f830112612e2557600080fd5b8135612e35848260208601612dc1565b91505092915050565b600081359050612e4d81613db5565b92915050565b600060208284031215612e6557600080fd5b6000612e7384828501612dff565b91505092915050565b60008060408385031215612e8f57600080fd5b6000612e9d85828601612dff565b9250506020612eae85828601612dff565b9150509250929050565b600080600060608486031215612ecd57600080fd5b6000612edb86828701612dff565b9350506020612eec86828701612dff565b9250506040612efd86828701612e3e565b9150509250925092565b60008060408385031215612f1a57600080fd5b6000612f2885828601612dff565b925050602083013567ffffffffffffffff811115612f4557600080fd5b612f5185828601612e14565b9150509250929050565b60008060408385031215612f6e57600080fd5b6000612f7c85828601612dff565b9250506020612f8d85828601612e3e565b9150509250929050565b600060208284031215612fa957600080fd5b600082013567ffffffffffffffff811115612fc357600080fd5b612fcf84828501612e14565b91505092915050565b600080600060608486031215612fed57600080fd5b600084013567ffffffffffffffff81111561300757600080fd5b61301386828701612e14565b935050602084013567ffffffffffffffff81111561303057600080fd5b61303c86828701612e14565b925050604084013567ffffffffffffffff81111561305957600080fd5b61306586828701612e14565b9150509250925092565b6000806000806080858703121561308557600080fd5b600085013567ffffffffffffffff81111561309f57600080fd5b6130ab87828801612e14565b945050602085013567ffffffffffffffff8111156130c857600080fd5b6130d487828801612e14565b935050604085013567ffffffffffffffff8111156130f157600080fd5b6130fd87828801612e14565b925050606085013567ffffffffffffffff81111561311a57600080fd5b61312687828801612e14565b91505092959194509250565b60006020828403121561314457600080fd5b600061315284828501612e3e565b91505092915050565b6000613167838361348c565b905092915050565b6131788161391c565b82525050565b6131878161390a565b82525050565b6131968161390a565b82525050565b60006131a782613853565b6131b18185613876565b9350836020820285016131c38561382e565b8060005b858110156131ff57848403895281516131e0858261315b565b94506131eb83613869565b925060208a019950506001810190506131c7565b50829750879550505050505092915050565b61321a8161392e565b82525050565b6132298161392e565b82525050565b600061323a8261385e565b6132448185613887565b9350613254818560208601613980565b61325d81613aec565b840191505092915050565b60006132738261385e565b61327d8185613898565b935061328d818560208601613980565b61329681613aec565b840191505092915050565b60006132ac8261385e565b6132b681856138a9565b93506132c6818560208601613980565b80840191505092915050565b600081546132df816139b3565b6132e981866138a9565b94506001821660008114613304576001811461331557613348565b60ff19831686528186019350613348565b61331e8561383e565b60005b8381101561334057815481890152600182019150602081019050613321565b838801955050505b50505092915050565b600061335e602383613898565b915061336982613afd565b604082019050919050565b6000613381602283613898565b915061338c82613b4c565b604082019050919050565b60006133a4601d83613898565b91506133af82613b9b565b602082019050919050565b60006133c7602683613898565b91506133d282613bc4565b604082019050919050565b60006133ea602e83613898565b91506133f582613c13565b604082019050919050565b600061340d602583613898565b915061341882613c62565b604082019050919050565b6000613430602483613898565b915061343b82613cb1565b604082019050919050565b6000613453602b83613898565b915061345e82613d00565b604082019050919050565b6000613476602583613898565b915061348182613d4f565b604082019050919050565b600060a08301600083015184820360008601526134a9828261322f565b915050602083015184820360208601526134c3828261322f565b915050604083015184820360408601526134dd828261322f565b91505060608301516134f2606086018261317e565b5060808301516135056080860182613211565b508091505092915050565b6135198161395a565b82525050565b61352881613964565b82525050565b600061353a82846132a1565b915081905092915050565b600061355182846132d2565b915081905092915050565b6000602082019050613571600083018461318d565b92915050565b600060208201905061358c600083018461316f565b92915050565b60006040820190506135a7600083018561318d565b6135b46020830184613220565b9392505050565b600060208201905081810360008301526135d5818461319c565b905092915050565b60006020820190506135f26000830184613220565b92915050565b600060208201905081810360008301526136128184613268565b905092915050565b600060a08201905081810360008301526136348188613268565b905081810360208301526136488187613268565b9050818103604083015261365c8186613268565b905061366b606083018561318d565b6136786080830184613220565b9695505050505050565b6000602082019050818103600083015261369b81613351565b9050919050565b600060208201905081810360008301526136bb81613374565b9050919050565b600060208201905081810360008301526136db81613397565b9050919050565b600060208201905081810360008301526136fb816133ba565b9050919050565b6000602082019050818103600083015261371b816133dd565b9050919050565b6000602082019050818103600083015261373b81613400565b9050919050565b6000602082019050818103600083015261375b81613423565b9050919050565b6000602082019050818103600083015261377b81613446565b9050919050565b6000602082019050818103600083015261379b81613469565b9050919050565b60006020820190506137b76000830184613510565b92915050565b60006020820190506137d2600083018461351f565b92915050565b60006137e26137f3565b90506137ee82826139e5565b919050565b6000604051905090565b600067ffffffffffffffff82111561381857613817613abd565b5b61382182613aec565b9050602081019050919050565b6000819050602082019050919050565b60008190508160005260206000209050919050565b600081519050919050565b600081519050919050565b6000602082019050919050565b600082825260208201905092915050565b600082825260208201905092915050565b600082825260208201905092915050565b600081905092915050565b60006138bf8261395a565b91506138ca8361395a565b9250827fffffffffffffffffffffffffffffffffffffffffffffffffffffffffffffffff038211156138ff576138fe613a5f565b5b828201905092915050565b60006139158261393a565b9050919050565b60006139278261393a565b9050919050565b60008115159050919050565b600073ffffffffffffffffffffffffffffffffffffffff82169050919050565b6000819050919050565b600060ff82169050919050565b82818337600083830152505050565b60005b8381101561399e578082015181840152602081019050613983565b838111156139ad576000848401525b50505050565b600060028204905060018216806139cb57607f821691505b602082108114156139df576139de613a8e565b5b50919050565b6139ee82613aec565b810181811067ffffffffffffffff82111715613a0d57613a0c613abd565b5b80604052505050565b6000613a218261395a565b91507fffffffffffffffffffffffffffffffffffffffffffffffffffffffffffffffff821415613a5457613a53613a5f565b5b600182019050919050565b7f4e487b7100000000000000000000000000000000000000000000000000000000600052601160045260246000fd5b7f4e487b7100000000000000000000000000000000000000000000000000000000600052602260045260246000fd5b7f4e487b7100000000000000000000000000000000000000000000000000000000600052604160045260246000fd5b6000601f19601f8301169050919050565b7f45524332303a207472616e7366657220746f20746865207a65726f206164647260008201527f6573730000000000000000000000000000000000000000000000000000000000602082015250565b7f45524332303a20617070726f766520746f20746865207a65726f20616464726560008201527f7373000000000000000000000000000000000000000000000000000000000000602082015250565b7f45524332303a20696e73756666696369656e7420616c6c6f77616e6365000000600082015250565b7f45524332303a207472616e7366657220616d6f756e742065786365656473206260008201527f616c616e63650000000000000000000000000000000000000000000000000000602082015250565b7f496e697469616c697a61626c653a20636f6e747261637420697320616c72656160008201527f647920696e697469616c697a6564000000000000000000000000000000000000602082015250565b7f45524332303a207472616e736665722066726f6d20746865207a65726f20616460008201527f6472657373000000000000000000000000000000000000000000000000000000602082015250565b7f45524332303a20617070726f76652066726f6d20746865207a65726f2061646460008201527f7265737300000000000000000000000000000000000000000000000000000000602082015250565b7f496e697469616c697a61626c653a20636f6e7472616374206973206e6f74206960008201527f6e697469616c697a696e67000000000000000000000000000000000000000000602082015250565b7f45524332303a2064656372656173656420616c6c6f77616e63652062656c6f7760008201527f207a65726f000000000000000000000000000000000000000000000000000000602082015250565b613da78161390a565b8114613db257600080fd5b50565b613dbe8161395a565b8114613dc957600080fd5b5056fea2646970667358221220733fd7784adce789c32f14f9ce63ceead131a879254fa9a67dcaad7b800ac68b64736f6c63430008040033",
  "linkReferences": {},
  "deployedLinkReferences": {}
}